:100000000C94000C0C946F270C9496270C94280CDD
:100010000C94280C0C94280C0C94280C0C94280C90
:100020000C94280C0C94280C0C94280C0C94280C80
:100030000C94280C0C94280C0C94280C0C94280C70
:100040000C94BD270C94280C0C94280C0C94280CB0
:100050000C94280C0C94280C0C94280C0C94280C50
:100060000C94E00E0C94280C4F1F811FDA1FF81F10
:100070001620332050203021302130216D20722075
:100080008F20AC20C920E62003218D229B22A222B2
:10009000FB22F522A822DE22E622ED22F322932380
:1000A000AA23B323B723EF23EF23BE23C723D123F0
:1000B000D523DC2334249424C124E6240B253825BD
:1000C0007425282728278D259D25C225E7250C2660
:1000D000402671269A2607634236B79BD8A71A395D
:1000E000685618AEBAAB558C1D3CB7CC5763BD6D86
:1000F000EDFD753EF6177231BF000000803F08002D
:100100000000BE922449123EABAAAA2ABECDCCCC96
:100110004C3E00000080BEABAAAAAA3E0000000030
:10012000BF000000803F0000000000084178D3BB02
:100130004387D1133D190E3CC3BD4282AD2B3E68AF
:10014000EC8276BED98FE1A93E4C80EFFFBE01C4A0
:10015000FF7F3F0000000000000005000A001400BF
:100160001E00280032003C00460050005A00640087
:100170006E00780082008C009600A000AA00B400F7
:10018000BE00C800FA002C015E019001C201F4011A
:100190005802BC0220038403E803B004780540063B
:1001A0000807D007C409B80BAC0DA00F9411881331
:1001B0007C1570176419581B4C1D401F000010DC83
:1001C00011DC12DC129313DC13B0139314FB14DC58
:1001D00014C414B014A01493148715FC15EB15DC8B
:1001E00015CF15C415B915B0158D16EB16C916B077
:1001F000169D168D17EB17C917B0179D178D18EBA5
:1002000018C918B0189D188D19E119BC19A1198DBC
:100210001AFB1AE11ACC1ABB1AAD1AA11A961A8D3A
:100220000000030520600000001700000300030A1F
:100230001F0A16131A09040A0A151A030000000EF1
:1002400011110E00060600040E040C1C0004040428
:100250001000001804031F111F021F001D151715A1
:10026000151F0F081E17151D1F151D01011F1F1536
:100270001F17151F000A00001A00040A110A0A0AB3
:10028000110A040015071F15171F051F1F151B1F37
:1002900011111F110E1F15151F05011F111D1F0420
:1002A0001F111F1108100F1F041B1F10101F061F06
:1002B0001C041C1F111F1F05070E191E1F051B17ED
:1002C000151D011F011F101F0F100F1F0C1F1B04F6
:1002D0001B17141F191513001F11030418111F00F9
:1002E00006010610101001010218141C1F141C1C1A
:1002F00014141C141F0C1A14041E0517151E1F04B9
:100300001C001D0008100D1F0C1A001F00180C18EF
:100310001804181E121E1F050707051F1E040412CD
:100320001509021F021C101C0C100C0C180C1408D0
:1003300014161806041C10040E11001F00110E04E0
:100340000204021F1F1F00000A0F205F00000000B0
:10035000000000000000000000000000000000009D
:1003600000000000FEFE000000000000000019195F
:100370000000000000001E1E00001E1E0000000005
:1003800000000000000000000030FEFE3030FEFEE5
:10039000300000031F1F03031F1F03000070F8D865
:1003A000FE9898000000000C18187F191F0F00001D
:1003B0001CB6A2F6CC60602030000101000E1B11BB
:1003C0001B0E00000000DC7EE6C6860C8080000765
:1003D0000F1C18191F1E1F13000000001E1E000016
:1003E000000000000000000000000000000000E02D
:1003F000FC1E02000000000000073F7840000000E3
:100400000000021EFCE000000000000040783F07F2
:100410000000000000487830FE30784800000000FE
:10042000000001000000000000808080F0F080806B
:100430008000000101010F0F010101000000000018
:10044000000000000000000000407C3C00000000B4
:100450000000000000000000000000000303030390
:100460000300000000000000000000000000000089
:1004700000001C1C0000000000000000C0F03C0E4A
:1004800002000020381E07010000000000F0FC0EF2
:10049000C6C60EFCF80000030F1C18181C0F07003E
:1004A00000000C06FEFE00000000001818181F1FB8
:1004B00018181800000C06060686C67C38000018BE
:1004C0001C1E1B1918181800000C06C6C6C6C6FC50
:1004D0003800000C18181818190F0F000080C07091
:1004E000180EFEFE00000003030303031F1F03009A
:1004F00000FE7E666666E6C68000000C18181818B6
:100500001C0F070000F0FCCE6666E6CC80000007FA
:100510000F1C18181C0F07000006060606E6FE3E14
:100520000E000000101C0F03000000000038FCC685
:10053000C6C6C6FC3800000F0F181818180F0F0099
:100540000078FCCE8686CEFCF80000000C19191944
:100550001C0F030000000000E0E0000000000000AD
:1005600000001C1C0000000000000000E0E0000093
:100570000000000000407C3C00000000008080C0C3
:1005800040606020300000010103020606040C00F8
:10059000006060606060606060000006060606063D
:1005A00006060600003020606040C0808000000C1D
:1005B0000406060203010100000C0686C6667E1CC6
:1005C00000000000001B1B0000000000E0F0389C51
:1005D000CCCCDCF8F000071F38736766667727001D
:1005E0000000C0FC3E3EFCC0000000181F0F0303CB
:1005F0000F1F180000FEFEC6C6C6C6FC3C00001F4A
:100600001F181818181F0F0000F0FC0C060606062D
:100610000C0000030F0C181818180C0000FEFE0642
:1006200006060CFCF000001F1F1818180C0F030022
:1006300000FEFEC6C6C6C6C60600001F1F18181854
:100640001818180000FEFEC6C6C6C6C60600001F63
:100650001F0000000000000000F0FC0C06868686EB
:100660008C0000030F0C1819191F0F0000FEFEC0AC
:10067000C0C0C0FEFE00001F1F000000001F1F00C2
:1006800000000606FEFE06060000000018181F1FE8
:100690001818000000000000060606FEFE00000C10
:1006A00018181818180F0F0000FEFEE0F0FC0E06D8
:1006B0000200001F1F0000030F1E180000FEFE00B6
:1006C000000000000000001F1F181818181818005C
:1006D00000FEFE3EF0F03EFEFE00001F1F00010186
:1006E000001F1F0000FEFE1EF0C000FEFE00001FE7
:1006F0001F0000031E1F1F0000F0FC0E06060EFC6C
:10070000F00000030F1C18181C0F030000FEFEC6AB
:10071000C6C6C67C7C00001F1F0000000000000051
:1007200000F0FC0E06060EFCF00000030F1C18186B
:100730003C6F070000FEFEC6C6C6C6FC3C00001F9C
:100740001F000001031F1E1000387CE6C6C6C68CC1
:100750000000000C18181818190F0F0000060606E4
:10076000FEFE06060600000000001F1F000000003D
:1007700000FEFE00000000FEFE0000070F1C18181F
:100780001C0F07000006FEFC0000FCFE0600000037
:10079000001F1F1F1F0000001EFEE000F0F000E021
:1007A000FE1E001F1F1E01011E1F1F0000020E3E25
:1007B000F8F83E0E020000101C1F03031F1C10005F
:1007C000020E3E78E0E0783E0E02000000001F1F9F
:1007D0000000000000060686C6F67E1E0E00001C05
:1007E0001E1F1B1818181800000000FEFE02020051
:1007F00000000000007F7F404000000000020E3833
:10080000E080000000000000000000030E3820001F
:1008100000000202FEFE00000000000040407F7F5A
:100820000000000010181C0E060E1C18100000001E
:1008300000000000000000000000000000000000B8
:100840000000404040404040404040400000010324
:10085000060400000000000000000000000000008E
:1008600000006030B0B0B0F0E000000E1F1B19199E
:100870000D1F1F0000FEFE60303070E0C000001F42
:100880001F0C18181C0F070000C0E070303030300B
:10089000600000070F1C181818180C0000C0E0704A
:1008A000303060FEFE0000070F1C18180C1F1F00E0
:1008B00000C0E0B0B0B0B0E0C00000070F1D1919D3
:1008C00019190D00003030FCFE36363600000000ED
:1008D000001F1F000000000000C0E070303060F01A
:1008E000F0000003376E6C6C667F3F0000FEFE6018
:1008F000303030F0E000001F1F000000001F1F001C
:1009000000003030F7F700000000001818181F1F13
:100910001818180000003030F7F7000000000060E1
:1009200060607F3F0000000000FEFE80E07030103D
:100930000000001F1F0103071E181000000606FE1E
:10094000FE00000000000000000F1F181818000033
:1009500000F0F030F0E030F0E000001F1F001F1F3B
:10096000001F1F0000F0F060303030F0E000001F8A
:100970001F000000001F1F0000C0E070303070E05A
:10098000C00000070F1C18181C0F070000F0F060D3
:10099000303070E0C000007F7F060C0C0E070300B3
:1009A00000C0E070303060F0F0000003070E0C0C67
:1009B000067F7F000000F0F0603030303000000033
:1009C0001F1F00000000000000E0F0B0B0B0B03029
:1009D0006000000C191919191B1F0E00003030FCA3
:1009E000FC30303000000000000F1F181818000005
:1009F00000F0F000000000F0F000000F1F181818C1
:100A00000C1F1F000030F0E00000E0F0300000009C
:100A1000010F1E1E0F01000070F00000C0C000009A
:100A2000F07000071F1E03031E1F0700001030F0A8
:100A3000C0C0F03010000010181E07071E1810006C
:100A40000010F0F08000F0F03000000060637F1FC5
:100A50000F0100000030303030B0F070300000186E
:100A60001C1E1B191818180000000000FCFE0202D2
:100A70000000000001013E7E404000000000000038
:100A8000FEFE00000000000000007F7F000000006C
:100A900000000202FEFC00000000000040407E3E1C
:100AA000010100000080C0C0C0808080C000000143
:100AB000000000010101000014610A0B2060020225
:100AC00003060508080103030505020302050506E0
:100AD00005050605050505050202050505050A06C5
:100AE00006050705050707020306040907070508A9
:100AF00006050607060A06060503050305060205A0
:100B0000050405050306050202050208050505059D
:100B10000304030505080505040301040506000098
:100B20000000BEBE20200E000E00000048E85EE877
:100B30005E480020002000009C3E33F2E40020606C
:100B400020000C128C6018C620C00000200000009D
:100B50002000C0EC3E327ECCE000002020202000AF
:100B600020200E00F0FC060060C006FCF0C0600013
:100B7000120C3F0C1200000000002020F820200082
:100B8000000000008080E0602020200000008080C5
:100B900020200080700C03C020000000FCFE02FE3C
:100BA000FC00202020000804FEFE00002020202061
:100BB000202084C2623E1C2020202020841212FEAD
:100BC000EC0020202000605846FEFE40000000207F
:100BD00020001E1E12F2E22020202000FCFE12F255
:100BE000E2002020200002C2FA3E06002020000081
:100BF000ECFE12FEEC00202020001C3E22FEFC2019
:100C000020202000989820209898E060205050885C
:100C100088000000000050505050500000000000BC
:100C20008888505020000000000002B2B21E0C0064
:100C300020200000F00864928A4AF29A847800200A
:100C40004040404040000000E0F84E4EF8E02020D8
:100C500000002020FEFE1212FEEC202020202000AA
:100C6000FCFE0202840020202000FEFE020286FC20
:100C70007820202020200000FEFE121212202020CA
:100C80002020FEFE1212122020000000FCFE0202B4
:100C900022E2E400202020202000FEFE101010FEA2
:100CA000FE20200000002020FEFE202000FEFE206E
:100CB0002000FEFE30FCCE02202000002020FEFEA0
:100CC000000020202020FEFE1C70C0701CFEFE20B4
:100CD0002000002000002020FEFE0C30C0FEFE2080
:100CE000200000002020FCFE020202FEFC0020206A
:100CF00020202000FEFE223E1C2020000000FCFEE2
:100D0000020202FEFC000020202020204040FEFEC7
:100D10001232FECC2020000020209C3E32F2E40063
:100D2000202020000202FEFE02020000202000001F
:100D3000FEFE000000FEFE002020202020000E7E8F
:100D4000E0E07E0E000020200000063EF8C03E3E9F
:100D5000C0F83E060000202000002020000086CEC3
:100D60007878CE86202000002020061EF8F81E0687
:100D700000002020000082E27A1E06202020202091
:100D8000FEFE02E0E080030C70800000000020C046
:100D900002FEFE80E0E0100C020C100000000000DB
:100DA0000000000000008080808080800102000040
:100DB000C8E828F8F00020202020FEFE08F8F020E7
:100DC00020202000F0F8080800202020F0F808FE7D
:100DD000FE0020202020F0F828383000202020209D
:100DE000FCFE0A202000B0F848783808C0E0A0E0F7
:100DF0006000FEFE08F8F02020002020FBFB2020F1
:100E0000FBFBE060FEFE60F8982020002020FEFE44
:100E10002020F8F808F8F008F8F020200020200042
:100E20002020F8F808F8F02020002020F0F808F83A
:100E3000F00020202000F8F808F8F0E0E020200082
:100E4000F0F808F8F8002020E0E0F8F8082020008A
:100E50003078E8C820202000FCFC08002020F8F8AA
:100E600000F8F8002020202038F880F838002020F2
:100E7000200038F8C03838C0F838002020000020A2
:100E8000200098F860F898202000202038F880F89A
:100E90003800C0E0200088E8781820202020FCDE00
:100EA0000260E080FEE002DEFC2080E060001008CE
:100EB0001810080000000000FE026A3A02FE20201E
:100EC0002020202022080D0E2060040205060708BD
:100ED00009020303050802040204070707070707BE
:100EE000070707070202070707080E09080808078F
:100EF000070908020708070B080907090907080876
:100F0000090D070808040404060803070706070775
:100F1000050707020306020A070707070506050774
:100F2000070B060705050105070800000000000083
:100F30000000FEFE18181E1E001E1E00000000000D
:100F400090F89E90F89E1C00001C0000183C26FFA4
:100F500066CC88040C183C180C041C221CC0308E73
:100F6000408000001804000C100C80CC7E72F2DE71
:100F70000C80000C1C1010101C0C1C101E1E0000FD
:100F8000F0FC061C7CC006FCF0C07C1C14140E1483
:100F9000140000000000606060FCFC606060000005
:100FA000000C0C00000000005838C0C0C0C0000099
:100FB00000000000181800C0380618040000F8FCF3
:100FC0000E060EFCF8040C1C181C0C0400180CFE79
:100FD000FE00000018181C1C1818181C86C6663E57
:100FE0001C181C1C18181818888C062626FEDC04F1
:100FF0000C1C18180C04C0E0B88CFEFE800404041D
:10100000041C1C04707E3E3636F6C60C1C181818DC
:101010000C04F8FC6E6666EECC040C1818181C0C58
:10102000060606E6761E0600001C1C0000009CFE5C
:10103000666666FE9C0C1C1818181C0C3C7E6666C6
:1010400066FCF80C1C18181C0C0418181818181832
:1010500058386060F0F098980C0000000004040C10
:10106000D8D8D8D8D8D8D8000000000000000C98F4
:1010700098F0F060600C040400000000080C06C644
:10108000E6763C180000001818000000E03008C4A4
:10109000F63A1A1AF2FA7E0408F00C30604C9C986A
:1010A000988C9C9C90484C2000C0F8BE86BEF8C02E
:1010B00000181C04040404041C18FEFE6666666620
:1010C000FEDC1C1C181818181C0CF8FC0E06060E6A
:1010D0009C08040C1C18181C0C04FEFE0606060EC8
:1010E000FCF81C1C1818181C0C04FEFE66666666CC
:1010F000661C1C1818181818FEFE66666666061C24
:101100001C0000000000F8FC0E0606C6CEDCC80479
:101110000C1C181818180C04FEFE60606060FEFEBF
:101120001C1C000000001C1CFEFE1C1C808000001B
:1011300000FEFE0C1C1818181C0CFEFE603078EC2B
:1011400086021C1C000000041C18FEFE00000000AB
:10115000001C1C1818181818FEFE0E7CE000E07C1D
:101160000EFEFE1C1C00000C1C0C00001C1CFEFED5
:101170001C78E080FEFE1C1C0000040C1C1CF8FC0B
:101180000E0606060EFCF8040C1C1818181C0C049D
:10119000FEFE6666667E3C1C1C0000000000F8FC3B
:1011A0000E0686060EFCF8040C1C18181C0C1C24D9
:1011B000FEFE6666E6E6BE1C001C1C0000000C1C61
:1011C00018103C7E666666EECC0C1C1818181C0CB9
:1011D000060606FEFE0606060000001C1C000000B7
:1011E000FEFE00000000FEFE040C1C18181C0C047F
:1011F000021EFCE000E0FC1E020000001C1C1C00A3
:10120000000006FEF800F0FE0EFEF000F8FE0600FC
:10121000001C1C1C0000001C1C1C0000060EF8F02A
:10122000F80E06181C0400041C18060E38F0F038DE
:101230000E060000001C1C000000060686E6761E56
:101240000E06181C1C1818181818FEFE0606FCFCC2
:10125000C0C00638C000000004180606FEFEC0C06C
:10126000FCFC20380E0E38200000000000000000BA
:101270000000000000008080808080808080020666
:10128000040000001098D858F8F0000C1C18180C36
:101290001C10FEFE301838F0E01C1C0C181C0C044E
:1012A000E0F018183830040C18181C0CE0F038184E
:1012B00030FEFE040C1C180C1C1CE0F0D8D8D8F032
:1012C000E0040C181818180818FCFE1A1A001C1C48
:1012D0000000E0F0381830F8F864ECDCD8CCFC7C86
:1012E000FEFE301818F8F01C1C0000001C1CFAFA56
:1012F0001C1C00FAFAC0FC7CFEFEE0F098081C1CE6
:1013000000041C18FEFE1C1CF8F81018F8F0181841
:10131000F8F01C1C00001C1C00001C1CF8F8301805
:1013200018F8F01C1C0000001C1CE0F0381838F005
:10133000E0040C1C181C0C04F8F8301838F0E0FC21
:10134000FC0C181C0C04E0F0381830F8F8040C1CE5
:10135000180CFCFCF8F83018181C1C00000070F881
:10136000D8D8D890081818181C0C18FCFE181800AB
:101370000C1C1818F8F8000000F8F80C1C18180CD1
:101380001C1C38F8C000C0F83800001C1C1C0000F1
:1013900018F8E000F038F000E0F81800001C1C0C11
:1013A000000C1C1C00001838E0E03818181C04045D
:1013B0001C1818F8E000E0F8180084FCF83C040061
:1013C0001898D878381C1C18181880FC7E0606005F
:1013D0007CFCC0C0FEFC06067EFC80C0C0FC7C001D
:1013E0006030307060603000000000000000FE02DD
:1013F0000202020202FE1C1010101010101C099DA7
:10140000050720600101030505050501020205032A
:10141000010201030402040404040404040401019D
:10142000030303040504040404040404040304057E
:101430000305050504050404030405050505050267
:101440000302030301040404040404040401030468
:101450000105040404040404040403050304040350
:101460000103050000BE0E000E28FE28FE28485489
:10147000FE5424462610C8C46C92AA44A0063C42DE
:10148000423C0054385400103810C0101040C0388E
:10149000067C82827C04FEC4A2928C8292926C3082
:1014A0002824FE4E9292727894926002E2120E6CA0
:1014B00092926C0C92523C6C6C1028442828284460
:1014C000281004A2120C6492F2827CFC2222FCFE00
:1014D00092926C7C828244FE82827CFE929282FE98
:1014E0001212027C82A264FE1010FE82FE824080F4
:1014F000807EFE10284482FE8080FE040804FEFEEA
:10150000081020FE7C8282827CFE12120C7C82A259
:1015100042BCFE32528C4C92926402FE027E80806B
:101520007E3E4080403EFE403040FEC6281028C629
:101530000608F00806C2A2928A86FE820638C08299
:10154000FE0402048080800640A8A8707E90887007
:10155000708888507088907E70A8A83010FC1204A3
:1015600010A8A878FE1008F0FA40807AFE20508873
:10157000FEF8083008F0F81008F070888870F82835
:101580002810102828F8F810081090A8A848087EFD
:101590008840788040F87880787880608078D8209B
:1015A000D818A0A078C8A8A898106C82EE826C10F9
:1015B0001008102010000005072061000000000046
:1015C00000005F00000007000700147F147F142450
:1015D0002A7F2A12231308646236495522500005D7
:1015E000030000001C2241000041221C00082A1CAC
:1015F0002A0808083E0808005030000008080808BB
:1016000008006060000020100804023E5149453E79
:1016100000427F400042615149462141454B31180B
:1016200014127F1027454545393C4A49493001711C
:101630000905033649494936064949291E00363607
:10164000000000563600000008142241141414143F
:101650001441221408000201510906324979413E21
:101660007E1111117E7F494949363E414141227F19
:101670004141221C7F494949417F090901013E41FD
:101680004151327F0808087F00417F4100204041DE
:101690003F017F081422417F404040407F02040206
:1016A0007F7F0408107F3E4141413E7F09090906C2
:1016B0003E4151215E7F0919294646494949310178
:1016C000017F01013F4040403F1F2040201F7F20FD
:1016D00018207F63140814630304780403615149DC
:1016E000454300007F4141020408102041417F0032
:1016F0000004020102044040404040000102040096
:1017000020545454787F4844443838444444203862
:101710004444487F3854545418087E090102081480
:1017200054543C7F0804047800447D400020404429
:101730003D00007F10284400417F40007C041804D5
:10174000787C0804047838444444387C1414140821
:10175000081414187C7C08040408485454542004C9
:101760003F4440203C4040207C1C2040201C3C400A
:1017700030403C44281028440C5050503C446454A1
:101780004C44000836410000007F0000004136084C
:101790000008082A1C08081C2A080800060909066F
:1017A0000000000800020100000304070000000020
:1017B000000000000102040810204080010204081B
:1017C000102001020408102004040404040404048A
:1017D00002020202020203030303030300000000EB
:1017E00023002600290000000000250028002B000F
:1017F00000000000240027002A00CB0CF60D4E1636
:1018000011241FBECFEFD8E0DEBFCDBF12E0A0E0B5
:10181000B1E0ECEDFDE502C005900D92A831B107F5
:10182000D9F723E0A8E1B2E001C01D92A13DB207C3
:10183000E1F717E1C0E0D8E104C02297FE010E9461
:10184000E82ECA3FD107C9F70E947C2B0C94EC2EDE
:101850000C94000088E192E00C94A91CCF92DF92D6
:10186000EF92FF92CF93DF9388E192E00E944519B7
:1018700088E192E00E94551988E192E00E94931954
:1018800088E192E00E94072388E192E00E941723FA
:10189000C0901F02D0902002E0902102F09022021E
:1018A00086E0F694E794D794C7948A95D1F788E1B7
:1018B00092E00E94CF19CCE1D2E04881B60188E1E4
:1018C00092E00E94DE196B017C0160911A02709116
:1018D0001B02488188E192E00E94DE196093250294
:1018E00070932602809327029093280288E192E069
:1018F0000E94231A88E192E00E94891AB701A6018A
:1019000088E192E00E94D41A40E050E0BA0188E1F8
:1019100092E00E945B1B88E192E00E94AF1B88E18D
:1019200092E00E94ED1B88E192E00E94171C88E182
:1019300092E00E94751C88E192E00E948D1C41E0BB
:1019400050E06AE27CE080E00E944F2741E050E0F6
:101950006AE27CE081E0DF91CF91FF90EF90DF9031
:10196000CF900C944F2780912902873020F488E192
:1019700092E00E944C2388E192E00E94392188E1A4
:1019800092E00E943B1F88E192E00E94132488E1CC
:1019900092E00C94362788E192E00C9442198091F1
:1019A000220390E020912303821B91090895209146
:1019B000230380912203281750F4E22FF0E0EC5D1E
:1019C000FC4F808190E02F5F2093230308958FEFD9
:1019D0009FEF0895E091230380912203E81730F4EC
:1019E000F0E0EC5DFC4F808190E008958FEF9FEF79
:1019F00008950895CF92DF92EF92FF920F931F9375
:101A0000CF93DF937C01CB018A012091FE02222338
:101A100089F0EB016B01C40ED51ECC15DD0569F014
:101A20006991D701ED91FC910190F081E02DC70102
:101A30000995F3CF642F0E94B70EC801DF91CF91B3
:101A40001F910F91FF90EF90DF90CF900895CF936B
:101A5000DF931F92CDB7DEB769832091FE02222368
:101A6000D1F02091FF02203240F021E030E0FC0173
:101A70003383228380E090E015C080910003E82F3B
:101A8000F0E0EF5FFC4F998190838F5F80930003BC
:101A90008093FF0205C061E0CE0101960E94B70E5F
:101AA00081E090E00F90DF91CF910895FC011382C7
:101AB000128248EE53E060E070E044835583668311
:101AC000778383E191E091838083089510922303CB
:101AD00010922203109200031092FF020C94FA0D50
:101AE00081E08093FE026093210310920003109224
:101AF000FF0208950C94700D0F93062F21E0409182
:101B0000FF0261E073E0809121030E94600E109259
:101B100000031092FF021092FE020F9108958F921F
:101B20009F92AF92BF92CF92DF92EF92FF920F936C
:101B30001F93CF93DF93EC01F62ED42E4801590169
:101B4000EE2019F10E94700D1E2D143008F013E0E4
:101B50001150B8F0E881F98128E0129FB0011124FA
:101B6000A501940104C056954795379527956A9528
:101B7000D2F7CA01B9010190F081E02DCE0109959B
:101B8000E7CF60E0CE010E947C0D4D2D413208F080
:101B900040E22C2D64E273E08F2D0E94180E10920B
:101BA000230380932203DF91CF911F910F91FF9028
:101BB000EF90DF90CF90BF90AF909F908F9008955F
:101BC000CF92EF920F931F93C22EE12C00E010E012
:101BD00098010E948F0D1F910F91EF90CF90089563
:101BE00021E00C94E00D61E00C947C0D82EF92E01A
:101BF0000C94560D1092B10381E08093AF031092C4
:101C0000AE0361E082E10E94232961E083E10E944A
:101C10002329E9EBF0E080818E7F808380818D7FB6
:101C2000808388E48093B80085E48093BC000895A5
:101C3000413208F043C09091B1039111FCCF91E083
:101C40009093B1032093AF032FEF2093440310929E
:101C50008903240F209388039093B0039091B003DD
:101C6000880F892B8093B0038091AE03813061F49B
:101C70001092AE038091B0038093BB008091BC00B2
:101C800083FDF8CF85EC01C085EE8093BC00809188
:101C9000B1038130E1F380918903841710F44091FE
:101CA00089032AE833E0FB01D9018A2F821B8417BC
:101CB00018F48D918193F9CF842F089580E00895D1
:101CC0000F93413208F04AC09091B1039111FCCFBB
:101CD00092E09093B1030093AF039FEF909344037E
:101CE0001092890340938803FB016AE873E0DB01EB
:101CF0009A2F961B941718F491919D93F9CF1092F7
:101D0000B0039091B003880F892B8093B00380912A
:101D1000AE03813061F41092AE038091B0038093E2
:101D2000BB008091BC0083FDF8CF85EC01C085EE3F
:101D30008093BC00222321F08091B1038230E1F333
:101D4000809144038F3F61F080914403803251F0D1
:101D500080914403803341F483E007C081E005C0F3
:101D600080E003C082E001C084E00F9108956132F9
:101D700098F42091B103243089F460936603FC0148
:101D800088E693E0DC012A2F281B261718F42191FE
:101D90002D93F9CF80E0089581E0089582E00895C1
:101DA00085ED8093BC008091BC0084FDFCCF109237
:101DB000B103089585EC8093BC001092B10308959F
:101DC0001F920F920FB60F9211242F933F934F93B0
:101DD0005F936F937F938F939F93AF93BF93EF9393
:101DE000FF938091B900887F803609F49EC078F512
:101DF000883209F45DC090F4803109F456C038F49B
:101E0000882309F4F5C0883009F44FC0F5C0883143
:101E100009F44EC0803209F45FC0EEC0803409F48A
:101E20006AC058F4803309F457C0883309F0E4C01D
:101E3000809344030E94DA0EDFC0803509F44FC05E
:101E4000883509F45DC0883409F0D6C0D3C088391C
:101E500009F4C4C0A8F4883709F467C038F4883698
:101E600009F463C0803709F460C0C6C0883809F43B
:101E7000B5C0803909F45FC0803809F0BDC05BC0CF
:101E8000803B09F483C038F4803A09F466C0883A8C
:101E900009F47CC0B1C0803C09F4A4C0883C09F4BA
:101EA000A1C0883B09F487C0A7C08091B00310C0CF
:101EB0009091890380918803981770F5E0918903C8
:101EC00081E08E0F80938903F0E0E657FC4F80811C
:101ED0008093BB0085EC83C0809344038BC0E0916A
:101EE000890381E08E0F809389038091BB00F0E02D
:101EF000E657FC4F808390918903809188036BC0E3
:101F0000E091890381E08E0F809389038091BB006B
:101F1000F0E0E657FC4F80838091AF0381116AC0E7
:101F200081E08093AE0384EA5EC083E08093B103D6
:101F300010924503CFCF80914503803208F04EC008
:101F4000E091450381E08E0F809345038091BB00B3
:101F5000F0E0EA5BFC4F8083BDCF0E94DA0E8091F7
:101F60004503803230F4E0914503F0E0EA5BFC4F3A
:101F700010826091450370E0E091AA03F091AB03F9
:101F800086E493E009951092450336C084E080937F
:101F9000B1031092670310926603E091AC03F091D5
:101FA000AD03099580916603811105C081E080939E
:101FB000660310926803E091670381E08E0F8093BF
:101FC0006703F0E0E859FC4F80818093BB0090915B
:101FD000670380916603981708F47CCF85E88093A7
:101FE000BC000AC085EC8093BC001092B10304C011
:101FF000109244030E94D00EFF91EF91BF91AF91D8
:102000009F918F917F916F915F914F913F912F9110
:102010000F900FBE0F901F901895CF93DF93EC0198
:102020000E9452161B821A8283E291E09983888370
:102030001F8218868FE789878FE38A871B861C8615
:102040001D861E86DF91CF9108952F923F924F9269
:102050005F926F927F928F929F92AF92BF92CF9238
:10206000DF92EF92FF920F931F93CF93DF9300D0F5
:10207000CDB7DEB71C01162FD22EFE2CEC2C8F2DE7
:1020800090E0840F911D202F30E028173907C4F00D
:10209000242F277081E090E0022E01C0880F0A945F
:1020A000EAF799249A94980E842F887F882EC42E5C
:1020B000CF0CEC2DE87F7E2EAA24A394B12C4FC028
:1020C0002D2DC1010E944A1893C0E42DF0E0852D0A
:1020D000877002C0F595E7958A95E2F7752F7770BE
:1020E000E0FF07C09501072E01C0220F0A94EAF70E
:1020F000622A5394852D877009F449C0773059F4CA
:10210000452F487F612FC1010E94D916662DC1015C
:102110000E944017612C552D5F190515B0F6552EFC
:102120005F0C752F7770551145C0C1F04FEF450F0B
:10213000487F612FC1017A830E94D916C1010E9494
:1021400015177A81F50101C0EE0F7A95EAF76E2F27
:10215000619568236629C1010E9440171F5FD1164F
:1021600008F446C0482D612FC1010E94D916C10153
:102170000E941517682E69205C2C472D612FC10124
:102180000E94D916C1010E941517482EC4CFFFE343
:10219000F51508F4B3CF452D487F612FC101598350
:1021A0007A830E94D916C1010E941517482E7A81A0
:1021B0005981A4CF8FEF9501072E01C0220F0A94F9
:1021C000EAF7E81202C0622A02C020956222773044
:1021D00069F4452F487F612FC10159830E94D916A8
:1021E000662DC1010E944017612C59815F5F99CF14
:1021F0000F900F90DF91CF911F910F91FF90EF9073
:10220000DF90CF90BF90AF909F908F907F906F9016
:102210005F904F903F902F9008952F923F924F9252
:102220005F926F927F928F929F92AF92BF92CF9266
:10223000DF92EF92FF920F931F93CF93DF9300D023
:102240001F92CDB7DEB79B838A83162FD42E922E92
:10225000FE2CEC2C8F2D90E0840F911D202F30E070
:1022600028173907DCF0202F27702F5F81E090E0DE
:10227000022E01C0880F0A94EAF7782E7194802FFD
:10228000887F8983C02ECF18EC2DE87F5E2EAA248C
:10229000A394B12C882483948F1865C0292D8A813A
:1022A0009B810E944A18A1C02A94822D8770873092
:1022B00061F4422D487F612F8A819B810E94D9164B
:1022C0008A819B810E941517682E2D1430F1E62D0E
:1022D000F0E0822D877002C0F595E7958A95E2F7C8
:1022E000332D3770E0FF07C0C501032E01C0880FF2
:1022F0000A94EAF7482A31110DC0432D487F612F17
:102300008A819B810E94D916642D8A819B810E94BB
:102310004017412C3A942110C7CF2F2C632C6F18F3
:10232000462D420D21103CC0482D430D842F87704F
:10233000282EC1F0487F612F8A819B810E94D91687
:102340008A819B810E9415179501022C01C0220FE2
:102350000A94EAF76FEF620F682364298A819B81F0
:102360000E9440171F5F911608F43FC04981612FFA
:102370008A819B810E94D9168A819B810E941517B0
:10238000482E47202C2C452D612F8A819B810E944D
:10239000D9168A819B810E941517682E302E95CF01
:1023A000642F6770FFEFEF1208C0C501062E01C051
:1023B000880F0A94EAF7482A08C09501062E01C042
:1023C000220F0A94EAF72095422261110CC0487F3F
:1023D000612F8A819B810E94D916642D8A819B81FD
:1023E0000E944017412C2A949BCF0F900F900F9082
:1023F000DF91CF911F910F91FF90EF90DF90CF90E1
:10240000BF90AF909F908F907F906F905F904F9014
:102410003F902F900895CF92EF920F931F93CF93F9
:10242000DF93EC016A3009F087C08D819E81E091D5
:10243000B203F091B30303960995182FE091B2030C
:10244000F091B3038D819E81099581110BC08D811F
:102450009E81E091B203F091B3030196099581301A
:1024600009F46CC06C852985621768F44D8581E09C
:102470009C819F3F09F480E0E82EE194012F040F36
:10248000CE010E944A188B85ED84212F30E080FD1B
:102490002CC00A85220F331F2E0D311D802F90E096
:1024A00028173907ECF08E85811103C081E08E87F3
:1024B00047C081E09C819F3F09F480E0C82EC19411
:1024C000E394E01A812F880FE80E298548856F81F3
:1024D000CE010E9425108F818C878A85811B29C09F
:1024E0008F818C87E394E10E0CC048856E2D70E0DF
:1024F000240F311D2617370734F48F818C87EA9417
:10250000E11AED8617C08E85882381F281E09C81D7
:102510009F3F09F480E0C82EC194E394E41AE10ED1
:102520000A8529856F81CE010E940D118F818C87CC
:1025300088858D8781E004C080E002C0115092CF71
:10254000DF91CF911F910F91EF90CF9008952F922F
:102550003F924F925F926F927F928F929F92AF9233
:10256000BF92CF92DF92EF92FF920F931F93CF9380
:10257000DF93CDB7DEB766970FB6F894DEBF0FBE18
:10258000CDBF9E8B8D8B162FDC0115968D919C9166
:102590001697892B19F480E090E006C3603228F189
:1025A000ED89FE8985819681E091B203F091B303B4
:1025B00003960995D82EAD89BE8915968D919C916B
:1025C0001697E091B203F091B30304960995C82ED3
:1025D000ED89FE8985819681E091B203F091B30384
:1025E000059609951C1540F4D6CF8D899E890E94C9
:1025F0000B128823A9F2D6C2412F50E0E82EF12C0D
:1026000097012C0D311D421753072CF62D2D30E06C
:102610003E832D83590137E0A30EB11CF3E0B5943E
:10262000A794FA95E1F71C19C12EE091B203F0913D
:10263000B303AD89BE8915968D919C911697099526
:10264000811160C2ED89FE8985819681E091B20396
:10265000F091B30301960995823008F053C2AD8919
:10266000BE8915968D919C911697E091B203F091D9
:10267000B30302960995E82E1A9DC0011B9D900D8B
:102680001124E89E8001E99E100D11240A5F1F4F5E
:10269000912CEE2009F47FCFED89FE898685882371
:1026A00041F06AE0CF010E94A712AD89BE891E9653
:1026B0001C92ED89FE8983856E2C712C81FF15C0DB
:1026C000F48485819681E091B203F091B303029680
:1026D000099590E08619970997FD0196959587953C
:1026E0008F0DAD89BE891C968C93ED89FE898485FA
:1026F0005301A80EB11CE091B203F091B303AD8970
:10270000BE8915968D919C911697099581110DC0E2
:10271000ED89FE8985819681E091B203F091B30342
:102720000196099591E0813009F090E0A91AB1086D
:10273000AD89BE8919968C91199790E08A159B05F1
:102740005CF56AE0CD010E94A712ED89FE898685BD
:10275000882341F06AE0CF010E94A712AD89BE89AB
:102760001E961C92ED89FE89838581FF15C0F48435
:1027700085819681E091B203F091B30302960995A9
:1027800090E08619970997FD0196959587958F0D8D
:10279000AD89BE891C968C93E091B203F091B3038E
:1027A000AD89BE8915968D919C91169709958111D9
:1027B000DAC1ED89FE8985819681E091B203F091BD
:1027C000B30301960995813009F0CDC1AD2CF12CF0
:1027D00028E030E08D2D8770281B31093A8329834A
:1027E0009301200F311F388B2F872A2D30E03C8337
:1027F0002B8322242394312CFA1408F047C1AD898D
:10280000BE891D96BC901D97BF0C4B2D487F1C9612
:102810006C911C97CD010E94D9168F2D86958695B7
:1028200086958E9D9001112438872F83412C512C41
:102830008F2D90E09C01287F4D815E81421B530BC0
:102840005A8749872F8538894F815885240F351F2E
:102850003C872B872B813C81281B390B3E872D879A
:102860002B2D2770C22E4E1408F0B7C0FD1420F592
:102870008F819885800F911F840D951DAD89BE892C
:1028800015964D915C911697E091B203F091B303C8
:10289000840F951F0995882E992079F029853A850E
:1028A0002830310554F490E0098002C09595879551
:1028B0000A94E2F7882E01C0812CAD89BE89149656
:1028C0008C91811101C080943C2D8B2D8F298770B4
:1028D00091F44D855E85483051056CF0AD89BE8917
:1028E0001B968C911B9782FF04C0CD010E94151787
:1028F000882A682D6AC08D899E893B8B0E94151796
:10290000C82E2F2D6B857C85640D751D3B89422F4C
:102910004770882D90E0042E02C0959587950A9403
:10292000E2F780FF08C0C101032E01C0880F0A949E
:10293000EAF7C82A08C0C101032E01C0880F0A9413
:10294000EAF78095C822473061F5ED89FE898581D7
:102950009681E091B203F091B303860F971F298B04
:102960003B8B6C8B7A8B0995882E29893B896C89E6
:102970007A89992079F08D819E81821B910909972E
:102980004CF4882D90E0098002C0959587950A94B3
:10299000E2F7882EAD89BE8914968C91811101C011
:1029A00080942F5F3F5F383059F4ED89FE8983852D
:1029B00082FF0AC08D899E890E941517C82A04C00B
:1029C0002A1508F4A4CFF1CF6C2D8D899E890E9421
:1029D0004017FFEF4F1A5F0A43CFE091B203F09127
:1029E000B303AD89BE8915968D919C911697099573
:1029F00081110CC0ED89FE8985819681E091B20339
:102A0000F091B303019609958130E1F14F2C512CDF
:102A1000C11007C08B819C818419950908970CF01F
:102A2000AAC08D899E890E941517CC2009F49FC0E9
:102A3000B1010C2C01C0660F0A94EAF761502B819A
:102A40003C8124193509283031054CF4A10102C01C
:102A5000440F551F2A95E2F79A012195622BAD8903
:102A6000BE8914969C91911184C06095682BAD89A4
:102A7000BE891B968C911B9782FD85C08D899E898E
:102A80000E944017FC18B8E0FB0EB6CEED89FE8917
:102A900084858E0D8487838581FF19C08581968109
:102AA000E091B203F091B30302960995AD89BE8916
:102AB0001C962C912E19280F90E08619970997FDE6
:102AC000019695958795281BED89FE892487E091CD
:102AD000B203F091B303AD89BE8915968D919C9197
:102AE00016970995811159C0ED89FE8985819681D6
:102AF000E091B203F091B30301960995813009F09A
:102B00004CC050C006E010E0812C912CAD89BE89EC
:102B100015968D919C911697E091B203F091B303B5
:102B20002AEF200F2C1540F4800F911F0995880E75
:102B3000911C0F5F1F4FEACF8A9C90018B9C300D38
:102B40009A9C300D112487010A5F1F4F020F131F3B
:102B50002C2D30E02A5F3F4F820F931F0995E82EFE
:102B60009924939496CDAA24A394AD0C30CE60E022
:102B700066CF68237CCF61E0ED89FE898481811175
:102B800060E0619574CF6F3F09F478CFCD016C8B15
:102B90000E9415176C89682B71CFED89FE89848599
:102BA0008F5F848781E090E066960FB6F894DEBF71
:102BB0000FBECDBFDF91CF911F910F91FF90EF908E
:102BC000DF90CF90BF90AF909F908F907F906F904D
:102BD0005F904F903F902F9008956D3011F00C94BE
:102BE000A71281E090E00895FC018781680F648757
:102BF0008085480F458716860895FC017683658396
:102C00003093B3032093B20344830895CF93DF93AB
:102C1000EC010E940D108BE291E099838883109261
:102C2000C703DF91CF9108950C94EA18FC018491B9
:102C300008950F931F93CF93DF93EC01162F042F6A
:102C40000E94D916402F612FCE01DF91CF911F91A5
:102C50000F910C94F415FF920F931F93CF93DF9372
:102C6000EC01F62E10E0412F60E0CE010E94191613
:102C700000E06F2D84EB93E00E9440170F5F003857
:102C8000C1F7185F103479F740E060E0CE01DF91C2
:102C9000CF911F910F91FF900C94F41584EB93E06A
:102CA0000C9406160895613019F44098419A0895DD
:102CB000409A419808950E9453162098219822988E
:102CC00051988AB18F708AB9289829982A9859986A
:102CD000289A299A2A9A599A8BB1806F8BB9429A6D
:102CE0004398589AC89500C083B181701999826041
:102CF0001A9984604999886099B15898907F892B76
:102D000008950E94531620982198229851988AB1CC
:102D10008F708AB9429A4398589AC89500C04F99C3
:102D2000FECF589808956091C303629566956695A5
:102D300063700E948116429A439A00C0589AC895BF
:102D400000C083B18170199982601A998460499991
:102D5000886099B15898907F892B0895CF93C62F9A
:102D6000642F0E94811642984398209821982298B7
:102D70005198209A219A229A519A8AB1806F8AB9E1
:102D8000289829982A985998C0FD289AC1FD299A0F
:102D9000C2FD2A9AC3FD599A8BB1C07F8F70C82B90
:102DA000CBB900C0589AC895C89500005898CF91E3
:102DB00008950F931F93CF93DF93EC01162F80910B
:102DC000C303681304C08091C403481749F117FD79
:102DD00027C0403428F51093C3034093C403012F48
:102DE0000295069506950370642F6695669566951F
:102DF000E02FF0E0EB53FC4F8081681731F06083E7
:102E0000686B402FCE010E94AE16612F6F73606415
:102E1000402FCE01DF91CF911F910F910C94AE16F0
:102E2000DF91CF911F910F910895EF92FF921F9321
:102E3000CF93DF931F92CDB7DEB77C016091C303C0
:102E400067FD16C069830E949316C7010E949316FE
:102E5000182F8091C7036981811110958FEF80939E
:102E6000C3034091C403C7010E94D916812F01C03A
:102E700080E00F90DF91CF911F91FF90EF90089528
:102E80008F929F92BF92CF92DF92EF92FF920F9319
:102E90001F93CF93DF931F92CDB7DEB74C01062F60
:102EA000D090C303D7FCE9C0D294D694D69483E0E3
:102EB000D8223091C403377009F491C0C40139831A
:102EC0000E941517C82E6D2DC4010E9481164298CC
:102ED000439A2098219822985198209A219A229AD0
:102EE000519A9AB1906F9AB900C0589A10E03981FE
:102EF000E32EF12CC80102C0880F991F3A95E2F722
:102F00009C012C298091C70381112095289829982C
:102F10002A98599820FD289A21FD299A22FD2A9A5B
:102F200023FD599A8BB1207F8F70282B2BB9C89520
:102F3000C89500005898C090C4032C2D30E0285F3D
:102F40003F4F287F203431050CF044C048E04C0D41
:102F5000487F6091C303C4010E94D916C4010E9436
:102F60001517B82E6D2DC4010E9481164298439A00
:102F70002098219822985198209A219A229A519A21
:102F80009AB1906F9AB900C0589A28E030E02E1993
:102F90003F09F80102C0F595E7952A95E2F79F01F0
:102FA0002B298091C70381112095289829982A9868
:102FB000599820FD289A21FD299A22FD2A9A23FD5D
:102FC000599A8BB1207F8F70282B2BB9C895C89543
:102FD000000058986091C3036F5F4C2D3FC06D2D6A
:102FE000C4010E9481164298439A20982198229801
:102FF0005198209A219A229A519A8AB1806F8AB95F
:103000008091C7038111009500C0589A289829988B
:103010002A98599800FD289A01FD299A02FD2A9ABA
:1030200003FD599A8BB1007F8F70082B0BB9C8959F
:10303000C895000058986091C3036F5F6093C30305
:10304000962F92959695969593709D15B1F067FD84
:1030500014C09FEF9093C3034091C403C4010F9029
:10306000DF91CF911F910F91FF90EF90DF90CF9064
:10307000BF909F908F900C94D9160F90DF91CF91B5
:103080001F910F91FF90EF90DF90CF90BF909F9096
:103090008F9008957F928F929F92AF92BF92CF921E
:1030A000DF92EF92FF920F931F93CF93DF93EC0188
:1030B000F62E122F041B0F5F161B1F5F542F577025
:1030C000942E951AC02ED12C88E090E09C01251BEF
:1030D0003109C216D30664F49C012C193D098FEF07
:1030E00090E002C0959587952A95E2F7802E04C05E
:1030F00098E0892E851A8FEFA82E01C0AA0C5A9548
:10310000EAF77A2C492D6F2DCE010E94D916B12CE9
:10311000A094B11678F4CE010E9415179FEF682F86
:10312000E91202C0672901C06A21CE010E9440173E
:10313000B394EFCF8918482D490D842F90E09C015E
:10314000295F3F4F2C153D0584F488E0980E492DEA
:103150006F2DCE010E94D916B12CB11660F76E2DDD
:10316000CE010E944017B394F8CF401728F5C81A33
:10317000D90A8FEF90E00C2C01C0880F0A94EAF76F
:10318000D82ED09448E0490D6F2DCE010E94D9165B
:1031900000E0FD2CF094011778F4CE010E94151781
:1031A0009FEF682FE91202C06D2901C06F21CE0187
:1031B0000E9440170F5FEFCFDF91CF911F910F91CA
:1031C000FF90EF90DF90CF90BF90AF909F908F9047
:1031D0007F900895EF92FF920F931F93CF93DF9309
:1031E000EC013B9A3A9A509A5898389A4098399AF2
:1031F0004198429843988FEF8093C3038093C40310
:103200006093C70362E370E080E090E00E9436289C
:1032100005EC13E0F12CEE24EA946F2DCE010E9410
:103220005B1684FD23C087FD24C0F801E1928F0165
:103230004F2D6FE3CE010E94AE164F2D60ECCE01F4
:103240000E94AE16F394F2E0FF12E7CFE12C0FE3F9
:103250002FE740E060E0CE010E944A1840E060E0C5
:10326000CE010E94D91680E090E005C082E090E097
:1032700002C081E090E0DF91CF911F910F91FF900C
:10328000EF90089542960C94061660E082E00E944A
:10329000EA2860E083E00E94EA2860E085E10E947D
:1032A000EA2860E084E10C94EA28CF93DF93EC01F4
:1032B00061E082E00E94232961E083E00E942329EB
:1032C00082EF92E00E94660D60E070E0CE014296CF
:1032D0000E941416FE01EC53FF4F108231961082AB
:1032E0001C861B861F82188619861A8636961082BF
:1032F000379640E050E060E87FE34083518362838B
:1033000073831D82369710823A9640E050E060E960
:1033100071E44083518362837383C353DF4F188208
:10332000DF91CF9108951F93CF93DF93EC016296C5
:1033300026E136E14FEF65EB75E1CE010E94FD1508
:1033400040E060E0CE010E9419166FE271E0CE010C
:103350000E94C02948E060E0CE010E9419166EE389
:1033600071E0CE010E94C02919E048E06EE4CE0170
:103370000E9419164AE050E0612FCE010E94812A76
:1033800068EE73E080E090E00E943628115069F703
:1033900060E0CE01DF91CF911F910C942B1620E0BD
:1033A00030E0FC01E20FF31FE955FF4F118210825C
:1033B0002E5F3F4F20313105A1F70895CF92DF9264
:1033C000EF92FF92CF93DF93EC0180E090E04423F3
:1033D00039F00E94BF2C2FEB3EED41E053E424C0B6
:1033E0000E94BF2C20E032E848EC56E40E94F52B06
:1033F0000E94DC2D6B017C016BA17CA180E090E040
:103400000E94BF2C9B01AC01C701B6010E94F52BA5
:1034100028EC3EEC4BE55BE30E948D2B9B01AC015D
:1034200060E070E080E89FE30E94F52B23E333E93E
:1034300048E853E40E948C2BDF91CF91FF90EF90EE
:10344000DF90CF900895CF93DF93EC01629626E151
:1034500036E14FEF6EEF73E1CE010E94FD1540E0C3
:1034600060E0CE010E9419166BE471E0CE010E946B
:10347000C02948E160E0CE010E9419166FE471E0B6
:10348000CE010E94C02926E136E14FEF65EB75E1E0
:10349000CE010E94FD1548E16AE5CE010E94191691
:1034A00063E571E0CE010E94C02940E26AE5CE01E9
:1034B0000E94191666E571E0CE010E94C02940E322
:1034C00067E0CE010E94191669E571E0CE010E9405
:1034D000C02940E36AE5CE010E9419166FE571E04C
:1034E000CE010E94C02948E367E0CE010E94191670
:1034F00062E671E0CE010E94C02948E36AE5CE0190
:103500000E94191668E671E0CE01DF91CF910C940C
:10351000C029CF92DF92EF92FF920F931F93CF9328
:10352000DF938C01EC01629626E136E14FEF66E411
:1035300073E0CE010E94FD1540E060E1CE010E94E3
:103540001916F801C584D684E784F08820E030E0BD
:1035500040E251E4C701B6010E94F12B87FF03C08E
:103560006DE771E00CC020E030E048EC52E4C701A8
:10357000B6010E94F12B87FF05C06EE771E0CE0116
:103580000E94C029F801458556856785708923E02A
:1035900030E0CE01DF91CF911F910F91FF90EF901E
:1035A000DF90CF900C94792BCF92DF92EF92FF9225
:1035B0000F931F93CF93DF938C016A017B01EC0182
:1035C000629626E136E14FEF64EC7EE0CE010E9488
:1035D000FD1548E162E1CE010E941916F801E85399
:1035E000FF4F8081882319F06CE671E059C0F80123
:1035F000E753FF4F8081882319F064E771E050C0E2
:1036000020E030E0A901C701B6010E94F12B181695
:10361000FCF020E030E0A901C701B6010E94962D20
:1036200018165CF420E030E040E251E4C701B60136
:103630000E94F12B87FF2BC025C020E030E040E244
:1036400051ECC701B6010E94962D1816DCF01FC080
:1036500020E030E040E251E4C701B6010E94F12BC6
:1036600087FF03C06CE771E00FC020E030E048EC5A
:1036700052E4C701B6010E94F12B87FF03C06DE73A
:1036800071E002C06EE771E0CE010E94C02923E024
:1036900030E0B701A601CE010E94792B6EE771E000
:1036A000CE01DF91CF911F910F91FF90EF90DF90AE
:1036B000CF900C94C029CF92DF92EF92FF92CF93DC
:1036C000DF936A017B01EC01629626E136E14FEF60
:1036D00065EB75E1CE010E94FD1540E365E2CE0188
:1036E0000E94191620E030E0A901C701B6010E942E
:1036F000962D18165CF42FE832EC45E75CE3C70121
:10370000B6010E94F12B18165CF014C02FE832ECC1
:1037100045E75CEBC701B6010E94962D87FF0AC002
:1037200020E030E0A901C701B6010E94F12B87FF1C
:1037300004C008C0C12CD12C76016EE771E0CE0127
:103740000E94C02922E030E0B701A601CE01DF913E
:10375000CF91FF90EF90DF90CF900C94792BCF9288
:10376000DF92EF92FF92CF93DF93EC01FC01E254E2
:10377000FF4F608170E080E090E00E94BF2C2DEC54
:103780003CEC4CE45DE30E944F2E20E030E040E052
:103790005FE30E948D2B6B017C01629626E136E18E
:1037A0004FEF65EB75E1CE010E94FD1548E365E240
:1037B000CE010E9419166EE771E0CE010E94C02969
:1037C00022E030E0B701A601CE01DF91CF91FF905A
:1037D000EF90DF90CF900C94792B0F931F93CF93A2
:1037E000DF938C01EC01629648E166E6CE010E940F
:1037F000191605541F4FF80180818A3018F46CE7C0
:1038000071E007C0843618F46DE771E002C06EE71E
:1038100071E0CE010E94C0294AE050E0F8016081C9
:10382000CE01DF91CF911F910F910C94812ACF92FD
:10383000DF92EF92FF920F931F93CF93DF93EC01F0
:10384000FC01ED53FF4FE081F0E0EE0FFF1FE85A5F
:10385000FE4F6591749180E090E00E94BF2C20E0C3
:1038600030E048EC52E40E94F52B6B017C018E01A4
:103870000E5E1F4F40E266E6C8010E941916CD5346
:10388000DF4F8881813019F422E030E021C080329E
:10389000C0F46EE771E0C8010E94C02988818111DF
:1038A0000DC060E871E0C801DF91CF911F910F91C9
:1038B000FF90EF90DF90CF900C94C02921E030E092
:1038C00007C06DE771E0C8010E94C02920E030E028
:1038D000B701A601C801DF91CF911F910F91FF9011
:1038E000EF90DF90CF900C94792B0F931F93CF9391
:1038F000DF938C01EC01629640E366E6CE010E9404
:103900001916F80163A174A14AE050E0CE01DF91DD
:10391000CF911F910F910C94882A0F931F93CF93EF
:10392000DF938C01EC01629648E36CE6CE010E94C5
:103930001916F8018681811103C060E871E002C0A8
:1039400060E971E0CE01DF91CF911F910F910C944E
:10395000C0298F929F92AF92BF92CF92DF92EF9247
:10396000FF920F931F93CF93DF9300D0CDB7DEB7B5
:103970004C010E9407285C01840102531F4FD801AB
:103980008C91B62FB81BB23008F468C0F401E9542A
:10399000FF4F7F01B13510F01182108283E06983FF
:1039A0007A830E9459296C0182E00E94592921E002
:1039B00030E069817A81CD2811F420E030E0220FD7
:1039C000331F41E0892B09F440E0D42ED22AF401C0
:1039D000EA53FF4F8081D7012D913C91A90143709B
:1039E0005527452B81F5B4E08B9FC00111244D2D47
:1039F000482B81E0D401A553BF4F8C934D3031F05B
:103A0000443021F0423011F04B3059F48FEF9FEFEA
:103A1000D40192969C938E93919781E0A453BF4FCB
:103A20008C934E3031F089EF840F823010F04130AA
:103A300051F441E050E0D40192965C934E939197FB
:103A4000A453BF4F1C92D082F80160837183A2827D
:103A5000B3822F5F3F4FD7012D933C930F900F9070
:103A6000DF91CF911F910F91FF90EF90DF90CF905A
:103A7000BF90AF909F908F9008958F929F92AF923A
:103A8000BF92CF92DF92EF92FF926A017B012223D5
:103A900069F023E333E948E853E4C701B6010E9423
:103AA0008D2B2FEB3EED41E053E431C0FC0163A1CF
:103AB00074A180E090E00E94BF2C4B015C01B7FA3A
:103AC000B094B7F8B09423E333E948E853E4C7016E
:103AD000B6010E948D2B9B01AC0160E070E080E894
:103AE0009FE30E94F52B9B01AC0168EC7EEC8BE51B
:103AF0009BE30E948C2B9B01AC01C501B4010E9489
:103B00004F2E0E94622C20E032E848EC56E40E94DE
:103B10004F2E0E94932CCB01FF90EF90DF90CF901F
:103B2000BF90AF909F908F900895CF93DF93EC015B
:103B3000629660E0CE010E942B1626E136E14FEF3F
:103B400068EB7AE0CE010E94FD1544E06CE0CE0106
:103B50000E94191664E971E0CE010E94C02926E195
:103B600036E140E065EB75E1CE010E94FD1540E2D3
:103B70006EE0CE010E94191661EA71E0CE010E944A
:103B8000C02926E136E14FEF60E272E0CE010E94EB
:103B9000FD1549E160E0CE010E94191660EB71E06D
:103BA000CE010E94C0294AE264E2CE010E941916A9
:103BB00067EB71E0CE01DF91CF910C94C029CF93D8
:103BC000DF93EC01629660E0CE010E942B1626E1A5
:103BD00036E14FEF65EB75E1CE010E94FD1540E047
:103BE00060E0CE010E9419166EEC71E0CE010E94D9
:103BF000C02948E060E0CE010E94191666ED71E030
:103C0000CE010E94C02940E160E0CE010E94191659
:103C10006EED71E0CE010E94C02948E160E0CE0166
:103C20000E94191666EE71E0CE010E94C02940E2A2
:103C300060E0CE010E9419166EEE71E0CE010E9486
:103C4000C02948E260E0CE010E94191666EF71E0DB
:103C5000CE010E94C02940E360E0CE010E94191607
:103C60006EEF71E0CE01DF91CF910C94C0290F93DC
:103C70001F93CF93DF938C01EC01629626E136E12E
:103C80004FEF65EB75E1CE010E94FD1540E06AE261
:103C9000CE010E941916F801EF53FF4F4AE050E0A1
:103CA0006081CE010E94812A6DE771E0CE01DF9133
:103CB000CF911F910F910C94C0290F931F93CF9315
:103CC000DF938C01EC01629626E136E14FEF65EB64
:103CD00075E1CE010E94FD1548E06AE2CE010E9426
:103CE0001916F801EE53FF4F4AE050E06081CE0113
:103CF0000E94812A6DE771E0CE01DF91CF911F9183
:103D00000F910C94C0290F931F93CF93DF938C01D5
:103D1000EC01629626E136E14FEF65EB75E1CE01ED
:103D20000E94FD1540E16AE2CE010E941916F801D9
:103D3000E154FF4F4AE050E06081CE010E94812AA9
:103D40006DE771E0CE01DF91CF911F910F910C943F
:103D5000C0290F931F93CF93DF938C01EC016296E0
:103D600026E136E14FEF65EB75E1CE010E94FD15CE
:103D700048E16AE2CE010E941916F80165A176A118
:103D80004AE050E0CE01DF91CF911F910F910C944A
:103D9000882A0F931F93CF93DF938C01EC016296D7
:103DA00026E136E14FEF65EB75E1CE010E94FD158E
:103DB00040E26AE2CE010E941916F801E754FF4F73
:103DC000608171814AE050E0CE010E94882A6DE74F
:103DD00071E0CE01DF91CF911F910F910C94C0291A
:103DE0000F931F93CF93DF938C01EC01629626E132
:103DF00036E14FEF65EB75E1CE010E94FD1548E21B
:103E000061E3CE010E941916F801EA52FF4F40818A
:103E100051816281738122E030E0CE010E94792BD2
:103E20006DE771E0CE01DF91CF911F910F910C945E
:103E3000C0290F931F93CF93DF938C01EC016296FF
:103E400026E136E14FEF65EB75E1CE010E94FD15ED
:103E500048E261E3CE010E941916F801E353FF4FD7
:103E6000608170E04AE050E0CE01DF91CF911F9178
:103E70000F910C946C2ACF92DF92EF92FF920F93E6
:103E80001F93CF93DF93EC01898990E081319105F5
:103E900008F0E6C1FC01EC5CFF4F0C94E62E629644
:103EA00026E136E14FEF65EB75E1CE010E94FD158D
:103EB00048E361E0CE010E9419166EE771E0CE0181
:103EC0000E94C02948E164E5CE010E9419166EE700
:103ED00071E0CE010E94C02940E264E5CE010E945B
:103EE00019166EE771E0CE010E94C02940E364E537
:103EF000CE010E9419166EE771E0CE010E94C02922
:103F000074C08E010E5E1F4F26E136E14FEF66E46E
:103F100073E0C8010E94FD15FE01EE52FF4FC08004
:103F2000D180E280F38020E030E040E85FE3C70129
:103F3000B6010E94F12B811103C040E066E21BC074
:103F40002DEC3CEC4CEC5DE3C701B6010E94F12B7B
:103F5000811103C040E06CE30EC02AE037ED43E27C
:103F60005CE3C701B6010E94F12B40E0811102C061
:103F700067E401C062E5C8010E9419166EE771E0AE
:103F8000C8010E94C02968EC70E080E090E00E94C7
:103F90003628CE010E94891A68EC70E080E090E03B
:103FA000DF91CF911F910F91FF90EF90DF90CF9015
:103FB0000C943628629626E136E140E065EB75E127
:103FC000CE010E94FD1548E361E0CE010E94191662
:103FD0006EE771E0CE010E94C02926E136E14FEF85
:103FE00065EB75E1CE010E94FD1548E364E528C14B
:103FF000629626E136E140E065EB75E1CE010E9474
:10400000FD1548E164E5CE010E9419166EE771E0E6
:10401000CE010E94C02926E136E14FEF65EB75E144
:10402000CE010E94FD1548E361E00AC1629626E1D7
:1040300036E140E065EB75E1CE010E94FD1540E2FE
:1040400064E5CE010E9419166EE771E0CE010E9470
:10405000C02926E136E14FEF65EB75E1CE010E9404
:10406000FD1548E1C3CF629626E136E140E065EBFD
:1040700075E1CE010E94FD1540E364E5CE010E948A
:1040800019166EE771E0CE010E94C02926E136E1E3
:104090004FEF65EB75E1CE010E94FD1540E2A6CF22
:1040A000629626E136E140E065EB75E1CE010E94C3
:1040B000FD1548E364E5CE010E9419166EE771E034
:1040C000CE010E94C02926E136E14FEF65EB75E194
:1040D000CE010E94FD1540E389CF629626E136E1CC
:1040E00040E016C0629626E136E140E065EB75E1FE
:1040F000CE010E94FD1548E060E0CE010E94191635
:104100006EE771E0CE010E94C02926E136E14FEF53
:1041100065EB75E1CE010E94FD1540E090C062960E
:1041200026E136E140E065EB75E1CE010E94FD1528
:1041300040E160E0CE010E9419166EE771E0CE0109
:104140000E94C02926E136E14FEF65EB75E1CE0113
:104150000E94FD1548E073C0629626E136E140E01A
:1041600065EB75E1CE010E94FD1548E160E0CE01EE
:104170000E9419166EE771E0CE010E94C02926E167
:1041800036E14FEF65EB75E1CE010E94FD1540E190
:1041900056C0629626E136E140E065EB75E1CE015E
:1041A0000E94FD1540E260E0CE010E9419166EE704
:1041B00071E0CE010E94C02926E136E14FEF65EBA8
:1041C00075E1CE010E94FD1548E139C0629626E1F5
:1041D00036E140E065EB75E1CE010E94FD1548E255
:1041E00060E0CE010E9419166EE771E0CE010E94D8
:1041F000C02926E136E14FEF65EB75E1CE010E9463
:10420000FD1540E21CC0629626E136E140E065EB18
:1042100075E1CE010E94FD1540E360E0CE010E94F1
:1042200019166EE771E0CE010E94C02926E136E141
:104230004FEF65EB75E1CE010E94FD1548E260E0AD
:10424000CE010E9419166EE771E0CE01DF91CF9189
:104250001F910F91FF90EF90DF90CF900C94C029A9
:10426000DF91CF911F910F91FF90EF90DF90CF9052
:104270000895AF92BF92CF92DF92EF92FF920F9389
:104280001F93CF93DF93EC0185E10E94A428853F23
:1042900091403CF081E0FE01E653FF4F808333976D
:1042A000108285E10E94A428853F91400CF0E9C06E
:1042B0008989823028F58E0106531F4FF8018081CD
:1042C0008823F1F00E9407286B017C010E940728D7
:1042D00056017B01EC18FD0885E10E94A428853F6A
:1042E00091400CF0C1C028EEE21623E0F20608F47B
:1042F000B5C082E0898BF8011082CE010E943B1F7D
:104300008989823090F5FE01E653FF4F8081882332
:1043100061F181E0898B10828E010E521F4FF801EE
:10432000C080D180E280F3802FE632E143E85AE397
:10433000C701B6010E94F12B181654F080E090E0FE
:10434000A0E8BFE3F80180839183A283B3830DC00B
:1043500020E030E040E251E4C701B6010E94F52BB5
:10436000F8016083718382839383898982508530C9
:10437000C0F50E9407286B017C010E940728860176
:104380007B01EC18FD0885E10E94A428853F91403F
:10439000ECF428EEE21623E0F20608F46CC09989EA
:1043A0009F5F998BFE01E953FF4F80818F5F808370
:1043B00033961082973010F092E0998B8D3088F010
:1043C00089E0898BCE010E94951D0BC028EEE21674
:1043D00023E0F20620F7FE01E653FF4F80818111B2
:1043E000198A89898950883008F04BC0FE01E6534C
:1043F000FF4F8081882309F444C085E10E94A428EE
:10440000853F9140D4F389898F5F898B813111F485
:10441000198A37C08A30A9F5CE010E94DF1DCE016E
:104420000E94371ECE010E945D1ECE010E94831E97
:10443000CE010E94A91ECE010E94C91ECE010E947B
:10444000F01ECE01DF91CF911F910F91FF90EF9061
:10445000DF90CF90BF90AF900C94191F0E94072857
:104460007B01EA18FB0838CFF8EEEF16F3E0FF0601
:1044700008F446CF3ECF0E9407287B01E01AF10ADC
:1044800082CFDF91CF911F910F91FF90EF90DF903E
:10449000CF90BF90AF900895FF920F931F93CF934B
:1044A000DF93EC01F62E67E070E082EF92E00E946D
:1044B0007A0D6F2D82EF92E00E94270D82EF92E03D
:1044C0000E94F30D64E670E080E090E00E943628E0
:1044D00042E050E067E070E082EF92E00E94F00D71
:1044E00082EF92E00E94CF0C029759F482EF92E0A3
:1044F0000E94D70C082F82EF92E00E94D70C182F51
:10450000EFCF4F2D50E0FA017197EA30F10508F036
:1045100075C0EB5BFF4F0C94E62E16FB882780F9E5
:104520008E831770202F30E02455324F312B3CA35F
:104530002BA31C8263C0FE01E254FF4F0083C554CD
:10454000DF4F42C0202F30E0312B3B832A8356C0FF
:10455000812F8370202F30E0382BFE01E853FF4F6E
:1045600014FB882780F98083319615FB882780F912
:10457000808312FF03C0319521953109FE01EC5370
:10458000FF4F6081CE01860F911D860F911DDC01CA
:10459000A955BF4F8B859C854D915C911197841BCC
:1045A000950B2D933C93820F931F9C878B876F5F96
:1045B000683011F0608322C0108220C0FE01EF53EA
:1045C000FF4F0083CE53DF4F188318C0FE01E15424
:1045D000FF4F0083C054DF4FF7CF202F30E0312B47
:1045E0003EA32DA30BC0C754DF4F202F30E0312B4B
:1045F0003983288303C0CD53DF4F088384E690E0DE
:10460000DF91CF911F910F91FF900C945E281F9323
:10461000CF93DF93EC0111E1612FCE010E944C2278
:104620001F5F1B31C9F7DF91CF911F910895EF9262
:10463000FF920F931F93CF93DF931F92CDB7DEB7F7
:104640007C018C0120E0822F877031F465E1C70185
:1046500029830E944C222981F70180819181F801F0
:1046600090A787A3F7014781508561857285480F20
:10467000591F611D711D47835087618772872F5FA6
:104680000E5F1F4F2034F9F60F90DF91CF911F91ED
:104690000F91FF90EF900895CF93DF93EC0166E1C7
:1046A0000E944C226B857C85882777FD8095982F0A
:1046B0000E94C12C20E030E040E05EE30E944F2EDB
:1046C00025E73AEC43E25CE30E944F2EAB01BC01CC
:1046D000CE010E945B1B65E1CE010E944C226881E5
:1046E00079814C81CE010E94DE19AB01BC01CE0163
:1046F000DF91CF910C94D41AEF92FF921F93CF9336
:10470000DF9300D0CDB7DEB77C01162F462F50E0E7
:10471000415151094B30510508F061C0415B5F4F79
:10472000FA010C94E62EFC0183A194A124E5280F44
:1047300029838C5A9D409A832581222319F0892F41
:1047400080688A83F7018681882309F448C08A81BA
:10475000806444C0DC01A254BF4F8C918983F7016F
:10476000E554FF4F1CC0FC019281838123C0FC01F2
:10477000ED53FF4F808189831A8231C0DC01AF5332
:10478000BF4F8C918983F701EE53FF4F08C0DC01C6
:10479000A154BF4F8C918983F701E054FF4F808172
:1047A0001DC0FC0195A186A105C0FC01E754FF4F87
:1047B00090818181998312C0FC01ED53FF4F80816C
:1047C00090E0880F991FFC01E454FE4F259134912D
:1047D000298383549E4FFC01859194918A8367E0DD
:1047E00070E082EF92E00E947A0D612F82EF92E0FA
:1047F0000E94270D42E050E0BE016F5F7F4F82EFC5
:1048000092E00E94FA0C82EF92E00E94F30D84E69F
:1048100090E00E945E280F900F90DF91CF911F9142
:10482000FF90EF9008957F928F929F92AF92BF92E8
:10483000CF92DF92EF92FF920F931F93CF93DF936C
:10484000EC01FC01E553FF4F8081882309F400C38C
:104850001082898990E08131910508F0F9C2FC014C
:10486000E65AFF4F0C94E62E69A17AA1882777FDBE
:104870008095982F0E94C12CFE01EE52FF4F20819F
:104880003181428153810E944F2E2D853E854F8577
:1048900058890E948D2B6B017C0120E030E048ECB0
:1048A00052E40E94962D18162CF0CD86DE86EF86F7
:1048B000F88A08C080E090E0A8ECB2E48D879E877B
:1048C000AF87B88B20E030E040EE50E46D857E8508
:1048D0008F8598890E94F12B87FF08C080E090E0C7
:1048E000A0EEB0E48D879E87AF87B88B4D855E853F
:1048F0006F8578892C81CE010E943D1D9B838A8320
:1049000063E1CE010E947C23CE01DF91CF911F9104
:104910000F91FF90EF90DF90CF90BF90AF909F905E
:104920008F907F900C94891A8E010E521F4F69A1AF
:104930007AA1882777FD8095982F0E94C12CF801D5
:1049400020813181428153810E944F2E2D853E85E9
:104950004F8558890E948D2BAB01BC014D875E8726
:104960006F87788B2C81CE010E943D1D9B838A83AB
:1049700063E1CE010E947C23CE010E94891A198A2C
:1049800067C2FE01E254FF4F8081823310F081E361
:1049900080838081811102C081E0808389A1908120
:1049A000890F808362E1CE010E947C23CE01DF91DA
:1049B000CF911F910F91FF90EF90DF90CF90BF901C
:1049C000AF909F908F907F900C94AF1BFE01E554A9
:1049D000FF4F80818F3F11F48EEF808380818111A2
:1049E00002C081E0808389A19081890F808362E188
:1049F000CE010E947C23CE01DF91CF911F910F91B8
:104A0000FF90EF90DF90CF90BF90AF909F908F90EE
:104A10007F900C94ED1BFE01ED53FF4F808181339D
:104A200010F080E380838081811102C081E0808367
:104A300089A19081890F808364E1CE010E947C234B
:104A400084E690E00E945E286BE1CE010E947C2308
:104A5000CE01DF91CF911F910F91FF90EF90DF90EA
:104A6000CF90BF90AF909F908F907F900C94171C29
:104A70008BA19CA18439914120F083E991E19CA311
:104A80008BA38BA19CA18D3A9D4020F48DEA9DE0E3
:104A90009CA38BA38BA19CA129A13AA1820F931F58
:104AA0009CA38BA361E1CE010E947C234D855E8592
:104AB0006F8578892C81CE010E943D1D9B838A835E
:104AC00063E1CE010E947C23CE01DF91CF911F9143
:104AD0000F91FF90EF90DF90CF90BF90AF909F909D
:104AE0008F907F900C94751CFE01E453FF4F8081E2
:104AF0008E8361E1CE010E947C23CE01DF91CF91B4
:104B00001F910F91FF90EF90DF90CF90BF90AF90EB
:104B10009F908F907F900C948D1CCE01DF91CF9150
:104B20001F910F91FF90EF90DF90CF90BF90AF90CB
:104B30009F908F907F900C94951DFE01EF53FF4F37
:104B400080818F3110F08EE180838081811102C0DD
:104B500081E0808389A19081890F808367E1CE0104
:104B60000E947C23CE01DF91CF911F910F91FF9086
:104B7000EF90DF90CF90BF90AF909F908F907F90FD
:104B80000C94371EFE01EE53FF4F80818F3110F0E1
:104B90008EE180838081811102C081E0808389A1C0
:104BA0009081890F808367E1CE010E947C23CE0132
:104BB000DF91CF911F910F91FF90EF90DF90CF90F9
:104BC000BF90AF909F908F907F900C945D1EFE01E0
:104BD000E154FF4F80818B3010F08AE08083808128
:104BE000811102C081E0808389A19081890F808337
:104BF00068E1CE010E947C23CE01DF91CF911F910D
:104C00000F91FF90EF90DF90CF90BF90AF909F906B
:104C10008F907F900C94831E8DA19EA185369F4A14
:104C200020F084E69FEA9EA38DA38DA19EA1843EE1
:104C30009E4320F484EE9EE39EA38DA389A19AA1B6
:104C400044E6489F9001499F300D11248DA19EA1FB
:104C5000820F931F9EA38DA369E1CE010E947C2346
:104C6000CE01DF91CF911F910F91FF90EF90DF90D8
:104C7000CF90BF90AF909F908F907F900C94A91E83
:104C8000FE01E754FF4F80819181803B914820F0E5
:104C90008FEA91E89183808380819181873C9D4751
:104CA00020F487EC9DE79183808389A19AA12081DC
:104CB0003181820F931F918380836AE1CE010E942C
:104CC0007C23CE01DF91CF911F910F91FF90EF9048
:104CD000DF90CF90BF90AF909F908F907F900C947B
:104CE000C91E8E010A521F4F69A17AA1882777FD3C
:104CF0008095982F0E94C12C9B01AC01F801608126
:104D00007181828193810E948D2BF8016083718370
:104D100082839383CE01DF91CF911F910F91FF90FA
:104D2000EF90DF90CF90BF90AF909F908F907F904B
:104D30000C94F01E89A19AA18E0103531F4F97FD79
:104D400004C081E0F801808302C0F8011082CE0126
:104D50000E94191F77247394F80170820E9407281B
:104D60006B017C01F0E8CF1AF7E5DF0AFDEEEF0AF0
:104D7000FEEFFF0A0E9407284B015C018E010A52D8
:104D80001F4FF80140815181628173812C81CE01D6
:104D90000E943D1D9B838A8363E1CE010E947C2398
:104DA0007D8261E1CE010E947C238C149D04AE04BF
:104DB000BF0440F40E9407284B015C01CE010E9411
:104DC0004C23F3CF20E030E040EB51E4F801608168
:104DD0007181828193810E948D2BAB01BC012C815A
:104DE000CE010E943D1D9B838A8363E1CE010E9418
:104DF0007C230E9407286B017C01F0E8CF1AF7E5BD
:104E0000DF0AFDEEEF0AFEEFFF0A0E9407284B01C2
:104E10005C018C149D04AE04BF0440F40E9407287A
:104E20004B015C01CE010E944C23F3CF1D8261E156
:104E3000CE01DF91CF911F910F91FF90EF90DF9006
:104E4000CF90BF90AF909F908F907F900C947C23D9
:104E5000DF91CF911F910F91FF90EF90DF90CF9056
:104E6000BF90AF909F908F907F900895CF93DF93E6
:104E7000EC0184E10E94A42821E0853F91400CF4DC
:104E800020E08D81821739F02D8361E1CE01DF9121
:104E9000CF910C947C23DF91CF91089508958230B7
:104EA000E8F4E82FF0E0EE0FFF1FE65FFE4F71839E
:104EB0006083813041F0809169008C7F842B8093E6
:104EC0006900E89A089580916900440F551F440FC6
:104ED000551F837F842B80936900E99A08951F9260
:104EE0000F920FB60F9211242F933F934F935F931E
:104EF0006F937F938F939F93AF93BF93EF93FF93A2
:104F0000E0910A01F0910B010995FF91EF91BF919A
:104F1000AF919F918F917F916F915F914F913F9151
:104F20002F910F900FBE0F901F9018951F920F9208
:104F30000FB60F9211242F933F934F935F936F936C
:104F40007F938F939F93AF93BF93EF93FF93E091E2
:104F50000C01F0910D010995FF91EF91BF91AF9177
:104F60009F918F917F916F915F914F913F912F9181
:104F70000F900FBE0F901F9018951F920F920FB6B3
:104F80000F9211242F933F938F939F93AF93BF93CF
:104F90008091C9039091CA03A091CB03B091CC0337
:104FA0003091C80323E0230F2D3720F40196A11D73
:104FB000B11D05C026E8230F0296A11DB11D209347
:104FC000C8038093C9039093CA03A093CB03B09303
:104FD000CC038091CD039091CE03A091CF03B091EB
:104FE000D0030196A11DB11D8093CD039093CE03F4
:104FF000A093CF03B093D003BF91AF919F918F91B6
:105000003F912F910F900FBE0F901F9018952FB7C3
:10501000F8946091C9037091CA038091CB03909179
:10502000CC032FBF08953FB7F8948091CD039091A2
:10503000CE03A091CF03B091D00326B5A89B05C0A5
:105040002F3F19F00196A11DB11D3FBF6627782F94
:10505000892F9A2F620F711D811D911D42E0660FED
:10506000771F881F991F4A95D1F70895CF92DF9235
:10507000EF92FF92CF93DF936B017C010E94132884
:10508000EB01C114D104E104F10489F00E948B2BDF
:105090000E9413286C1B7D0B683E734090F381E0E7
:1050A000C81AD108E108F108C851DC4FEACFDF91F6
:1050B000CF91FF90EF90DF90CF90089582309105CF
:1050C00038F0880F991F880F991F05970197F1F7FE
:1050D0000895789484B5826084BD84B5816084BD70
:1050E00085B5826085BD85B5816085BDEEE6F0E061
:1050F000808181608083E1E8F0E0108280818260BD
:105100008083808181608083E0E8F0E0808181603D
:105110008083E1EBF0E0808184608083E0EBF0E06D
:10512000808181608083EAE7F0E080818460808311
:1051300080818260808380818160808380818068BB
:1051400080831092C10008958E3008F08E508770D1
:1051500020910E0190E4299F90011124822B8093CD
:105160007C0080917A00806480937A0080917A003C
:1051700086FDFCCF809178002091790090E0922B01
:105180000895833081F028F4813099F08230A1F0C5
:1051900008958730A9F08830B9F08430D1F4809137
:1051A00080008F7D03C0809180008F778093800086
:1051B000089584B58F7702C084B58F7D84BD08952E
:1051C0008091B0008F7703C08091B0008F7D809375
:1051D000B0000895CF93DF9390E0FC01EC54F84EBB
:1051E0002491FC01E853F84E8491882349F190E022
:1051F000880F991FFC01E051F84EA591B4918A5196
:10520000984EFC01C591D4919FB7611108C0F894E4
:105210008C91209582238C93888182230AC06230EE
:1052200051F4F8948C91322F309583238C9388819C
:10523000822B888304C0F8948C91822B8C939FBF1F
:10524000DF91CF9108950F931F93CF93DF931F9218
:10525000CDB7DEB7282F30E0F901E056F84E849143
:10526000F901EC54F84E1491F901E853F84E049109
:105270000023C9F0882321F069830E94C128698135
:10528000E02FF0E0EE0FFF1FEA51F84EA591B49128
:105290009FB7F8948C91611103C01095812301C0D0
:1052A000812B8C939FBF0F90DF91CF911F910F9116
:1052B0000895CF93DF93282F30E0F901E056F84EA0
:1052C0008491F901EC54F84ED491F901E853F84E69
:1052D000C491CC2391F081110E94C128EC2FF0E001
:1052E000EE0FFF1FE452F84EA591B4912C912D239F
:1052F00081E090E021F480E002C080E090E0DF9166
:10530000CF910895CF92DF92EF92FF920F931F9368
:10531000CF93DF937C016A01EB0100E010E00C15F4
:105320001D0571F06991D701ED91FC910190F0811B
:10533000E02DC7010995892B19F00F5F1F4FEFCFA3
:10534000C801DF91CF911F910F91FF90EF90DF90F7
:10535000CF9008956115710581F0DB010D9000205B
:10536000E9F7AD0141505109461B570BDC01ED91A6
:10537000FC910280F381E02D099480E090E0089593
:105380000C94AA29DC01ED91FC910190F081E02DB3
:1053900009948F929F92AF92BF92CF92DF92EF9239
:1053A000FF920F931F93CF93DF93CDB7DEB7A197F3
:1053B0000FB6F894DEBF0FBECDBF7C01C42EE52F23
:1053C000CB01D22E19A221E02D1510F02AE0D22E09
:1053D0008E010F5D1F4F8D2C912CA12CB12C6C2DAB
:1053E0007E2FA50194010E94C42E8C2DD29E80197F
:1053F0001124015011098A3014F4805D01C0895CC8
:10540000F8018083211531054105510521F0C22E97
:10541000E32FCA01E4CFB801C7010E94AA29A196CF
:105420000FB6F894DEBF0FBECDBFDF91CF911F91B5
:105430000F91FF90EF90DF90CF90BF90AF909F9033
:105440008F900895CF92DF92EF92FF920F931F9368
:10545000CF93DF93EC016A017B012115310579F4CB
:10546000E881F9810190F081E02D642FDF91CF91E7
:105470001F910F91FF90EF90DF90CF9009942A3009
:105480003105E9F477FF1AC06DE20E94C2298C0150
:1054900044275527BA014C195D096E097F092AE096
:1054A000CE010E94C929800F911FDF91CF911F91DA
:1054B0000F91FF90EF90DF90CF9008952AE0B70111
:1054C000A601CE01DF91CF911F910F91FF90EF9038
:1054D000DF90CF900C94C9299A01AB01662757FD44
:1054E0006095762F0C94222A2115310541F4DC01B8
:1054F000ED91FC910190F081E02D642F09940C94C2
:10550000C9299A01462F50E060E070E00C94742A9B
:105510009A01AB0160E070E00C94742A4F925F92A4
:105520006F927F928F929F92AF92BF92CF92DF92B3
:10553000EF92FF920F931F93CF93DF93EC016A01D9
:105540007B01B22E9A01AB01C701B6010E94B22EB7
:10555000882319F069E072E027C026013701E8943A
:1055600077F82FEF3FEF4FE75FE7C301B2010E94EB
:10557000B22E81110DC02FEF3FEF4FE75FE7C30160
:10558000B2010E94F12B18161CF46DE072E00CC001
:105590002FEF3FEF4FE75FE4C701B6010E94962D62
:1055A0001816ACF461E172E0CE01DF91CF911F914A
:1055B0000F91FF90EF90DF90CF90BF90AF909F90B2
:1055C0008F907F906F905F904F900C94AA292FEF4F
:1055D0003FEF4FE75FECC701B6010E94F12B87FD5B
:1055E000E1CF20E030E0A901C701B6010E94F12B14
:1055F00087FF0AC06DE2CE010E94C2298C01F7FA32
:10560000F094F7F8F09402C000E010E0A12C60E004
:1056100070E080E09FE3AB1441F020E030E040E236
:1056200051E40E94F52BA394F6CF9B01AC01C70176
:10563000B6010E948D2B6B017C010E94932C2B01E3
:105640003C010E94BF2C9B01AC01C701B6010E9426
:105650008C2B6B017C012AE0B301A201CE010E94D8
:10566000C929080F191FBB2039F065E172E0CE018E
:105670000E94AA29080F191F7B2C772041F120E0F6
:1056800030E040E251E4C701B6010E944F2E6B01A9
:105690007C010E948E2C4B01AA2497FCA094BA2C6A
:1056A0002AE030E0B501A401CE010E94222A080FB1
:1056B000191FC501B4010E94C12C9B01AC01C70197
:1056C000B6010E948C2B6B017C017A94D6CFC80165
:1056D000DF91CF911F910F91FF90EF90DF90CF90CE
:1056E000BF90AF909F908F907F906F905F904F9002
:1056F00008950C948E2A08950E9469280E947B2B9D
:105700000E942E0CC0E0D0E00E94B30C2097E1F381
:105710000E940000F9CF08955058BB27AA270ED049
:10572000CBC1BCD130F0C1D120F031F49F3F11F496
:105730001EF48CC10EF4E095E7FB82C1E92FCDD1B8
:1057400080F3BA17620773078407950718F071F49E
:105750009EF5E5C10EF4E0950B2EBA2FA02D0B019E
:10576000B90190010C01CA01A0011124FF27591BA6
:1057700099F0593F50F4503E68F11A16F040A22FAC
:10578000232F342F4427585FF3CF4695379527951D
:10579000A795F0405395C9F77EF41F16BA0B620B1C
:1057A000730B840BBAF09150A1F0FF0FBB1F661F63
:1057B000771F881FC2F70EC0BA0F621F731F841FA6
:1057C00048F4879577956795B795F7959E3F08F0CC
:1057D000B3CF9395880F08F09927EE0F979587958B
:1057E00008950AD108F481E008950CD065C15DD117
:1057F00040F054D130F021F45F3F19F021C1511134
:105800008FC124C16AD198F39923C9F35523B1F309
:10581000951B550BBB27AA2762177307840738F01F
:105820009F5F5F4F220F331F441FAA1FA9F333D07E
:105830000E2E3AF0E0E830D091505040E695001C32
:10584000CAF729D0FE2F27D0660F771F881FBB1FEE
:10585000261737074807AB07B0E809F0BB0B802DC8
:10586000BF01FF2793585F4F2AF09E3F510568F014
:10587000E7C056C15F3FECF3983EDCF38695779521
:105880006795B795F7959F5FC9F7880F911D969516
:10589000879597F90895E1E0660F771F881FBB1F72
:1058A000621773078407BA0720F0621B730B840B1F
:1058B000BA0BEE1F88F7E095089519F40EF0C0C0FA
:1058C0002EC1C4C012D1C8F39638C0F707F80F92A2
:1058D000E8942BE33AEA48EB5FE7EFD10F920F929F
:1058E0000F924DB75EB70F92A7D1E6EDF0E0B1D0C1
:1058F0004F915F91EF91FF91E595EE1FFF1F49F0EA
:10590000FE57E0684427EE0F441FFA95E1F74195F2
:10591000550B19D10F9007FE0DC1089504D068945E
:10592000B111FEC00895E1D088F09F5790F0B92FD3
:105930009927B751A0F0D1F0660F771F881F991FE4
:105940001AF0BA95C9F712C0B13081F0E8D0B1E0D1
:105950000895E5C0672F782F8827B85F39F0B93FE1
:10596000CCF3869577956795B395D9F73EF49095E6
:105970008095709561957F4F8F4F9F4F0895E89464
:1059800009C097FB3EF490958095709561957F4F87
:105990008F4F9F4F9923A9F0F92F96E9BB27939535
:1059A000F695879577956795B795F111F8CFFAF445
:1059B000BB0F11F460FF1BC06F5F7F4F8F4F9F4F76
:1059C00016C0882311F096E911C0772321F09EE8D4
:1059D000872F762F05C0662371F096E8862F70E03A
:1059E00060E02AF09A95660F771F881FDAF7880F14
:1059F0009695879597F90895990F0008550FAA0B6A
:105A0000E0E8FEEF16161706E807F907C0F01216D1
:105A10001306E407F50798F0621B730B840B950BD4
:105A200039F40A2661F0232B242B252B21F4089529
:105A30000A2609F4A140A6958FEF811D811D0895C6
:105A400097F99F6780E870E060E008959FEF80EC31
:105A50000895DF93CF931F930F93FF92EF92DF92FE
:105A60007B018C01689405C0DA2EEF0124D1FE0180
:105A7000E894A5912591359145915591AEF3EF01AB
:105A80005DDEFE019701A801DA9479F7DF90EF90CF
:105A9000FF900F911F91CF91DF91089500240A94F8
:105AA0001616170618060906089500240A941216F9
:105AB0001306140605060895092E0394000C11F42C
:105AC000882352F0BB0F40F4BF2B11F460FF04C0D9
:105AD0006F5F7F4F8F4F9F4F089557FD9058440F32
