:020000040000FA
:10000000FC7F002001060000F1050000F50500005E
:1000100000000000000000000000000000000000E0
:10002000000000000000000000000000F9050000D2
:100030000000000000000000FD0500004107000076
:1000400010B5064C2378002B07D1054B002B02D0AE
:10005000044800E000BF0123237010BD5C000020B5
:1000600000000000A018000008B5084B002B03D0CA
:100070000748084900E000BF07480368002B03D089
:10008000064B002B00D0984708BDC046000000007A
:10009000A0180000600000205800002000000000B0
:1000A000154A164B1178002909D115491878097895
:1000B0004118C9B21970802012498002C8611178B4
:1000C0000131C9B211701978F02902D819780929BB
:1000D00009D80B4908784042C0B2087018780978EE
:1000E0004118C9B2197012781B789A4203D1802244
:1000F000044B9202DA617047780000200100002072
:10010000000000200044004110B5C3699C07FCD4E6
:1001100003680224A3430360C46901231C42FBD18A
:100120000468234303600368DC07FCD4C46901232B
:100130001C42FBD1C469DC401C42F7D1084B1A4376
:100140000260C3695A07FCD4C0239B0243608181CB
:10015000C3699C07FCD4036802221343036010BDEB
:1001600004000040037EDA07FCD5018570470000DB
:10017000027E01235107FBD5428B1A4207D1428BE5
:10018000DA401A4203D1428B92081A4202D0034B42
:1001900001221A70008DC0B27047C046790000205D
:1001A00070B50368041C988B1A1C0821FF320842A2
:1001B00026D0802099839872112353704021144BCC
:1001C000917150715E68134DC0202E40800506432A
:1001D0005E605E693540284358610F4818600F48DB
:1001E00018615D680E4828408025AD02284358609C
:1001F0005868800B8003586000235171237105E01B
:10020000137ADA0602D5201C00F0D4FA207970BDEA
:1002100098010020FFFFFF8F9800002018010020A8
:10022000FF3F00F0002303714371044B01608360C2
:100230000B78022213430B707047C046A1010000E7
:1002400038B5364B2021DA6901200A43DA61344B94
:1002500006241A7802431A70324B0F221978914300
:1002600019701978214319702F490C7820430870B0
:1002700019780A401A701A7860210A431A702B4BB9
:100280002B4A5A805A7852B2002AFBDB294B0121B3
:100290001A780A431A709A78D107FCD42648026863
:1002A000510B1F221140914200D1052111408C01B8
:1002B0001D8D22492940214319850468A10C0A405B
:1002C0001F2A00D11D221C8D1F210A408C4322436E
:1002D0001A8502680721D20D0A408A4200D1032202
:1002E0000A40188D1103164A02400A431A851978EC
:1002F0007F220A401A701A78042112480A431A70A1
:1003000058621A890C218A431A811A8901218A4369
:100310001A810021802201F040F938BD000400401C
:10032000584400413C44004159440041000C004005
:100330000640000000500041246080003FF8FFFFAD
:10034000FF8FFFFF98010020F7B5141C1F4A5F01C3
:1003500001971D1CD319061C5869271C4000400F2B
:1003600003301033C74006D00F1C80225968120694
:100370000A435A6009E02F1C7B1E9F41144BBF01AA
:10038000FF18381C221C01F0FFF801990F480835AE
:1003900042181761131C5269A104920B890C920335
:1003A0000A435A6159690B4A0A405A616B01F318B2
:1003B0000222DA715979802252420A435A716B0142
:1003C000F318DB799A07FAD5201CFEBD98010020AE
:1003D00018010020FF3F00F0F8B51A4E051C3378D5
:1003E000141C002B12D1184B184A1A645A6C920B29
:1003F00092035A64586C164A02405A64A2235B0066
:10040000EA5C40200243EA54012333704827FF3757
:10041000EA5D0123134012D00B4B5A6C9204920CEC
:10042000A24202D25C6CA404A40C081C221C074942
:1004300001F0AAF80123EB550023337000E01C1CE7
:10044000201CF8BD7A00002098010020D800002070
:10045000FF3F00F0FF3083792022002900D11022D5
:100460001343837170470000084BFF305A69920BA9
:1004700092035A6102230372827980235B42134301
:100480008371037A9A07FCD57047C0469801002013
:1004900080235B421943C9B28172704770B5A023B3
:1004A00003225B00C254134B134A5C6CC0211440FE
:1004B00089050C4346255C64FF35402444550F4DA7
:1004C00030261D6490256D0046555D6B154029430F
:1004D000922559636D0080214155094D1D63B0255A
:1004E0006D0044555C6F22405A67B2235B00C154D3
:1004F00070BDC04698010020FFFFFF8FD80000208C
:1005000058010020024B5B785BB2002BFADB70478E
:10051000000C0040024BDB68DA06FBD57047C04692
:1005200000080040F8B5264B1E215A6802268A436F
:10053000244C32435A60A660FFF7E4FF224B234D60
:100540006360FFF7DFFFAE84FFF7E4FF204B1B681B
:100550009B0E3F2B00D11F231E4A9B0213431E4AB2
:100560000026EA62AB62AE84FFF7D4FF1B4B022782
:10057000AB84FFF7CFFFAB8C3B43AB84FFF7CAFFE5
:1005800063883F2293431F43678062888023DB0197
:1005900013436380A660FFF7B5FF114B6360FFF75D
:1005A000B1FF104B104AC0215A60104A0906106A68
:1005B0000002000A0143116207229E601A60F8BD22
:1005C00000400041000C004006000100000800400F
:1005D00024608000FF01000080BB0A1C240500008D
:1005E0000007030010E000E0E703000000ED00E07A
:1005F0000EBEFEE70DBEFEE705BEFEE702BEFEE74D
:100600000E4A0F4838B5824204D10E4A0E4B93422F
:100610000ED10AE00D4C9442F7D00023D118884245
:10062000F3D9E55804330D60F8E700F011F804E061
:100630009342FAD2002102C3FAE7FEE7000000204D
:100640005C000020A80300205C000020A41800002B
:1006500038B5304B1A681C1C013221D02E4A191DA6
:100660001160D9B200291BD12C4A10780122104008
:100670002B4A0AD115682B498D4201D110600FE039
:100680001160294901390029FCD11160226882F3E7
:100690000888FF229343254A93601E4B5B681847E6
:1006A000FFF740FF62B600F09DFD00F04FF8204BD1
:1006B000802292029A601F4B1F4A041C5A601B4AF8
:1006C000C021106A09060002000A014311620022DB
:1006D0009A6007221A60A368201C9847174B0028CD
:1006E00001D001221A701A78002A05D0002000F0EB
:1006F0008BFA00F003FBFCE71B78002BEBD100F03A
:10070000E5FD0028E7D0012000F07EFA00F0F6FABF
:10071000FCE7C0460020000018020020380400401A
:10072000FC7F00203581730748E8010000ED00E000
:100730000044004110E000E0E70300007B000020DF
:1007400008B5FFF7ADFC00F0C3FA08BD10B5054BC6
:10075000054C2360FFF774FD201C2168FFF762FD44
:10076000201C10BD005000411C02002070B5051C6B
:10077000C0B0081C161C0C1C00F017FF40006A4695
:10078000032302305370107076080123E218013AF7
:1007900011785A00002906D1281C69460023FFF76A
:1007A000D3FD40B070BDB342F6DA684681520133E2
:1007B000ECE70000F7B5BA4A04681378B949271C7A
:1007C000FF37051C102038720B705378B648B74EAF
:1007D000037093783380D178338809020B433380D8
:1007E0001179B34B19805179188809020843188090
:1007F0009079B0490880D2790888120202430A80B1
:1008000040227A71A84F3A78A64F120238780F1C0E
:100810000243A9488446181C624500D1C2E020DC8E
:10082000802149008A4200D16EE109DC812A00D191
:1008300092E0822A00D195E0802A00D064E18BE02A
:1008400081235B009A4200D1CFE000DA58E1C02357
:100850009B009A4200D157E1984B9A4200D14FE158
:1008600052E190231B019A4269D015DCD023DB00B2
:100870009A4222D088231B019A4269D0A023DB0030
:100880009A4200D040E1201CFFF7EEFD3188286835
:1008900089B2FFF7FDFD3BE1894B9A4200D12FE180
:1008A00000DC31E1874B9A4200D11DE1864B9A4230
:1008B00000D029E133886B7122E133881B0A012BB8
:1008C00008D10B8812222868934201D80A8892B274
:1008D0007E4911E133881B0A022B08D10B88432281
:1008E0002868934201D80A8892B2794904E1338892
:1008F0001B0A032B00D007E13388DBB2012B17D092
:10090000002B07D0022B00D0FEE00A882868D2B264
:10091000704911E0042201A86F4900F035FE3B88C0
:1009200004222868934201D83A8892B201A9E3E0F0
:100930000A8828686949D2B2FFF718FFE8E03388CF
:10094000201C2B71FFF790FD201CFFF7A7FDDFE0B7
:10095000291C01C90122CFE0614900230B802868CE
:100960000222CAE05E4900220A8018885022104004
:100970005C4A10701E880F203040188018880328A9
:1009800000D9C1E012781B8808335B01E418A37911
:10099000002A01D09B0600E0DB06DB0F0B802868F5
:1009A0000222A9E019887F2291434E4AC9B21170F0
:1009B00018880F21014019803188002900D0A3E058
:1009C0001988002900D19FE01988032900D99BE0EC
:1009D00012781B8808335B01E318002A02D020221A
:1009E0005A718DE0102159718AE002887F239A4361
:1009F0003C4BD2B21A7001880F220A400280328822
:100A0000002A00D080E00288002A00D17CE0028821
:100A1000032A00D978E01B78002B1FD00388083305
:100A20005B01E3189B799A066AD503882022083374
:100A30005B01E3181A71038808335B01E318DB7963
:100A40005F065DD50388402208335B01E318DA7145
:100A50000388022208335B01E3181EE00388083391
:100A60005B01E3189B79D9064AD503881022083325
:100A70005B01E3181A71038808335B01E318DB7923
:100A80009A063DD50388202208335B01E318DA710A
:100A90000388012208335B01E3181A7130E0C04675
:100AA000980000207D0000208200002084000020AB
:100AB00086000020800000200203000001030000E7
:100AC00021200000A121000021220000F4150000D7
:100AD00004000020E0150000D0150000D41500002F
:100AE0007E0000207C0000200B88082228689342AA
:100AF00001D80A8892B207490023FFF725FC07E0D6
:100B0000201CFFF7B1FC03E0201C0121FFF7A2FC31
:100B1000F7BDC0464800002007B5054B01220190F3
:100B200001A91868131CFFF70FFC01200EBDC04679
:100B30001C02002013B5054B6C4607341868211CB5
:100B40000122FFF749FC207816BDC0461C02002098
:100B500010B5074C201CFFF723FB031C0020834229
:100B600005D022684823FF33D05C0123184010BD14
:100B70001C02002010B5054A0C1C031C191C10682F
:100B80000123221CFFF7E0FB201C10BD1C020020EB
:100B900070B5084C061C201C0D1CFFF701FB002340
:100BA000984205D02068311C2A1CFFF715FC031C55
:100BB000181C70BD1C020020F8B50C4C051C201C34
:100BC0000E1CFFF7EDFA0023271C341C98420AD0B4
:100BD000002C07D0291C221C3868FFF7FDFB241AC3
:100BE0002D18F5E7331C181CF8BDC0461C02002068
:100BF00008B5031C081C111C9847024B64221A807C
:100C000008BDC0468C000020012805D1054B064ACE
:100C10001A60064B187004E0002802D1044A014B08
:100C20001A6070478C0200202816000094000020F3
:100C30007416000030B50A1C1C4985B00978031CE5
:100C400000292AD0042A01D1006804E0022A01D137
:100C5000008800E00078520004A98B180B3B9C1A16
:100C6000A3420BD00F210140092902D83025294386
:100C700000E0373119700009013BF1E701A9302389
:100C80000B7078234B700A208B1898700D20D87049
:100C9000074B04321B68D86803E005490968C86837
:100CA000191CFFF7A5FF05B030BDC0468800002025
:100CB0008C02002072B6EFF30883044A13600368C5
:100CC00083F30888436818477047C04690020020A5
:100CD000084B1A88002A03D01A88013A92B21A8067
:100CE000054B1A88002A03D01A88013A92B21A805A
:100CF0007047C0468C0000208A000020F0B591B0FB
:100D000008A9CC4A0B1C31CA31C351CA51C360CAAD
:100D100060C3C94BC9489A687A255203520F9200A2
:100D20005258C74902609C68A4B262430C60C5492E
:100D300000240A60C44A1460C44C2570C44CC54DDC
:100D40002368281C1B6940219847002802D0C24B09
:100D500064221A80C14B00221860C14B1D60C14B38
:100D6000C04DBE4F1A602A683B689A42E6D2BC4B1F
:100D70001B681A78FF2A00D114E2232A00D0EBE185
:100D8000B94E3378002B06D0B14BB8491B6802220C
:100D9000D868FFF72DFFAD4B1B78532B3CD13B6838
:100DA0002A6893421ED9AE4801322A609A1AB04B83
:100DB00001681B6801310160AE4E9A4201D2326077
:100DC00000E03360A04832680068049000F0DCFB6B
:100DD000336829685A182A60A14A1668F118116008
:100DE000A54A13702B68013B2B609D4B1A68013A92
:100DF0001A60A14B9E4A1B7811688B420AD2226866
:100E00009148C91A006892699047002802D0924B15
:100E100064221A80C0468DE1522B0AD18A48944A36
:100E20002368006811685B69039098476422934BBC
:100E30000DE04F2B05D1844B8D4A1B6812681A7048
:100E400078E1482B05D1804B894A1B6812681A80CB
:100E500070E1572B05D17C4B854A1B6812681A60DC
:100E600068E16F2B03D1784B0121186807E0682BEC
:100E700008D1754B7E481B6802211B880360FFF771
:100E8000D9FE57E1772B06D16F4B79481B680421B7
:100E90001B680360F3E7472B13D1754B1868FFF706
:100EA00009FF774B1B6883F3088862B6754B1B7884
:100EB000002B00D13EE1664B06201B681B6898475B
:100EC00038E1542B04D101233370614B1B6864E07B
:100ED0004E2B0CD13378002B06D15D4B63491B6838
:100EE0000222D868FFF784FE0023337022E1562BDC
:100EF00057D123686449D8680122FFF779FE236837
:100F00006249D8680322FFF773FE614D2368291CEC
:100F1000D8680122FFF76CFE23685E49D8680D226D
:100F2000FFF766FE2368291CD8680122FFF760FEE0
:100F30004B4F4C4D5849002339602B603A1C281CFC
:100F400013685E1C16601B780593002B03D00368A2
:100F500001330360F4E73E4E2A683368D868FFF730
:100F600047FE33684A49D8680122FFF741FE0599D8
:100F700029604A4939603A4A1368581C10601B7846
:100F8000002B04D0374B1A6801321A60F3E733683C
:100F90002A68D868FFF72CFE3368D86833490222E4
:100FA000C6E0334A582B17D1244E264D36681368B5
:100FB0002A68B10093420AD21F4D5808E8613848A8
:100FC00028801D4D287DC607FBD55B18F2E7204B16
:100FD00034491B68D868AAE0592B79D112681A4B9A
:100FE0003149002A02D11B680B606CE0124D086881
:100FF00019686B68104E8025AB4392087360002A15
:1010000061D02A4B0C4D2B800B4E337DDD07FBD579
:1010100000230A4D2D680195AD08AB4203D3244D42
:10102000054E358046E09342F9D09D004659013384
:101030004E51EEE708160000004000414402002037
:101040003C020020380200208802002034020020E8
:101050008C020020480200208A0000202C02002080
:1010600030020020400200208800002068160000A6
:101070009402002098020020280200208C0000200A
:101080009002002094000020441600006D1600001D
:101090004616000090160000481600005416000086
:1010A00002A5FFFF5D1600009000002044A5FFFF91
:1010B00004A5FFFF3F4E357DEE07FBD59D00491986
:1010C0004019D21A9BE73C4B3C491B68D8682EE07C
:1010D0005A2B2FD13A4B17681D680026EF19BD42D5
:1010E00006D02878311C00F013F90135061CF6E70C
:1010F000314B34491B680122D868FFF779FD07237B
:101100000F223240111C36093031092A00DD073127
:101110001820C0186A468154013BF1D2236806A901
:10112000D8680822FFF764FD23682749D86803229E
:10113000FFF75EFD254B7A221A70254B00221A60BC
:10114000244B1B7893422DD01B4B23491B68012253
:10115000D868FFF74DFD25E0111C3039C8B21C4B93
:10116000092804D81D682A01114319601AE0111CCE
:101170004139052903D81E68373A310106E0111CB0
:101180006139052904D81868573A01010A4308E073
:101190002C2A03D10A4A1968116001E00B490A7030
:1011A00000221A600D4B1A6801321A600C4B1A6843
:1011B0000132D5E5004000418C020020611600009C
:1011C0008802002065160000671600003402002027
:1011D00094020020880000206B16000040020020CE
:1011E0003002002010B51C4B01201A780324024362
:1011F0001A701A4B0F2219789143197019782143EC
:10120000197017490C782043087019780A401A7031
:101210001A7830210A431A70124B80211A6A0A4345
:101220001A62114B114A5A805A7852B2002AFBDBDB
:10123000C4220F480F499203FEF766FF0E4A0023AF
:1012400013700E4A13700E4A13700E4A13700E4A32
:1012500013700E4A137010BDD6440041BB440041C8
:10126000D744004100040040000C00401940000039
:10127000001C00422AF600009C02002023030020EC
:101280009D020020A0020020240300202103002052
:1012900008B5C1B20248FEF765FF012008BDC0468F
:1012A000001C0042024B187E4007C00F7047C0462A
:1012B000001C004208B5FFF7F5FF0028FBD00248EC
:1012C000FEF756FF08BDC046001C004208B5FFF7F8
:1012D000E9FF0023984205D0FFF7ECFF031C233BF6
:1012E0005A425341181C08BD70B5041C0D1C461809
:1012F000B44204D02078FFF7CBFF0134F8E7281C74
:1013000070BD10B5041CFFF7D5FF2070012010BD83
:101310000B0A5840034B4000C05A0902484080B2B3
:101320007047C0469E160000F7B50024051C0F1C30
:10133000261CBC4220D0FFF7BDFF114BC0B21B786A
:101340000190002B1AD1311CFFF7E2FF0D4B061C58
:101350001A88002A04D10C4A11782A1C002907D0C7
:1013600001996A1C2970802F02D1198801391980CE
:101370000134A4B2151CDCE7301C00E00120FEBDE6
:10138000210300209E02002022030020F0B53E4EE3
:1013900085B0002203900C1C32703C4B914201D16D
:1013A000012201E03A490C801A707F231C4201D0CF
:1013B00080349C43FFF77EFF3378C0B2002B07D008
:1013C00000253570FFF776FF3378C0B2AB4236D1D7
:1013D000432803D0712853D01528EBD10123009363
:1013E0000120FFF755FF0098FFF752FF0099802575
:1013F000C843C0B2FFF74CFF039B00270293244A67
:101400001388002B1DD1214901930978002918D197
:101410000198FFF73DFF391C0198FFF779FF013D67
:10142000071C002DEBD1000AC0B2FFF731FFF8B264
:10143000FFF72EFFFFF73EFF3378002B0AD0357001
:101440001FE00299013B09781380029B019101334F
:101450000293DDE7C0B2062807D1009B0399013350
:10146000DBB280310093803C0391002CB8D1042082
:10147000FFF70EFFFFF71EFF044B01251C7000E075
:101480000025281C05B0F0BD210300202203002008
:101490009E020020F0B5384C87B0002301902370E5
:1014A000994201D1012301E0344A1180344A642673
:1014B00013704320FFF7ECFE324FFFF7F3FE0028D6
:1014C00003D1002F03D0013FF7E7002F03D1013EE6
:1014D000002EEED14DE00125FFF7ECFE2378002B26
:1014E00038D1C0B20290012805D004283DD1062091
:1014F000FFF7CEFE39E005AE0221301CFFF714FFE6
:1015000001988021FFF710FF23780390002B18D15A
:10151000FFF7D0FE0702FFF7CDFEBFB223783F18DA
:10152000BFB2012B0DD0039B9F4207D13378AB4252
:1015300004D1EB437278DBB29A4204D01820FFF753
:10154000A7FE002303E00620FFF7A2FE029B2278FD
:10155000002A02D0002626700BE0012B05D1019A4B
:101560006B1C8032DDB20192B6E7054A002313708E
:101570000126301C07B0F0BD210300209E02002090
:101580002203002000350C0010B50023934203D045
:10159000CC5CC4540133F9E710BD031C821893429C
:1015A00002D019700133FAE770470023C25C01339F
:1015B000002AFBD1581E7047F8B5C046F8BC08BCDD
:1015C0009E467047F8B5C046F8BC08BC9E467047BA
:1015D0000403090441726475696E6F204C4C43002A
:1015E00041726475696E6F204E4F4E4120574C41D9
:1015F0004E0000001201000202000040412357008B
:1016000000020102000100000800000010000000BC
:1016100020000000400000008000000000010000E9
:10162000000200000004000091120000B51200004A
:10163000A5120000E9120000031300008D13000042
:10164000951400007600200041707220313920325C
:101650003031390031343A33383A343800580A0DD1
:1016600000590A0D005A00230A0D003E00322E30A8
:1016700000000000190B0000350B0000510B0000AA
:10168000750B0000910B0000750B0000B90B0000FA
:101690005B41726475696E6F3A58595A5D0000007B
:1016A0002110422063308440A550C660E770088155
:1016B00029914AA16BB18CC1ADD1CEE1EFF13112CC
:1016C000100273325222B5529442F772D6623993A5
:1016D00018837BB35AA3BDD39CC3FFF3DEE362241C
:1016E000433420040114E664C774A44485546AA5F5
:1016F0004BB528850995EEE5CFF5ACC58DD55336AC
:10170000722611163006D776F6669556B4465BB744
:101710007AA719973887DFF7FEE79DD7BCC7C4487B
:10172000E5588668A7784008611802282338CCC994
:10173000EDD98EE9AFF9488969990AA92BB9F55A0B
:10174000D44AB77A966A711A500A333A122AFDDBE4
:10175000DCCBBFFB9EEB799B588B3BBB1AABA66CDB
:10176000877CE44CC55C222C033C600C411CAEED34
:101770008FFDECCDCDDD2AAD0BBD688D499D977EEB
:10178000B66ED55EF44E133E322E511E700E9FFF84
:10179000BEEFDDDFFCCF1BBF3AAF599F788F88913A
:1017A000A981CAB1EBA10CD12DC14EF16FE180101E
:1017B000A100C230E3200450254046706760B98321
:1017C0009893FBA3DAB33DC31CD37FE35EF3B1026E
:1017D0009012F322D2323542145277625672EAB531
:1017E000CBA5A89589856EF54FE52CD50DC5E234BE
:1017F000C324A01481046674476424540544DBA701
:10180000FAB79987B8975FE77EF71DC73CD7D3260D
:10181000F2369106B01657667676154634564CD990
:101820006DC90EF92FE9C899E9898AB9ABA944585D
:10183000654806782768C018E1088238A3287DCB60
:101840005CDB3FEB1EFBF98BD89BBBAB9ABB754AAD
:10185000545A376A167AF10AD01AB32A923A2EFDF0
:101860000FED6CDD4DCDAABD8BADE89DC98D267CFD
:10187000076C645C454CA23C832CE01CC10C1FEF40
:101880003EFF5DCF7CDF9BAFBABFD98FF89F176E4D
:10189000367E554E745E932EB23ED10EF01E000081
:1018A0000000000001140000090243000201008052
:1018B00032090400000102020000052400100104A6
:1018C0002402000524060001052401000107058308
:1018D000030800FF09040100020A00000007058157
:1018E00002400000070502024000000000C20100A3
:1018F0000000080069000000410000000000000036
:10200000008000201DD0000005D0000005D0000099
:1020100000000000000000000000000000000000C0
:1020200000000000000000000000000005D00000DB
:10203000000000000000000005D0000071D000008A
:1020400005D0000005D0000005D0000005D000003C
:10205000CDC9000005D0000005D0000009D0000067
:1020600005D0000035230000552300004523000063
:1020700065230000ED8F00007523000005D00000EF
:1020800005D0000005D0000005D0000005D00000FC
:102090000000000005D0000005D0000005D00000C1
:1020A00005D0000005D0000005D0000005D00000DC
:1020B0000000000010B5064C2378002B07D1054B1B
:1020C000002B02D0044800E000BF0123237010BDA4
:1020D000A40200200000000064BD0100044B10B504
:1020E000002B03D00349044800E000BF10BDC046E8
:1020F00000000000A802002064BD0100024AD3795C
:10210000DB09FCD17047C04600100040704700005A
:1021100010B50124084B1D201978614019700BF08F
:1021200097FA064B1A7862401A701B78002B01D080
:10213000034B1C7010BDC0464816002058030020F9
:1021400059030020002310B503700AF09FFF074CCD
:102150002368C01A064B984206D90AF097FF054932
:10216000206005480AF020FD10BDC0465C16002026
:1021700087130000397201006003002010B50400CD
:10218000806C002801D00BF001F8200010BD000089
:102190001E2210B522494B6893431C3A13434B60EF
:1021A000A121204BC9009982998A0A439A82DA6850
:1021B0009207FCD502221C48FF3282601B4A426013
:1021C0004278D209FCD18222D2014280DA68D2065A
:1021D000FCD502229A84DA68D206FCD5144ADA6267
:1021E000DA68D206FCD5134A134C11689A6A890E34
:1021F000890222400A439A62DA68D206FCD5998C99
:102200000E4A0A439A84DA681206FCD5DA68520646
:10221000F9D50B4B43604378DB09FCD110BDC046B8
:102220000040004100080040000C00400105030090
:10223000B905FF7D24608000FF03FFFF0608000052
:10224000000703001E2210B521494B6893431C3A36
:1022500013434B601F4B20499982998A0A439A8203
:10226000DA689207FCD502221C48FF3282601C4AC1
:1022700042604278D209FCD18222D2014280DA68DF
:10228000D206FCD502229A84DA68D206FCD5154A19
:10229000DA62DA68D206FCD5134A144C11689A6ADD
:1022A000890E890222400A439A62DA68D206FCD576
:1022B000998C0F4A0A439A84DA681206FCD5DA68C8
:1022C0005206F9D50B4B43604378DB09FCD110BDB6
:1022D00000400041000800400C050000000C0040D8
:1022E00001050300B905FF7D24608000FF03FFFFA7
:1022F000060800000007030010B5094C002805D0AF
:10230000084C012802D0022808D1074C21000748B8
:102310000AF04AFC210006480AF046FC10BDC046FF
:10232000966E0100A96E0100BC6E01002419002008
:102330006003002010B5024806F0CDFD10BDC04678
:102340005411002010B502480AF0EDF910BDC04646
:10235000A405002010B502480AF0E5F910BDC046FA
:10236000E807002010B502480AF0DDF910BDC046AC
:102370002C0A0020F0B5244885B00AF0D4F90023D7
:1023800002220293214B019200932149214B2248C2
:1023900006F006FF002835D00378204E827833708F
:1023A000437812021A43C3781D4F1B041A43037962
:1023B0001C4D1B06134301221BBA3B6043791A4C88
:1023C0002B701A4B1A4920001A700AF0D1FB317891
:1023D0000A2220000AF059FC164E200031000AF0B3
:1023E000C7FB0A22396820000AF02BFC31002000CC
:1023F0000AF0BEFB0A22297820000AF04AFC0122DA
:102400000D4B1A7005B0F0BD600300200C000020D9
:102410000A000020301100201C110020621600204C
:1024200064160020B010002024190020110D002097
:10243000AC620100936B0100B210002010B50400E3
:10244000010004480AF0B0FB210003480AF0ACFB8D
:1024500010BDC046241900206003002070B5041E82
:1024600005D1134B18701348FFF7E8FF08E0012867
:1024700007D10F4B18701048FFF7E0FFFFF788FEF9
:1024800070BD022807D10A4B18700C48FFF7D6FF21
:10249000FFF7D8FEF4E70A4D0A4928000AF068FB66
:1024A0000A22210028000AF0F4FB0748DCE7C046B6
:1024B000100D0020966E0100A96E0100BC6E010097
:1024C000241900203A6601004166010070B50A4BEC
:1024D0001A78FF2A0FD1013A1A70084B084C094D9F
:1024E0001B68094920002B700AF042FB2978102252
:1024F00020000AF0CEFB70BD62160020641600209A
:1025000024190020D91500203E72010070B50C4C32
:102510000C4E2178102230000AF0BBFB0A4D10222D
:10252000296830000AF091FB2378FF2B07D12B6834
:10253000013304D1FE2301222370044B1A7070BDB5
:10254000621600202419002064160020D4150020F3
:1025500010B5084807F052FA032108000BF0A4F860
:10256000032116200BF0A0F8032117200BF09CF894
:1025700010BDC046341100201FB50C4C00222000B5
:10258000022108F055F9002302930023084A012193
:10259000009201932000022208F01AFAFA22072181
:1025A0005200200008F0A8F91FBDC046100000200E
:1025B00060EA0000A52210B5024B1A72FFF79EFDDB
:1025C00010BDC04600100040002370B5094D040046
:1025D0002B70FFF793FD0B2C00DD0B240223E0B2E0
:1025E00068702B70FFF78AFD034904480AF0DCFA93
:1025F00070BDC04600100040307201002419002058
:10260000002210B5044B1A70FFF778FD0349044807
:102610000AF0CAFA10BDC04600100040BD620100B9
:1026200024190020012110B5034B1A78514019706C
:102630000BF00EF810BDC046700C002010B5040061
:10264000044905480AF0B0FA012120000BF000F817
:1026500010BDC046646601002419002070B50D4D00
:102660000D49060028000AF083FA0C4C0A22216862
:1026700028000AF0EAFA2368012B07D10848FFF77F
:10268000DDFE002130000AF0E3FF70BD0548FFF7D2
:10269000D5FEFAE724190020BA64010028030020BF
:1026A000C9640100DC64010010B5012105200AF0B5
:1026B00083FF012104200AF07FFFFFF7A1FF042020
:1026C000FFF7BCFF10BD000037B50500081C140063
:1026D00010F036FE2B0000900191074A14212000D3
:1026E00011F0AAFE210005480AF05EFA2100044814
:1026F0000AF03EFA37BDC0461065010024190020DB
:10270000600300200378002B05D000230370072905
:1027100000D901331370704770B503781400002B93
:1027200023D1023303703F4D06290DD808003E4BDC
:102730000DF014FE0431373D43494F003B4A1A6007
:102740000123237000232B70394E22783949300041
:1027500006F0C8FC2A783849300006F0C3FC374B35
:1027600037491A68300006F0BDFC364B1A78012A4A
:102770004DD10022344E354930001A700AF014FA57
:10278000284D2878062831D8274B0DF0E7FD26295B
:102790004143454749002E4A1A6002232370013BFA
:1027A000D1E72C4A1A6005232370033BCBE72A4A62
:1027B0001A6008232370053BC5E7284A1A600623E0
:1027C0002370023BBFE7264A1A6009232370043BAB
:1027D000B9E7244A1A600723E0E7144A1A6005E0C3
:1027E0001B4A214930001A600AF0DEF92278104CA9
:1027F0001049200006F076FC2A780F49200006F0E8
:1028000071FC0E4B0E491A68200006F06BFC70BD7F
:10281000104AE3E7104AE1E7104ADFE7104ADDE734
:10282000104ADBE7D5150020CC150020615D0000C3
:10283000180D0020FB0F0000FA0F000064160020A6
:10284000F90F0000B1100020241900207D6E010056
:102850003960000015630000116800000166000087
:10286000993B0000D55D0000A272010070B5050023
:102870000A4C0B4E220030000A4906F0DBFBA3781D
:1028800030002B70637822006B70074906F0D2FB92
:10289000A378AB706378EB7070BDC046C81500209C
:1028A000180D0020FC0F0000FD0F0000074A136800
:1028B000013313601B0E037013681B0C4370136805
:1028C0001B0A83701368C3707047C0465C03002006
:1028D00070B5040012200AF001FE104D28600004BB
:1028E000000E20702B78062063700AF0F7FD0304B9
:1028F0001B0E2860A370E07011200AF0EFFD0304A6
:102900001B0E28602371607113200AF0E7FD030499
:102910001B0E2860A371E07170BDC046C815002071
:1029200010B50260014806F0DDFB10BD180D002057
:1029300070B5FFF7EBFD2B4D2B78002B50D02A4CB8
:102940002078052807D80DF009FD033F4509163307
:102950002648FFF773FD01232370ECE72448FFF7B7
:102960006DFD2448FFF76AFD23480022C421FFF7CC
:10297000D7FF2248EDE72248FFF760FD2148FFF727
:102980005DFD214D00222149280006F0D6FB0022E2
:102990001F49280006F0A6FB00221E49280006F069
:1029A000A1FB04221C49280006F09CFB1B48D0E731
:1029B0001B48FFF743FD1B48FFF740FD0022C521E0
:1029C0001948FFF7ADFFF1E7FFF780FD64200AF03B
:1029D00093FBB0E71548FFF731FD00232B70AAE702
:1029E00070BDC046D4150020D91500200263010037
:1029F000226301003E630100300300205A6301009E
:102A0000806301009D630100180D0020FF0F00008E
:102A1000FB0F0000FA0F0000F90F0000B363010084
:102A2000E4630100FB63010028030020106401003F
:102A300010B5FE244C48FFF701FD0022D2214B487F
:102A4000FFF76EFF0022D3214948A405FFF768FF76
:102A50000022D4214748FFF763FF2200D5214648D2
:102A6000FFF75EFF0022D6214448FFF759FF0022FE
:102A7000D7214348FFF754FF0022D8214148FFF7F0
:102A80004FFF2200D9214048FFF74AFF0022DA21F8
:102A90003E48FFF745FF0022DB213D48FFF740FF9E
:102AA0000022DC213B48FFF73BFF2200DD213A48B2
:102AB000FFF736FF0022DE213848FFF731FF002202
:102AC000DF213748FFF72CFF0022E0213548FFF7D0
:102AD00027FF2200E1213448FFF722FF0022E221F4
:102AE0003248FFF71DFF0022E3213148FFF718FFAE
:102AF0000022E4212F48FFF713FF2200E5212E4892
:102B0000FFF70EFF0022E6212C48FFF709FF002205
:102B1000E7212B48FFF704FF0022E8212948FFF7AF
:102B2000FFFE2200E9212848FFF7FAFE0022274B8A
:102B300027481A605A609A60DC601A615A619A618B
:102B4000DC611A625A629A62DC621A635A639A639F
:102B5000DC631A645A649A64DC641A655A659A657F
:102B6000DC65FFF76BFC10BD7A6F0100E802002006
:102B7000EC020020F0020020C4020020C802002065
:102B8000CC020020D0020020D4020020D802002075
:102B9000DC020020E0020020E402002018030020F4
:102BA0001C03002020030020F4020020F802002073
:102BB000FC02002000030020040300200803002082
:102BC0000C0300201003002014030020B810002084
:102BD000A76F010070B50500874C012805D00228B9
:102BE00000D106E1032800D1844C8548FFF726FC7C
:102BF00029000A2283480AF04CF820006422B030F1
:102C00002168FFF78DFE20001422B4306168FFF7C1
:102C100087FE20000622B830A168FFF781FE200061
:102C2000794AC430E168FFF77BFE2000774AC8305C
:102C30002169FFF775FE20000022D0306169FFF79F
:102C40006FFE20000022CC30A169FFF769FE200052
:102C50000122A030E169FFF763FE20008022D4301A
:102C6000D201216AFFF75CFE20000122BC30616ABC
:102C7000FFF756FE20000622C030A16AFFF750FE83
:102C8000200005229830E16AFFF74AFE2000072263
:102C90009C30216BFFF744FE20000122A430616BC1
:102CA000FFF73EFE20004D22A830A16BFFF738FE53
:102CB0002000FA22AC30D200E16BFFF731FE200099
:102CC0000022D830216CFFF72BFE2000504ADC3068
:102CD000616CFFF725FE20000022E030A16CFFF7B9
:102CE0001FFE20000022E430E16CFFF719FE2000F7
:102CF0000022E830216DFFF713FE20000022EC30A7
:102D0000616DFFF70DFE20000022F030A16DFFF78E
:102D100007FE20000022F430E16DFFF701FE2000E5
:102D20000022F830216EFFF7FBFD20000022FC306E
:102D3000616EFFF7F5FD20000930FF300022216FA2
:102D4000FFF7EEFD20000D30FF30324A616FFFF7D4
:102D5000E7FD601CFF30304AA16EFFF7E1FD601D0A
:102D6000FF302E4AE16EFFF7DBFD20001130FF300F
:102D70000022A16FFFF7D4FD20001530FF30284A54
:102D8000E16FFFF7CDFD2000231D1930D96FFF3013
:102D90000022FFF7C5FD2300200008331D30D96F46
:102DA000FF300022FFF7BCFD2300200088332130D4
:102DB0001968FF300022FFF7B3FD230020008C3399
:102DC00025301968FF300022FFF7AAFD23002000FC
:102DD000903329301968FF300022FFF7A1FD23004E
:102DE000200094332D30FF3000221968FFF798FD42
:102DF00070BD0C4CF9E6C046800F0020500E00203C
:102E000053700100241900208C23000074DCFFFFA4
:102E100017B7D138008022440000A0C10000A042B2
:102E200000002042200D002070B50500034C04482E
:102E3000220006F0FFF823682B6070BDC815002043
:102E4000180D0020F8B55848FFF7F8FAD221574876
:102E5000FFF7EAFFD3215648FFF7E6FFD421554894
:102E6000FFF7E2FFD5215448FFF7DEFFD621534894
:102E7000FFF7DAFFD7215248FFF7D6FFD821514894
:102E8000FFF7D2FFD9215048FFF7CEFFDA214F4894
:102E9000FFF7CAFFDB214E48FFF7C6FFDC214D4894
:102EA000FFF7C2FFDD214C48FFF7BEFFDE214B4894
:102EB000FFF7BAFFDF214A48FFF7B6FFE021494894
:102EC000FFF7B2FFE1214848FFF7AEFFE221474894
:102ED000FFF7AAFFE3214648FFF7A6FFE421454894
:102EE000FFF7A2FFE5214448FFF79EFF434FE6218D
:102EF0003800FFF799FF424EE7213000FFF794FFBB
:102F0000404DE8212800FFF78FFF3F4CE9212000CA
:102F1000FFF78AFF254A3D4B12681A60244A12685F
:102F20005A60244A12689A60234A1268DA60234A77
:102F300012681A61224A12685A61224A12689A611A
:102F4000214A1268DA61214A12681A62204A12681C
:102F50005A62204A12689A621F4A1268DA621F4A4D
:102F600012681A631E4A12685A631E4A12689A63EC
:102F70001D4A1268DA631D4A12681A641C4A1268F4
:102F80005A641C4A12689A641B4A1268DA643A68E6
:102F90001A6532685A652A681D489A652268DA659A
:102FA000FFF74CFAF8BDC0461C710100E802002092
:102FB000EC020020F0020020C4020020C802002021
:102FC000CC020020D0020020D4020020D802002031
:102FD000DC020020E0020020E402002018030020B0
:102FE0001C03002020030020F4020020F80200202F
:102FF000FC0200200003002004030020080300203E
:103000000C0300201003002014030020B81000203F
:103010004771010070B50500734C012805D00228E6
:1030200000D1DEE0032800D1704C7148FFF706FAAA
:103030000A2229006F4809F02CFE20002168B030D8
:10304000FFF7F2FE20006168B430FFF7EDFE2000CC
:10305000A168B830FFF7E8FE2000E168C430FFF750
:10306000E3FE20002169C830FFF7DEFE2000616921
:10307000D030FFF7D9FE2000A169CC30FFF7D4FE95
:103080002000E169A030FFF7CFFE2000216AD43094
:10309000FFF7CAFE2000616ABC30FFF7C5FE2000C2
:1030A000A16AC030FFF7C0FE2000E16A9830FFF748
:1030B000BBFE2000216B9C30FFF7B6FE2000616B49
:1030C000A430FFF7B1FE2000A16BA830FFF7ACFEE3
:1030D0002000E16BAC30FFF7A7FE2000216CD83058
:1030E000FFF7A2FE2000616CDC30FFF79DFE2000A0
:1030F000A16CE030FFF798FE2000E16CE430FFF7B0
:1031000093FE2000216DE830FFF78EFE2000616DF8
:10311000EC30FFF789FE2000A16DF030FFF784FE50
:103120002000E16DF430FFF77FFE2000216EF830C3
:10313000FFF77AFE2000616EFC30FFF775FE20007D
:103140000930FF30216FFFF76FFE20000D30FF3098
:10315000616FFFF769FE601CFF30A16EFFF764FE30
:10316000601DFF30E16EFFF75FFE20001130FF3081
:10317000A16FFFF759FE20001530FF30E16FFFF718
:1031800053FE2000231D1930D96FFF30FFF74CFE8E
:103190002300200008331D30D96FFF30FFF744FEB5
:1031A00023002000883321301968FF30FFF73CFEF0
:1031B000230020008C3325301968FF30FFF734FEE0
:1031C00023002000903329301968FF30FFF72CFED0
:1031D0002300200094332D30FF301968FFF724FEC0
:1031E00070BD054C21E7C046800F0020500E002026
:1031F0007970010024190020200D0020F0B5334D16
:1032000085B006003249280009F0CEFC314C324F1F
:10321000022E34D0032E13D0002E43D100232F4A88
:1032200001210092019320000222029607F0D0FBB8
:10323000FA2220005200072107F05EFB284C11E023
:10324000002302930023274A0121009201932000CA
:10325000022207F0BDFBFA2220005200072107F0EE
:103260004BFB214C2100280009F09EFC2100380076
:1032700009F09AFC642009F03FFF05B0F0BD00237F
:1032800002930023194A0121009201932000320089
:1032900007F09EFBFA2220005200072107F02CFBCA
:1032A000134CDFE7002302930023124A012100920E
:1032B00001932000022207F08BFBFA22200052002B
:1032C000072107F019FB0C4CCCE7C046241900205D
:1032D000746601001000002060030020C027090070
:1032E000CC660100983A0000846601003075000049
:1032F0009C66010060EA0000B4660100F0B50C00B5
:1033000085B00600FD48FFF799F80A222100FC4825
:1033100009F0BFFC012C00D106E2022C00D006E22D
:10332000F84CF94D2B00B033F84F1B680022009386
:10333000F7493B00200006F0BFF9300009F0DCFE41
:103340002B00B4331B6805220093F1493B00200099
:1033500006F0B2F9300009F0CFFE2B00B8331B683D
:1033600007220093EA493B00200006F0A5F930004F
:1033700009F0C2FE2B00C4331B6801220093E4490C
:103380003B00200006F098F9300009F0B5FE2B0054
:10339000C8331B6802220093DD493B00200006F081
:1033A0008BF9300009F0A8FE2B00D0331B680622F1
:1033B0000093D7493B00200006F07EF9300009F069
:1033C0009BFE2B00CC331B6803220093D0493B00AB
:1033D000200006F071F9300009F08EFE2B00A033BA
:1033E0001B6804220093CA493B00200006F064F9E0
:1033F000300009F081FE2B00D4331B680C220093AF
:10340000C3493B00200006F057F9300009F074FE74
:103410002B00BC331B680D220093BD493B002000EC
:1034200006F04AF9300009F067FE2B00C0331B6834
:103430000E220093B6493B00200006F03DF9300013
:1034400009F05AFE2B0098331B6809220093B049FB
:103450003B00200006F030F9300009F04DFE2B0053
:103460009C331B680A220093A9493B00200006F008
:1034700023F9300009F040FE2B00A43302931B68AF
:103480000B2203930093A2493B00200006F014F99D
:10349000300009F031FE00230B2200939C493B00D1
:1034A000200006F009F9300009F026FE029B0B22ED
:1034B0001B689749009320003B0006F0FDF83000A0
:1034C00009F01AFE2B00A8331B68322200939049A2
:1034D0003B00200006F0F0F8300009F00DFE2B0054
:1034E000AC331B686222009389493B00200006F040
:1034F000E3F8300009F000FE2B00D8331B680F22E0
:10350000009383493B00200006F0D6F8300009F014
:10351000F3FD2B00DC331B68102200937C493B0039
:10352000200006F0C9F8300009F0E6FD2B00E0337A
:103530001B681122009376493B00200006F0BCF87E
:10354000300009F0D9FD2B00E4331B6812220093F0
:103550006F493B00200006F0AFF8300009F0CCFDC9
:103560002B00E8331B681322009369493B002000BD
:1035700006F0A2F8300009F0BFFD2B00EC331B6809
:103580001422009362493B00200006F095F83000B9
:1035900009F0B2FD2B00F0331B68152200935C4943
:1035A0003B00200006F088F8300009F0A5FD2B0054
:1035B000F4331B681622009355493B00200006F0A7
:1035C0007BF8300009F098FD2B00F8331B681722B8
:1035D00000934F493B002000FC3506F06DF83000A9
:1035E00009F08AFD2B681822009349493B0020000E
:1035F00006F062F8300009F07FFDEB681B220093B3
:1036000043493B00200006F057F8300009F074FDF4
:103610002B691C2200933E493B00200006F04CF829
:10362000300009F069FD6B681922009338493B00AE
:10363000200006F041F8300009F05EFDAB681A2268
:10364000009333493B00200006F036F8300009F0C3
:1036500053FD6B691D2200932D493B00200006F0AD
:103660002BF8300009F048FDAB691E220093284971
:103670003B00200006F020F8300009F03DFDEB692A
:103680001F22009322493B00200006F015F830006D
:1036900009F032FD2B6A202200931D493B002000D7
:1036A00006F00AF8300009F027FD6B6A212200932A
:1036B00017493B00200005F0FFFF300009F01CFD1A
:1036C000AB6A2222009312493B00200005F0F4FF70
:1036D000300009F011FDEB6A232200930C493B00F6
:1036E000200005F0E9FF300009F006FD2B6B2422D5
:1036F0000749009320003B000CE0C0461470010015
:103700002419002000160020200D00200C000020AD
:103710000A00002005F0D0FF300009F0EDFC05485C
:10372000FEF78CFE05B0F0BD034C044DFAE5044CE9
:10373000044DF7E538700100DC150020800F0020F3
:1037400024160020500E002070B50A240025012602
:103750002900102009F07CFF013C642009F0CCFC1A
:103760007540002CF4D1642009F0C6FC70BD000047
:10377000F0B589B00390012972D0022973D00329D2
:1037800002D13B4C3B4B0293FF25236820005B6931
:10379000013D9847002DF8D10523CC2764223649F6
:1037A00000930298354B019705F0C2FF0A2009F0FB
:1037B000A3FC0A22210005A809F05AFB290005A84C
:1037C00009F012FC039A037805A8137009F068FB4E
:1037D00009F05CFC0600039B1B78002B46D109F026
:1037E00055FCFA23801B5B009842F4D9FF26013573
:1037F000EDB2236820005B69013E9847002EF8D1A6
:10380000052364221C49009302981C4B019705F084
:103810008FFF0A2009F070FC0A22210005A809F098
:1038200027FB310005A809F0DFFB039A037805A800
:10383000137009F035FB124B1B78002B02D00123CB
:10384000039A13700F48FEF7F9FD29000A220E486B
:1038500009F01FFA0A2229000C4809F01AFAB7E702
:103860000B4C0C4B8FE70C4C0C4B8CE709B0F0BDAC
:103870002C0A0020241600200A0000200C00002042
:10388000B2100020E366010024190020600300202C
:10389000A4050020DC150020E80700200016002009
:1038A000002110B5024B1D20197009F0D1FE10BD8A
:1038B0004816002010B5054C0549200009F058F9BC
:1038C0000449200009F070F910BDC04624190020F9
:1038D000A1640100AB64010070B50500134C1449EC
:1038E000200009F061F91349200009F041F90A228A
:1038F0002900200009F0CDF9062D11D90E4920002C
:1039000009F052F90D49200009F04EF901220C4B43
:103910001A7000220B4B1A700B4B04321A6070BDE8
:103920000A49200009F040F9F9E7C04624190020AF
:10393000F366010010670100276701003E67010080
:10394000D8150020D51500206816002065670100F5
:1039500070B50500134C1449200009F025F91349EE
:10396000200009F005F929000A222000013D09F094
:103970006CF9042D11D90E49200009F015F90D49F3
:10398000200009F011F901220B4B1A7000220B4B99
:103990001A700B4B04321A6070BD0A49200009F0FE
:1039A00003F9F9E724190020D16E0100F86E010037
:1039B0000A6F01002B6F0100D8150020D5150020DB
:1039C000681600206567010070B50500134C1449A6
:1039D000200009F0E9F81349200009F0C9F80A228B
:1039E0002900200009F031F9092D11D90E492000D4
:1039F00009F0DAF80D49200009F0D6F801220C4B45
:103A00001A7000220B4B1A700B4B04321A6070BDF7
:103A10000A49200009F0C8F8F9E7C0462419002037
:103A20007C67010099670100AB670100C267010074
:103A3000D8150020D515002068160020EA6701007F
:103A4000F8B5294C0D0006000968E0680DF024FB6C
:103A50006968071C20690DF01FFB011C381C0CF065
:103A6000A9FFA968071C60690DF016FB011C381C32
:103A70000CF0A0FF21680CF09DFF30602968A06960
:103A80000DF00AFB6968071CE0690DF005FB011CDD
:103A9000381C0CF08FFFA968071C206A0DF0FCFA97
:103AA000011C381C0CF086FF61680CF083FF70600D
:103AB0002968606A0DF0F0FA6968071CA06A0DF0C9
:103AC000EBFA011C381C0CF075FFA968071CE06AB2
:103AD0000DF0E2FA011C381C0CF06CFFA1680CF030
:103AE00069FFB060F8BDC046B8100020F8B5294C99
:103AF0000D0006000968E06B0DF0CEFA6968071C3E
:103B0000206C0DF0C9FA011C381C0CF053FFA96899
:103B1000071C606C0DF0C0FA011C381C0CF04AFF49
:103B2000216B0CF047FF30602968A06C0DF0B4FAEF
:103B30006968071CE06C0DF0AFFA011C381C0CF032
:103B400039FFA968071C206D0DF0A6FA011C381C6E
:103B50000CF030FF616B0CF02DFF70602968606D18
:103B60000DF09AFA6968071CA06D0DF095FA011C1A
:103B7000381C0CF01FFFA968071CE06D0DF08CFAD3
:103B8000011C381C0CF016FFA16B0CF013FFB06089
:103B9000F8BDC046B81000200523F0B51600027825
:103BA000ABB005900D001A4239D0914C91492000DC
:103BB00008F0DEFF0A223100200009F06AF88E4F7B
:103BC0003D60012E00D097E029008C4805F0B6FD3D
:103BD000431E98418A4B18703D680026022D00D183
:103BE00095E0042D00D1A5E0012D14D1854B864A26
:103BF0001E60D36985490B40D36101228449854801
:103C000005F09BFA0B20FEF7DFFC0420FEF726FDF3
:103C10000520FEF707FD09F039FA7F4B1860784B55
:103C20001B78002B00D1D3E00023012202930192E4
:103C300000939218794B7A497A4805F0A0FD002844
:103C40000AD0794BC27A1860784B1A70827A5A700F
:103C5000427A9A70027ADA70754C2378002B00D180
:103C6000B6E0684D2B6801332B6009F00FFA6A4B00
:103C7000704E1B68704FC01A002323706F4C3100C8
:103C80003860200006F0EBF931006D48FFF7D8FEF0
:103C900008A9200006F028FC6A49089B6A480B60C6
:103CA000099B0BAC4B60614B1B688B60FFF71EFFE1
:103CB000664E6748B1680DF021FB0FF041FB06909E
:103CC000079170680FF03CFB0290039130680FF091
:103CD00037FB069A079B009001915E49200010F087
:103CE000DDFB200010F0FAFB0022130082423BD0E3
:103CF000A15C01324B40F9E7022E02D1290049486C
:103D000064E7032E00D067E7290053485EE73D4B88
:103D1000524920001E6008F047FF5149200008F07A
:103D200043FF3949394ACB691A40C0239B051343E5
:103D3000CB6162E7FFF7B4FD324B334A1E60D369B3
:103D4000324934480B40D3613149320005F0F5F96E
:103D5000002344481A1C191C02F06AFFFEF750FCAD
:103D60002800FEF76BFC56E72A68042A08D93E496A
:103D7000220018A810F092FB18A93C4808F0F8FEA1
:103D8000FEF718FC0520FEF74DFC38680DF0FAFC34
:103D90000FF0D6FA364A374B0EF05AFC0FF022FBE2
:103DA000304D011C264B2800274A03F02BFF274CDF
:103DB0002800210002F014FFA5682549281C0CF0FA
:103DC000C5FC002809D02249281C0DF097FAA060F4
:103DD0000023059A13702BB0F0BD0021281C0CF0B5
:103DE00097FC0028F4D01A49281C0CF0E3FDEEE7FC
:103DF000241900203164010004000020DC1500209B
:103E0000D7150020140D002000180040FFFFFF8F81
:103E1000FF0F0000180D002058160020601600202B
:103E20000800002000160020D0150020800C002083
:103E300059030020740C0020B4100020340300202B
:103E4000900C0020A80C0020840C00209C0C00206A
:103E50000000B4437B640100241600205464010078
:103E60006864010070150020966401006003002062
:103E7000FCA9F1D24D62503F10B5002803D105488E
:103E8000FEF7DCFA10BD012801D10348F8E703482A
:103E9000F6E7C046FB630100536F0100676F010046
:103EA00010B5040009F072F9200010BD4222C74B82
:103EB000F0B562211A6001325A6001329A60013213
:103EC000DA6001321A6101325A6101329A610132BB
:103ED000DA6101321A6201325A6201329A620132A7
:103EE000DA6201321A6301325A6301329A63013293
:103EF000DA6301321A6401325A6401329A6401327F
:103F0000DA6401321A6501325A6501329A6501326A
:103F1000DA6501321A6601325A6601329A66013256
:103F2000DA6601321A6701325A6701329A67013242
:103F3000DA671A1DD1671A0001310832D1671A00F9
:103F40000131883211601A0001318C3211601A007F
:103F5000013190321160672294331A609C4B1B32FE
:103F60001A6001325A6001329A600132DA6001321D
:103F70001A6101325A6101329A610132DA61013209
:103F80001A6201325A6201329A620132DA620132F5
:103F90001A6301325A6301329A630132DA630132E1
:103FA0001A6401325A6401329A640132DA640132CD
:103FB0001A6501325A6501329A650132DA650132B9
:103FC0001A6601325A6601329A660132DA660132A5
:103FD0001A6701325A6701329A670132DA673C3157
:103FE0001A1DD1671A0001310832D1671A00013158
:103FF000883211601A0001318C3211601A000131CF
:1040000090321160A72294331A60022303260624FB
:10401000172022256F49923A0B60DB188B60013321
:10402000CB6002334B6101338B610133CB610133D0
:104030000B6201334B6201338B620133CB6201337C
:104040000B6301334B6301338B630133CB63013368
:104050000B6401334B6401334E600C618B64486523
:10406000013088650130C865801988660130C866EE
:104070000130086701304867013088670130C86740
:10408000081DC567080001350830C56708000135FF
:1040900088300560080001358C3005600800013566
:1040A000903005602720CA6401320A6504324A4D07
:1040B0000A6601324A66943185B008604749280093
:1040C00004F0FEFD2900464804F0B0FF454F464D80
:1040D00022003900280005F04EF828000125434C45
:1040E0004349220009F08EFB01952B000096002227
:1040F0004049380008F090FA3F4F01950096182388
:1041000019223E49380008F087FA019500950823E6
:104110000D223B493B4808F07FFA092301950096A0
:104120000A223949394808F077FA394D3900102206
:10413000280005F067FA374F22003900280009F0FF
:1041400061FB354D10222F49280005F05BFA220053
:104150003900280009F056FB304D10222B49280069
:1041600005F050FA22003900280009F04BFB00232B
:1041700016222B4D019300921733320002962949E3
:10418000280005F0CDFB22002749280009F03AFB62
:10419000264B29000222264805F086FD254D2800E1
:1041A00003F05CFA22002449280009F02BFB234D80
:1041B000280005F0F2FA22002149280009F022FB2C
:1041C00008F064FF1F4B186005B0F0BD200D002003
:1041D000500E0020800F002054110020F418002001
:1041E000180D0020600300201C110020000000209A
:1041F000939100001C190020A40500200419002040
:10420000FC180020E80700200C1900202C0A0020D0
:10421000DC1500203D96000000160020241600202A
:1042200034110020141900200D21000080841E008C
:1042300034030020701500207D210000191100209A
:104240009D9700004C16002010B5084C200004F08B
:1042500003FD2000064904F01FFD02211B2009F088
:1042600023FA0221142009F01FFA10BD5411002076
:10427000801A060010B5E124A4022100184806F0B7
:104280006FFF2100E1241748640208F0D9F82100EB
:10429000154808F0D5F82100144808F0D1F821009D
:1042A000134808F0CDF80022124B022118201A7092
:1042B00009F0FAF90221192009F0F6F90221082083
:1042C00009F0F2F902210D2009F0EEF903210A208C
:1042D00009F0EAF90321092009F0E6F910BDC0460A
:1042E0002419002060030020A4050020E807002016
:1042F0002C0A0020110D0020962170B5274C890151
:10430000200008F09DF8264D2649280008F04CFCB6
:10431000254B264E1B68022B06D0254E032B03D0BF
:10432000244E012B00D1244E3100200008F03CFC2B
:104330003100280008F038FC204B21481B68022B74
:1043400020D0032B07D0002B22D10A22042102F017
:104350003FFC1C4E05E0C8220421520002F038FC4C
:10436000194E3100280008F01FFC3100200008F031
:104370001BFC164B1868FDF7BFFF154B1868FFF7BD
:104380007BFD70BDC822042102F022FC114EE8E73B
:104390006422042102F01CFC0F4EE2E760030020BF
:1043A00024190020A0700100C0020020F27001005A
:1043B00007710100C4700100DB70010024030020BC
:1043C00070150020CC6601008466010030030020D7
:1043D000280300209C660100B466010070B5234CE0
:1043E000234D022824D0032831D0012811D0214E9A
:1043F0002000310008F0D8FB3100280008F0D4FB81
:10440000642008F079FEE1218902200008F018F804
:1044100070BD194E2000310008F0C6FB31002800A5
:1044200008F0C2FB642008F067FEE1214902ECE7D6
:10443000124E2000310008F0B7FB3100280008F0D0
:10444000B3FB642008F058FE96218901DDE70C4E8D
:104450002000310008F0A8FB3100280008F0A4FB80
:10446000642008F049FE96214901CEE76003002050
:1044700024190020C4700100DB700100F2700100FB
:1044800007710100F0B58BB0039303781400012B82
:1044900000D0BFE0039B012B00D18BE0022B00D0AA
:1044A0008CE09C4D9C4F9D4E022308390370080000
:1044B0007C2900D9AEE00BF05BFF8700AF00C8009D
:1044C000E100FA00130153016D0187019101AB0175
:1044D000C501DF01F90113022D02470261026B02DF
:1044E00085029F02B902D302ED0207034903630369
:1044F0007D03CF03EA039703B303B106CF06ED06AE
:104500000C072C074C07C107E107AD00AD00AD005B
:10451000AD00AD00AD00AD00AD00AD00AD00AD0033
:10452000AD00AD00AD00AD00AD00AD00AD00AD0023
:10453000AD00AD00AD00AD00AD00AD00AD00AD0013
:10454000AD00AD00AD00AD00AD00AD00AD00AD0003
:10455000AD00AD00AD00AD00AD00AD00AD00AD00F3
:10456000AD00AD00AD00AD00AD00AD00AD00AD00E3
:10457000AD00AD0001085708050418047E0491043D
:10458000A504B904CD04E104F50409057105850508
:104590009905AD05C105D505E905FD0511062506F9
:1045A00039064D066106750689069D0695082B0499
:1045B0003D0452045A4D5B4F5B4E75E703235B4D40
:1045C0005B4F5C4E03936FE72F00B0373B689C4214
:1045D00012D05949594808F0E7FA220029683800F2
:1045E000FEF79EF9CC2301933B68002200935449C7
:1045F000544B300005F09CF80A2203994F4808F00C
:1046000044FB51494D4808F0B3FA102229684B4841
:1046100008F049FB0BB0F0BD2F00C4373B689C424B
:10462000F8D04A49454808F0BFFA2200E968380046
:10463000FEF776F9CC2301933B68012200934049B1
:10464000404B300005F074F8E4E72F00C8373B68B2
:104650009C42DFD03E49394808F0A6FA2200296979
:104660003800FEF75DF9CC2301933B6802220093EA
:104670003349344B300005F05BF8CBE72F00CC37E3
:104680003B689C42C6D033492C4808F08DFA220082
:10469000A9693800FEF744F9CC2301933B68032253
:1046A00000932749274B300005F042F8B2E72F006E
:1046B000A0373B689C42ADD02749204808F074FAE7
:1046C0002200E9693800FEF72BF9CC2301933B68FF
:1046D000042200931A491B4B300005F029F899E792
:1046E0002F00B4373B689C4200D193E71B49134825
:1046F00008F05AFA220069683800FEF711F9CC2355
:1047000001933B68052200930D490E4B300005F0E4
:104710000FF87FE7200D0020E8070020001600209A
:10472000800F0020A4050020DC150020500E002082
:104730002C0A0020241600204C68010024190020B7
:104740000A0000200C000020936B01006268010049
:104750007968010090680100A8680100BE68010046
:104760002F00D0373B689C4200D153E7E349E4482F
:1047700008F01AFA220069693800FEF7D1F8CC2354
:1047800001933B6806220093DE49DF4B300004F0C2
:10479000CFFF3FE72F00B8373B689C4200D139E795
:1047A000DA49D74808F000FA2200A9683800FEF775
:1047B000B7F8CC2301933B6807220093D149D24B31
:1047C000300004F0B5FF25E7CC23009401930822C4
:1047D000CD4BCC49300004F0ABFF1BE72F009837DE
:1047E0003B689C4200D115E7C949C54808F0DCF98F
:1047F0002200E96A3800FEF793F8CC2301933B6866
:1048000009220093BF49C04B300004F091FF01E73B
:104810002F009C373B689C4200D1FBE6BD49B8485D
:1048200008F0C2F92200296B3800FEF779F8CC2392
:1048300001933B680A220093B249B34B300004F065
:1048400077FFE7E62F00A4373B689C4200D1E1E602
:10485000B149AB4808F0A8F92200696B3800FEF7AF
:104860005FF8CC2301933B680B220093A549A64B2C
:10487000300004F05DFFCDE62F00D4373B689C424A
:1048800000D1C7E6A5499E4808F08EF92200296AA2
:104890003800FEF745F8CC2301933B680C220093C7
:1048A0009849994B300004F043FFB3E62F00BC3722
:1048B0003B689C4200D1ADE69949914808F074F9F3
:1048C0002200696A3800FEF72BF8CC2301933B687D
:1048D0000D2200938B498C4B300004F029FF99E6A0
:1048E0002F00C0373B689C4200D193E68D49844835
:1048F00008F05AF92200A96A3800FEF711F8CC2313
:1049000001933B680E2200937E497F4B300004F0F8
:104910000FFF7FE62F00A8373B689C4200D179E665
:104920008149774808F040F92200A96B3800FDF76B
:10493000F7FFCC2301933B68322200937149724BFD
:10494000300004F0F5FE65E62F00AC373B689C4272
:1049500000D15FE675496A4808F026F92200E96B44
:104960003800FDF7DDFFCC2301933B686222009302
:104970006449654B300004F0DBFE4BE6CC23009429
:1049800001936322604B5F49300004F0D1FE41E6A1
:104990002F00D8373B689C4200D13BE66449584819
:1049A00008F002F92200296C3800FDF7B9FFCC238A
:1049B00001933B680F2200935249534B300004F09F
:1049C000B7FE27E62F00DC373B689C4200D121E68A
:1049D00058494B4808F0E8F82200696C3800FDF7A8
:1049E0009FFFCC2301933B68102200934549464B1F
:1049F000300004F09DFE0DE62F00E0373B689C423E
:104A000000D107E64C493E4808F0CEF82200A96CD8
:104A10003800FDF785FFCC2301933B6811220093FA
:104A20003849394B300004F083FEF3E52F00E437BA
:104A30003B689C4200D1EDE54049314808F0B4F8AC
:104A40002200E96C3800FDF76BFFCC2301933B6833
:104A5000122200932B492C4B300004F069FED9E55B
:104A60002F00E8373B689C4200D1D3E53449244805
:104A700008F09AF82200296D3800FDF751FFCC2389
:104A800001933B68132200931E491F4B300004F032
:104A90004FFEBFE52F00EC373B689C4200D1B9E5E3
:104AA0002849174808F080F82200696D3800FDF7A2
:104AB00037FFCC2301933B68142200931149124B1A
:104AC000300004F035FEA5E52F00F0373B689C422E
:104AD00000D19FE51C490A4808F066F82200A96D3C
:104AE0003800FDF71DFFCC2301933B68152200938E
:104AF0000449054B300004F01BFE8BE5D46801002F
:104B0000241900200A0000200C000020E8680100A1
:104B1000FD68010010690100236901003669010088
:104B20004E69010062690100766901008C6901002B
:104B3000A3690100B4690100C5690100D6690100DB
:104B4000E7690100F8690100096A01002F00F437E4
:104B50003B689C4200D15DE5E649E74808F024F84F
:104B60002200E96D3800FDF7DBFECC2301933B68A2
:104B700016220093E149E24B300004F0D9FD49E5EB
:104B80002F00F8373B689C4200D143E5DD49DA4805
:104B900008F00AF82200296E3800FDF7C1FECC2388
:104BA00001933B6817220093D449D54B300004F0A1
:104BB000BFFD2FE52F00FC373B689C4200D129E563
:104BC000D149CD4807F0F0FF2200696E3800FDF7AB
:104BD000A7FECC2301933B6818220093C749C84B1A
:104BE000300004F0A5FD15E52F00FC37FB689C4262
:104BF00000D10FE5C549C04807F0D6FF28000930AD
:104C00002200296FFF30FDF78BFECC230193FB6858
:104C10001B220093B949BA4B300004F089FDF9E436
:104C20002F00FC373B699C4200D1F3E4B849B248FD
:104C300007F0BAFF28000D302200696FFF30FDF742
:104C40006FFECC2301933B691C220093AB49AC4B14
:104C5000300004F06DFDDDE42F00FC377B689C42E2
:104C600000D1D7E4AB49A44807F09EFF681C22009E
:104C7000A96EFF30FDF754FECC2301937B68192207
:104C800000939E499E4B300004F052FDC2E42F0079
:104C9000FC37BB689C4200D1BCE49F49964807F0B2
:104CA00083FF681D2200E96EFF30FDF739FECC233B
:104CB0000193BB681A2200939049914B300004F095
:104CC00037FDA7E4954D2B689C4200D1A2E494499E
:104CD000894807F069FF28002200C221FDF720FE65
:104CE0002868C0B2FFF77AFB94E48E4D2B689C4293
:104CF00000D18FE48C49804807F056FF280022003D
:104D0000C321FDF70DFE2868C0B2FEF777FA81E4F3
:104D1000864D2B689C4200D17CE48549764807F09B
:104D200043FF2000FDF7E8FA2200C4212800FDF728
:104D3000F7FD6FE47F4D2B689C4200D16AE47C490B
:104D40006D4807F031FF7C48FDF778FB2000FFF746
:104D500093F82200C5212800FDF7E2FD5AE4FF2C5C
:104D600009D17648FDF76AFB7548FDF767FB01221C
:104D7000744B1A704EE4FE2C19D1724C2378012B1F
:104D80000ED17148FDF75AFB0220FDF723FF0221E7
:104D90006420FEF7B3FAFDF74BFE0023237039E4DD
:104DA0006A48FDF74BFB6A48FDF748FB32E4694867
:104DB000FDF744FB2EE4684D2B689C4200D129E4AA
:104DC00066494D4807F0F0FE2200D2212800FDF789
:104DD000A7FD2A68624B1A60FFF71CFC614D2B6827
:104DE0009C4201D1FFF716FC5F49434807F0DCFE07
:104DF0002200D3212800FDF793FD2A68584B5A6002
:104E0000FFF708FC594D2B689C4201D1FFF702FCCB
:104E10005749394807F0C8FE2200D4212800FDF781
:104E20007FFD2A684E4B9A60FFF7F4FB514D2B68CB
:104E30009C4201D1FFF7EEFB4F492F4807F0B4FE2B
:104E40002200D5212800FDF76BFD2A68444BDA606B
:104E5000FFF7E0FB494D2B689C4201D1FFF7DAFBDD
:104E60004749254807F0A0FE2200D6212800FDF77B
:104E700057FD2A683A4B1A61FFF7CCFB414D2B686E
:104E80009C4201D1FFF7C6FB3F491B4807F08CFE4F
:104E90002200D7212800FDF743FD2A68304B5A61D4
:104EA000FFF7B8FB394D2B689C4201D1FFF7B2FBED
:104EB0003749114807F078FE2200D8212800FDF775
:104EC0002FFD2A68264B9A61FFF7A4FB314D2B6812
:104ED0009C4201D1FFF79EFB2F49074807F064FE73
:104EE0002200D9212800FDF71BFD2A681C4BDA613E
:104EF000FFF790FB1A6A0100241900200A00002025
:104F00000C0000202B6A01003C6A01004D6A010080
:104F10005E6A0100726A0100856A0100C002002019
:104F2000986A010024030020AA6A010030030020CF
:104F3000BC6A010028030020DC6A0100F46A010059
:104F4000196B0100D6150020426B01006B6B01004C
:104F5000966B0100A56B0100E8020020C56B010003
:104F6000B8100020EC020020D66B0100F0020020F7
:104F7000E76B0100C4020020F86B0100C8020020AA
:104F80000A6C0100CC0200201C6C0100D002002041
:104F90002E6C0100D4020020406C0100FD4D2B68F6
:104FA0009C4201D1FFF736FBFB49FC4807F0FCFDB2
:104FB0002200DA212800FDF7B3FC2A68F84B1A62B8
:104FC000FFF728FBF74D2B689C4201D1FFF722FB2E
:104FD000F549F24807F0E8FD2200DB212800FDF743
:104FE0009FFC2A68EE4B5A62FFF714FBEF4D2B68CB
:104FF0009C4201D1FFF70EFBED49E84807F0D4FDD4
:105000002200DC212800FDF78BFC2A68E44B9A6221
:10501000FFF700FBE74D2B689C4201D1FFF7FAFA3E
:10502000E549DE4807F0C0FD2200DD212800FDF73C
:1050300077FC2A68DA4BDA62FFF7ECFADF4D2B686F
:105040009C4201D1FFF7E6FADD49D44807F0ACFDF8
:105050002200DE212800FDF763FC2A68D04B1A638A
:10506000FFF7D8FAD74D2B689C4201D1FFF7D2FA4F
:10507000D549CA4807F098FD2200DF212800FDF736
:105080004FFC2A68C64B5A63FFF7C4FACF4D2B6812
:105090009C4201D1FFF7BEFACD49C04807F084FD1C
:1050A0002200E0212800FDF73BFC2A68BC4B9A63F4
:1050B000FFF7B0FAC74D2B689C4201D1FFF7AAFA5F
:1050C000C549B64807F070FD2200E1212800FDF730
:1050D00027FC2A68B24BDA63FFF79CFABF4D2B68B6
:1050E0009C4201D1FFF796FABD49AC4807F05CFD40
:1050F0002200E2212800FDF713FC2A68A84B1A645D
:10510000FFF788FAB74D2B689C4201D1FFF782FA6E
:10511000B549A24807F048FD2200E3212800FDF729
:10512000FFFB2A689E4B5A64FFF774FAAF4D2B6859
:105130009C4201D1FFF76EFAAD49984807F034FD63
:105140002200E4212800FDF7EBFB2A68944B9A64C7
:10515000FFF760FAA74D2B689C4201D1FFF75AFA7E
:10516000A5498E4807F020FD2200E5212800FDF723
:10517000D7FB2A688A4BDA64FFF74CFA9F4D2B68FD
:105180009C4201D1FFF746FA9D49844807F00CFD87
:105190002200E6212800FDF7C3FB2A68804B1A6530
:1051A000FFF738FA974D2B689C4201D1FFF732FA8E
:1051B00095497A4807F0F8FC2200E7212800FDF71E
:1051C000AFFB2A68764B5A65FFF724FA8F4D2B68A0
:1051D0009C4201D1FFF71EFA8D49704807F0E4FCAC
:1051E0002200E8212800FDF79BFB2A686C4B9A659A
:1051F000FFF710FA874D2B689C4201D1FFF70AFA9E
:105200008549664807F0D0FC2200E9212800FDF717
:1052100087FB2A68624BDA65FFF7FCF92F00FC3741
:105220007B699C4201D1FFF7F5F97C495B4807F0A7
:10523000BBFC280011302200A96FFF30FDF770FB86
:10524000CC2301937B691D2200937549754B300077
:1052500004F06EFAFFF7DEF92F00FC37BB699C42C1
:1052600001D1FFF7D7F970494C4807F09DFC2800A1
:1052700015302200E96FFF30FDF752FBCC2301937C
:10528000BB691E2200936649664B300004F050FA59
:10529000FFF7C0F92F00FC37FB699C4201D1FFF7F3
:1052A000B9F962493D4807F07FFC28002B1D1930F1
:1052B0002200D96FFF30FDF733FBCC230193FB694C
:1052C0001F2200935649574B300004F031FAFFF784
:1052D000A1F92F00FC373B6A9C4201D1FFF79AF9F4
:1052E00053492E4807F060FC2B00280008331D307E
:1052F0002200D96FFF30FDF713FBCC2301933B6AEB
:10530000202200934649474B300004F011FAFFF782
:1053100081F92F00FC377B6A9C4201D1FFF77AF9B3
:1053200044491E4807F040FC2B00280088332130F8
:1053300022001968FF30FDF7F3FACC2301937B6A52
:10534000212200933649374B300004F0F1F9FFF782
:1053500061F92F00FC37BB6A9C4201D1FFF75AF973
:1053600035490E4807F020FC2B0028008C332530EF
:1053700022001968FF30FDF7D3FACC230193BB6AF2
:10538000222200932649274B300004F0D1F9FFF781
:1053900041F9C046D8020020526C010024190020B7
:1053A000B8100020DC020020646C0100E002002044
:1053B000766C0100E4020020886C010018030020D4
:1053C0009A6C01001C030020AB6C0100200300203C
:1053D000BC6C0100F4020020CD6C0100F80200203A
:1053E000DF6C0100FC020020F16C010000030020D2
:1053F000036D010004030020156D01000803002067
:10540000276D01000C030020396D010010030020FE
:105410004B6D0100140300205D6D01006F6D0100F4
:105420000A0000200C000020856D01009B6D01002A
:10543000B06D0100C66D0100DB6D01002F00FC376F
:10544000FB6A9C4201D1FFF7E5F8D749D74807F03E
:10545000ABFB2B0028009033293022001968FF3065
:10546000FDF75EFACC230193FB6A23220093D04917
:10547000D04B300004F05CF9FFF7CCF82F00FC377C
:105480003B6B9C4201D1FFF7C5F8CB49C74807F0F9
:105490008BFB2B00280094332D3022001968FF303D
:1054A000FDF73EFACC2301933B6B24220093C049C5
:1054B000C04B300004F03CF9FFF7ACF8BF4904A83A
:1054C00007F03DFDFF253B6838005B69013D9847CB
:1054D000002DF8D1CC23009401936522B54BB4493B
:1054E000300004F025F93B6838001B699847002814
:1054F000F9D03B6838001B69984700280BD00A2276
:10550000390007A807F0B4FC07A904A807F03DFD7F
:1055100007A807F0C5FCA54CA949200007F028FB07
:105520000A220399200007F0B4FBA64E20003100A8
:1055300007F01EFBA44D3100280007F019FB2C21B9
:10554000200007F019FB2C21280007F015FB04A907
:10555000200007F01FFB04A9280007F01BFB04A88C
:1055600007F09EFCFFF756F8944904A807F0E7FC03
:10557000FF253B6838005B69013D9847002DF8D155
:10558000CC230094019366228A4B8949300004F0B1
:10559000CFF83B6838001B699847002803D10130D9
:1055A00007F0AAFDF5E73B6838001B69984700281B
:1055B00013D00A22390007A807F05AFC07A904A84B
:1055C00007F0E3FC07A807F06BFC04A9774807F095
:1055D000E1FA04A97C4807F0DDFA04A807F060FCB2
:1055E000FFF718F8784C7B21200007F0C5FA774DBB
:1055F000774A29687748FDF767F8774E2000310031
:1056000007F0B6FA754A69687548FDF75DF831002C
:10561000200007F0ADFA734AA9687348FDF754F803
:105620003100200007F0A4FA704AE9687048FDF7DD
:105630004BF83100200007F09BFA6E4A29696E484A
:10564000FDF742F83100200007F092FA6B4A6969D1
:105650006B48FDF739F83100200007F089FA694AF4
:10566000A9696948FDF730F83100200007F080FA99
:10567000664AE9696648FDF727F83100200007F01F
:1056800077FA644A296A6448FDF71EF83100200061
:1056900007F06EFA614A696A6148FDF715F8310052
:1056A000200007F065FA5F4AA96A5F48FDF70CF829
:1056B0003100200007F05CFA5C4AE96A5C48FDF7BB
:1056C00003F83100200007F053FA5A4A296B5A4870
:1056D000FCF7FAFF3100200007F04AFA574A696BDD
:1056E0005748FCF7F1FF3100200007F041FA554A16
:1056F000A96B5548FCF7E8FF3100200007F038FAA5
:10570000524AE96B5248FCF7DFFF3100200007F0F6
:105710002FFA504A296C5048FCF7D6FF3100200080
:1057200007F026FA4D4A696C4D48FCF7CDFF310071
:10573000200007F01DFA4B4AA96C4B48FCF7C4FF48
:105740003100200007F014FA484AE96C4848FCF799
:10575000BBFF3100200007F00BFA464A296D46488E
:10576000FCF7B2FF3100200007F002FA434A696DEE
:105770004348FCF7A9FF3100200007F0F9F9414A3E
:10578000A96D4148FCF7A0FF3100200007F0F0F9B7
:10579000E96D3E4A3E48FCF797FF3E49200007F07E
:1057A00003FAFEF737FFC046F16D0100241900200F
:1057B0000A0000200C000020066E0100A064010019
:1057C0001C6E0100AB64010060030020B8100020D3
:1057D00090130020216E0100936B0100A4130020A0
:1057E000246E0100B8130020276E0100CC130020A6
:1057F0002A6E0100E01300202E6E0100F413002039
:10580000326E010008140020366E01001C140020C6
:105810003A6E0100301400203E6E01004414002056
:10582000426E010058140020466E01006C140020E6
:105830004A6E0100801400204E6E01009414002076
:10584000516E0100A8140020546E0100BC14002009
:10585000576E0100D01400205B6E0100E41400209C
:105860005F6E0100F8140020636E01000C1500202B
:10587000676E0100201500206B6E010034150020BA
:105880006F6E010048150020736E01005C1500204A
:10589000776E01007B6E0100F8B50E4D0E4C297835
:1058A00022000E48FCF72EFF0D4F0E4B29783A6868
:1058B0001B782000FEF7E6FD0B4E29783200200011
:1058C000FCF72AFF074B39681A78084B30001B6831
:1058D0009847F8BD6216002018110020110D002015
:1058E00064160020B0100020D8150020CC15002030
:1058F00010B50B48FCF7A2FD0A4B1868C0B2FEF7C2
:105900006DFD094B1868C0B2FDF778FC074B1868AD
:10591000C0B2FCF7A3FD0648FCF790FD10BDC046E1
:10592000D36F0100C00200202403002030030020B8
:10593000F26F0100F8B5374C01212200364803F020
:1059400079FB2368354A364C1360364F364E374D57
:10595000AB2B34D0AB2201212F4803F0C3FB3449D9
:10596000200007F021F93349200007F01DF900223B
:10597000C2213800FCF7D4FF0122C3213000FCF71C
:10598000CFFF0022C4212800FCF7CAFF0122C52155
:105990002948FCF7C5FFFFF7ABFF2849200007F0B7
:1059A00003F9FDF745F82649200007F0FDF802202D
:1059B000FDF710F902216420FDF7A0FCF8BD214994
:1059C000200007F0F1F82049200007F0EDF8022050
:1059D000FDF720FB02216420FDF790FC1B4920000D
:1059E00007F0E2F83800C221FDF71EFA3000C321AB
:1059F000FDF71AFA2800C421FDF716FAC5210E4852
:105A0000FDF712FAFEF778FCFFF772FFFDF71AFABE
:105A1000D4E7C046C8150020180D00202C03002034
:105A200024190020C002002024030020300300209D
:105A30001B6501004E65010028030020736501000D
:105A400097650100B8650100DF6501000966010086
:105A5000F7B5FCF791FDFCF727FE02211A2007F0AD
:105A6000ABFD022286491A2006F018FF854A8649B6
:105A7000D3690C200B40D36107F0D8FC002106202D
:105A800007F09AFD01211D2007F096FD7F4B1D2098
:105A9000197807F0DDFD0121102007F08DFD0121AF
:105AA000102007F0D5FD01210C2007F085FDFEF741
:105AB000E1FBFEF7C9FBFCF74BFD00210C2007F0D2
:105AC000C7FD322007F018FB01210C2007F0C0FDB4
:105AD000FA20400007F010FB6B460024D81D02217D
:105AE0000470FDF745FEFDF72FFEFCF721FFFFF7E1
:105AF00021FFFDF729FE664804F08EFC0223654A6B
:105B0000654D1370654B664A1C70664B664E1C7083
:105B1000664B67491A6030002A0003F0B9FA654CF9
:105B20006549200007F024F829780A22200007F0B0
:105B3000B0F82B78012B00D080E06049200007F0FE
:105B400033F85F4D5F492A00300003F073FA2B6889
:105B50005D4FD8B23870FDF7BFFE5C49200007F0FA
:105B600023F83B785A49002B12D05A49012B0FD009
:105B70005949022B0CD05949032B09D05849042B01
:105B800006D05849052B03D05749062B00D057495A
:105B9000200007F009F82A005549300003F04AFABE
:105BA0002B68544F18003B60FDF7D2FE524920008D
:105BB00006F0FAFF386851490138042805D80AF080
:105BC000CDFB03565C585A004D49200006F0ECFF0F
:105BD0002A004C49300003F02DFA304B2868187029
:105BE000C0B2FDF7F1FE4849200006F0DDFF2B4B67
:105BF00046491B78002B1BD04549012B18D045493D
:105C0000022B15D04449032B12D04449042B0FD04A
:105C10004349052B0CD04349062B09D04249092B97
:105C200006D04249072B03D04149082B00D04149F7
:105C3000200006F0B9FF02223F4B1A703F492000B6
:105C400006F0B2FF134B3E491B78002B05D03D49AF
:105C5000012B02D0022B03D13B49200006F0A4FF08
:105C6000FDF728FE07F012FA384B1860F7BD3849E7
:105C7000ABE73849A9E73849A7E73849A5E7C0465F
:105C80001121000000180040FFFFFF8F4816002080
:105C90003403002018110020B1100020D815002076
:105CA00045210000D7150020180D0020CC1500203C
:105CB000FF0F0000241900204E7201005E720100E7
:105CC000C8150020FA0F0000D515002078720100D9
:105CD0008B7201009B720100AB720100BB7201006C
:105CE000D3720100E4720100F97201001373010024
:105CF000F90F00006416002034730100977301004F
:105D000046730100FB0F0000B6730100C77301006A
:105D1000E1730100F77301000F74010027740100A3
:105D20003F740100557401006C7401008774010018
:105D3000A2740100BC740100B0100020DB740100EB
:105D4000EB740100FD740100127501005C16002067
:105D500056730100667301007773010088730100B8
:105D600070B50600124C0D002000124906F01CFF11
:105D70003378DB0718D5012D06D1FF350E48013DDC
:105D800006F072FD002DF9D10C49200006F00CFF41
:105D900000220B490B4803F0D0F90B49200006F014
:105DA00003FF0A4B0A4A1A600023337070BDC046D5
:105DB0002419002076710100600300208471010025
:105DC000FF0F0000180D00209B710100CC15002072
:105DD00045210000F0B5037889B005900D0014004E
:105DE0005B073DD07A4E7B49300006F0C1FE0A22A7
:105DF0002100300006F04DFF774F3D60012C00D0B0
:105E00009BE02900754803F099FC431E9841744BB0
:105E100018703D680027022D00D199E0042D00D1B3
:105E2000A9E0012D18D16F4B6F4930001F6006F0BB
:105E3000BBFE6E4A6E49D3690B40D36101226D49A6
:105E40006D4803F07AF90B20FCF7BEFB0420FCF749
:105E500005FC0520FCF7E6FB07F018F9674B186016
:105E60005F4B1B78002B63D007F016F9644B18606A
:105E7000012C00D093E00023022202930093614999
:105E8000614B5648019403F07AFC0490049B002B6C
:105E900002D05E4B049A1A605D4F3B78002B43D0D2
:105EA00018200DF0BBFB4F4E040033680133336004
:105EB00007F0ECF8514B574D1B680422C01A002321
:105EC0002860554920003B700DF0E8FB4F4F102231
:105ED0003968201D0DF0E2FB2B6818226361210058
:105EE00007AB4E4803F05CFC20000DF0A1FB3368CB
:105EF000042B14D94A4C04224749200006F008FE1E
:105F000010223968200006F003FE04222900200038
:105F100006F0FEFD042207A9200006F0F9FDFCF7BB
:105F200049FB0520FCF77EFB354B1A683D4B1A6098
:105F30000023059A137009B0F0BD022C02D129008C
:105F4000394860E7032C00D063E7290037485AE757
:105F5000244B374930001F6006F026FE35493000DB
:105F600006F022FE2149224ACB691A40C0239B0534
:105F70001343CB6162E7FDF793FC1A4B1B4A1F608A
:105F8000D3691B491C480B40D3611A493A0003F0FE
:105F9000D4F8FCF735FB2800FCF750FB5CE7022C3B
:105FA00009D1002301220293019200932200164B93
:105FB00014491D4867E7032C00D067E7002301223E
:105FC00002930192009392180F4B0E4917485AE71B
:105FD000241900200168010004000020DC150020C5
:105FE000D7150020140D002025680100001800407E
:105FF000FFFFFF8FFF0F0000180D00205816002034
:10600000501600200800002060160020D015002047
:1060100059030020B41000204A7201001911002019
:1060200060030020541600200016002024160020D3
:1060300054640100396801000023F0B589B006936B
:1060400003780590049114009B0738D5944E954928
:10605000300006F08DFD0A222100300006F019FE06
:10606000914F049B3B60012C00D0BDE019008F488C
:1060700003F064FB431E98418D4B18703F68022F5C
:1060800000D1BCE0042F00D1DBE0012F13D10022AE
:10609000884B894930001A6006F086FD874A884996
:1060A000D36988480B40D36187493A0003F045F82B
:1060B0000B20FCF789FA06F0E9FF844B18607C4B53
:1060C0001B78002B00D18AE006F0E6FF804B1860B9
:1060D000012C00D0CAE000230222029300937D49E4
:1060E0007D4B7248019403F04AFB0500002D10D04F
:1060F00000217A4BEA7A1D60794B1A70AA7A5A709D
:106100006A7A9A702A7ADA701B68764A116051604E
:106110009360754D2B78002B5DD010200DF07EFA2A
:10612000644F04003B6801333B6006F0AFFF674BF0
:106130006E4E1B686B49C01A6D4B1860002330000F
:106140002B70FDF7D3FCF37A06AD2B70B37A0422E3
:106150006B70737A6749AB70337A2000EB700DF087
:106160009DFA20005D4E069B316863600C3104226D
:1061700008300DF093FA5E4B10221B682100049347
:10618000E3605D4807AB03F00BFB20000DF050FA15
:106190003B68042B1AD9594C04225649200006F0BA
:1061A000B7FC04222900200006F0B2FC316804226A
:1061B0000C31200006F0ACFC04224D49200006F012
:1061C000A7FC042207A9200006F0A2FCFCF7F2F9C4
:1061D0000520FCF727FA3E4B1A68494B1A6000234A
