:10200000008000206DE4000055E4000055E400006D
:1020100000000000000000000000000000000000C0
:1020200000000000000000000000000055E4000077
:10203000000000000000000055E40000C1E40000C2
:1020400055E4000055E4000055E4000055E40000AC
:102050001DDE000055E4000055E4000059E40000D6
:1020600055E40000352300005523000045230000FF
:10207000652300009D8F00007523000055E40000DB
:1020800055E4000055E4000055E4000055E400006C
:102090000000000055E4000055E4000055E4000095
:1020A00055E4000055E4000055E4000055E400004C
:1020B0000000000010B5064C2378002B07D1054B1B
:1020C000002B02D0044800E000BF0123237010BDA4
:1020D000A8020020000000002CC00100044B10B535
:1020E000002B03D00349044800E000BF10BDC046E8
:1020F00000000000AC0200202CC00100024AD3798D
:10210000DB09FCD17047C04600100040704700005A
:1021100010B50124084B1D201978614019700CF08E
:10212000BFFC064B1A7862401A701B78002B01D056
:10213000034B1C7010BDC046781600205C030020C5
:102140005D030020002310B503700CF0C7F9074CA5
:102150002368C01A064B984206D90CF0BFF905490E
:10216000206005480BF048FF10BDC0468C160020CB
:1021700087130000577601006403002010B50400A7
:10218000406F002801D00CF029FA200010BD00009B
:102190001E2210B522494B6893431C3A13434B60EF
:1021A000A121204BC9009982998A0A439A82DA6850
:1021B0009207FCD502221C48FF3282601B4A426013
:1021C0004278D209FCD18222D2014280DA68D2065A
:1021D000FCD502229A84DA68D206FCD5144ADA6267
:1021E000DA68D206FCD5134A134C11689A6A890E34
:1021F000890222400A439A62DA68D206FCD5998C99
:102200000E4A0A439A84DA681206FCD5DA68520646
:10221000F9D50B4B43604378DB09FCD110BDC046B8
:102220000040004100080040000C00400105030090
:10223000B905FF7D24608000FF03FFFF0608000052
:10224000000703001E2210B521494B6893431C3A36
:1022500013434B601F4B20499982998A0A439A8203
:10226000DA689207FCD502221C48FF3282601C4AC1
:1022700042604278D209FCD18222D2014280DA68DF
:10228000D206FCD502229A84DA68D206FCD5154A19
:10229000DA62DA68D206FCD5134A144C11689A6ADD
:1022A000890E890222400A439A62DA68D206FCD576
:1022B000998C0F4A0A439A84DA681206FCD5DA68C8
:1022C0005206F9D50B4B43604378DB09FCD110BDB6
:1022D00000400041000800400C050000000C0040D8
:1022E00001050300B905FF7D24608000FF03FFFFA7
:1022F000060800000007030010B5094C002805D0AF
:10230000084C012802D0022808D1074C21000748B8
:102310000BF072FE210006480BF06EFE10BDC046A9
:1023200093720100A6720100B9720100181A002010
:102330006403002010B5024806F0A5FD10BDC0469C
:102340005811002010B502480BF015FC10BDC04616
:10235000A805002010B502480BF00DFC10BDC046CA
:10236000EC07002010B502480BF005FC10BDC0467C
:10237000300A0020F0B5244885B00BF0FCFB0023A8
:1023800002220293214B019200932149214B2248C2
:1023900006F0DEFE002835D00378204E82783370B8
:1023A000437812021A43C3781D4F1B041A43037962
:1023B0001C4D1B06134301221BBA3B6043791A4C88
:1023C0002B701A4B1A4920001A700BF0F9FD317866
:1023D0000A2220000BF081FE164E200031000BF087
:1023E000EFFD0A22396820000BF053FE3100200077
:1023F0000BF0E6FD0A22297820000BF072FE012284
:102400000D4B1A7005B0F0BD640300200C000020D5
:102410000A00002034110020201100209216002014
:1024200094160020B4100020181A0020150D00206A
:1024300094660100906F0100B610002010B50400F2
:10244000010004480BF0D8FD210003480BF0D4FD37
:1024500010BDC046181A00206403002070B5041E89
:1024600005D1134B18701348FFF7E8FF08E0012867
:1024700007D10F4B18701048FFF7E0FFFFF788FEF9
:1024800070BD022807D10A4B18700C48FFF7D6FF21
:10249000FFF7D8FEF4E70A4D0A4928000BF090FD3B
:1024A0000A22210028000BF01CFE0748DCE7C0468A
:1024B000140D002093720100A6720100B972010090
:1024C000181A0020376A01003E6A010070B50A4BF5
:1024D0001A78FF2A0FD1013A1A70084B084C094D9F
:1024E0001B68094920002B700BF06AFD2978102227
:1024F00020000BF0F6FD70BD92160020941600200F
:10250000181A0020091600205C76010070B50C4CEA
:102510000C4E2178102230000BF0E3FD0A4D102202
:10252000296830000BF0B9FD2378FF2B07D12B6809
:10253000013304D1FE2301222370044B1A7070BDB5
:1025400092160020181A002094160020041600206D
:1025500010B5084807F028FA032108000CF0CCFA5F
:10256000032116200CF0C8FA032117200CF0C4FA3E
:1025700010BDC046381100201FB50C4C00222000B1
:10258000022108F02BF9002302930023084A0121BD
:10259000009201932000022208F0F0F9FA220721AC
:1025A0005200200008F07EF91FBDC0461000002038
:1025B00060EA0000A52210B5024B1A72FFF79EFDDB
:1025C00010BDC04600100040002370B5094D040046
:1025D0002B70FFF793FD0B2C00DD0B240223E0B2E0
:1025E00068702B70FFF78AFD034904480BF004FD67
:1025F00070BDC046001000404E760100181A002041
:10260000002210B5044B1A70FFF778FD0349044807
:102610000BF0F2FC10BDC04600100040A5660100A2
:10262000181A0020012110B5034B1A785140197077
:102630000CF036FA10BDC046740C002010B5040032
:10264000044905480BF0D8FC012120000CF028FAC1
:1026500010BDC046616A0100181A002070B50D4D0A
:102660000D49060028000BF0ABFC0C4C0A22216837
:1026700028000BF012FD2368012B07D10848FFF753
:10268000DDFE002130000CF00BFA70BD0548FFF7AD
:10269000D5FEFAE7181A0020B76801002C030020C5
:1026A000C6680100D968010010B5012105200CF0B1
:1026B000ABF9012104200CF0A7F9FFF7A1FF0420DA
:1026C000FFF7BCFF10BD000037B50500081C140063
:1026D00011F02AF82B0000900191074A14212000E4
:1026E00012F09EF8210005480BF086FC21000448FA
:1026F0000BF066FC37BDC0460D690100181A0020BA
:10270000640300200378002B05D000230370072901
:1027100000D901331370704770B503781400002B93
:1027200023D1023303703F4D06290DD808003E4BDC
:102730000EF008F80431373D43494F003B4A1A6018
:102740000123237000232B70394E22783949300041
:1027500006F0A0FC2A783849300006F09BFC374B85
:1027600037491A68300006F095FC364B1A78012A72
:102770004DD10022344E354930001A700BF03CFC2C
:10278000284D2878062831D8274B0DF0DBFF262965
:102790004143454749002E4A1A6002232370013BFA
:1027A000D1E72C4A1A6005232370033BCBE72A4A62
:1027B0001A6008232370053BC5E7284A1A600623E0
:1027C0002370023BBFE7264A1A6009232370043BAB
:1027D000B9E7244A1A600723E0E7144A1A6005E0C3
:1027E0001B4A214930001A600BF006FC2278104C7D
:1027F0001049200006F04EFC2A780F49200006F010
:1028000049FC0E4B0E491A68200006F043FC70BDCF
:10281000104AE3E7104AE1E7104ADFE7104ADDE734
:10282000104ADBE705160020FC150020C55D0000FE
:102830001C0D0020FB0F0000FA0F00009416002072
:10284000F90F0000B5100020181A00207A7201005C
:102850009D600000796300009168000081660000BF
:10286000993B0000395E0000C076010070B505009C
:102870000A4C0B4E220030000A4906F0B3FBA37845
:1028800030002B70637822006B70074906F0AAFBBA
:10289000A378AB706378EB7070BDC046F81500206C
:1028A0001C0D0020FC0F0000FD0F0000074A1368FC
:1028B000013313601B0E037013681B0C4370136805
:1028C0001B0A83701368C3707047C0466003002002
:1028D00070B5040012200CF029F8104D2860000497
:1028E000000E20702B78062063700CF01FF8030494
:1028F0001B0E2860A370E07011200CF017F8030481
:102900001B0E28602371607113200CF00FF8030474
:102910001B0E2860A371E07170BDC046F815002041
:1029200010B50260014806F0B5FB10BD1C0D00207B
:1029300070B5FFF7EBFD2B4D2B78002B50D02A4CB8
:102940002078052807D80DF0FDFE033F4509163312
:102950002648FFF773FD01232370ECE72448FFF7B7
:102960006DFD2448FFF76AFD23480022C421FFF7CC
:10297000D7FF2248EDE72248FFF760FD2148FFF727
:102980005DFD214D00222149280006F0AEFB00220A
:102990001F49280006F07EFB00221E49280006F091
:1029A00079FB04221C49280006F074FB1B48D0E781
:1029B0001B48FFF743FD1B48FFF740FD0022C521E0
:1029C0001948FFF7ADFFF1E7FFF780FD64200BF03A
:1029D000BBFDB0E71548FFF731FD00232B70AAE7D8
:1029E00070BDC0460416002009160020EA660100EA
:1029F0000A670100266701003403002042670100D6
:102A000068670100856701001C0D0020FF0F0000B2
:102A1000FB0F0000FA0F0000F90F00009B67010098
:102A2000CC670100E36701002C030020F867010078
:102A300010B5FE244C48FFF701FD0022D2214B487F
:102A4000FFF76EFF0022D3214948A405FFF768FF76
:102A50000022D4214748FFF763FF2200D5214648D2
:102A6000FFF75EFF0022D6214448FFF759FF0022FE
:102A7000D7214348FFF754FF0022D8214148FFF7F0
:102A80004FFF2200D9214048FFF74AFF0022DA21F8
:102A90003E48FFF745FF0022DB213D48FFF740FF9E
:102AA0000022DC213B48FFF73BFF2200DD213A48B2
:102AB000FFF736FF0022DE213848FFF731FF002202
:102AC000DF213748FFF72CFF0022E0213548FFF7D0
:102AD00027FF2200E1213448FFF722FF0022E221F4
:102AE0003248FFF71DFF0022E3213148FFF718FFAE
:102AF0000022E4212F48FFF713FF2200E5212E4892
:102B0000FFF70EFF0022E6212C48FFF709FF002205
:102B1000E7212B48FFF704FF0022E8212948FFF7AF
:102B2000FFFE2200E9212848FFF7FAFE0022274B8A
:102B300027481A605A609A60DC601A615A619A618B
:102B4000DC611A625A629A62DC621A635A639A639F
:102B5000DC631A645A649A64DC641A655A659A657F
:102B6000DC65FFF76BFC10BD77730100EC02002001
:102B7000F0020020F4020020C8020020CC02002055
:102B8000D0020020D4020020D8020020DC02002065
:102B9000E0020020E4020020E80200201C030020E4
:102BA0002003002024030020F8020020FC02002063
:102BB0000003002004030020080300200C03002071
:102BC000100300201403002018030020BC10002074
:102BD000A473010070B50500874C012805D00228B8
:102BE00000D106E1032800D1844C8548FFF726FC7C
:102BF00029000A2283480BF074FA20006422B030C6
:102C00002168FFF78DFE20001422B4306168FFF7C1
:102C100087FE20000622B830A168FFF781FE200061
:102C2000794AC430E168FFF77BFE2000774AC8305C
:102C30002169FFF775FE20000022D0306169FFF79F
:102C40006FFE20000022CC30A169FFF769FE200052
:102C50000122A030E169FFF763FE20008022D4301A
:102C6000D201216AFFF75CFE20000122BC30616ABC
:102C7000FFF756FE20000622C030A16AFFF750FE83
:102C8000200005229830E16AFFF74AFE2000072263
:102C90009C30216BFFF744FE20000122A430616BC1
:102CA000FFF73EFE20004D22A830A16BFFF738FE53
:102CB0002000FA22AC30D200E16BFFF731FE200099
:102CC0000022D830216CFFF72BFE2000504ADC3068
:102CD000616CFFF725FE20000022E030A16CFFF7B9
:102CE0001FFE20000022E430E16CFFF719FE2000F7
:102CF0000022E830216DFFF713FE20000022EC30A7
:102D0000616DFFF70DFE20000022F030A16DFFF78E
:102D100007FE20000022F430E16DFFF701FE2000E5
:102D20000022F830216EFFF7FBFD20000022FC306E
:102D3000616EFFF7F5FD20000930FF300022216FA2
:102D4000FFF7EEFD20000D30FF30324A616FFFF7D4
:102D5000E7FD601CFF30304AA16EFFF7E1FD601D0A
:102D6000FF302E4AE16EFFF7DBFD20001130FF300F
:102D70000022A16FFFF7D4FD20001530FF30284A54
:102D8000E16FFFF7CDFD2000231D1930D96FFF3013
:102D90000022FFF7C5FD2300200008331D30D96F46
:102DA000FF300022FFF7BCFD2300200088332130D4
:102DB0001968FF300022FFF7B3FD230020008C3399
:102DC00025301968FF300022FFF7AAFD23002000FC
:102DD000903329301968FF300022FFF7A1FD23004E
:102DE000200094332D30FF3000221968FFF798FD42
:102DF00070BD0C4CF9E6C046840F0020540E002034
:102E000050740100181A00208C23000074DCFFFFAE
:102E100017B7D138008022440000A0C10000A042B2
:102E200000002042240D002070B50500034C04482A
:102E3000220006F0D7F823682B6070BDF81500203B
:102E40001C0D0020F8B55848FFF7F8FAD221574872
:102E5000FFF7EAFFD3215648FFF7E6FFD421554894
:102E6000FFF7E2FFD5215448FFF7DEFFD621534894
:102E7000FFF7DAFFD7215248FFF7D6FFD821514894
:102E8000FFF7D2FFD9215048FFF7CEFFDA214F4894
:102E9000FFF7CAFFDB214E48FFF7C6FFDC214D4894
:102EA000FFF7C2FFDD214C48FFF7BEFFDE214B4894
:102EB000FFF7BAFFDF214A48FFF7B6FFE021494894
:102EC000FFF7B2FFE1214848FFF7AEFFE221474894
:102ED000FFF7AAFFE3214648FFF7A6FFE421454894
:102EE000FFF7A2FFE5214448FFF79EFF434FE6218D
:102EF0003800FFF799FF424EE7213000FFF794FFBB
:102F0000404DE8212800FFF78FFF3F4CE9212000CA
:102F1000FFF78AFF254A3D4B12681A60244A12685F
:102F20005A60244A12689A60234A1268DA60234A77
:102F300012681A61224A12685A61224A12689A611A
:102F4000214A1268DA61214A12681A62204A12681C
:102F50005A62204A12689A621F4A1268DA621F4A4D
:102F600012681A631E4A12685A631E4A12689A63EC
:102F70001D4A1268DA631D4A12681A641C4A1268F4
:102F80005A641C4A12689A641B4A1268DA643A68E6
:102F90001A6532685A652A681D489A652268DA659A
:102FA000FFF74CFAF8BDC0463A750100EC0200206C
:102FB000F0020020F4020020C8020020CC02002011
:102FC000D0020020D4020020D8020020DC02002021
:102FD000E0020020E4020020E80200201C030020A0
:102FE0002003002024030020F8020020FC0200201F
:102FF0000003002004030020080300200C0300202D
:10300000100300201403002018030020BC1000202F
:103010006575010070B50500734C012805D00228C4
:1030200000D1DEE0032800D1704C7148FFF706FAAA
:103030000A2229006F480BF054F820002168B030B4
:10304000FFF7F2FE20006168B430FFF7EDFE2000CC
:10305000A168B830FFF7E8FE2000E168C430FFF750
:10306000E3FE20002169C830FFF7DEFE2000616921
:10307000D030FFF7D9FE2000A169CC30FFF7D4FE95
:103080002000E169A030FFF7CFFE2000216AD43094
:10309000FFF7CAFE2000616ABC30FFF7C5FE2000C2
:1030A000A16AC030FFF7C0FE2000E16A9830FFF748
:1030B000BBFE2000216B9C30FFF7B6FE2000616B49
:1030C000A430FFF7B1FE2000A16BA830FFF7ACFEE3
:1030D0002000E16BAC30FFF7A7FE2000216CD83058
:1030E000FFF7A2FE2000616CDC30FFF79DFE2000A0
:1030F000A16CE030FFF798FE2000E16CE430FFF7B0
:1031000093FE2000216DE830FFF78EFE2000616DF8
:10311000EC30FFF789FE2000A16DF030FFF784FE50
:103120002000E16DF430FFF77FFE2000216EF830C3
:10313000FFF77AFE2000616EFC30FFF775FE20007D
:103140000930FF30216FFFF76FFE20000D30FF3098
:10315000616FFFF769FE601CFF30A16EFFF764FE30
:10316000601DFF30E16EFFF75FFE20001130FF3081
:10317000A16FFFF759FE20001530FF30E16FFFF718
:1031800053FE2000231D1930D96FFF30FFF74CFE8E
:103190002300200008331D30D96FFF30FFF744FEB5
:1031A00023002000883321301968FF30FFF73CFEF0
:1031B000230020008C3325301968FF30FFF734FEE0
:1031C00023002000903329301968FF30FFF72CFED0
:1031D0002300200094332D30FF301968FFF724FEC0
:1031E00070BD054C21E7C046840F0020540E00201E
:1031F00076740100181A0020240D0020F0B5334D1C
:1032000085B00600324928000AF0F6FE314C324FF4
:10321000022E34D0032E13D0002E43D100232F4A88
:1032200001210092019320000222029607F0A6FBE2
:10323000FA2220005200072107F034FB284C11E04D
:10324000002302930023274A0121009201932000CA
:10325000022207F093FBFA2220005200072107F018
:1032600021FB214C210028000AF0C6FE2100380075
:103270000AF0C2FE64200BF067F905B0F0BD002330
:1032800002930023194A0121009201932000320089
:1032900007F074FBFA2220005200072107F002FB1E
:1032A000134CDFE7002302930023124A012100920E
:1032B00001932000022207F061FBFA222000520055
:1032C000072107F0EFFA0C4CCCE7C046181A002093
:1032D000716A01001000002064030020C02709006B
:1032E000C96A0100983A0000816A01003075000047
:1032F000996A010060EA0000B16A0100F0B50C00B3
:1033000085B00600FD48FFF799F80A222100FC4825
:103310000AF0E7FE012C00D106E2022C00D006E202
:10332000F84CF94D2B00B033F84F1B680022009386
:10333000F7493B00200006F097F930000BF004F944
:103340002B00B4331B6805220093F1493B00200099
:1033500006F08AF930000BF0F7F82B00B8331B6841
:1033600007220093EA493B00200006F07DF9300077
:103370000BF0EAF82B00C4331B6801220093E449E8
:103380003B00200006F070F930000BF0DDF82B0058
:10339000C8331B6802220093DD493B00200006F081
:1033A00063F930000BF0D0F82B00D0331B680622F5
:1033B0000093D7493B00200006F056F930000BF08F
:1033C000C3F82B00CC331B6803220093D0493B0089
:1033D000200006F049F930000BF0B6F82B00A033BE
:1033E0001B6804220093CA493B00200006F03CF908
:1033F00030000BF0A9F82B00D4331B680C2200938B
:10340000C3493B00200006F02FF930000BF09CF878
:103410002B00BC331B680D220093BD493B002000EC
:1034200006F022F930000BF08FF82B00C0331B6838
:103430000E220093B6493B00200006F015F930003B
:103440000BF082F82B0098331B6809220093B049D7
:103450003B00200006F008F930000BF075F82B0057
:103460009C331B680A220093A9493B00200006F008
:10347000FBF830000BF068F82B00A43302931B68B4
:103480000B2203930093A2493B00200006F0ECF8C6
:1034900030000BF059F800230B2200939C493B00AD
:1034A000200006F0E1F830000BF04EF8029B0B22F2
:1034B0001B689749009320003B0006F0D5F83000C8
:1034C0000BF042F82B00A8331B683222009390497E
:1034D0003B00200006F0C8F830000BF035F82B0058
:1034E000AC331B686222009389493B00200006F040
:1034F000BBF830000BF028F82B00D8331B680F22E4
:10350000009383493B00200006F0AEF830000BF03A
:103510001BF82B00DC331B68102200937C493B0016
:10352000200006F0A1F830000BF00EF82B00E0337D
:103530001B681122009376493B00200006F094F8A6
:1035400030000BF001F82B00E4331B6812220093CB
:103550006F493B00200006F087F830000AF0F4FFC6
:103560002B00E8331B681322009369493B002000BD
:1035700006F07AF830000AF0E7FF2B00EC331B6806
:103580001422009362493B00200006F06DF83000E1
:103590000AF0DAFF2B00F0331B68152200935C4918
:1035A0003B00200006F060F830000AF0CDFF2B0051
:1035B000F4331B681622009355493B00200006F0A7
:1035C00053F830000AF0C0FF2B00F8331B681722B5
:1035D00000934F493B002000FC3506F045F83000D1
:1035E0000AF0B2FF2B681822009349493B002000E3
:1035F00006F03AF830000AF0A7FFEB681B220093B0
:1036000043493B00200006F02FF830000AF09CFFF1
:103610002B691C2200933E493B00200006F024F851
:1036200030000AF091FF6B681922009338493B0083
:10363000200006F019F830000AF086FFAB681A2265
:10364000009333493B00200006F00EF830000AF0EA
:103650007BFF6B691D2200932D493B00200006F083
:1036600003F830000AF070FFAB691E22009328496E
:103670003B00200005F0F8FF30000AF065FFEB6921
:103680001F22009322493B00200005F0EDFF30008F
:103690000AF05AFF2B6A202200931D493B002000AC
:1036A00005F0E2FF30000AF04FFF6B6A2122009321
:1036B00017493B00200005F0D7FF30000AF044FF17
:1036C000AB6A2222009312493B00200005F0CCFF98
:1036D00030000AF039FFEB6A232200930C493B00CB
:1036E000200005F0C1FF30000AF02EFF2B6B2422D2
:1036F0000749009320003B000CE0C0461174010014
:10370000181A002030160020240D00200C00002084
:103710000A00002005F0A8FF30000AF015FF054858
:10372000FEF78CFE05B0F0BD034C044DFAE5044CE9
:10373000044DF7E5357401000C160020840F0020BD
:1037400054160020540E002070B50A2400250126CE
:10375000290010200BF0A4F9013C64200AF0F4FECB
:103760007540002CF4D164200AF0EEFE70BD00001C
:10377000F0B589B00390012972D0022973D00329D2
:1037800002D13B4C3B4B0293FF25236820005B6931
:10379000013D9847002DF8D10523CC2764223649F6
:1037A00000930298354B019705F09AFF0A200AF022
:1037B000CBFE0A22210005A80AF082FD290005A8F7
:1037C0000AF03AFE039A037805A813700AF090FDF8
:1037D0000AF084FE0600039B1B78002B46D10AF0FA
:1037E0007DFEFA23801B5B009842F4D9FF26013549
:1037F000EDB2236820005B69013E9847002EF8D1A6
:10380000052364221C49009302981C4B019705F084
:1038100067FF0A200AF098FE0A22210005A80AF094
:103820004FFD310005A80AF007FE039A037805A8AA
:1038300013700AF05DFD124B1B78002B02D00123A0
:10384000039A13700F48FEF7F9FD29000A220E486B
:103850000AF047FC0A2229000C480AF042FCB7E7AC
:103860000B4C0C4B8FE70C4C0C4B8CE709B0F0BDAC
:10387000300A0020541600200A0000200C0000200E
:10388000B6100020E06A0100181A0020640300202E
:10389000A80500200C160020EC07002030160020A0
:1038A000002110B5024B1D2019700BF0F9F810BD66
:1038B0007816002010B5054C054920000AF080FB61
:1038C000044920000AF098FB10BDC046181A0020D9
:1038D0009E680100A868010070B50500134C1449EA
:1038E00020000AF089FB134920000AF069FB0A2234
:1038F000290020000AF0F5FB062D11D90E49200001
:103900000AF07AFB0D4920000AF076FB01220C4BED
:103910001A7000220B4B1A700B4B04321A6070BDE8
:103920000A4920000AF068FBF9E7C046181A00208F
:10393000F06A01000D6B0100246B01003B6B01007C
:10394000081600200516002098160020626B010062
:1039500070B50500134C144920000AF04DFB1349C3
:1039600020000AF02DFB29000A222000013D0AF068
:1039700094FB042D11D90E4920000AF03DFB0D499E
:1039800020000AF039FB01220B4B1A7000220B4B6E
:103990001A700B4B04321A6070BD0A4920000AF0FD
:1039A0002BFBF9E7181A0020CE720100F572010016
:1039B0000773010028730100081600200516002077
:1039C00098160020626B010070B50500134C144975
:1039D00020000AF011FB134920000AF0F1FA0A2234
:1039E000290020000AF059FB092D11D90E492000A9
:1039F0000AF002FB0D4920000AF0FEFA01220C4BEE
:103A00001A7000220B4B1A700B4B04321A6070BDF7
:103A10000A4920000AF0F0FAF9E7C046181A002017
:103A2000796B0100966B0100A86B0100BF6B010070
:103A3000081600200516002098160020E76B0100EC
:103A4000F8B5294C0D0006000968E0680DF018FD76
:103A50006968071C20690DF013FD011C381C0DF06E
:103A60009DF9A968071C60690DF00AFD011C381C4E
:103A70000DF094F921680DF091F930602968A06982
:103A80000DF0FEFC6968071CE0690DF0F9FC011CF3
:103A9000381C0DF083F9A968071C206A0DF0F0FCB2
:103AA000011C381C0DF07AF961680DF077F970602F
:103AB0002968606A0DF0E4FC6968071CA06A0DF0D3
:103AC000DFFC011C381C0DF069F9A968071CE06ACD
:103AD0000DF0D6FC011C381C0DF060F9A1680DF04A
:103AE0005DF9B060F8BDC046BC100020F8B5294CA7
:103AF0000D0006000968E06B0DF0C2FC6968071C48
:103B0000206C0DF0BDFC011C381C0DF047F9A968B4
:103B1000071C606C0DF0B4FC011C381C0DF03EF964
:103B2000216B0DF03BF930602968A06C0DF0A8FC0A
:103B30006968071CE06C0DF0A3FC011C381C0DF03B
:103B40002DF9A968071C206D0DF09AFC011C381C8A
:103B50000DF024F9616B0DF021F970602968606D3A
:103B60000DF08EFC6968071CA06D0DF089FC011C2E
:103B7000381C0DF013F9A968071CE06D0DF080FCEE
:103B8000011C381C0DF00AF9A16B0DF007F9B060AB
:103B9000F8BDC046BC1000200523F0B51600027821
:103BA000ABB005900C001A4242D0964D96492800C1
:103BB0000AF006FA0A22310028000AF092FA934F1E
:103BC0003C60012E12D12100914805F08FFD431E6B
:103BD0009841904B187038680138032824D88E4FCC
:103BE0008E4C8F4E0CF0AEFD0C91A2B0022E02D185
:103BF00021008C48E9E7032EEDD121008A48E4E753
:103C000000233B60E369894A1340E361012288494C
:103C1000300005F06AFA0B20FEF7D6FC0420FEF710
:103C20001DFD0520FEF7FEFC0AF058FC814B1860D4
:103C3000784B1B78002B00D1D3E0002301220293A4
:103C40000192009392187C4B7C49764805F06DFDFB
:103C500000280AD07A4BC27A18607A4B1A70827A9E
:103C60005A70427A9A70027ADA70774C2378002B75
:103C700000D1B6E0684D2B6801332B600AF02EFCB2
:103C80006C4B724E1B68724FC01A00232370714C2C
:103C900031003860200006F0B8F931006E48FFF7B7
:103CA000CFFE08A9200006F0F5FB6C49089B6C4884
:103CB0000B60099B0BAC4B60624B1B688B60FFF782
:103CC00015FF684E6848B1680DF00CFD0FF02CFD33
:103CD0000690079170680FF027FD029003913068FD
:103CE0000FF022FD069A079B009001915F4920008A
:103CF00010F0C8FD200010F0E5FD00221300824204
:103D00003BD0A15C01324B40F9E700235849280021
:103D10003B600AF071F9574928000AF06DF9434BEE
:103D2000E2691A40C0239B0513436EE70023524902
:103D300028003B600AF060F94E4928000AF05CF95F
:103D40004E4802F0E5FFEAE7FFF7AAFD00233B60DB
:103D5000E369364A30001340E3610022344905F03C
:103D6000C4F9002345481A1C191C02F047FFFEF74E
:103D700047FC0420FEF762FC56E72A68042A08D9AB
:103D80003F49220018A810F07DFD18A93D480AF00F
:103D900017F9FEF70FFC0520FEF744FC38680DF01C
:103DA000E5FE0FF0C1FC384A384B0EF045FE0FF02F
:103DB0000DFD324D011C284B2800294A03F0D2FE8C
:103DC000284C2800210002F0F1FEA5682649281C95
:103DD0000CF0B0FE002809D02349281C0DF082FC0D
:103DE000A0600023059A13702BB0F0BD0021281CA1
:103DF0000CF082FE0028F4D01B49281C0CF0CEFFEA
:103E0000EEE7C046181A00201968010004000020DF
:103E10000C16002007160020180D00200018004086
:103E20001C0D00203016002054160020FFFFFF8FCD
:103E3000FF0F0000881600209016002008000020C8
:103E400000160020840C00205D030020780C002068
:103E5000B810002038030020940C0020AC0C002087
:103E6000880C0020A00C00200000B44378680100FA
:103E70003C6801005068010063680100741500206F
:103E80009368010064030020FCA9F1D24D62503F09
:103E900010B5002803D10548FEF7D0FA10BD01285F
:103EA00001D10348F8E70348F6E7C046E36701009D
:103EB000507301006473010010B504000AF08EFB1A
:103EC000200010BD4222C74BF0B562211A600132BA
:103ED0005A6001329A600132DA6001321A610132AD
:103EE0005A6101329A610132DA6101321A62013299
:103EF0005A6201329A620132DA6201321A63013285
:103F00005A6301329A630132DA6301321A64013270
:103F10005A6401329A640132DA6401321A6501325C
:103F20005A6501329A650132DA6501321A66013248
:103F30005A6601329A660132DA6601321A67013234
:103F40005A6701329A670132DA671A1DD1671A007F
:103F500001310832D1671A000131883211601A002C
:103F600001318C3211601A000131903211606722E8
:103F700094331A609C4B1B321A6001325A60013232
:103F80009A600132DA6001321A6101325A610132FB
:103F90009A610132DA6101321A6201325A620132E7
:103FA0009A620132DA6201321A6301325A630132D3
:103FB0009A630132DA6301321A6401325A640132BF
:103FC0009A640132DA6401321A6501325A650132AB
:103FD0009A650132DA6501321A6601325A66013297
:103FE0009A660132DA6601321A6701325A67013283
:103FF0009A670132DA673C311A1DD1671A00013124
:104000000832D1671A000131883211601A0001317B
:104010008C3211601A00013190321160A722943362
:104020001A60022303260624172022256F49923A9C
:104030000B60DB188B600133CB6002334B610133C3
:104040008B610133CB6101330B6201334B6201336E
:104050008B620133CB6201330B6301334B6301335A
:104060008B630133CB6301330B6401334B64013346
:104070004E600C618B644865013088650130C8650D
:10408000801988660130C8660130086701304867CA
:10409000013088670130C867081DC5670800013511
:1040A0000830C56708000135883005600800013513
:1040B0008C30056008000135903005602720CA6407
:1040C00001320A6504324A4D0A6601324A66943169
:1040D00085B008604749280004F0CAFD2900464819
:1040E00004F07CFF454F464D22003900280005F0C2
:1040F0001AF828000125434C434922000AF0AAFD82
:1041000001952B00009600224049380009F0ACFCD4
:104110003F4F01950096182319223E49380009F0B7
:10412000A3FC0195009508230D223B493B4809F06B
:104130009BFC0923019500960A223949394809F068
:1041400093FC394D39001022280005F033FA374F1F
:104150002200390028000AF07DFD354D10222F493C
:10416000280005F027FA2200390028000AF072FD25
:10417000304D10222B49280005F01CFA220039008E
:1041800028000AF067FD002316222B4D01930092B0
:104190001733320002962949280005F097FB2200C8
:1041A000274928000AF056FD264B290002222648FE
:1041B00005F050FD254D280002F06AFD220024493B
:1041C00028000AF047FD234D280005F0BCFA220024
:1041D000214928000AF03EFD0AF080F91F4B1860C3
:1041E00005B0F0BD240D0020540E0020840F0020E7
:1041F00058110020E81900201C0D00206403002045
:10420000201100200000002043910000101A00201F
:10421000A8050020F8190020F0190020EC07002064
:10422000001A0020300A00200C160020ED95000036
:10423000301600205416002038110020081A0020E3
:104240000D21000080841E0038030020741500201A
:104250007D2100001D110020499700007C160020E0
:1042600010B5084C200004F0CFFC2000064904F0F3
:10427000EBFC02211B200AF03FFC022114200AF073
:104280003BFC10BD58110020801A060010B5E12437
:10429000A4022100184808F08BF92100E1241748F6
:1042A000640209F0F5FA2100154809F0F1FA21003D
:1042B000144809F0EDFA2100134809F0E9FA002248
:1042C000124B022118201A700AF016FC0221192044
:1042D0000AF012FC022108200AF00EFC02210D2037
:1042E0000AF00AFC03210A200AF006FC0321092037
:1042F0000AF002FC10BDC046181A0020640300201A
:10430000A8050020EC070020300A0020150D002031
:10431000962170B5374D8901280009F0B9FA364C5D
:104320003649200009F068FE354B364E1B68022BDB
:1043300006D0354E032B03D0344E012B00D1344E22
:104340003100280009F058FE3100200009F054FE29
:10435000304B314E1868032843D80CF0F3F9382756
:104360001D02C82230005200042102F051FD30002D
:1043700002F054FC294E3100200009F03DFE3100CE
:10438000280009F039FE264B1868FDF7B5FF254BCC
:104390001868FFF77DFD70BD3000C822042102F0CF
:1043A00037FD300002F03AFC1F4EE4E7642204219E
:1043B000300002F02DFD1D4A3000111C1C4B02F094
:1043C00028FC1C49200009F017FE1B4ED3E73000E3
:1043D0000A22042102F01CFD300002F01FFC174EDF
:1043E000C9E730006422042102F012FD300002F01F
:1043F00015FCEAE764030020181A00209D740100F0
:10440000C4020020EF74010004750100C1740100B2
:10441000D87401002803002074150020816A01006F
:10442000340300202C030020996A01009A99993ED8
:10443000CDCCCC3D19750100B16A0100C96A0100FB
:1044400070B5234C234D022824D0032831D00128F5
:1044500011D0214E2000310009F0CEFD310028009E
:1044600009F0CAFD64200AF06FF8E12189022000FA
:1044700009F00EFA70BD194E2000310009F0BCFDA4
:104480003100280009F0B8FD64200AF05DF8E12150
:104490004902ECE7124E2000310009F0ADFD310079
:1044A000280009F0A9FD64200AF04EF89621890140
:1044B000DDE70C4E2000310009F09EFD31002800A0
:1044C00009F09AFD64200AF03FF896214901CEE7F1
:1044D00064030020181A0020C1740100D874010080
:1044E000EF74010004750100F0B58BB003930378FD
:1044F0001400012B00D0BFE0039B012B00D18BE007
:10450000022B00D08CE09C4D9C4F9D4E022308391D
:10451000037008007C2900D9AEE00CF01DF987007B
:10452000AF00C800E100FA00130153016D018701DB
:104530009101AB01C501DF01F90113022D02470210
:1045400061026B0285029F02B902D302ED020703EA
:10455000490363037D03CF03EA039703B303B10663
:10456000CF06ED060C072C074C07C107E107AD008D
:10457000AD00AD00AD00AD00AD00AD00AD00AD00D3
:10458000AD00AD00AD00AD00AD00AD00AD00AD00C3
:10459000AD00AD00AD00AD00AD00AD00AD00AD00B3
:1045A000AD00AD00AD00AD00AD00AD00AD00AD00A3
:1045B000AD00AD00AD00AD00AD00AD00AD00AD0093
:1045C000AD00AD00AD00AD00AD00AD00AD00AD0083
:1045D000AD00AD00AD00AD0001085708050418049A
:1045E0007E049104A504B904CD04E104F504090591
:1045F000710585059905AD05C105D505E905FD05DB
:104600001106250639064D066106750689069D06C2
:1046100095082B043D0452045A4D5B4F5B4E75E7E1
:1046200003235B4D5B4F5C4E03936FE72F00B03766
:104630003B689C4212D05949594809F0DDFC2200E0
:1046400029683800FEF76CF9CC2301933B680022FF
:1046500000935449544B300005F042F80A22039964
:104660004F4809F03AFD51494D4809F0A9FC102284
:1046700029684B4809F03FFD0BB0F0BD2F00C4374F
:104680003B689C42F8D04A49454809F0B5FC2200F5
:10469000E9683800FEF744F9CC2301933B68012216
:1046A00000934049404B300005F01AF8E4E72F0032
:1046B000C8373B689C42DFD03E49394809F09CFC32
:1046C000220029693800FEF72BF9CC2301933B68BF
:1046D000022200933349344B300005F001F8CBE758
:1046E0002F00CC373B689C42C6D033492C4809F098
:1046F00083FC2200A9693800FEF712F9CC2301934C
:104700003B68032200932749274B300004F0E8FF61
:10471000B2E72F00A0373B689C42ADD02749204824
:1047200009F06AFC2200E9693800FEF7F9F8CC23A9
:1047300001933B68042200931A491B4B300004F09C
:10474000CFFF99E72F00B4373B689C4200D193E735
:104750001B49134809F050FC220069683800FEF735
:10476000DFF8CC2301933B68052200930D490E4BE3
:10477000300004F0B5FF7FE7240D0020EC07002097
:1047800030160020840F0020A80500200C16002001
:10479000540E0020300A002054160020496C0100FD
:1047A000181A00200A0000200C000020906F010061
:1047B0005F6C0100766C01008D6C0100A56C01003E
:1047C000BB6C01002F00D0373B689C4200D153E7FF
:1047D000E349E44809F010FC220069693800FEF75B
:1047E0009FF8CC2301933B6806220093DE49DF4B00
:1047F000300004F075FF3FE72F00B8373B689C425C
:1048000000D139E7DA49D74809F0F6FB2200A96858
:104810003800FEF785F8CC2301933B68072200930C
:10482000D149D24B300004F05BFF25E7CC23009444
:1048300001930822CD4BCC49300004F051FF1BE717
:104840002F0098373B689C4200D115E7C949C548FD
:1048500009F0D2FB2200E96A3800FEF761F8CC23A8
:1048600001933B6809220093BF49C04B300004F01C
:1048700037FF01E72F009C373B689C4200D1FBE6E5
:10488000BD49B84809F0B8FB2200296B3800FEF793
:1048900047F8CC2301933B680A220093B249B34BFB
:1048A000300004F01DFFE7E62F00A4373B689C4270
:1048B00000D1E1E6B149AB4809F09EFB2200696BEB
:1048C0003800FEF72DF8CC2301933B680B220093B0
:1048D000A549A64B300004F003FFCDE62F00D437E6
:1048E0003B689C4200D1C7E6A5499E4809F084FB7D
:1048F0002200296A3800FEF713F8CC2301933B68A5
:104900000C2200939849994B300004F0E9FEB3E67D
:104910002F00BC373B689C4200D1ADE699499148D5
:1049200009F06AFB2200696A3800FDF7F9FFCC2321
:1049300001933B680D2200938B498C4B300004F0AF
:10494000CFFE99E62F00C0373B689C4200D193E62A
:104950008D49844809F050FB2200A96A3800FDF710
:10496000DFFFCC2301933B680E2200937E497F4BEF
:10497000300004F0B5FE7FE62F00A8373B689C426C
:1049800000D179E68149774809F036FB2200A96B0E
:104990003800FDF7C5FFCC2301933B68322200931A
:1049A0007149724B300004F09BFE65E62F00AC3776
:1049B0003B689C4200D15FE675496A4809F01CFBE0
:1049C0002200E96B3800FDF7ABFFCC2301933B6875
:1049D000622200936449654B300004F081FE4BE68F
:1049E000CC23009401936322604B5F49300004F0B4
:1049F00077FE41E62F00D8373B689C4200D13BE66A
:104A00006449584809F0F8FA2200296C3800FDF78B
:104A100087FFCC2301933B680F2200935249534BED
:104A2000300004F05DFE27E62F00DC373B689C4237
:104A300000D121E658494B4809F0DEFA2200696CA2
:104A40003800FDF76DFFCC2301933B6810220093E3
:104A50004549464B300004F043FE0DE62F00E03799
:104A60003B689C4200D107E64C493E4809F0C4FA35
:104A70002200A96C3800FDF753FFCC2301933B685B
:104A8000112200933849394B300004F029FEF3E538
:104A90002F00E4373B689C4200D1EDE540493148A6
:104AA00009F0AAFA2200E96C3800FDF739FFCC239F
:104AB00001933B68122200932B492C4B300004F0E9
:104AC0000FFED9E52F00E8373B689C4200D1D3E5C3
:104AD0003449244809F090FA2200296D3800FDF786
:104AE0001FFFCC2301933B68132200931E491F4BE9
:104AF000300004F0F5FDBFE52F00EC373B689C4229
:104B000000D1B9E52849174809F076FA2200696D05
:104B10003800FDF705FFCC2301933B681422009376
:104B20001149124B300004F0DBFDA5E52F00F037F2
:104B30003B689C4200D19FE51C490A4809F05CFA99
:104B40002200A96D3800FDF7EBFECC2301933B68F2
:104B5000152200930449054B300004F0C1FD8BE59C
:104B6000D16C0100181A00200A0000200C0000205F
:104B7000E56C0100FA6C01000D6D0100206D010073
:104B8000336D01004B6D01005F6D0100736D01001D
:104B9000896D0100A06D0100B16D0100C26D0100C1
:104BA000D36D0100E46D0100F56D0100066E01009A
:104BB0002F00F4373B689C4200D15DE5E649E748A9
:104BC00009F01AFA2200E96D3800FDF7A9FECC239E
:104BD00001933B6816220093E149E24B300004F058
:104BE0007FFD49E52F00F8373B689C4200D143E543
:104BF000DD49DA4809F000FA2200296E3800FDF795
:104C00008FFECC2301933B6817220093D449D54BE8
:104C1000300004F065FD2FE52F00FC373B689C4217
:104C200000D129E5D149CD4809F0E6F92200696EA5
:104C30003800FDF775FECC2301933B6818220093E2
:104C4000C749C84B300004F04BFD15E52F00FC3779
:104C5000FB689C4200D10FE5C549C04809F0CCF97A
:104C6000280009302200296FFF30FDF759FECC23C0
:104C70000193FB681B220093B949BA4B300004F042
:104C80002FFDF9E42F00FC373B699C4200D1F3E48F
:104C9000B849B24809F0B0F928000D302200696F18
:104CA000FF30FDF73DFECC2301933B691C220093AE
:104CB000AB49AC4B300004F013FDDDE42F00FC37B2
:104CC0007B689C4200D1D7E4AB49A44809F094F931
:104CD000681C2200A96EFF30FDF722FECC23019351
:104CE0007B68192200939E499E4B300004F0F8FC2B
:104CF000C2E42F00FC37BB689C4200D1BCE49F4952
:104D0000964809F079F9681D2200E96EFF30FDF739
:104D100007FECC230193BB681A2200939049914B64
:104D2000300004F0DDFCA7E4954D2B689C4200D1D7
:104D3000A2E49449894809F05FF928002200C221C1
:104D4000FDF7EEFD2868C0B2FFF77AFB94E48E4DC4
:104D50002B689C4200D18FE48C49804809F04CF9C3
:104D600028002200C321FDF7DBFD2868C0B2FEF752
:104D700045FA81E4864D2B689C4200D17CE485494C
:104D8000764809F039F92000FDF7B6FA2200C4216F
:104D90002800FDF7C5FD6FE47F4D2B689C4200D1D4
:104DA0006AE47C496D4809F027F97C48FDF746FB29
:104DB0002000FFF76DF82200C5212800FDF7B0FDA7
:104DC0005AE4FF2C09D17648FDF738FB7548FDF70A
:104DD00035FB0122744B1A704EE4FE2C19D1724C33
:104DE0002378012B0ED17148FDF728FB0220FDF737
:104DF000F1FE02216420FEF781FAFDF719FE00237F
:104E0000237039E46A48FDF719FB6A48FDF716FB81
:104E100032E46948FDF712FB2EE4684D2B689C4292
:104E200000D129E466494D4809F0E6F82200D22174
:104E30002800FDF775FD2A68624B1A60FFF71CFC1D
:104E4000614D2B689C4201D1FFF716FC5F49434836
:104E500009F0D2F82200D3212800FDF761FD2A686D
:104E6000584B5A60FFF708FC594D2B689C4201D102
:104E7000FFF702FC5749394809F0BEF82200D42157
:104E80002800FDF74DFD2A684E4B9A60FFF7F4FBB2
:104E9000514D2B689C4201D1FFF7EEFB4F492F4843
:104EA00009F0AAF82200D5212800FDF739FD2A686B
:104EB000444BDA60FFF7E0FB494D2B689C4201D17F
:104EC000FFF7DAFB4749254809F096F82200D6217A
:104ED0002800FDF725FD2A683A4B1A61FFF7CCFB45
:104EE000414D2B689C4201D1FFF7C6FB3F491B484F
:104EF00009F082F82200D7212800FDF711FD2A6869
:104F0000304B5A61FFF7B8FB394D2B689C4201D1F9
:104F1000FFF7B2FB3749114809F06EF82200D8219B
:104F20002800FDF7FDFC2A68264B9A61FFF7A4FBD9
:104F3000314D2B689C4201D1FFF79EFB2F4907485A
:104F400009F05AF82200D9212800FDF7E9FC2A6867
:104F50001C4BDA61FFF790FB176E0100181A002056
:104F60000A0000200C000020286E0100396E0100AC
:104F70004A6E01005B6E01006F6E0100826E0100DF
:104F8000C4020020956E010028030020A76E0100D6
:104F900034030020B96E01002C030020D96E0100FB
:104FA000F16E0100166F0100061600203F6F010030
:104FB000686F0100936F0100A26F0100EC020020F6
:104FC000C26F0100BC100020F0020020D36F01006E
:104FD000F4020020E46F0100C8020020F56F010018
:104FE000CC02002007700100D002002019700100DF
:104FF000D40200202B700100D80200203D70010077
:10500000FD4D2B689C4201D1FFF736FBFB49FC4864
:1050100008F0F2FF2200DA212800FDF781FC2A685F
:10502000F84B1A62FFF728FBF74D2B689C4201D121
:10503000FFF722FBF549F24808F0DEFF2200DB21F2
:105040002800FDF76DFC2A68EE4B5A62FFF714FB4F
:10505000EF4D2B689C4201D1FFF70EFBED49E8486C
:1050600008F0CAFF2200DC212800FDF759FC2A685D
:10507000E44B9A62FFF700FBE74D2B689C4201D19D
:10508000FFF7FAFAE549DE4808F0B6FF2200DD2115
:105090002800FDF745FC2A68DA4BDA62FFF7ECFAE4
:1050A000DF4D2B689C4201D1FFF7E6FADD49D44879
:1050B00008F0A2FF2200DE212800FDF731FC2A685B
:1050C000D04B1A63FFF7D8FAD74D2B689C4201D119
:1050D000FFF7D2FAD549CA4808F08EFF2200DF2137
:1050E0002800FDF71DFC2A68C64B5A63FFF7C4FA77
:1050F000CF4D2B689C4201D1FFF7BEFACD49C04885
:1051000008F07AFF2200E0212800FDF709FC2A6858
:10511000BC4B9A63FFF7B0FAC74D2B689C4201D194
:10512000FFF7AAFAC549B64808F066FF2200E12158
:105130002800FDF7F5FB2A68B24BDA63FFF79CFA0B
:10514000BF4D2B689C4201D1FFF796FABD49AC4890
:1051500008F052FF2200E2212800FDF7E1FB2A6857
:10516000A84B1A64FFF788FAB74D2B689C4201D10F
:10517000FFF782FAB549A24808F03EFF2200E3217A
:105180002800FDF7CDFB2A689E4B5A64FFF774FA9E
:10519000AF4D2B689C4201D1FFF76EFAAD4998489C
:1051A00008F02AFF2200E4212800FDF7B9FB2A6855
:1051B000944B9A64FFF760FAA74D2B689C4201D18B
:1051C000FFF75AFAA5498E4808F016FF2200E5219C
:1051D0002800FDF7A5FB2A688A4BDA64FFF74CFA32
:1051E0009F4D2B689C4201D1FFF746FA9D498448A8
:1051F00008F002FF2200E6212800FDF791FB2A6853
:10520000804B1A65FFF738FA974D2B689C4201D105
:10521000FFF732FA95497A4808F0EEFE2200E721BE
:105220002800FDF77DFB2A68764B5A65FFF724FAC4
:105230008F4D2B689C4201D1FFF71EFA8D497048B3
:1052400008F0DAFE2200E8212800FDF769FB2A6851
:105250006C4B9A65FFF710FA874D2B689C4201D181
:10526000FFF70AFA8549664808F0C6FE2200E921E0
:105270002800FDF755FB2A68624BDA65FFF7FCF959
:105280002F00FC377B699C4201D1FFF7F5F97C497F
:105290005B4808F0B1FE280011302200A96FFF30F2
:1052A000FDF73EFBCC2301937B691D2200937549DA
:1052B000754B300004F014FAFFF7DEF92F00FC37CD
:1052C000BB699C4201D1FFF7D7F970494C4808F0FF
:1052D00093FE280015302200E96FFF30FDF720FB18
:1052E000CC230193BB691E2200936649664B3000B4
:1052F00004F0F6F9FFF7C0F92F00FC37FB699C4278
:1053000001D1FFF7B9F962493D4808F075FE280060
:105310002B1D19302200D96FFF30FDF701FBCC2384
:105320000193FB691F2200935649574B300004F04C
:10533000D7F9FFF7A1F92F00FC373B6A9C4201D156
:10534000FFF79AF953492E4808F056FE2B00280023
:1053500008331D302200D96FFF30FDF7E1FACC236E
:1053600001933B6A202200934649474B300004F0EA
:10537000B7F9FFF781F92F00FC377B6A9C4201D116
:10538000FFF77AF944491E4808F036FE2B00280042
:105390008833213022001968FF30FDF7C1FACC2391
:1053A00001937B6A212200933649374B300004F089
:1053B00097F9FFF761F92F00FC37BB6A9C4201D1D6
:1053C000FFF75AF935490E4808F016FE2B00280061
:1053D0008C33253022001968FF30FDF7A1FACC2369
:1053E0000193BB6A222200932649274B300004F028
:1053F00077F9FFF741F9C046DC0200204F70010049
:10540000181A0020BC100020E0020020617001008A
:10541000E402002073700100E802002085700100A2
:105420001C0300209770010020030020A8700100D9
:1054300024030020B9700100F8020020CA700100A6
:10544000FC020020DC70010000030020EE7001006F
:105450000403002000710100080300201271010004
:105460000C0300202471010010030020367101009C
:105470001403002048710100180300205A71010034
:105480006C7101000A0000200C00002082710100F4
:1054900098710100AD710100C3710100D871010064
:1054A0002F00FC37FB6A9C4201D1FFF7E5F8D74992
:1054B000D74808F0A1FD2B002800903329302200A6
:1054C0001968FF30FDF72CFACC230193FB6A2322E5
:1054D0000093D049D04B300004F002F9FFF7CCF82C
:1054E0002F00FC373B6B9C4201D1FFF7C5F8CB493D
:1054F000C74808F081FD2B00280094332D3022008E
:105500001968FF30FDF70CFACC2301933B6B242282
:105510000093C049C04B300004F0E2F8FFF7ACF84C
:10552000BF4904A808F033FFFF253B6838005B69DA
:10553000013D9847002DF8D1CC23009401936522BA
:10554000B54BB449300004F0CBF83B6838001B6918
:1055500098470028F9D03B6838001B699847002815
:105560000BD00A22390007A808F0AAFE07A904A850
:1055700008F033FF07A808F0BBFEA54CA94920009E
:1055800008F01EFD0A220399200008F0AAFDA64E8D
:105590002000310008F014FDA44D3100280008F06F
:1055A0000FFD2C21200008F00FFD2C21280008F011
:1055B0000BFD04A9200008F015FD04A9280008F03F
:1055C00011FD04A808F094FEFFF756F8944904A8CA
:1055D00008F0DDFEFF253B6838005B69013D984718
:1055E000002DF8D1CC230094019366228A4B89497F
:1055F000300004F075F83B6838001B6998470028B4
:1056000003D1013008F0A0FFF5E73B6838001B69C3
:105610009847002813D00A22390007A808F050FE46
:1056200007A904A808F0D9FE07A808F061FE04A99C
:10563000774808F0D7FC04A97C4808F0D3FC04A8FC
:1056400008F056FEFFF718F8784C7B21200008F090
:10565000BBFC774D774A29687748FDF735F8774ED8
:105660002000310008F0ACFC754A69687548FDF708
:105670002BF83100200008F0A3FC734AA968734896
:10568000FDF722F83100200008F09AFC704AE96822
:105690007048FDF719F83100200008F091FC6E4ABF
:1056A00029696E48FDF710F83100200008F088FCE9
:1056B0006B4A69696B48FDF707F83100200008F074
:1056C0007FFC694AA9696948FCF7FEFF31002000A8
:1056D00008F076FC664AE9696648FCF7F5FF310098
:1056E000200008F06DFC644A296A6448FCF7ECFF6E
:1056F0003100200008F064FC614A696A6148FCF7E7
:10570000E3FF3100200008F05BFC5F4AA96A5F48B4
:10571000FCF7DAFF3100200008F052FC5C4AE96A2D
:105720005C48FCF7D1FF3100200008F049FC5A4AE0
:10573000296B5A48FCF7C8FF3100200008F040FCF4
:10574000574A696B5748FCF7BFFF3100200008F04B
:1057500037FC554AA96B5548FCF7B6FF31002000CD
:1057600008F02EFC524AE96B5248FCF7ADFF3100BD
:10577000200008F025FC504A296C5048FCF7A4FF93
:105780003100200008F01CFC4D4A696C4D48FCF7C4
:105790009BFF3100200008F013FC4B4AA96C4B48DA
:1057A000FCF792FF3100200008F00AFC484AE96C3F
:1057B0004848FCF789FF3100200008F001FC464A08
:1057C000296D4648FCF780FF3100200008F0F8FB07
:1057D000434A696D4348FCF777FF3100200008F029
:1057E000EFFB414AA96D4148FCF76EFF31002000F4
:1057F00008F0E6FBE96D3E4A3E48FCF765FF3E498E
:10580000200008F0F9FBFEF737FFC046EE710100FB
:10581000181A00200A0000200C000020037201006A
:105820009D68010019720100A8680100640300204E
:10583000BC100020941300201E720100906F010024
:10584000A813002021720100BC1300202472010063
:10585000D013002027720100E41300202B720100F6
:10586000F81300202F7201000C1400203372010085
:105870002014002037720100341400203B72010014
:10588000481400203F7201005C14002043720100A4
:105890007014002047720100841400204B72010034
:1058A000981400204E720100AC14002051720100C7
:1058B000C014002054720100D4140020587201005A
:1058C000E81400205C720100FC14002060720100EA
:1058D0001015002064720100241500206872010078
:1058E000381500206C7201004C1500207072010008
:1058F000601500207472010078720100F8B50E4D39
:105900000E4C297822000E48FCF7FCFE0D4F0E4B82
:1059100029783A681B782000FEF7E6FD0B4E2978BF
:1059200032002000FCF7F8FE074B39681A78084B64
:1059300030001B689847F8BD921600201C1100200B
:10594000150D002094160020B41000200816002029
:10595000FC15002010B50B48FCF770FD0A4B1868C9
:10596000C0B2FEF76DFD094B1868C0B2FDF746FCEA
:10597000074B1868C0B2FCF771FD0648FCF75EFDE6
:1059800010BDC046D0730100C402002028030020CF
:1059900034030020EF730100F8B5374C01212200D9
:1059A000364803F01FFB2368354A364C1360364FE8
:1059B000364E374DAB2B34D0AB2201212F4803F0AC
:1059C00069FB3449200008F017FB3349200008F038
:1059D00013FB0022C2213800FCF7A2FF0122C321E1
:1059E0003000FCF79DFF0022C4212800FCF798FF3F
:1059F0000122C5212948FCF793FFFFF7ABFF284997
:105A0000200008F0F9FAFDF713F82649200008F005
:105A1000F3FA0220FDF7DEF802216420FDF76EFCA8
:105A2000F8BD2149200008F0E7FA2049200008F0DD
:105A3000E3FA0220FDF7EEFA02216420FDF75EFC96
:105A40001B49200008F0D8FA3800C221FDF7ECF914
:105A50003000C321FDF7E8F92800C421FDF7E4F97F
:105A6000C5210E48FDF7E0F9FEF752FCFFF772FF83
:105A7000FDF7E8F9D4E7C046F81500201C0D00201A
:105A800030030020181A0020C40200202803002040
:105A900034030020186901004B6901002C03002029
:105AA0007069010094690100B5690100DC690100B9
:105AB000066A0100F7B5FCF75FFDFCF7F5FD022172
:105AC0001A2008F0A1FF022286491A2008F00EF9D8
:105AD000854A8649D3690C200B40D36108F0CEFE7D
:105AE0000021062008F090FF01211D2008F08CFF06
:105AF0007F4B1D20197808F0D3FF0121102008F0FA
:105B000083FF0121102008F0CBFF01210C2008F0B9
:105B10007BFFFEF7BBFBFEF7A3FBFCF719FD0021A3
:105B20000C2008F0BDFF322008F00EFD01210C20F2
:105B300008F0B6FFFA20400008F006FD6B4600248E
:105B4000D81D02210470FDF713FEFDF7FDFDFCF7E3
:105B5000EFFEFFF721FFFDF7F7FD664804F032FC8A
:105B60000223654A654D1370654B664A1C70664B8F
:105B7000664E1C70664B67491A6030002A0003F0BD
:105B80005FFA654C6549200008F01AFA29780A2264
:105B9000200008F0A6FA2B78012B00D080E06049A5
:105BA000200008F029FA5F4D5F492A00300003F019
:105BB00019FA2B685D4FD8B23870FDF78DFE5C493D
:105BC000200008F019FA3B785A49002B12D05A49A4
:105BD000012B0FD05949022B0CD05949032B09D066
:105BE0005849042B06D05849052B03D05749062B9A
:105BF00000D05749200008F0FFF92A00554930002D
:105C000003F0F0F92B68544F18003B60FDF7A0FE3D
:105C10005249200008F0F0F9386851490138042849
:105C200005D80AF08FFD03565C585A004D492000F4
:105C300008F0E2F92A004C49300003F0D3F9304B68
:105C400028681870C0B2FDF7BFFE4849200008F070
:105C5000D3F92B4B46491B78002B1BD04549012B10
:105C600018D04549022B15D04449032B12D0444982
:105C7000042B0FD04349052B0CD04349062B09D0E8
:105C80004249092B06D04249072B03D04149082B32
:105C900000D04149200008F0AFF902223F4B1A70B2
:105CA0003F49200008F0A8F9134B3E491B78002B10
:105CB00005D03D49012B02D0022B03D13B492000E6
:105CC00008F09AF9FDF7F6FD08F008FC384B18606B
:105CD000F7BD3849ABE73849A9E73849A7E738495C
:105CE000A5E7C0461121000000180040FFFFFF8F0C
:105CF00078160020380300201C110020B510002069
:105D00000816002045210000071600201C0D002069
:105D1000FC150020FF0F0000181A00206C7601000F
:105D20007C760100F8150020FA0F0000051600200F
:105D300096760100A9760100B9760100C9760100C6
:105D4000D9760100F1760100027701001777010092
:105D500031770100F90F00009416002052770100FE
:105D6000B577010064770100FB0F0000D4770100D4
:105D7000E5770100FF770100157801002D7801001B
:105D8000457801005D780100737801008A78010090
:105D9000A5780100C0780100DA780100B410002075
:105DA000F9780100097901001B79010030790100BF
:105DB0008C1600207477010084770100957701002C
:105DC000A677010070B50600124C0D0020001249A4
:105DD00008F012F93378DB0718D5012D06D1FF350D
:105DE0000E48013D07F068FF002DF9D10C49200055
:105DF00008F002F900220B490B4803F076F90B4931
:105E0000200008F0F9F80A4B0A4A1A6000233370A0
:105E100070BDC046181A002094750100640300206C
:105E2000A2750100FF0F00001C0D0020B9750100D4
:105E3000FC15002045210000F0B5037889B00590DD
:105E40000D0014005B073DD07A4E7B49300008F00E
:105E5000B7F80A222100300008F043F9774F3D607F
:105E6000012C00D09BE02900754803F03FFC431E45
:105E70009841744B18703D680027022D00D199E0BD
:105E8000042D00D1A9E0012D18D16F4B6F493000CE
:105E90001F6008F0B1F86E4A6E49D3690B40D361B8
:105EA00001226D496D4803F020F90B20FCF78CFBB3
:105EB0000420FCF7D3FB0520FCF7B4FB08F00EFB35
:105EC000674B18605F4B1B78002B63D008F00CFB0E
:105ED000644B1860012C00D093E00023022202934F
:105EE00000936149614B5648019403F01EFC0490F5
:105EF000049B002B02D05E4B049A1A605D4F3B78E6
:105F0000002B43D018200DF07DFD4F4E0400336868
:105F10000133336008F0E2FA514B574D1B680422FD
:105F2000C01A00232860554920003B700DF0AAFDDF
:105F30004F4F10223968201D0DF0A4FD2B68182248
:105F40006361210007AB4E4803F000FC20000DF018
:105F500063FD3368042B14D94A4C042247492000BE
:105F600007F0FEFF10223968200007F0F9FF042235
:105F70002900200007F0F4FF042207A9200007F001
:105F8000EFFFFCF717FB0520FCF74CFB354B1A68BD
:105F90003D4B1A600023059A137009B0F0BD022C26
:105FA00002D12900394860E7032C00D063E72900BB
:105FB00037485AE7244B374930001F6008F01CF877
:105FC0003549300008F018F82149224ACB691A40B7
:105FD000C0239B051343CB6162E7FDF761FC1A4BBD
:105FE0001B4A1F60D3691B491C480B40D3611A49E7
:105FF0003A0003F07AF8FCF703FB2800FCF71EFBDD
:106000005CE7022C09D10023012202930192009344
:106010002200164B14491D4867E7032C00D067E7A0
:106020000023012202930192009392180F4B0E4914
:1060300017485AE7181A0020FE6B010004000020E0
:106040000C16002007160020180D0020226C0100FD
:1060500000180040FFFFFF8FFF0F00001C0D002005
:1060600088160020801600200800002090160020CE
:10607000001600205D030020B810002068760100A3
:106080001D1100206403002084160020301600201B
:10609000541600203C680100366C01000023F0B566
:1060A00089B0069303780590049114009B0738D5B6
:1060B000944E9549300007F083FF0A2221003000FA
:1060C00008F00FF8914F049B3B60012C00D0BDE01D
:1060D00019008F4803F00AFB431E98418D4B18703E
:1060E0003F68022F00D1BCE0042F00D1DBE0012F7C
:1060F00013D10022884B894930001A6007F07CFFD9
:10610000874A8849D36988480B40D36187493A0058
:1061100002F0EBFF0B20FCF757FA08F0DFF9844B95
:1061200018607C4B1B78002B00D18AE008F0DCF96A
:10613000804B1860012C00D0CAE000230222029399
:1061400000937D497D4B7248019403F0EEFA0500FF
:10615000002D10D000217A4BEA7A1D60794B1A701D
:10616000AA7A5A706A7A9A702A7ADA701B68764A22
:10617000116051609360754D2B78002B5DD010201D
:106180000DF040FC644F04003B6801333B6008F0B5
:10619000A5F9674B6E4E1B686B49C01A6D4B1860B2
:1061A000002330002B70FDF7A1FCF37A06AD2B70B5
:1061B000B37A04226B70737A6749AB70337A20002C
:1061C000EB700DF05FFC20005D4E069B3168636054
:1061D0000C31042208300DF055FC5E4B10221B6878
:1061E00021000493E3605D4807AB03F0AFFA2000A1
:1061F0000DF012FC3B68042B1AD9594C0422564965
:10620000200007F0ADFE04222900200007F0A8FEC0
:10621000316804220C31200007F0A2FE04224D490F
:10622000200007F09DFE042207A9200007F098FE39
:10623000FCF7C0F90520FCF7F5F93E4B1A68494B0D
:106240001A600023059A137009B0F0BD022C02D128
:10625000049945483EE7032C00D041E704994348A0
:1062600038E74349300007F0C7FE4249300007F0E5
:10627000C3FE0022284B2A491A60CB69294A2A48C2
:106280001A40C0239B051343CB610122274902F02A
:106290002CFF0B20FCF798F90420FCF7DFF9052010
:1062A000FCF7C0F939E700221B4B1A60FDF7F8FA3A
:1062B0001B4A1C49D3691C480B40D3611B4900226F
:1062C00002F013FFFCF79CF93800FCF7B7F924E75C
:1062D000022C09D100230122029301920093220093
:1062E000164B1549204830E7032C00D030E7002337
:1062F00001220293019200939218104B0E491B4801
:1063000023E7C046181A0020D175010004000020C0
:106310000C16002007160020180D0020226C01002A
:1063200000180040FFFFFF8F1C0D0020FF0F000032
:1063300088160020801600200800002090160020FB
:1063400000160020B80C0020C80C00205D030020BF
:10635000BC0C0020B8100020687601001D11002040
:1063600064030020841600203016002054160020FC
:106370003C680100366C01000523F0B51600027878
:106380008BB005900C001A4244D09B4D9B492800CD
:1063900007F016FE0A223100280007F0A2FE984FEF
:1063A0003C60012E14D12100964803F09FF9431E52
:1063B0009841954B187038680138032826D8934FB8
:1063C000934C944E0AF0C8F90E00DF00F000FE0076
:1063D000022E02D121009048E7E7032EEBD12100E5
:1063E0008E48E2E700233B60E3698D4A1340E36196
:1063F00001228C49300002F078FE0B20FCF7E4F813
:106400000420FCF72BF90520FCF70CF908F066F8DE
:10641000854B18607C4B1B78002B00D1AEE000232D
:1064200001220293019200939218804B80497A488E
:1064300003F07BF900280AD07E4BC27A18607E4BAD
:106440001A70827A5A70427A9A70027ADA707B4EA7
:106450003378002B00D191E030200DF0D3FA6B4D52
:1064600004002B6801332B6008F038F86E4B744F32
:106470001B687449C01A00233370734E38603000B3
:1064800003F0C3FD6F497148FDF7DAFA300007A940
:1064900004F000F86E49079B6E480B60089B4B6048
:1064A000654B1B688B60FDF721FB6B4904222000C4
:1064B0000DF0E8FA674A231D43CA43C3634A43CA3F
:1064C00043C320005B4B042219681C300C310DF0D3
:1064D000D9FA3B68614A23622300243343CA43C389
:1064E00006AB302221005E4803F030F920000DF0A9
:1064F00093FA2B68042B25D95A4C042256492000C4
:1065000007F02EFD0C225349200007F029FD0C2234
:106510004E49200007F024FD464B04221968200054
:106520000C3107F01DFD04223900200007F018FD92
:106530000C224A49200007F013FD042206A920007E
:1065400007F00EFDFCF736F80520FCF76BF83C4B26
:1065500018680BF00BFB0DF0E7F8434A434B0CF0C7
:106560006BFA0DF033F9424C011C384B2000394ACC
:1065700001F0F8FA3949200000F018FB0023059AD1
:1065800013700BB0F0BD00233A4928003B6007F0C0
:1065900033FD3949280007F02FFD214BE2691A40ED
:1065A000C0239B05134322E70023344928003B60A6
:1065B00007F022FD3049280007F01EFD2C4800F0AE
:1065C000A7FBEAE7FDF76CF900233B60E369144A97
:1065D00030001340E3610022124902F086FD0023DF
:1065E00023481A1C191C00F009FBFCF709F80420C9
:1065F000FCF724F80AE7C046181A0020F3750100DA
:10660000040000200C16002007160020180D0020A2
:10661000001800401C0D00203016002054160020E9
:10662000FFFFFF8FFF0F000088160020901600204C
:106630000800002000160020E00C00205D03002070
:10664000B8100020D40C002038030020F00C0020EB
:10665000080D0020E40C002068760100FC0C0020EE
:106660001D11002064030020FCA9F1D24D62503FAF
:10667000741500203C680100506801006368010047
:10668000F0B58BB005900E0007A86949140007F01B
:106690007EFE059B1A7806231A4246D0654D664950
:1066A000280007F08DFC0A222100280007F019FDC0
:1066B000624F3E60012C10D13100614803F016F8A2
:1066C000431E98415F4B187038680138042828D859
:1066D0000AF038F80D6A27807E00022C02D13100C2
:1066E0005948EBE7032CEFD131005848E6E7002288
:1066F000574B584928001A6007F07EFC564A574904
:10670000D3690B40D36101225549564802F0EDFC94
:106710000B20FBF759FF0420FBF7A0FF0520FBF738
:1067200081FF07F0DBFE504B1860464B1B78002BB7
:1067300032D007F0D9FE4D4B1860012C5FD10023F9
:106740000222029300934A494A4B3D48019402F0C9
:10675000ECFF0490049B002B02D0474B049A1A6074
:10676000464B1A78002A17D000221A70384A13684C
:1067700001331360042B0AD9414C3F4B0E22196898
:10678000200007F0EDFB2A49200007F035FCFBF75D
:1067900011FF0520FBF746FF0023059A07A8137099
:1067A00007F0A6FD0BB0F0BD3649280007F024FC29
:1067B0003549280007F020FC0022254B26491A60A5
:1067C000CB69264A1A40C0239B051343CB619AE745
:1067D0002E49EAE7FDF764F81F4A2049D3692148AA
:1067E0000B40D3611E49002202F07FFC0022184BAF
:1067F0001A60FBF705FF0420FBF720FF91E7022C4E
:1068000009D1002301220293019200932200194B27
:1068100017490D489BE7032C9CD1002301220293CA
:10682000019200939218134B114908488FE7C04614
:106830009D680100181A0020117601000400002054
:106840000C160020071600203016002054160020D9
:10685000180D0020226C010000180040FFFFFF8F80
:10686000FF0F00001C0D002088160020801600205D
:106870000800002090160020001600205D03002074
:10688000640300203C680100366C01003076010092
:10689000F0B503788DB005900D0014001B075DD591
:1068A000794E7A49300007F08BFB0A222100300034
:1068B00007F017FC7649300007F09EFB754F3D60EE
:1068C000012C11D12900744802F010FF431E984199
:1068D000724B18703868013803283FD8704D714FDB
:1068E00009F030FF0C19B22C022C02D129006E489D
:1068F000EAE7032CEED129006C48E5E7EB696C4A26
:1069000013403800EB6101226A4902F0EEFB0B20D4
:10691000FBF75AFE22E06849300007F06DFB67493B
:10692000300007F069FB6649300007F065FB604BFB
:10693000EA691A40C0239B051343E2E7FCF7B0FF66
:10694000EB695B4A5B491340EB610022380002F0BF
:10695000CCFB00225B4B1A60FBF752FE4F4B1B78BF
:10696000002B6CD007F0C0FD574B1860012C00D0F5
:1069700070E000230222029300935449544B46488E
:10698000019402F0D2FE0490049B002B53D02220ED
:106990000DF038F8040007A8FBF768FF0AA8FBF71A
:1069A00097FF08A8FBF782FF4A4D04222900200028
:1069B0000DF068F8201D0E2204990DF063F82000F8
:1069C000042207A912300DF05DF82000042208A966
:1069D00016300DF057F8200008220AA91A300DF0E1
:1069E00051F809AB210022223B4802F0AFFE200003
:1069F0000DF012F8394C04222900200007F0B0FAFB
:106A00000E220499200007F0ABFA042207A9200007
:106A100007F0A6FA042208A9200007F0A1FA08222C
:106A20000AA9200007F09CFA042209A9200007F017
:106A300097FAFBF7BFFD244B1A68294B1A60002315
:106A4000059A13700DB0F0BD2649300007F0D4FA56
:106A5000254969E7022C09D1002301220293019202
:106A6000009322001A4B19490F488AE7032C00D0E3
:106A70008AE7002301220293019200939218144B9B
:106A800012490A487DE7C046181A0020E575010042
:106A9000B0660100040000200C160020071600203C
:106AA000001800401C0D0020301600205416002055
:106AB000FFFFFF8FFF0F00003C680100366C0100F4
:106AC000C46601006003002080160020080000203A
:106AD00090160020687601001D110020640300203C
:106AE00084160020D7660100506801004B680360DF
:106AF0004360836070474B6803604360704770B5C4
:106B0000040000680D1C0AF0E3FA291C206060688C
:106B10000AF0DEFA6060200070BD012010B540422E
:106B200007F058FD10BD10B5002803D004380068E8
:106B30000CF072FF10BD70B5050010300CF062FF54
:106B4000041E04D1002D09D0FFF7E7FF06E00F2354
:106B500002009A431300D86010331C00200070BD5F
:106B6000F8B5040009340600FF3405002700843618
:106B7000BE4205D02C3F3800143008F09DF8F7E7EE
:106B80002C22A61B084BB60873439B009B0852425D
:106B90005343E418A54205D02C3C2000143008F0E3
:106BA0008BF8F7E72800F8BDA38B2E3A1FB50C0031
:106BB00001A901F0CAF801980CF0B6FD0D4A0E4B80
:106BC0000BF03AFF0CF002FE206002980CF0ACFDD6
:106BD000084A094B0BF030FF0CF0F8FD6060039899
:106BE0000CF0A2FD034A044B0BF026FF0CF0EEFD67
:106BF000A0601FBDF8C1631ADCA54C401FB503910E
:106C00000292019302AA01AB03A901F0FAFB05B0BD
:106C100000BD8165C2650366704700000300F0B5E2
:106C20008033C7B00600197804A801F063FE002481
:106C300001AD04A9280001F01AFE0B4960590AF0C1
:106C40001FFC0CF071FD094A094B0BF0F5FE0CF02E
:106C5000BDFD37190434B8650C2CE9D104A8FFF741
:106C60007FFF47B0F0BDC04600004040F8C1631A46
:106C7000DCA54C40002301224360431C0160DA770D
:106C8000002383604361C36083610361C361704714
:106C900010B504008AB001F048F8200013492430F0
:106CA000FFF7E8FFFE239B05A364E364104B20007D
:106CB0002365104B01A9636500236430A365E36578
:106CC00023660293FFF712FF220000237032137035
:106CD00001A86367A367E36701F027F801A9200013
:106CE00001F074F920000AB010BDC046E02E00008B
:106CF000000080BFCBA11C410023C36183604361BE
:106D0000C36083610361002343600130C377704730
:106D100010B52430FFF7F0FF10BD0023C36183607E
:106D20004361C36083610361002343600130013329
:106D3000C37770470300F0B5CDB080330191197867
:106D400004000AA801F0D6FD0AA904A801F096FDE6
:106D50000AA907A801F099FD04980CF0E5FC02903F
:106D6000039101980CF074FC06000F0008F0FCF889
:106D700002000B00029803990BF054FA0CF026FD68
:106D8000051C05980CF0D0FC0290039130003900EE
:106D900008F0EAF802000B00029803990BF042FA9F
:106DA0000CF014FD061C07980CF0BEFC164A174B9D
:106DB0000BF038FA0CF00AFD071C08980CF0B4FC34
:106DC000114A124B0BF02EFA0CF000FD291C09F0B1
:106DD000E5FF011C281C0AF07BF9391CA064301C5B
:106DE00009F0DCFF011C301C0AF072F97823E06422
:106DF0002000019A243053436362FFF78EFF0AA8F4
:106E0000FFF7AEFE4DB0F0BD14AE47E17A942340DB
:106E1000030010B5803319701100FFF78BFF10BD10
:106E2000F8B5471CFB7F04000D00002B1AD1002190
:106E3000406909F05BFE002814D0666823689E4212
:106E400024DA2968A06809F0A9FFA0606968E068F1
:106E500009F0A4FFE060A968206909F09FFF0136EE
:106E600020616660FE7F002E0ED0616928680AF0FE
:106E700039FC2860A16968680AF034FC6860E1693F
:106E8000A8680AF02FFCA8603000F8BD9E42E9D146
:106E900030000AF021FE061C011CA0680AF018F957
:106EA000311C6061E0680AF013F9311CA0612069AF
:106EB0000AF00EF90123E061FB77D3E7F7B50E0086
:106EC00009681D0013680400081C00930AF0D8FA32
:106ED0002F680190391C381C0AF0D2FA011C019865
:106EE00009F05CFF08F0A4F8011C009808F09CF879
:106EF0008023071C30681B062968C01808F094F826
:106F0000276060602000FEBD10B504000068FFF738
:106F10000AFE200010BD0000F7B5836845680093A5
:106F20006B43002B27D0002D02DD009B002B06DCDD
:106F30009C21124B124AFF3112480CF0FDFC0668EE
:106F4000AB00340001CC0193F618B4420FD10127F5
:106F5000009BBB4210D00026B300E158013609F077
:106F60001DFFB542F8D1019B0137E418F0E702CCD0
:106F700009F014FFE9E70020FEBDC046848301004C
:106F8000EBA90100C8830100836810B50468032BD6
:106F90000FD1C26843689B180022826001324360AF
:106FA000C260022B05DD49210E4B0F4A0F480CF041
:106FB000C3FC8268022A03DD0D4B0B4A4C21F5E726
:106FC000C368012B03D00B4B074A4D21EEE7531C3E
:106FD000836003235343426809689B189B0019513F
:106FE00010BDC046C47B01000B8A0100E37C010098
:106FF000137C01006A7C0100F0B585B00192436802
:10700000026805009B1A0F00DB100124002B00D042
:107010001C00BA1A1C1900922A4AA3424BD8944267
:1070200049D8002C48D12600009BF318002B02D031
:10703000019A03CA03C3B4462B6800930193019BD2
:107040009F420CD06346002B03D0614601980CC8C8
:107050000CC108239C44019B08330193EFE7009B7C
:107060000297F91A0831731803936B689C46039BC7
:107070000193029B9C450DD0019B002B03D018006F
:1070800002990CC90CC0019B08330193029B083381
:107090000293EEE76346DF1B039BDF19009B002B87
:1070A00002D0180007F09AFAE4002E6036196F60DB
:1070B000AE6005B0F0BD1400E00007F08BFA0600EA
:1070C000B2E7C046FFFFFF1F0A004368816870B542
:1070D0008B4207D0002B02D0190030CA30C10833D0
:1070E000436070BD1900FFF787FFFAE70B004268A5
:1070F0000833F0B59A420AD00C00D31ADB10002BEB
:1071000005DD25000835C0CDC0C4013BF7E7083ACE
:1071100042600800F0BD00008268F8B5C0C905688B
:10712000C368022A06D08321094B0A4A49000A484B
:107130000CF002FC396830685C680AF0D3FA286009
:10714000796870680AF0CEFAA4006051F8BDC046B4
:107150003A81010056A50100A3810100F8B54C68F1
:107160000F685C43A418069E079DA4003C190460A8
:1071700046608560002C09D0002E01DB002D05DA69
:10718000B221104B104A11480CF0D6FB026143614A
:107190004C68C1608461002A0DDB002E0BDB4C685B
:1071A000A61B964207DB002B05DB002D03DB8A685C
:1071B000551B9D4204DA064B064A93210648E3E735
:1071C000F8BDC046587F0100DB9601000280010037
:1071D000CE7D01006E9001005D7E0100F8B50C00CF
:1071E0000300E0CCE0C3E0CCE0C324681C601400E2
:1071F0000433E0CCE0C3E0CCE0C324681C60496801
:107200005368994205D0034B034A622103480CF0AE
:1072100093FBF8BD58800100D5970100E480010080
:107220000B6810B503600B68426059685368994257
:1072300005D0034B034A622103480CF07DFB10BDCF
:1072400058800100659B0100E480010010B5012910
:1072500005D0034B034A852103480CF06DFB10BD9C
:1072600088820100F1A40100968201008368406ACF
:10727000984200DD18007047036842689B68906878
:10728000984200DD1800704710B5041E07D0044B6B
:10729000984201D9FFF741FCA000FFF74CFC10BD5C
:1072A000FFFFFF3FF8B504000E001500002901DBC9
:1072B000002A06DA1621144B144AFF3114480CF048
:1072C0003BFB002909D0002A07D01100114809F022
:1072D000D7FA864201DDFFF720FC2F00A368626821
:1072E000774353439F4208D02068FFF71CFC002FD0
:1072F00006DD3800FFF7C8FF20606660A560F8BDB6
:1073000000232360F9E7C046D77901008089010096
:10731000667B0100FFFFFF7FF8B504001D0002C07F
:107320000F0011001600FFF791FFA560002F09D094
:10733000012E01D1002D05DA034B044AB221044885
:107340000CF0FAFA2000F8BD587F0100E295010028
:107350000280010070B50E003368910015005918C5
:107360000122B3680400FFF7D7FF002363610133F4
:10737000E6602561A361002D02DB73689D4205DB99
:10738000034B044A7A2104480CF0D6FA200070BD61
:10739000B17E0100958F01005D7E0100F0B59FB0C8
:1073A000040001A803000A00E0CAE0C3E0CAE0C389
:1073B00012681A600A0008AB1C32E0CAE0C3E0CAD7
:1073C000E0C312681A604E680B6A9E4205D06221C3
:1073D000194B1A4A1A480CF0AFFA0FAD38220100C7
:1073E00028000CF04FFB0A9A039B002A01DB002BBC
:1073F00004DA144B144A4B211448ECE7230007CD60
:1074000007C307CD07C32A681A6016AA043323CA24
:1074100023C323CA23C3200012681A602368A3630E
:10742000E3685B682364E3696364A36A5B68266559
:10743000E3641FB0F0BDC046588001009D99010073
:10744000E4800100F3820100329F01002D830100DE
:107450001FB54A680B6854685968A14205D062217B
:107460000E4B0F4A0F480CF067FA94680193002CFA
:1074700002DB9C68002C04DA0B4B0C4A4B210C48B5
:10748000F1E71C68C1608460116842605268036063
:1074900042615B680161836104B010BD58800100E6
:1074A000B99C0100E4800100F382010042A10100C7
:1074B0002D830100036810B51C68436889001B68B0
:1074C00064182068595809F069FC206010BD10B597
:1074D000040088B003AB049302AB029103900593C0
:1074E000079001AB04A800210693FFF7E3FF04A86F
:1074F0000121FFF7DFFF200008B010BD70B528C8DC
:107500001E68EB688C001859296909F0B9FFAB694E
:1075100019590AF0E7F8A96A09F0B2FF305170BDB5
:1075200070B54C680D68230053439B00EB18036053
:107530004460002B07D0002C05DAB2210A4B0B4A1D
:107540000B480CF0F9F90023426103614B68C160FC
:107550008361002A02DB8B689A4204DB054B064AF2
:107560007A210648EDE770BD587F01009392010033
:1075700002800100B17E0100CA8B01005D7E010026
:1075800070B503244C430368A4001C19022905D9D3
:107590000E4B0F4A7A210F480CF0CEF9456861680E
:1075A000686809F06DFFA168061CA86809F068FF0B
:1075B000011C301C09F0F2FB2168061C286809F048
:1075C0005FFF011C301C09F0E9FB70BDB17E0100BA
:1075D000B68D01005D7E0100026810B514688B0055
:1075E0004068E418FFF7CCFF206010BD10B50C68B0
:1075F00049688AB00691089103210991694605AB53
:10760000009001910490002101A802930392059437
:107610000794FFF7E1FF01A80121FFF7DDFF022139
:1076200001A8FFF7D9FF0AB010BD70B58369C5681E
:1076300053436A435B180469511842689B008900F0
:107640008958185909F01CFF70BD0000C368F0B5D7
:107650005F6803683C004C43A4001C198BB045686C
:10766000002C06D0002D04DA2A4B2B4AB2212B48DD
:1076700008E0002902DB8368994205DB284B294A90
:107680007A2129480CF058F9816AC6694B6853433E
:107690009B00F318066A002B04D0002E02DA1D4B63
:1076A000224AE3E7002A02DB406A824202DB1C4BEB
:1076B0001F4AE5E7B54208D1002D26D00ADC9C21FF
:1076C0001C4B1D4AFF311D48DCE71D4B1D4A742130
:1076D0001D48D7E70022069707934B6803A81100BF
:1076E000049401930993FFF7A0FF0125041CAE4207
:1076F0000CD02900002203A8FFF797FF011C201CD3
:1077000009F04CFB0135041CF1E70024201C0BB0F0
:10771000F0BDC046587F0100979301000280010030
:10772000B17E0100A88C01005D7E01007291010014
:10773000CF8A010084830100F7A50100C8830100FE
:10774000427901001C8401007B7901000023F0B51F
:1077500003604360836097B0040008000D00FFF7EA
:1077600085FD012201002000FFF79CFD29006846ED
:10777000FFF714FE2800FFF779FD636806009842C2
:1077800002D1A368012B04D0012231002000FFF7B1
:1077900089FD63689E4202D1A368012B05D00B4B83
:1077A0000B4A0C490C480CF0C7F800252768B54275
:1077B00008DA2A0029006846FFF748FFAB00F850B6
:1077C0000135F4E7200017B0F0BDC046FB81010091
:1077D0002DA20100FD0200002A82010070B583691C
:1077E000C56853436A435B180469511842689B009B
:1077F00089008958185909F043FE70BDC368F0B577
:107800005A689B6893B05343070002930023009388
:10781000009B029A93425BDA3A689B001268009ED2
:10782000D31803937B681D686C682A686643B600AA
:107830009619002E07D0002C05DAB221254B264AD6
:1078400026480CF079F8009AA9688A4204DB244B98
:10785000244A7A212448F4E75968009A04A8FFF7DB
:107860005FFE059B0193A34208D1002C2AD00ADCBD
:107870009C211E4B1E4AFF311E48E2E71E4B1F4A49
:1078800074211F48DDE700226B680BACE360049BAA
:1078900066602361079B11005B682000A361FFF70E
:1078A0009DFF0126051C019BB3420CD03100002234
:1078B0002000FFF793FF011C281C09F06FFA013626
:1078C000051CF0E70025039B1D60009B01339EE72C
:1078D00013B0F0BD587F0100CB940100028001007D
:1078E000B17E0100A48E01005D7E01008483010051
:1078F0000EA80100C8830100427901000887010039
:107900007B790100002370B503604360836090B011
:10791000040008000D00FFF7AFFC08AE01000122D3
:107920002000FFF7BFFC29003000FFF791FD280081
:10793000FFF7A2FC63680500984202D1A368012BFF
:1079400004D0012229002000FFF7ACFC63689D42AF
:1079500002D1A368012B05D00A4B0B4A0B490C48F6
:107960000BF0EAFF02AB2268049304A801AB029279
:107970000395059606930794FFF740FF200010B08B
:1079800070BDC046FB810100ACA30100FD020000F8
:107990002A820100F0B50400050074342000BDB057
:1079A000FFF792FB696FAB6F01205B1AA72B00D822
:1079B000B2E02000FFF79AFB00232DAC63602100AA
:1079C00002A8FFF798F8AF6F6E6FB74205D031008D
:1079D00002A8FFF77CFD0836F7E7AB6F6A6F002758
:1079E000981AC0100AF0C2F8011C02A8FFF787F825
:1079F0006A6FAB6F04AE991AC9107760B760022244
:107A000030000497FFF74EFCAB6F6A6F9B1ADB10D8
:107A1000BB4210D93A0031002000FFF79BFC6A6F8F
:107A2000FB00D3181F931FA902AB2000209301373E
:107A3000FFF772FBE8E7069B31000193059B18AD49
:107A4000013B0093002311A81A00FFF787FB2B00CE
:107A500011AA83CA83C383CA83C3126831001A6020
:107A6000069B01220193059B0AA8013B009300237A
:107A7000FFF774FB0AAA29001FA8FFF7AFFB382203
:107A80001FA920000BF0FEFF636A002B02DBA36836
:107A9000002B05DA274B284A4B2128480BF04CFFD6
:107AA000210007A8FFF752FE07A8FFF735FA3200BA
:107AB00011A9071C28001196FFF7B2FB23002A002A
:107AC00003CA03C32E9B9B68002B03DB2B689B68B8
:107AD000002B02DA174B1A4ADEE721001FA8FFF736
