:1020000000800020954F00007D4F00007D4F0000B4
:1020100000000000000000000000000000000000C0
:102020000000000000000000000000007D4F0000E4
:1020300000000000000000007D4F0000E94F00009C
:102040007D4F00007D4F00007D4F00007D4F000060
:102050007D4F00007D4F00007D4F0000814F00004C
:102060007D4F00007D4F00007D4F000009300000D3
:10207000F92F00007D4F0000E92F00007D4F000088
:102080007D4F00007D4F00007D4F00007D4F000020
:10209000000000007D4F00007D4F00007D4F0000DC
:1020A0007D4F00007D4F00007D4F00007D4F000000
:1020B0000000000010B5064C2378002B07D1054B1B
:1020C000002B02D0044800E000BF0123237010BDA4
:1020D000980000200000000094870000044B10B519
:1020E000002B03D00349044800E000BF10BDC046E8
:1020F000000000009C0000209487000010B50C88B0
:102100006040C2B210015040C0B2C200030253404E
:102110002412634000115840088010BD37B50400F8
:102120006B469D1D637822781B021343080029002B
:102130002B80FFF7E3FF2B7823706B78637037BD3C
:10214000F0B50568D300DFB05B190400039100927D
:102150000360AB4202D2436801334360ED05AD0E2C
:10216000009B002B00D1CDE04023009F5B1B9F42D2
:1021700000D91F002600283670193A00039905F08F
:102180008AF9039BED19DB190393009BDB1B00937A
:10219000402DE5D122000EAB6832F1781970B1788C
:1021A00059707178997031780436D9700433B2421D
:1021B000F3D10022A3680493E3680593236906938F
:1021C00063690793A3690893E3690993236A0A93F0
:1021D000636A0B931EAB0EA95158D1500432019182
:1021E000402AF8D1132707269A6B11251100E941DF
:1021F0008C4611006546F941920A69404A401D68C3
:10220000596A5868491952180100F14112258C4643
:102210000100E9416546C008694041405118196410
:102220004EAA04339A42DFD10027079B059E0D93E7
:10223000069B04989C460A9B08990293099B01936C
:102240000B9B0C930B230D000A00DD41053BDA418B
:102250006A400D001333DD412B4B55401EAADB595C
:10226000BA5804379A18AA18029B019D8B430D4057
:102270006B40D2180C9B0500D3180C930D23DD4145
:1022800002222B000500D54102005D401623DA41F1
:102290006346554062467340324003405340ED1858
:1022A0000C9A0D9BD3185219029D0C9565460D95FD
:1022B00080256D00AF421DD1049DAA18A260059A29
:1022C00000251018069AE0609619079A2661624464
:1022D0006261089AD318019AA3619446099B029AF5
:1022E00059180A9BE1616344944623620B9B634443
:1022F000636235E7B44606001000019A019102922C
:1023000019009FE75FB0F0BDA07600003F22772361
:10231000F0B5066893B0F50815405D1B15406A4698
:10232000093313706B4604000F0047220021581C2C
:1023300005F0BAF82B00320A6B44DA71320C9A714C
:1023400062681E72110A1A71D970110C120E5A703D
:102350002A009970360E0932694620005E71FFF737
:10236000EFFEE37A3B70A37A7B70637ABB70237ACB
:10237000FB70E37B3B71A37B7B7113B0F0BD00006E
:10238000F0B504000220A9B00593784B1D7B2840CE
:1023900017D11969002952D001270D783D424ED03E
:1023A0000D210291FD21A170A1180B310D78002D96
:1023B00004D1013AD2B20139012AF7D10A2101919F
:1023C00007E0FE22A2700A000021002702910631D8
:1023D0000191E270C82101222172E271002F31D1F6
:1023E0002771002262719A79A2719A7901329A71E9
:1023F000A2780BAB1A70E2785A70A268A579120A1B
:10240000D1B2002820D00122DA70C7329D701A7133
:1024100059716B46012215259B88524204930EABDD
:102420001A8006ABED18049B9E18B6B276190EA959
:10243000AE4218D02878FFF761FE0135F7E7029029
:102440000700AFE72271CCE7207998706079D971E5
:10245000D8700120111258711214C7301D71987173
:1024600019725A72D5E725000A8806ABDA800C3556
:10247000E6780395013E3E4BB6B29E4209D0039BDF
:10248000187806AB991DFFF739FE039B01330393C0
:10249000F0E706AB991D0598FFF730FE06ABDB8829
:1024A000E2781912AB54E278AA1851702380002FF9
:1024B00053D02E4B1E69002E4FD03378DB074CD5FE
:1024C000230020007278FF33E7781830DA75B2689D
:1024D000F36808A908920993FF30062204F0DBFF95
:1024E000B068F1680122002312184B41B260F3601A
:1024F000002331000E930F931E4B103110931E4B8F
:10250000202211931D4B0EA812931D4B13931D4BAC
:1025100014931D4B15931D4B16931D4B1793FFF7EB
:102520000FFE019A0BA90EA8FFF70AFE3A00290038
:102530000EA8FFF705FEE91902220EA8FFF700FE1C
:1025400021001731FF310EA80722FFF7F9FD210006
:102550001E31FF310EA8FFF7D9FEE078049B023050
:102560001818029BC01829B0F0BDC04640050020D5
:10257000FFFF000067E6096A85AE67BB72F36E3C39
:102580003AF54FA57F520E518C68059BABD9831F3E
:1025900019CDE05BF8B5CF788B780C0005000C31D5
:1025A0003E00FE2B27D103704770A379002683706D
:1025B000E379C370237A0371A3681B0A4371E2783D
:1025C000063004F068FFE0780630281805252388D7
:1025D000037023881B124370002E06D02100173190
:1025E0000230FF31320004F056FFE8190330801941
:1025F00080B2F8BD1600F7B2012E03D9721E885CB6
:102600000028F7D028002B706F7023793200AB7050
:1026100063790A30EB70A3792B71E3796B71237ABC
:10262000AB71A3681B0AEB71A3681B0C2B72A36828
:102630001B0E6B7204F02FFF30000A3028180125A2
:1026400026792E4002D008350D26C0E70925BEE7C1
:10265000F0B50027A5B00193CB7804000D0016005B
:102660000F700F2B21D8180002F0FCFF1000100093
:102670005400640076007C0083008A009100A3006F
:10268000B700CA00DA002001200158010023FD2A0A
:1026900036D10222CA70E370A6700B7B013A9343D5
:1026A0002B7301235B42237063702B78012B07D1BE
:1026B000A3796B712B89002B00D16B8101332B81A6
:1026C000E378019AD370EB782A9AD3702B7913713F
:1026D0006B79013353712B891381AB7853812B7B39
:1026E00013730023AB702B78022B06D1FF34A27D2D
:1026F000637D12021343019A1380287825B0F0BD40
:10270000FE2ADDD10222CA70E3700123A6700A7B83
:102710001343C5E7E27020000F711100FFF7FEFCC4
:102720002B7BDB0703D527716771052300E00323AB
:10273000EB70BAE7227133000122934306D08B7805
:10274000CA709B188B7000230B70AEE7310020001D
:10275000FFF7E4FC0423EBE7627111002000FFF7B0
:10276000DDFCE2E7A27111002000FFF7D7FC062391
:10277000DEE7E27111002000FFF7D0FC0723D7E766
:10278000227211002000FFF7C9FC0823D0E7627213
:1027900000223100A272E2722000FFF7BFFC2B7B07
:1027A000DB0704D5E378002B38D00B23C0E70923DF
:1027B000BEE7A37A627A1B021A43E37A20001B0465
:1027C000134332021343190A63721B0CA172E372A2
:1027D0003100FFF7A3FC0A23AAE7A37A627A1B025F
:1027E0001A43E37A20001B04134332041343190AEB
:1027F00063721B0CA172E3723100FFF78FFCD1E70B
:102800000B7920005A1CE3180A711E733100FFF780
:1028100085FC2A79E3789A4200D046E70C2387E7C3
:10282000E4270021A27A637A12021343E27A1204A7
:102830001A4300920C20CB1901335B085843A94A74
:102840008058009A824227D25F1E8F42F2D80C270E
:102850004F43A44B009ADB599A4222D1A14BDF1976
:1028600039792000FFF75AFC23789E421CD00E23B2
:10287000EB702300FF335E75002F00D115E72B7935
:10288000BA79934200D310E720000C30D21AC01856
:10289000002104F009FE08E7009A19008242D6D907
:1028A000D3E700273900DCE70D23E1E70E2B02D048
:1028B00063789A4212D002232B702300FF339E7557
:1028C0002379DB070CD50F23EB70023B6B732B785E
:1028D000022B00D1F4E600232B70E6E60123EBE7A0
:1028E0002B69002B05D01B6B002B0BD12B78022BF7
:1028F00076D101232422EB70FF322100019804F0ED
:10290000CAFDD2E6A17A627A09020A43E17A280076
:102910000904114398470028EBD1E7E74B7BE31A02
:102920000D33FF33DA754B7B013BDBB24B73002B6E
:1029300000D0BAE60E69002E00D1B8E04A69310035
:102940000A930B93684B00920C93684B20220D93D3
:10295000674B10310E93674B0AA80F93664B109389
:10296000664B1193664B1293664B1393FFF7E8FB8C
:10297000A11C0A220AA8FFF7E3FB2100E2780C3130
:102980000AA8FFF7DDFB210015310222FF310AA85A
:10299000FFF7D6FB210017310722FF310AA8FFF706
:1029A000CFFB04A90AA8FFF7B1FC21001E310622C3
:1029B000FF3104A804F060FD071E14D00223343652
:1029C00033702B691B6B002B0AD0A17A627A090243
:1029D0000A43E17A2800090411439847002866D188
:1029E00003232B7085E72300FF33DB7D0022029356
:1029F00000230692079323001833FF331900063291
:102A000006A8039304F047FD009B002B13D01A88FF
:102A10000233BA4212D0E0795978884207D1207A3D
:102A20009978884203D119780298814241D00137C0
:102A3000BFB20933EDE734360323C1E70F2A02D9C9
:102A400034360423BCE70023069807992E4A12184F
:102A50004B41F168994203D805D1B168914202D93E
:102A600034360523ACE709237B430099E279CB1880
:102A7000DA70227A1A716A46127A9A707B1C0B807D
:102A800009207843009B053018180622039904F0AA
:102A900002FD079BF168069A994203D304D1B168FD
:102AA000914201D2B260F3600123343633700123C6
:102AB00097E7092100220023794308920993009B9C
:102AC00005315918063208A804F0E5FC079A099B5D
:102AD0009A42D5D803D1069B089A9342D0D834366F
:102AE00006236DE7A077000067E6096A85AE67BB3D
:102AF00072F36E3C3AF54FA57F520E518C68059BE0
:102B0000ABD9831F19CDE05B808D5B00E12110B54F
:102B1000094C4902200000F0A5FC200000F0F2FD65
:102B20000028FAD0E1210548490201F005FE6420A1
:102B300002F09EFA10BDC046E40C0020E80500201B
:102B4000F0B5574C0025A5440024070002F060FAB8
:102B5000002102AB5A7E1E7EA694A795A6ABA89034
:102B6000A9915A7460AA1E7431CB31C21000016061
:102B70009B8802AA83807623FF339B186F225970AB
:102B80001A7099705D3A222310315DA8FFF7F8FBA7
:102B90005DA917A8FFF7FEFC17A90200414802F043
:102BA000C1F802F02FFA039002F02CFA039BC01A2E
:102BB000632800D96DE03B4C200001F0C5FD0028E2
:102BC000F2DD200002F010F8374CC3B2374D02930B
:102BD000A6AE11AB0093029A330021002800FFF744
:102BE00037FD831EDBB2012B0ED8A378029A013386
:102BF000A37000232370FD2A48D1FB3AEB70013B00
:102C0000E2702B706B70CFE70028CDD0B3681B0A41
:102C10006F2BC9D1F3781C1C122B00D9122412225D
:102C20000021E4B20AA804F03FFC2200A9A90AA8E6
:102C300004F031FC002F25D01D4C1E49200002F06D
:102C40009AF80C980D9902F0FFFD1B4A1B4B03F0FC
:102C500037FD022502000B000095200002F082F9EA
:102C60001749200002F087F80A980B9902F0ECFD52
:102C7000114A124B03F024FD009502000B002000C6
:102C800002F070F9F1239B009D44F0BD0123E37035
:102C90008AE7002FF6D00B49054802F07DF8F1E7EE
:102CA0003CFCFFFFE805002040050020B4000020A8
:102CB000E40C002074760000FCA9F1D24D62503F74
:102CC0007A7600008076000010B50120FFF738FF0B
:102CD00010BD70B506000C008D18AC4207D03368EB
:102CE00021789B683000984720700134F5E770BD6B
:102CF0007047704710B50400406800F093FA002355
:102D0000237610BD10B5406800F0B1FA10BDF8B5DB
:102D1000050040680C0000F0A5FA2B68E7B2260A0F
:102D20009B68012810D139002800FF2798472B689D
:102D3000BC4304439B6831002800984703022000ED
:102D40003840184380B2F8BD310028009847FF266C
:102D50002B680002344004439B68390028009847E0
:102D6000B4432043EEE710B5040002F0CBF9200095
:102D700010BD000010B54B1C0BD0102909D0EFF38B
:102D8000108472B6102905DD02234376002C00D191
:102D900062B610BD0123427E1A43427618224A438E
:102DA0000449891816228A569340C2691343C361A5
:102DB000ECE7C0469C8200004B1C17D0102915D0B0
:102DC000437E9B0712D4EFF3108272B618234B4355
:102DD0000749C9180123897D49B28B40C1699943CC
:102DE000C16100D14176002A00D162B67047C04669
:102DF0009C820000437E002B05D09A0704D5837E79
:102E0000002B00D062B67047DB07FCD5C369024ACD
:102E10009BB2D360F7E7C04600180040037E002B4A
:102E200004D143768376C361013303767047000093
:102E30007FB5036902AE04000D00029172608B42FF
:102E400003D1828AB3889A4226D02000062231001C
:102E5000103004F020FB606800F0FBF97379E17A30
:102E6000013B581E8341227B00936068002300F0E1
:102E700095FA33790021013BDBB2022B01D8074AD6
:102E8000D15C074B2A009D4200D91A00606800F00F
:102E9000B1F9606800F0D3F97FBDC0465C820000E4
:102EA000001BB70070B518260400FFF7B7FF33000A
:102EB0000821207A0D4D4343EB18595602F012FBBE
:102EC00033000821A07A4343EB18595602F00AFB5D
:102ED0000821607A4643AD19695602F003FB044BA2
:102EE000200006CBFFF7A4FF70BDC0469C82000007
:102EF000E005002007B5437E00910192002B07D02A
:102F00009A070AD5EFF310835A425341837672B67B
:102F10000099019AFFF78CFF07BDDB07F8D5C3695D
:102F2000014A9BB29360F3E700180040F7B5002414
:102F30000125194B194A5D711A601C71184B19480B
:102F4000083301930360184B184F4360184B194E18
:102F500003810D233A0031004575046104758372C5
:102F60000A3B0476C472037302F06AFB1248134BE7
:102F7000019A4360124B45750381192331000260A9
:102F800004613A0004758372163B05730476C372BC
:102F900002F056FBF7BDC046E005002000093D00E9
:102FA00060820000A0050020BC0C00200000002072
:102FB0000C0B0000F32C0000C0050020C40C002006
:102FC0001716000010B501211A2002F013FA012192
:102FD0001A2002F05BFA01211B2002F00BFA0021FB
:102FE0001B2002F053FA10BD10B5024801F05BFD42
:102FF00010BDC046E805002010B5024801F053FDA1
:1030000010BDC0462C08002010B5024801F04BFD51
:1030100010BDC046700A0020F0B51F4985B01F489A
:1030200000F058F81E491F4800F054F81E4D1F4983
:10303000280000F04FF81E4E1E49300000F04AF8FC
:103040001D491E4800F046F81D4F1E49380000F08B
:1030500041F8012403233900009301942300002246
:10306000194801F099FC00233100019300941D33AD
:103070001E22164801F090FC19230393013B029392
:10308000163B01930094143317222900104801F0D5
:103090003FFC05B0F0BDC04600080042B40C002063
:1030A000000C0042BC0C0020C40C002000100042A8
:1030B000CC0C00200014004200180042D40C002068
:1030C000DC0C0020001C0042E80500202C08002039
:1030D000700A002000230371016070479446F0B528
:1030E0009E1E721E96416246056892072F6836063C
:1030F0003A4332432A60072505AC24780068A401CE
:103100002940214342680024022B00D05C03114374
:1031100021434160F0BD30B5C0250368AD031C6894
:1031200012052A402243C0240904A402214011436D
:10313000196003685A6814435C6030BD012302685B
:1031400011680B43136003681A68D207FCD4DA696C
:10315000D207F9D470470223026811680B43136049
:103160000268D3699B07FCD470470268137E9B07F3
:1031700002D40379002BF9D1002303717047002298
:1031800003685A8370470368187E4007C00F704772
:103190000368187EC0097047802302685B42117E75
:1031A0000B43137670470368588B8007C00F704736
:1031B00002230268518B0B43538370470368187EC8
:1031C000C007C00F70470368188DC0B2704703680E
:1031D0001A7ED207FCD589B2198501230371180024
:1031E0007047012203689A757047012203681A75B7
:1031F0007047000070B5012604684B083340314029
:10320000256809075B070B432B43236004685100C3
:10321000034802F031FA0138C0B2207370BDC046D5
:10322000006CDC020123026811680B431360036821
:103230001A68D207FCD4DA69D207F9D4704702239E
:10324000026811680B4313600268D3699B07FCD4C2
:1032500070470368DA699207FCD402211A688A432E
:103260001A607047036818684000C00F7047026812
:10327000936A5B0A5B021943916203681A7E5207E4
:10328000FCD5986AC0B270470368214A30B59342B2
:103290002FD0204A93422FD01F4A93422FD01F4A4B
:1032A00093422FD01E4A93422FD01E4A93421FD1E1
:1032B0000E2319220121032599401B48C0240160D7
:1032C00099082B40AB40FC359D4089000918A400AB
:1032D0000859A843C0259D402B0003430B51802370
:1032E000DB011A43114B5A805A7852B2002AFBDB99
:1032F00030BD09231422DDE70A231522DAE70B2368
:103300001622D7E70C231722D4E70D231822D1E782
:1033100000080042000C004200100042001400426D
:1033200000180042001C004200E100E0000C0040D8
:10333000F8B504000F0016001D00FFF7A5FF2000E0
:10334000FFF7FCFE1C21BB000B4071072268090C33
:103350000B431360842322689375012F1AD1102127
:10336000012E00D008390C4B69431868C00002F0E8
:1033700083F90722216802408B895203DB04DB0CAE
:1033800013438B81226803049089DB0C400B4003BC
:1033900018439081F8BDC04614000020F7B5060020
:1033A000019308AB1F780D001400FFF73BFF3000BE
:1033B000FFF76AFFC022240592031440BA070C27C6
:1033C00017433C43C0270722BF022D0433683D400A
:1033D00025431D60019B316813401A0080239B0226
:1033E00013434B60F7BD0020704770B50F26CB1D0F
:1033F000013902003240D5B22C0000093034092ACC
:1034000000DD07341C70013B8B42F2D170BD00001F
:1034100010B50C000B4B1868FFF7E7FF21000A4BB3
:1034200008311868FFF7E1FF2100084B10311868D8
:10343000FFF7DBFF2100064B18311868FFF7D5FFB7
:10344000202010BD0CA0800040A0800044A080007F
:1034500048A0800008B4024B9C46103808BC604766
:1034600011340000704770473F20704713B56B461A
:103470000268D9710733546819000122A04716BDAC
:1034800070B50A260B7892B06E44023305000B70BB
:103490003C220021300004F007F8394801AC0690C6
:1034A000384824210790062020776846364AA174C0
:1034B0002281364A364BA281FD3AFF3A8018C17705
:1034C000684623390630C17768460730C17702A8BD
:1034D000C1770720F277032608316944C87703A92A
:1034E000CE7710212B366E443170092621851F318D
:1034F00069440E700CA9053E0E703321238002230F
:1035000069440B7006360DA90E7022493536A18626
:103510003B216E44307010A86274E27702703D3235
:1035200069446A440B70137040210022E3702371D8
:103530006371A37341336B44218719705A702B7DDB
:10354000C039A370A37263770133DBB2A3776A7DBE
:103550000B200D0068441543C57731206844037083
:103560003A23501C6B441870412302320A436B44C7
:103570001A7021004222084800F0FEFC12B070BD13
:1035800010010424020605240904000001020000C1
:10359000080B000007050000400D002008B4024B96
:1035A0009C46103808BC60478134000070B5027D2D
:1035B0000B790C0000259A420BD10B784E78A12B89
:1035C00009D1212E05D107221B491C4800F0D4FC4B
:1035D0000135280070BD212BFBD1202E22D10722DE
:1035E0001549164800F00AFC9622134BD2001968C0
:1035F00091421DD1DB79DB071AD4FA2001F0D2FF0A
:1036000000210E4800F0C0FD0125232EE1D1E37812
:10361000A2781B0213430A4A00210848136000F0F5
:10362000B3FDD6E7222EEFD18A78034BDA71DBE7C0
:1036300001F0C2FFE4E7C04608000020400D002072
:103640000400002008B4024B9C46103808BC6047B8
:10365000AD35000010B508220021024803F024FF18
:1036600010BDC0460800002010B5417D006A013140
:1036700000F0FCFA034B1B6801335A1E93411818E3
:1036800010BDC0461000002010B5417D006A023117
:1036900000F002FB10BD10B5417D006A023100F060
:1036A000C9FA10BD70B50D00417D04001300023150
:1036B0002A00006A00F0B6FB002801D101236360F4
:1036C00070BD000010B5054C23685A1C04D1036876
:1036D0005B69984703002060180010BD10000020AF
:1036E000074A0300106810B5411C03D001235B4258
:1036F000136010BD597D186A013100F043FBF8E7F3
:103700001000002010B501F07DFCF423FF330024ED
:10371000984207D9044B0A20DC79631E9C41E4B22D
:1037200001F0A6FC200010BD08000020002070471A
:1037300070477047FA239B0010B583600F4B00223F
:10374000C3820300283383610D4B04004260C261D1
:103750001800503323610830631D21622060DA773E
:103760008323A362813BE3628033236301F0C8FAC1
:103770002100103101F095FA200010BD0302000075
:10378000B4850000022110B5094B1A68437D5B0126
:10379000D318FF339C7A21439972437D0133DBB206
:1037A0005B01D3180122FF33997A0A439A7210BD44
:1037B000F811002010B502490248FFF7BBFF10BD09
:1037C000400D0020E40C0020704710B5040001F00B
:1037D00099FC200010BD0000F0B5822919D1C3B2B8
:1037E000294D5A01AA189169284C80010C40C0212A
:1037F00089052143916126490833401870215061A1
:1038000028685B011A5C8A43110030220A431A546B
:10381000F0BD0029FCD1C026C1B21B4C4B01E318FE
:103820009A681A4DB6052A4032439A60194A8001B7
:1038300082185A600A000727246808325201115D75
:10384000B9430F000121394311559F6910493D408B
:1038500040182E439E6158617020115D814308001D
:1038600010210143115599680B48A2180840802186
:103870004903014399609968890B89039960402342
:1038800011790B431371C3E7F8110020FFFFFF8F7D
:103890006C0D00202C0F0020FF3F00F0EFF3108391
:1038A00003600123436072B670470368002B02D1A6
:1038B00062B6BFF36F8F704773B5836D0400002B42
:1038C0001BD10600A83635786846FFF7E7FF019B55
:1038D000EDB2013B02D33578EDB2FAE768460193C9
:1038E000FFF7E3FF002D01D1002076BD2300A433B4
:1038F0001868A0342368C01AF7E76846FFF7CEFFC0
:1039000022000025019BF432013B02D31578EDB271
:10391000FAE768460193FFF7C8FF002DE4D02300C3
:10392000F0331868EC34E5E710B5436D4468DBB25A
:103930005A01A218916809480833084080214903B8
:103940000143916091685B01890B89039160226852
:10395000D318402219790A431A7110BDFF3F00F0B5
:10396000F7B5436D4268DBB21900040008311068F6
:1039700049014118C979C90711D55B01D21893686B
:103980009B049B0C0CD12000FFF7CEFF63681A68E4
:10399000636DDBB208335B01D3187F22DA71F7BDA8
:1039A000E16D002923D12100A4310B602300012502
:1039B000AC33E56568465360FFF770FF26002000D2
:1039C0002100019BA836013BF430F5315A1C33D05D
:1039D000357002785F1ED2B20A700A78002A04D1CC
:1039E00020000193FFF7A0FFE8E73B00EEE721008E
:1039F000F0310B600023E3652300603353606846B9
:103A0000FFF74CFF0125260020002100019BF43622
:103A1000013BA830F5315A1C0ED0357002785F1E7C
:103A2000D2B20A700A78002A04D120000193FFF76D
:103A30007BFFE8E73B00EEE768460193FFF735FFC1
:103A4000A4E737B56B46DC1D00230D00237001F0A1
:103A500057F9210001F0E2F82B6818182860207847
:103A60003EBD00000078002810D00121084B1B68E3
:103A70001A898A431A810822198B0A431A8304225D
:103A8000198B0A431A830022024B1A607047C04602
:103A9000F8110020F011002010B50F4A93699B0B1C
:103AA0009B03936113680222FF331A729879823A5A
:103AB00002439A711A7A9207FCD57F24074A214063
:103AC000937A0800A3431900802301439172917AED
:103AD0005B420B43937210BDF8110020005000416F
:103AE00010B50C0001F00CF9210001F0CAF8002813
:103AF00004D1034A93699B0B9B03936110BDC0469D
:103B0000F8110020F8B50D00832A19D1CBB23B4C37
:103B10005A01A21891693A48AD010840C0218905AF
:103B200001439161374920686D1870210833556150
:103B30005B011A5C8A43110040220A431A54F8BD03
:103B4000022A55D1304A8B009858002802D00368C9
:103B50005B699847F82001F0D1FA0400274E2B4BFF
:103B60004660036040220021083003F09DFC2200E3
:103B70000023A032A3646565E3642365A365E36560
:103B80005360D3641372136013654C321372537213
:103B9000FF222B001340590171188868184F083311
:103BA0000740C020800538438860306807265B01E5
:103BB000195CAD00B1430E000321314319542300B9
:103BC000616D606811404901411860334B60616D5F
:103BD00063680A401B6852019B180122FF33997ADF
:103BE00020000A439A72FFF79FFE074B5C51A6E73D
:103BF00011002800FFF7F0FDA1E7C046F8110020F2
:103C0000FFFFFF8F6C0D0020440D00201C8600007C
:103C100070B505000124064BA200D258002A06D038
:103C2000210028000134FFF76DFF0A2CF3D170BD8D
:103C3000180D00200B4BCAB20B488901C91853015B
:103C4000C318596199690832890B8903996103681E
:103C500052019A180223D3715179823B0B4353715D
:103C60007047C0466C0D0020F8110020084B8A00F8
:103C7000D05810B5002803D003689B68984710BD42
:103C8000C9B2044B4901591888688004800CF6E7D2
:103C9000440D0020F811002010B50C00FFF7E6FFDE
:103CA00000280CD0064BE4B21B68083464011C19D0
:103CB000802362795B42134363710223E37110BD79
:103CC000F8110020F0B51C002A4B85B01B680700D6
:103CD0000D000292002B4AD0274B8A00D0580028B2
:103CE00008D0036822005B6802999847040020000E
:103CF00005B0F0BD3800FFF7B9FF844204D92900B0
:103D00003800FFF7B3FF04000121EBB21B4E039311
:103D10005B010193F21893689B0B9B039360019ADC
:103D2000336802989B18FF335A7A0A435A72144B2D
:103D3000A901C918220003F0AEFB002CD7D029003E
:103D40003800FFF793FF0028D1D14021039B326850
:103D500008335B01D3181879014319710121D97116
:103D6000019BD318FF339A7A0A439A72BFE7012462
:103D70006442BCE7F0110020440D0020F81100203F
:103D80002C0F002013B56B46DC1D22000123FFF72A
:103D900099FF012801D1207816BD01204042FBE7A0
:103DA00070B5CBB2124A13485C0189018918021917
:103DB00051609168104D08330D408021490329431B
:103DC000402591609168890B8903916001685A01CF
:103DD0008A1816793543157195796D06FCD55B0106
:103DE000C918CB79DB07FCD500198068C0B270BD5B
:103DF0002C0F0020F8110020FF3F00F070B50D00DF
:103E000000211400FFF7CCFFA04200D920000023BE
:103E10000349A34203D0CA5CEA540133F9E770BDF9
:103E20002C0F0020F0B51E003A4B85B01B680F0028
:103E30000192002B35D08023DB019E4231D8002532
:103E4000354B8A01D3180293002E2CD0334B1B68BC
:103E50000393FF233B401C0000930834039B640141
:103E60001C19A379DB0921D02D4B2E49186801F0CC
:103E700003FC2D4B1721584301F0FEFB2B4BE2793D
:103E8000920713D4DA5D002A01D10138F7D201225A
:103E9000DA55009B5A01214B9B189A69920B9203A9
:103EA0009A6101256D42280005B0F0BD00221F4B2C
:103EB0003400DA553F2E09D9009B40245A01174B94
:103EC0009B188022996912060A439A61220001997F
:103ED000029803F0E0FA009BA1045A010F4B890CF1
:103EE0009B18029A2D195A619A69361B920B9203FC
:103EF0000A439A61009B039A08335B01D31802229C
:103F0000DA715979823A0A435A71019B1B1901935C
:103F10009AE7C046F01100206C0D0020F811002037
:103F20001400002040420F0070110100610D0020BC
:103F300070B50D001C000D4BAE01F61811003000DD
:103F4000220003F0A8FAEDB209496D014D196E6126
:103F5000AB69084A20001340AB61AB69A2049B0B1C
:103F6000920C9B031343AB6170BDC0466C0D0020E7
:103F7000F8110020FF3F00F0F7B5104B01901B78BF
:103F80000F001500002B0CD10D4B16001C78002CD7
:103F900009D00C4E0C4834882018641903F07BFAC1
:103FA00034802800FEBD002EFBD03A1933000021DA
:103FB0000198FFF7BDFF2418361AF4E7EC10002033
:103FC000ED110020EE110020ED100020F8B50F00DB
:103FD00016000024012A26D9100003F039FA050042
:103FE000380003F023FB0323022201304000287035
:103FF0006B7096420DD9397800290AD0531CDBB278
:104000000137A9549E4203D00232EC54D2B2F0E7F9
:10401000320029000548FFF7AFFF441EA041C4B29B
:10402000280003F01FFA2000F8BDC046400D002014
:10403000F0B50024012685B0184B0F0069461E70AC
:1040400005000094FFF7FDFC154B01A90B806A3BAE
:10405000FF3BCB715A330B72009B8C7109334B8041
:104060000E4B4E7108711C703A00092F0FD00D4F86
:1040700009223E700C4E280000943480FFF77CFF2C
:1040800069462800FFF7DDFC328808493C702800AB
:10409000FFF772FF012005B0F0BDC046EC10002014
:1040A00009020000ED110020EE110020ED100020AB
:1040B00070B5CE7892B005000C00022E0BD18B7932
:1040C000C9792C4809021943FFF7B2FF411E884104
:1040D000C0B212B070BD00F013FE210000F0B2FDBE
:1040E000002803D0C117081AC00FF2E7012E0ED125
:1040F000E279A37912021A431F49112A13D8D2B2C6
:10410000002A10D02800FFF737FF0120E1E7032E37
:10411000DFD1A378002B08D1E279A37912021A43E8
:104120001649032AEBD90A78ECE7022B08D1E27989
:10413000A379120212491A432800FFF747FFC8E784
:10414000012B05D1E279A37912021A430D49F3E755
:10415000032BBED14122010001A803F0A5F900F014
:10416000CFFD01A900F07EFDE279A37912021A4386
:1041700001A9E1E7400D00205C8600004C860000AC
:104180003886000050860000CBB204495B01C91894
:104190008B699B0B9B038B617047C046F811002015
:1041A00037B5050048780C000B2810D801F050FAFC
:1041B000061B0F2B0F404561494C5A5D097801AA37
:1041C000002906D1022311802800FFF7B1FE01204B
:1041D0003EBD00231380284B1B78012B00D11370A8
:1041E00002230021F0E78A780023012A03D101AAE3
:1041F0001380224BF0E7204A1370214A93699B0BEE
:104200009B039361E3E78C78012C06D100211B4BC3
:1042100001AA1C7011702300D6E70120002CD7D111
:10422000154B174A187093699B0B9B039361CFE75B
:1042300089782800FFF730FCC9E72800FFF738FF2E
:10424000C6E701230F4ACCE70B780020DB06BFD17D
:104250002800FFF7DDFCA2780A4B0B481A60FFF735
:1042600091FACAE70123094ABBE78A78074B1A602B
:10427000C3E70020ACE7C046600D0020680D0020B9
:10428000F8110020F0110020E40C0020F4110020AF
:104290003A4BF7B51E780500002E5FD1384C2368E5
:1042A0009A8B12070DD5082231009A833000FFF750
:1042B00093FA10222368FF33997A0A439A72314B9A
:1042C0001E6023689A8B520701D504229A83FF331C
:1042D0001A7A920603D52022597A0A435A721A7A18
:1042E000D20623D569460800274AC0CAC0C0A268C2
:1042F000920B9203A2604022587902435A716023C4
:104300000A7828001A422AD1FFF74AFF2368FF33B0
:10431000002827D08022997952420A439A711A7A4A
:10432000520603D54022597A0A435A727F26012544
:104330002368FF331E722F00236808377F01DB19C3
:10434000DB79002B07D0114BAA00D05800280DD0E4
:1043500003681B6898470135082DECD1F7BDFFF7BE
:10436000BFFBD3E720210A4A9171D8E72900094809
:10437000FFF7DFF92368DF19FE71ECE7ED1100208C
:10438000F8110020F01100202C0F0020440D002017
:10439000FF500041E40C002010B50248FFF778FF01
:1043A00010BDC046400D002080235B000380002329
:1043B000436007330372704783000148C018704799
:1043C000180D0020836C402B09D03F22036CC15490
:1043D000036C013313400364836C013383647047BF
:1043E000F7B505006846FFF759FA00264022019B01
:1043F000013B02D32E6D961BFAE768460193FFF747
:1044000054FAAB6D6846002B4FD1FFF747FA2900ED
:10441000019BA831013B5A1C0CD00C785A1EE4B207
:10442000002C05D168460193FFF73FFA2000FEBD3E
:104430001300F0E7684601930024FFF736FA2A00DC
:104440002900A0321368A431B4420ED00868984203
:104450000BD92800591CEB1811606033197808300B
:10446000C9B2FFF7AFFF0134E9E709689942DDD12E
:10447000002313600133AB656846FFF70FFA2F0086
:104480002A000021019BA837013BF532581CC9D0F6
:10449000397010785E1E002805D011702800019335
:1044A000FFF742FAEBE73300F0E7FFF7F7F92900EF
:1044B000019BF431013B5A1C06D00C785A1EE4B221
:1044C000002CAFD01300F6E7684601930024FFF7F5
:1044D000ECF92A002900EC321368F031B44202D022
:1044E000086898421DD8096899429FD10023684600
:1044F0001360AB65FFF7D2F92F002A000021019B62
:10450000F437013BF532581C00D18BE73970107835
:104510005E1E002811D0117028000193FFF704FAE5
:10452000EAE72800591CEB181160AC331978083001
:10453000C9B2FFF747FF0134CBE73300E3E710B51B
:104540000400FFF74DFF206D10BD10B50400FFF70C
:1045500047FF236D002B03D0E36CE418207A10BDD5
:1045600001204042FBE7F7B517000E000400FFF7FB
:1045700037FF6846FFF792F93F2200259446019BDA
:10458000013B5A1C19D0BD4215D2226D002A12D00F
:104590000121226D4942002A0AD06046E26CA2182D
:1045A000117AE26C01320240E264226D013A226526
:1045B00071550135E7E7013BE3E768460193FFF7F3
:1045C00074F92800FEBD0000014B024A1A607047D2
:1045D000F8110020005000412023F7B5474A05009C
:1045E000D1690F200B43D361012245490B78134356
:1045F0000B70444B19788143197006211C782143B4
:10460000197041490C7822430A701A7802401A70D6
:10461000602219780A431A703C4B3D4A5A805F78F1
:10462000FF09FCD13B4800F0E7FC01233A4C3B4E2C
:104630002268300011780B43137080223900520039
:1046400002F032FF22689378DB07FCD456621F2603
:10465000334B1B68590B980C9B01314030405B0F6A
:10466000B14200D105211F2800D10238072B00D10B
:10467000043B31408901178D01912A4930400F4098
:10468000019939431185118D0700B1430800384362
:104690001085118D1803244B7F260B4003430C20FB
:1046A00013850823D17881430B430321D3702268FB
:1046B000D3788B4301390B43D3702268137833408E
:1046C0001370042322681678334313702268C124C0
:1046D0001389A40083431548138103591B021B0A45
:1046E000035180230360137811481943012311708B
:1046F0002B700021FEF7B6FEF7BDC0460004004057
:10470000584400413C44004159440041000C0040E1
:104710000640000099430000F8110020FC11002021
:10472000246080003FF8FFFFFF8FFFFF00E100E003
:10473000E40C00200120704710B50368014A1B6A91
:10474000984710BD13040000FC30006A70478723AF
:104750009B00C018C36880204000C01A7047030047
:10476000FC331A6A002A03D0DB69C018007D704749
:1047700001204042FBE710B504000069FEF7DEFCB3
:1047800022000023FC329361D361136287229200DE
:10479000A4186360A360E36010BD872310B59B007D
:1047A000C218D368002BFCD10069FEF7DEFC10BDF7
:1047B000F02001403039484248417047F0231B0146
:1047C0001940802306209B0099420AD00133FF3311
:1047D0000130994205D0802302385B00994200D015
:1047E000002070470F2001400020012903D002392A
:1047F000481E8141481C70478B23F0B5182685B0B0
:1048000002919B000400C05C330008214343324DF9
:104810001700EB18595600F065FE304B0821E05C9C
:1048200033004343EB18595600F05CFE2C4BE25C1E
:104830000393022A09D11133E05CFF2805D0082137
:104840004643AE19715600F04DFE8C26B600A05DB1
:10485000FF2819D0012100F0CDFD1822A35D2149C8
:104860005A43AB56AD18DB0158188D2189006050B2
:104870001D4901225B188E218900635069688A40B6
:104880008F21890062501A600122029B1100206969
:10489000FEF74EFD39002000FFF790FF39000500BC
:1048A0002000FFF79FFF390006002000FFF780FF80
:1048B00033000090290020690122FEF70FFC0B4B0A
:1048C0002069E25C039BE15CFEF725FC2069FEF7B2
:1048D00042FC05B0F0BDC0469C8200002D020000E5
:1048E0002F02000018440041144400412E02000031
:1048F000802210B504005200002102F0D5FD2300F3
:104900000022FC335A6020009A60DA6010BD00007B
:10491000F0B585B01D000AAB1B78040000930BAB0B
:104920001B78160001930CAB1B780F0002930DABA4
:104930001B78039300234360FA239B008360124B90
:10494000083303601430FFF7D3FF20002130FF301D
:10495000FFF7CEFF8B236A469B002761E6540B4B83
:104960001278E5540A4B2000E2546A46094B12794A
:10497000E2546A46127A0133E2546A46127B1033DB
:10498000E25405B0F0BDC046708600002D02000064
:104990002E0200002F020000F7B51D0008AB1B78A7
:1049A0000400009309AB1B781600019300234360B9
:1049B000FA239B008360114B0F000833036014300F
:1049C000FFF796FF20002130FF30FFF791FF8B2388
:1049D0006A469B002761E654094B1278E554094B5F
:1049E0002000E2546A46084B1279E2548C22313B93
:1049F000FF3B9200A3541032A354FEBD708600000A
:104A00002D0200002E0200002F020000F7B5EFF388
:104A1000108300930123019372B680260200FF25C4
:104A2000019BFC327600013B5C1C0FD0D4685F1EFA
:104A3000B44209D054680155546801342C40546084
:104A4000D4680134D460EEE73B00EDE7684601939B
:104A5000FEF72BFFF7BD13B5EFF31083009301238F
:104A6000019372B6019B5A1E0192002B15D00300D0
:104A7000FC33DA68002A0DD09A68845C9A680132A7
:104A8000D2B29A60DA68013ADA606846FEF70DFF42
:104A9000200016BD01246442F7E701246846FEF7B2
:104AA00004FF6442F4E710B504000069FEF77BFBE5
:104AB000002805D02069FEF786FB2069FEF778FB09
:104AC0002069FEF760FB00281BD02069FEF77BFB06
:104AD000010020001430FFF799FF8C239B00E35C5A
:104AE000FF2B0ED02300FC331A6A80235B009B1A35
:104AF000092B06DC8D238F229B009200E358A258DD
:104B00001A602069FEF75AFB00280ED087239B000D
:104B1000E318DB68002B14D020002130FF30FFF7B2
:104B20009AFFC1B22069FEF752FB2069FEF730FB05
:104B3000002805D02069FEF72FFB2069FEF71FFB38
:104B400010BD2069FEF751FBEFE70000F8B5040047
:104B500000690D00FEF732FB87239B00E618002852
:104B600002D0F368002B34D001278022F368520072
:104B7000934223D1EFF310833B4210D1174B5B6874
:104B8000DB05DB0DF1D0103B5BB2002B10DAF13A04
:104B90001340083B9B08124A9B009B181B68206926
:104BA000FEF70CFB0028E0D02000FFF77CFFDCE7DD
:104BB0009B08C0330B4A9B009B58F0E72000213034
:104BC000FF302900FFF722FF2069FEF70AFB0120D2
:104BD000F8BD29002069FEF7FAFAF8E700ED00E0D9
:104BE0001CED00E000E100E010B504001430FFF718
:104BF00032FF8C239B00E35CFF2B0ED02300FC33A1
:104C00001A6A80235B009B1A0A2B06DD8E238F22F3
:104C10009B009200E358A2581A6010BD70B50E00B8
:104C200000254468002C0BD0236831005B6820000D
:104C30009847002802DB2D18E468F3E701256D4250
:104C4000280070BD70B50D004468002C08D02368A2
:104C500029009B6820009847002802D1E468F4E707
:104C6000200070BD70B50D004468002C07D023688B
:104C700029002000DB689847E4682D18F5E72C70C0
:104C800070BD70B50D004468002C08D02368290061
:104C90001B6820009847002802D1E468F4E7200050
:104CA00070BDF8B542788B790D00017A9B1804002D
:104CB00000208B4222DC6368834219D165600026A4
:104CC00023786A71EA792B719B182370AB79B34210
:104CD00013D9AB68B7006078DF19FFF76DFB3B684D
:104CE000013603606378F6B201336370EEE70B00C0
:104CF000D9680029FBD1DD60E1E70120F8BD0000A3
:104D000070B50126054D064C2B68334203D12000B7
:104D1000FFF74AFB2E60200070BDC046FC12002049
:104D200000130020F7B506000D000C008B1801934E
:104D3000019B671B9C4207D0336821781B683000B9
:104D4000984701340028F3D13800FEBD70B5040047
:104D500008000D0002F06AFC2368020029005B686D
:104D60002000984770BD10B50B1E02D0FFF7EEFF74
:104D70000300180010BD10B5FFF7F5FF10BD10B50A
:104D800003681B68984710BD10B50249FFF7DEFFA6
:104D900010BDC046B086000070B50400FFF7E3FF09
:104DA00005002000FFF7F0FF401970BDF0B58BB093
:104DB0006B461500002205330600DA770800012D46
:104DC00000D80A2509AC290000F0DCFCCAB21300A7
:104DD00037330700DBB2092902D813003033DBB2C6
:104DE000013C2370002FEED121003000FFF7BBFF04
:104DF0000BB0F0BDF7B51E00089B05001700002B97
:104E000001DA0223089331003A003300380002F03F
:104E100011FA4B49002814D101227400640852424F
:104E2000484B3800210002F005FA00280FD101227A
:104E3000444B52423800210000F0CAFC002806D141
:104E400041492800FFF782FF04002000FEBDE02258
:104E50003E4B12063800310000F0C4FC002801D09F
:104E60003B49EEE7E0223B4B12063800310000F0F0
:104E7000A5FC0028F4D1002200233800310000F006
:104E80009DFC002814D02D212800FFF778FF8023F7
:104E90001B060090F618002400202F49089B9C4216
:104EA00008DA00222D4B013401F000F8E4B2F5E7F6
:104EB0000090F0E70B0002003100380000F0DAFC4F
:104EC0000F00060000F0A2FC0A2201900100280059
:104ED000FFF76CFF009B1C18089B002BB5D00198B6
:104EE00002F034FA02000B003000390001F05AFEE3
:104EF00006000F0028001A49FFF728FF2418089B16
:104F00005A1E0892A1D3154B00223000390001F03F
:104F1000D7FB0F00060000F079FC0A220100009088
:104F20002800FFF743FF2418009802F00FFA020050
:104F30000B003000390001F035FE06000F00DEE7FF
:104F4000A4860000FFFFEF7FA8860000FFFFEF416F
:104F5000AC860000FFFFEFC10000E03F00002440EE
:104F60009D76000037B5069904000091FFF742FFD7
:104F700005002000FFF708FF40193EBDFEE70000D6
:104F8000034B10B51B68002B00D0984710BDC046DE
:104F90000C13002070B50F490F4CA14204D100F052
:104FA000B5F800F08BF8FEE70C4D00238D42F6D0EB
:104FB000CA18E818A24205D3094B8242EFD009492A
:104FC000002204E0006804331060F1E704C38B4260
:104FD000FCD3E4E700000020980000209887000040
:104FE000980000202413002010B500F064F8002879
:104FF00001D100F055F810BD014B18607047C04654
:105000000C130020014B18687047C0461013002095
:10501000F7B51348012284461249134C8E68636821
:1050200005689B0E1340019288686268019F920E8A
:105030003A4067463F6893420ED1BD420CD186424A
:105040000AD35B19FA254868AD00861B07486B43F5
:105050007043000DC018FEBD3D0013000600E3E7DD
:105060001013002010E000E000ED00E055550000B6
:1050700070B5041E10D0FFF7CBFF050000F01AF842
:10508000FFF7C6FF054B401B9842F7D9FA23013CB6
:105090009B00ED18002CF3D170BDC046E703000063
:1050A00010B5034A13680133136000F08DFA10BD88
:1050B00010130020704700207047000010B500F06A
:1050C000EFF802F0A1F9FDF77DFF0120FFF7D0FF17
:1050D000084C2000FFF780FA2000FEF7C3FCFDF724
:1050E00015FDFDF7F1FD044B002BFAD000E000BFE9
:1050F000F7E7C046400D00200000000010B502F0A8
:10510000A7F910BD10B502F0ADF910BD1E22F0B523
:10511000504851494368514D93431A0002231343A9
:10512000436008238A691343FE228B612B68D203F4
:105130009B0213404A4A13434A4A936113000422D4
:10514000DC681442FCD00124474A147016782642C9
:1051500003D0567876B2002EF8DB012494605478A0
:1051600064B2002CFBDB414C5460547864B2002CD8
:10517000FBDB8224E4015480547864B2002CFBDB16
:1051800002249C840E34DE682642FCD0384CDC625B
:105190001024DE682642FCD02C68A40E3F2C00D1DF
:1051A000203C9E6A334FA4023E4034439C629C6A7A
:1051B000314EA40AA40234439C62304CDC620024C9
:1051C0009C841034DE682642FCD02D4C9C84102434
:1051D000DE682642FCD002249E8C34439C8410243A
:1051E000DE682642FCD000249460547864B2002C1F
:1051F000FBDB244C5460547864B2002CFBDB1C6A4B
:10520000214E344080261C621C6AB4431C62032376
:1052100093601E4B536053785BB2002BFBDB002383
:10522000FF240B721A4A4B728B72CB72194B1A60A5
:10523000194A2B6811689A065B01C90E2340520F68
:1052400012020B431343154A13858023426813430C
:105250004360F0BD00400041000400402460800035
:105260000606000000080040000C00400104010098
:10527000B905FF7DFF03FFFFFF01000080BB0A1C93
:105280002405000000070300FFFCFFFF03060100E8
:10529000006CDC021400002020608000004000420E
:1052A000FA21314B10B51868890000F0E5F92F4B51
:1052B0000138984256D82E492E4A4860C020136AB9
:1052C00000061B021B0A03431362002407238C60A1
:1052D0000B608021136A09061B021B0A0B43136231
:1052E000FC22254B196A0A431A62FC22196A9201B0
:1052F0000A431A62A022196AD2020A431A62E0B271
:105300000021013400F076F81F2CF8D11B4B1C0053
:105310005A7852B2002AFBDB194A5A80194B1A00FC
:10532000597EC9090129FBD0E421C90099803F2198
:10533000D970537EDB09012BFBD0C02300205B0119
:105340001361907000F024F863785BB2002BFBDBF4
:105350000D4B0E4A6380D379DB09012BFBD041232F
:10536000537010BDFEE7C04614000020FFFFFF0091
:1053700010E000E000ED00E000040040000C004000
:105380001E40000000400042214000000048004252
:10539000164A00B51300517EC9090129FBD0013816
:1053A000042816D81969124A0A400F211A615A783E
:1053B0008A4300F04DF90308060B03001100012297
:1053C0000A435A7000BD11000322F9E711000222BE
:1053D000F6E7F02311691B050B430F211361537886
:1053E0008B43190002230B435370EBE7004000424C
:1053F000FFFFFFF0182330B51D00040045430820CF
:10540000204A55192856013014D0032912D8080013
:105410006343D156D31800F01BF902280E1B5868BD
:10542000CB010221184A9B181A1840321170012230
:1054300082405A6030BD5868CB010621124A9B1841
:105440001A1840321170012282405A609A61F1E7C5
:105450005868CB0106210C4A9B181A18403211706B
:10546000012282405A605A61E4E75868CB01022168
:10547000054A9B181A1840321170012282409A6026
:10548000D8E7C0469C820000004400411823F0B5D4
:1054900008245843114A13181C5701341BD0012605
:1054A00035005F688356BD400D4ADB019A1890684D
:1054B00005420BD10C00601E8441D2194032107895
:1054C00034400336A400B04320431070044A9B18B4
:1054D000002901D15D61F0BD9D61FCE79C82000067
:1054E0000044004118224243F8B52C4E0300B21884
:1054F000127A52B2140001320ED0481C00240C283B
:105500000AD800F0A5F80720202020202020200B1A
:105510000B0B0B00012464422000F8BD092905D1C2
:105520000021D8B2FFF766FF0024F5E70A2902D16F
:10553000D8B20839F6E700240B29EDD1D8B20A39E0
:10554000FFF758FFE8E718204343F2185568F35671
:105550002C00134ADB016E0817389B18C9B20440AF
:105560009E19002C0DD00F243036327809012240CC
:105570001143C9B25B19317040331A781043187067
:10558000D2E732000F27303216785B19BE43314321
:10559000117040331A7810431870BDE79C820000E8
:1055A0000044004110B50400FEF7C2F8014B1C6036
:1055B00010BDC046180000200122024B52421A6062
:1055C0007047C04618000020164A10B51368591CD1
:1055D00026D0013B1360002B22D172B6124B134A26
:1055E0000433934213D9124A01211000147D0C4256
:1055F000FCD02021148BFF319B085B0021431183D9
:10560000D3610C4B13800123027D1A42FCD0BFF3FF
:105610004F8F094B094ADA60BFF34F8FC046FDE751
:1056200010BDC0461800002000200000030200004A
:105630000040004102A5FFFF00ED00E00400FA0574
:105640000B0010B50100180001F0D0FE10BD0000E5
:1056500002B4714649084900095C49008E4402BC05
:105660007047C04603B47146490840004900095AD2
:1056700049008E4403BC7047002243088B4274D318
:1056800003098B425FD3030A8B4244D3030B8B4243
:1056900028D3030C8B420DD3FF22090212BA030C4C
:1056A0008B4202D31212090265D0030B8B4219D32D
:1056B00000E0090AC30B8B4201D3CB03C01A52414D
:1056C000830B8B4201D38B03C01A5241430B8B4295
:1056D00001D34B03C01A5241030B8B4201D30B037E
:1056E000C01A5241C30A8B4201D3CB02C01A5241A5
:1056F000830A8B4201D38B02C01A5241430A8B4268
:1057000001D34B02C01A5241030A8B4201D30B0250
:10571000C01A5241CDD2C3098B4201D3CB01C01A6A
:10572000524183098B4201D38B01C01A5241430974
:105730008B4201D34B01C01A524103098B4201D362
:105740000B01C01A5241C3088B4201D3CB00C01ACF
:10575000524183088B4201D38B00C01A5241430847
:105760008B4201D34B00C01A5241411A00D201466C
:10577000524110467047FFE701B5002000F006F8DF
:1057800002BDC0460029F7D076E770477047C04693
:105790008446101C62468C46191C634600E0C046D5
:1057A0001FB500F025FF002801D40021C8421FBD0D
:1057B00010B500F07DFE4042013010BD10B500F084
:1057C00017FF002801DB002010BD012010BDC046DE
:1057D00010B500F00DFF002801DD002010BD0120F4
:1057E00010BDC04610B500F09FFE002801DC00206F
:1057F00010BD012010BDC04610B500F095FE002878
:1058000001DA002010BD012010BDC04670B5002295
:105810000C4B04000D00FFF7EFFF002804D120001F
:10582000290001F023FD70BD064B00222000290055
:1058300001F0B8F901F01AFD80231B069C46604474
:10584000F1E7C0460000E04170B50600080001F035
:1058500043FD0022064B00F033FF0D000400300032
:1058600001F074FD2B00220000F004F870BDC0466A
:105870000000F041F0B54F464646D6460C000903FD
:10588000C0B5490A470F5E0039431F03DB0F9C4632
:1058900065007B0A570F1F436D0DE40F760DA1467F
:1058A000C000B846D200AB1B64457BD0002B5FDD47
:1058B000002E00D0A4E03E00164300D112E15E1E8F
:1058C000002E00D09EE1871A4346B8428041012550
:1058D000C91A4042091A0B0200D431E149024E0AAA
:1058E000002E00D16EE1300001F062FD0300083BA4
:1058F0001F2B00DD61E120223900D21A9E40D140E9
:105900009F400E439D4200DD51E15D1B6B1C1F2B30
:1059100000DD7CE12021C91A3D0030008F40884025
:10592000DD40791E8F41310007222843D9400025F0
:1059300007433A40002A09D00F233B40042B05D0EF
:105940003B1DBB42BF417F42C9191F000B0200D45F
:1059500026E26A1CC64B55056D0D9A4200D106E140
:10596000C44AFF080A40530752023B43120B8EE021
:10597000002B00D0B8E06B1C5B055B0D012B00DC3D
:1059800030E1871A4346B842B641CB1A76429E1B95
:10599000330200D54CE13B003343A1D10022002467
:1059A000002570E0002B00DCE5E0002E00D183E054
:1059B000AF4EB54260D0802636043743B846382B08
:1059C00000DC3EE1434613431F007A1E97413F1817
:1059D00087428041404209180B0200D4B0E0A44B3A
:1059E00001359D4200D1C3E0A24A7B080A40012153
:1059F0000F401F435108D30707221F433A4099E73E
:105A00009B4EB54238D0802636043743B846382BF3
:105A100000DDDCE01F2B00DC30E11E004746203EAD
:105A2000F740BC46202B04D04026F31A46469E4041
:105A30003243170063467A1E97411F43CCE0002B88
:105A400000D104E24346134300D159E14B07C0089B
:105A500018438023C9081B03194208D04546ED08A6
:105A60001D4204D14346D008590708432900420F7C
:105A7000C9007F4D1143C0004B07CA087C49C008CC
:105A800003438D4268D012036D05120B6D0D00218A
:105A900012031800130B0A0D12051A43764B2D053D
:105AA00013402B435B00E4075B08234319001CBC35
:105AB00090469946A246F0BD3E00164312D05E1EA7
:105AC000002E00D000E187188742804141444042C7
:105AD000091801250B0233D5022585E764463300FA
:105AE000414610001D00C7E7002D00D0DAE00C0091
:105AF0000443F3D05C1C00D19FE15D4CA64200D171
:105B00002FE1DB43382B00DD66E11F2B00DD83E155
:105B100020240500E41A0F00DD40D940A040434690
:105B2000A7405B1A441EA04198462F433843171ADA
:105B3000BA42924143465242991A64463500CAE637
:105B400007223A40002A00D0F6E64B07CA08484927
:105B5000FF083B438D4296D11900114300D19EE1CD
:105B6000802109030A431203120B414D8FE71500F0
:105B7000002200238BE7002B00D0C7E06B1C5F05E1
:105B80007F0D012F00DCF1E0394DAB4200D1B9E0CF
:105B900085180A008542894142444942511807222A
:105BA000CF076D082F4349083A401D00C2E607227F
:105BB0003049ED1A31403A40BCE63E002838864074
:105BC00000279FE6380001F0F3FB20308EE64346C5
:105BD00013431F007A1E9741C71BB84280414042C1
:105BE000091A78E60E003B0006431343002D61D1ED
:105BF000002E00D0F4E0002B00D11BE164463900F8
:105C0000100039E71A4FBB427AD03300FFE630006C
:105C10001F3DE840202B03D04021CB1A9E40374344
:105C20007B1E9F41072207433A400021002589E758
:105C3000171A4346BA42B641591A76428E1B644639
:105C40004EE61F2B00DDADE020264746F61AB74092
:105C5000B9461700B246DF404E463E43370056462F
:105C6000B240561EB24117434246DA408918AEE6AA
:105C7000FF070000FFFF7FFFFFFF0F802026474642
:105C8000F61AB740B9461700B246DF404E463E43CB
:105C900037005646B240561EB24117434246DA40DC
:105CA000891A99E77F4CA6425BD0802424045B428A
:105CB000214327E7002E0CD1002B00D1CBE0644616
:105CC00039001000774DD7E6764FBB4218D033002D
:105CD00075E6002B14D04B07C00818438023C90871
:105CE0001B03194207D0FC081C4204D17907D008D5
:105CF0000843E14621004C46420FC9001143C00051
:105D0000684DB9E61D0000220023C0E6002D5BD1DE
:105D10000D00054300D1E2E65D1C00D1B0E0614D0D
:105D2000AE421FD0DB43382B71DC1F2B00DD96E029
:105D300020250F00ED1AAF40B9460700AA46DF4004
:105D40004D463D432F005546A840D940451EA84129
:105D500088440743BF18974292415142414435005D
:105D60003AE6644635004146100085E60B000343E1
:105D7000002D00D063E6002BF5D04346134300D13D
:105D80007AE6871887428041072241444042091839
:105D90003A400B0200D4D5E6434B01351940C9E522
:105DA000380069E61E004746203EF740BC46202BDF
:105DB00004D04026F31A46469E40324317006346FD
:105DC0007A1E97411F4302E6364DAE42CAD0802567
:105DD0002D045B422943A6E70843411E8841A6E6FD
:105DE000002B00D148E6871A4346B842B641CB1A89
:105DF00076429E1B33024BD5171A4346BA42924154
:105E0000591A5242891A072264463A4092E50143E0
:105E10000F00791E8F419DE71C000F00203CE740DA
:105E2000202B03D04024E31A99400843411E8841A7
:105E300038437CE60022002425E6171A4346BA427E
:105E40009241591A5242891A6446350043E5414647
:105E50001000144D10E680220024120380E61D007D
:105E60000F00203DEF40BC46202B03D04025EB1A0D
:105E70009940084307006346781E87411F4369E73E
:105E8000871897429B4141445B42C9183500A3E5FE
:105E90003B003343CED0072231003A4052E6002384
:105EA0001A00F4E5FF070000FFFF7FFFF0B557463B
:105EB000DE464E464546E0B5834607000E034800E1
:105EC00085B092461C00360B400DCD0F002800D146
:105ED0009DE0954B984239D08023F6001B041E4369
:105EE000924A7B0F334399469446030063440093E0
:105EF00000230026FF00029323031B0B9846630038
:105F0000E40F52465B0D019400D1B3E086498B4209
:105F100000D19EE04246D100802212040A4351463D
:105F2000490F11438B46814952468C460099634480
:105F3000CB1A0021D20000932B0063409A460F2E0B
:105F400000D905E17A4BB6009B599F465B46334327
:105F5000994600D0B8E0022308260027009002935B
:105F6000CAE7CB463A0002990195019B9A4602295D
:105F700027D0032900D180E2012944D06D49009B3C
:105F80008C4663441C00002C38DD530700D013E21C
:105F9000D2085B46DB0109D55946674B19408B4651
:105FA0008021C9008C46009B63441C00634B9C42CB
:105FB00007DC5B4664055F075B0217431B0B620D42
:105FC00002E000230027584A00211B031C0B0B0D85
:105FD0001B05234314055A4A380013401C435346FB
:105FE0006400DB0764081C43210005B03CBC9046FC
:105FF0009946A246AB46F0BD0122524201231B1B2B
:10600000382B00DCADE1002200230027DCE75B46F3
:10601000334399465ED0002E00D18AE1300001F072
:10602000C7F903000B3B1C2B00DD7BE11D22D31ABB
:106030005A460100DA4008398E4013005F46334368
:1060400099468F403F4B00261B1A00930023029372
:1060500052E7414653460B433B499B468C46009BC7
:10606000634400935B46002B3BD1022300221E4376
:10607000022161E7434613439B4637D04346002B3A
:1060800000D162E1404601F093F903000B3B1C2B69
:1060900000DD53E102004146083A914088461D2147
:1060A000CB1A5146D9400B0041460B439B46534601
:1060B00093401A00009B25499C46604403008C468F
:1060C00063440093002137E70323B14600900C2678
:1060D000029311E700230093013304260027029363
:1060E0000AE70323C3461E43032125E701331E436A
:1060F0000022012120E700239A46802300271B036A
:10610000094A61E7802349461B03194200D1E2E0B6
:106110005946194200D0DEE00B431B0317001B0B4E
:10612000A246014A50E7C046FF07000001FCFFFFFE
:10613000B4860000FF030000FFFFFFFEFE07000023
:10614000FFFF0F800DFCFFFF01F8FFFFF3030000CE
:10615000D94500D9CBE000D1C6E03C004846002735
:10616000009B013B00935B46160E1B021E4313026D
:10617000984633041B0C9946310C0191FFF702FB42
:106180004A4642430B04210C050019438A4207D9B1
:106190008919013D8E4203D88A4201D9851E891989
:1061A000881A0199FFF7EEFA09048C464A46210441
:1061B00064464243090C030021438A4204D98919E9
:1061C000013B8E4200D8F1E02D041D43AB4643460F
:1061D000891A4246280C12041D0C5B46140C22003E
:1061E0001B041B0C5A4303946B43444302956843BE
:1061F0001B19150CEB189C4203D980246402A44699
:1062000060441C0C15041B042D0C20185D198142E0
:1062100077D373D00C1AA24A7D1BAF42BF4194467C
:10622000009B7F426344E01B1C00864200D1DBE000
:106230000199FFF7A7FA4A4642430B04290C0700CD
:1062400019438A4207D98919013F8E4203D88A42ED
:1062500001D9871E8919881A0199FFF793FA090451
:106260004A46894629044D464243090C0300294306
:106270008A4207D98919013B8E4203D88A4201D943
:10628000831E89193F04891A3A00039F1A43380074
:1062900013041B0C584381460298150C6F4343436B
:1062A00045434846000C8446DB1963449F4203D9AA
:1062B000802040028446654448461F0C00041B04AD
:1062C000000C7D191818A94200D284E000D17FE0AB
:1062D00001231A4357E680234A461B0313431B033B
:1062E0001B0BAA466F4A6FE6BA4200D935E74B4608
:1062F000DC0758087B081C43FF0734E70024AF4243
:1063000089D247444745A4415B466442A4196418B6
:10631000013BA6421ED2A0426DD800D1B6E0241A9D
:106320009B4678E703005A46283B9A40002791464F
:1063300088E6584601F03CF8203072E603005246E9
:10634000283B9A4093460022B4E6504601F030F8CC
:1063500020309AE6A642E2D1B845DCD9341A9B46F1
:1063600059E71F2B65DC504C0099A4465C466144FC
:1063700008008C4011008240D940501E82410C43DD
:1063800014435A46DA401300620709D00F22224014
:10639000042A05D02200141D9442894149425B1809
:1063A0001A0262D50122002300270DE68A4200D896
:1063B0000AE7831E891907E70F231340042B00D136
:1063C000E6E5171D9742924153429B44FA08E0E5E7
:1063D000002800D1D7E57118531EB14227D3A94236
:1063E00015D358D01A0073E7002B00DC04E6012314
:1063F00000229B44CDE502234744474589415B4247
:106400009C46494289190C19E344241A03E7434680
:106410005F0047459B41B8465B429E19023A891985
:10642000A94200D054E7404500D051E7ABE51A003F
:10643000F6E71F215F4649420C1BE740202B07D09F
:106440001A49009B8C46634418005B4683401A43FC
:10645000501E82413A4307270023174009D00F21DD
:10646000002311401400042995D122005F075B022C
:106470001B0BD20817430022A6E5802359461B03B5
:106480000B431B0317001B0B064A9DE5BD42B2D808
:106490009B460024BFE68045B9D31A00C3E7C04637
:1064A000FF030000FF0700001E0400003E04000080
:1064B000F0B54F464646D6468446C0B58046194E8E
:1064C00018030F034D00000B5C0082463F0B6D0D5F
:1064D000C90F9146640DDB0F0120B5420AD0B442CA
:1064E00003D0A54201D157450CD01CBC904699461B
:1064F000A246F0BD66463E43F7D1AC42F5D15446C4
:106500001443F2D10120C845EFD1994207D0002DA4
:10651000EBD163461F433800471EB841E5E7002032
:10652000E3E7C046FF070000F0B54F464646D646B3
:106530004D00C0B50E03C90F8A462C491F035C00ED
:106540008046360B6D0D91463F0B640DDB0F8D427F
:106550001ED08C4216D0002D1ED130438446002C14
:1065600001D13A4323D06246002A1AD09A4529D055
:10657000514602200139084001381CBC904699461A
:10658000A246F0BD39001143E5D002204042F4E7B5
:106590003043FAD1AC420FD0002C0FD13A43E7D0B0
:1065A0000CE00122013B934318000130E5E763460C
:1065B0000020002BE1D0DBE73A43E6D19A45D7D162
:1065C000A542D5DCA54205DBBE42D1D808D00020CB
:1065D000BE42D2D250460123013898430130CCE765
:1065E000C845C5D80020C845F4D3C6E7FF0700005A
:1065F000F0B54F464646D6464D00C0B50E03C90F0E
:106600008A462E491F035C008046360B6D0D91466D
:106610003F0B640DDB0F8D4218D08C4211D0002D42
:1066200018D130438446002C1ED13A431CD1634616
:106630000020002B30D0514602200139084001389B
:106640002AE039001143EAD0022025E03043FBD193
:10665000AC4226D0002C26D13A4324D15146022008
:1066600001390840013817E06246002A0FD09A45E8
:10667000E1D1A54205DBBE42DDD819D00020BE42E3
:106680000AD25046012301389843013004E0012228
:10669000013B9343180001301CBC90469946A2462A
:1066A000F0BD3A43D0D19A45C5D1A542C3DCE0E75D
:1066B000C845C0D80020C845E3D3EDE7FF07000078
:1066C000F0B55746DE464E464546E0B583460600E1
:1066D0000F03480087B092461D003F0B400DCC0FC2
:1066E000002800D16FE0DE4B984238D08023FF00B5
:1066F0001B041F43730F3B430193DA4B002799465A
:1067000000239B46F60081442B0369001B0B524675
:106710009846490DED0F002900D185E0D04B9942F4
:1067200000D173E04346DA0080231B041343524632
:10673000CC48520F84461343524600206144D20095
:1067400089442100694000918C46012149448A46D0
:106750000F2F00D990E0C449BF00CF59BF465B4618
:106760003B43019300D06AE10223082700268146BB
:106770009B46C9E732005846019B614600910228BA
:1067800000D175E0032800D1FEE1012800D02CE102
:1067900000230027002600253F032A0D3F0BB348A6
:1067A00012053A4302401B051343009A5B00D107D0
:1067B0005B080B433000190007B03CBC904699467B
:1067C000A246AB46F0BD5B463B43019300D12FE1AF
:1067D000002F00D1A5E1380000F0EAFD03000B3BDB
:1067E0001C2B00DD96E11D22D31A5A460100DA4027
:1067F0005E4608398F4013008E403B4301939C4B0B
:1068000000271B1A994600239B467DE741465346C5
:106810000B4393498C46E144002B00D01AE102223D
:106820000220174300228CE7134300D10DE14346B9
:10683000002B00D181E1404600F0BAFD02000B3A86
:106840001C2A00DD72E10100434608398B4098465E
:106850001D239A1A5346D3401A0043461343524607
:106860008A404946081A824989468144002068E7DF
:106870007B4B002700268EE7140C1204120C11002B
:10688000370C3604350C794328008C462E006043C3
:106890006044834656432100300C80465846794375
:1068A00040440291844506D98846802149028C469D
:1068B000E044414602913604010C360C00048B463C
:1068C00081191E0C1B041B0C0391190079438C4683
:1068D000280075436544A8465843050C4544774352
:1068E000A94203D9802149028C466744290C8C4671
:1068F00039000004000C2D042D186144AB440591AF
:106900005946049101990F043F0C080C390051437A
:106910004243904602008C46090C8B4662437C43FE
:1069200044445C44A04503D980214902884642443E
:10693000210C884661460904090C8C4639005943EC
:10694000434370437E430F0CF6182404BE1964447D
:1069500042448C46B34203D980235B0298464044AC
:10696000029B61469846049B370443449B46AB45D3
:10697000AD416B420D0405992D0C8C467F1967447F
:10698000FD18A8465D462D19A542A44193466442D0
:10699000A446C344DC448F42BF4198459B41934584
:1069A0009241A445A4415B427F421F43360C5242B0
:1069B0006442BF192243BF18624638184302D20D01
:1069C000039913436A020A43501E82416146ED0D4A
:1069D0002A434E023243D90100D4B3E001265008C5
:1069E00032400243DE0732435B08224C5444002C01
:1069F00062DD510709D00F201040042805D0101D7A
:106A00009042924152429B180200D90104D5802441
:106A10001948E400034054441848844200DD27E745
:106A20005E075B02D2081F0B630516435B0DB2E6DF
:106A3000002399460133042700269B4664E603237E
:106A4000019781460C279B465EE6012201201743F1
:106A5000002276E6032303201F43434671E6C04627
:106A6000FF07000001FCFFFFF4860000FFFF0F801E
:106A70000DFCFFFFFF030000FFFFFFFEFE0700000D
:106A80000023802700933F030026434B83E6019BAE
:106A90003200A446584670E6AC466EE6802701995F
:106AA0003F0339422DD03B422BD11F433F033F0BC5
:106AB00000951600384B6EE601252D1B382D00DDA4
:106AC00066E61F2D40DC35481C005044160082400D
:106AD0008440EE40501E824134431443EB40620731
:106AE00009D00F222240042A05D02200141D94420E
:106AF000804140421B181A023ED501230027002680
:106B000049E68027019B3F031F433F033F0B00944F
:106B1000214B40E603005A46283B9A40002601924A
:106B20006DE6584600F044FC203057E6030052461C
:106B3000283B9A401300002293E6504600F038FCB0
:106B400020307BE6CA4650E71F201E004042041B4F
:106B5000E640202D03D0124C5444A3401A43501E4B
:106B60008241324307260027164009D00F20002318
:106B7000104014000428B9D122005E075B021F0BED
:106B8000D2081643002306E680273F031F433F0336
:106B90003F0B1600004BFEE5FF0700001E0400003F
:106BA0003E040000F8B557464E464546DE460C000A
:106BB0000903E0B5490A460F5F0031431E03DB0FAE
:106BC000760A9B46530F3343C84E6500C000E40F5E
:106BD000D2006D0DA24681467F0D9C469046B7427D
:106BE00000D1B9E05B46012673409B46EE1BA345EE
:106BF00000D183E0002E63DD002F00D0B1E06346BA
:106C0000134300D123E1731E002B00D0BAE1861A92
:106C10006346B04280410125C91A4042091A0B025D
:106C200000D447E149024B0A98464346002B00D165
:106C300089E1404600F0BCFB0300083B1F2B00DD50
:106C40007CE120223000D21A4146D0409940020017
:106C50009E400A439D4200DD6AE15D1B6B1C1F2BB9
:106C600000DD94E1202110003500C91A8E40DA4081
:106C70008840DD40711E8E41110007222843002507
:106C800006433240002A09D00F233340042B05D09D
:106C9000331DB342B641764289191E000B0200D45F
:106CA0003DE26A1C914B55056D0D9A4200D119E1E8
:106CB0008F4AF6080A40570752023743120B9BE0EF
:106CC000002E00D0C5E06E1C7605760D012E00DC8E
:106CD00048E16746861ACB1BB042BF417F42B846A7
:106CE0001F004346FF1A3B00B8461B0200D55FE178
:106CF00037439AD100220024002579E0002E00DCE1
:106D0000FAE0002F00D18DE0784B9D4267D08023C0
:106D100067461B041F43BC46382E00DC52E1634625
:106D200013435A1E93411E1886428041404209185F
:106D30000B0200D4BEE06D4B01359D4200D1D2E084
:106D40006B4A73080A4001210E401E435108D307C5
:106D500007221E43324095E71E00164300D045E748
:106D600040E7624B9D423AD0802367461B041F4395
:106D7000BC46382E00DDEBE01F2E00DC3AE133008C
:106D80006746203BDF403B00202E05D04027BF1B3D
:106D90006646BE40324390464646721E9641334395
:106DA000DAE0002B00D114E26346134300D168E11E
:106DB00080234E07C008C9081B030643194208D0A8
:106DC0006046C008184204D163460100D2085E073D
:106DD0001643F3009946C900720F444D11434B46C8
:106DE000DE08424B4F073743CA089D4200D16EE090
:106DF00012036D05120B6D0D00211203130B0A0D0A
:106E000012051A433B4B2D0513402B435B00E4074F
:106E10005B082343380019003CBC90469946A246C3
:106E2000AB46F8BD6346134311D0731E002B00D050
:106E300007E18618864280416144404209180125D5
:106E40000B0237D502257BE73E00614691463500AF
:106E5000C5E75C46002D00D0E1E00B000343F3D012
:106E6000731C00D1ACE1214B9F4200D13AE1F343C6
:106E7000382B00DD6FE11F2B00DD8CE120250E009B
:106E8000ED1AAE40B0460600AA46DE404546354300
:106E90002E005546D940A8406346451EA8415B1ABE
:106EA0009C463043161AB242924163465242991AA6
:106EB0003D00B4E607223240002A00D0E4E60B4B46
:106EC000F6084F073743CA089D4200D090E73B00C1
:106ED000134300D1A6E180231B031A431203120BB4
:106EE000024D89E715000022002785E7FF07000013
:106EF000FFFF7FFFFFFF0F80002E00D0C7E06B1C5D
:106F00005E05760D012E00DCF0E0C84DAB4200D1ED
:106F1000B9E085180A008542894162444942511806
:106F20000722CE076D082E43490832401D00A9E60E
:106F3000BF49ED1A114007223240A3E6320028383B
:106F40008240002686E6300000F032FA203073E6F8
:106F5000634613435A1E9341C61AB04280414042D1
:106F6000091A5CE60E00674606431743002D5ED102
:106F7000002E00D0F3E0002F00D11EE15C466146F8
:106F800091462CE7A94FBE427BD01E00F1E61000CF
:106F90001F3DE840202B03D04021CB1A9A401643D6
:106FA000731E9E410722064332400021002583E7DD
:106FB000161A6346B2428041591A40420B1A98464B
:106FC0005C4632E61F2E00DDABE02027BB1B9A4655
:106FD00063465746BB40994613004F46F3401F4354
:106FE0003B005746BA40571EBA4113436246F2402F
:106FF000891898E62027BB1B9A4663465746BB4034
:10700000994613004F46F3401F433B005746BA4092
:10701000571EBA4113436246F240891A9CE7834BDC
:107020009F425FD080252D047342294320E7002E24
:107030000CD1002F00D1D0E05C46614691467B4DDB
:10704000CDE67A4FBE421CD01E0065E6002F18D058
:10705000C0084E0706438020C9080003014208D03B
:107060006346DC08044204D12100DA46D2085E07F8
:107070001643F300994601245346C900720F114389
:107080001C406A4DABE61D0000220027B4E6002D2F
:1070900059D10B00034300D1D6E6731C00D1B2E0F6
:1070A000624B9F421ED0F343382B6FDC1F2B00DD59
:1070B00097E020250E00ED1AAE40B0460600AA4625
:1070C000DE40454635432E005546A840D940451E72
:1070D000A8418C440643B6189642924151426144FD
:1070E0003D0025E63D006146914678E60B000343EE
:1070F000002D00D055E6002BF5D06346134300D198
:107100006DE686188642804161444042091800229B
:107110000B0200D4D0E6464B01351940B2E5B1462A
:107120005DE633006746203BDF403B00202E05D064
:107130004027BF1B6646BE40324390464646721EFD
:1071400096413343EFE5394B9F42CBD080252D0448
:1071500073422943A8E70843411E8841A2E6002F55
:1071600000D13CE66346861ACF1AB0429B415B428F
:10717000FB1A98461B024ED5161A6346B24292413C
:10718000591A5242891A5C4600227BE501430E00DF
:10719000711E8E419FE71D000E00203DEE40B0465F
:1071A000202B04D04025EB1A9940084381464846DD
:1071B0004346411E8841184374E60022002417E626
:1071C000161A6346B2429241591A5242891A3D0038
:1071D00025E561469146154D01E680220024120303
:1071E00079E61D000E00203DEE40B046202B04D075
:1071F0004025EB1A9940084381464E464346711E8E
:107200008E411E4367E7861896429B4161445B426C
:10721000C9183D008CE547463743CED0072241468A
:10722000324049E600273A00E6E5C046FF07000085
:10723000FFFF7FFF70B50C4E0D031C0349005B0080
:107240002D0B490D240B5B0DB14208D006490020DF
:107250008B4203D114432000441EA04170BD05435E
:107260000120002DFAD1F1E7FF07000030B5144DE1
:107270000A034B00120B5B0DC90F0024AB4211DD5A
:10728000104CA34210DC8024640322430E4CE41A09
:107290001F2C0CDD0D48C31ADA4013005C42002994
:1072A00000D11C00200030BD094BCC18FAE7094D75
:1072B000E040AC4663449A4013000343EEE7C04607
:1072C000FE0300001D04000033040000130400004E
:1072D000FFFFFF7FEDFBFFFF70B500282DD0C31728
:1072E000C5185D40C40F280000F062F8154B1B1A4A
:1072F0005B055B0D0A2815DD0B38854000222D0348
:107300002D0B002110002D030A0D2D0B12052A4311
:107310000D4D1B052A4013435B00E4075B08234324
:10732000190070BD02002900153291400A000B219E
:10733000081AC5402D032D0BE3E700240023002588
:107340000022DEE71E040000FFFF0F8010B5041EC0
:1073500025D000F02DF8144B1B1A5B055B0D0A2895
:1073600012DD0B38844000222403240B002110007E
:1073700024030A0D240B120522430C4C1B0522404A
:1073800013435B00590810BD0200210015329140E3
:107390000A000B21081AC4402403240BE6E700234B
:1073A00000240022E2E7C0461E040000FFFF0F8019
:1073B0001C2101231B04984201D3000C10391B0A25
:1073C000984201D3000A08391B09984201D30009E9
:1073D000043902A2105C40187047C0460403020240
:1073E00001010101000000000000000010B50400D0
:1073F00004481300002804D00A000220210000E005
:1074000000BF10BD0000000070B500260C4D0D4CF3
:10741000641BA410A64209D1002600F01FF90A4DF2
:107420000A4C641BA410A64205D170BDB300EB58F2
:1074300098470136EEE7B300EB5898470136F2E77C
:1074400080000020800000208000002094000020A8
:1074500010B5034B0100186800F078F810BDC04665
:107460001C00002010B5034B0100186800F024F840
:1074700010BDC0461C00002030B50024A24201D13E
:10748000002005E0035D651C0C5DA34201D0181BC4
:1074900030BD2C00F2E7002310B59A4200D110BD98
:1074A000CC5CC4540133F8E703001218934200D1B6
:1074B000704719700133F9E770B50500002910D045
:1074C0000C1F2368002B00DAE418280000F0B5F840
:1074D0001D4A1368002B05D163601460280000F07A
:1074E000ADF870BDA34209D9216860188342F3D179
:1074F00018685B6841182160EEE713005A68002A9B
:1075000001D0A242F9D919685818A0420BD12068BD
:107510000918581819608242E0D110685268411861
:1075200019605A60DAE7A04202D90C232B60D5E734
:1075300021686018824203D11068526841182160A6
:1075400062605C60CAE7C04614130020032370B574
:10755000CD1C9D43083506000C2D1ED20C25A942DA
:107560001DD8300000F069F8254A14682100002970
:1075700019D1244C2368002B03D1300000F044F8CB
:1075800020602900300000F03FF8431C2BD10C2371
:107590003000336000F052F803E0002DDFDA0C23F6
:1075A0003360002070BD0B685B1B19D40B2B03D913
:1075B0000B60CC18256003E04B688C420DD1136042
:1075C000300000F03BF8200007220B30231D9043D1
:1075D000C31AE7D05A42E250E4E763600C00EFE7D9
:1075E0000C004968C3E70323C41C9C43A042E1D0BC
:1075F000211A300000F008F8431CDBD1C7E7C04671
:107600001413002018130020002370B5064C050049
:107610000800236000F014F8431C03D12368002BFA
:1076200000D02B6070BDC046201300200023C25C38
:107630000133002AFBD1581E704770477047000085
:10764000044A1368002B00D1034B1818106018006F
:107650007047C0461C13002024130020F8B5C04614
:10766000F8BC08BC9E467047F8B5C046F8BC08BCDC
:107670009E4670477473313A20007463313A20009B
:107680004E6F2054494D4553594E432072657370D7
:107690006F6E73652072656365697665642E0000A0
:1076A000982F8A4291443771CFFBC0B5A5DBB5E96D
:1076B0005BC25639F111F159A4823F92D55E1CABE1
:1076C00098AA07D8015B8312BE853124C37D0C556F
:1076D000745DBE72FEB1DE80A706DC9B74F19BC1B7
:1076E000C1699BE48647BEEFC69DC10FCCA10C24A7
:1076F0006F2CE92DAA84744ADCA9B05CDA88F9768B
:1077000052513E986DC631A8C82703B0C77F59BFF4
:10771000F30BE0C64791A7D55163CA066729291420
:10772000850AB72738211B2EFC6D2C4D130D3853BD
:1077300054730A65BB0A6A762EC9C281852C72927F
:10774000A1E8BFA24B661AA8708B4BC2A3516CC7AD
:1077500019E892D1240699D685350EF470A06A10E6
:1077600016C1A419086C371E4C774827B5BCB03435
:10777000B30C1C394AAAD84E4FCA9C5BF36F2E68D3
:10778000EE828F746F63A5781478C8840802C78C62
:10779000FAFFBE90EB6C50A4F7A3F9BEF27871C665
:1077A0000000000032090900000000000100000094
:1077B0007C1F2B000000000002000000890C0C0060
:1077C0000000000004000000ED0E0E030C0D000090
:1077D00005000000D91C1C0100000000060000008C
:1077E000680303000000000007000000772020006D
:1077F00000000000080000007524240000000000C4
:107800000B000000590606010400000014000000EF
:10781000D614140302030000150000009F020203A7
:107820000001000016000000DC1919000000000033
:1078300017000000A8171703040500001800000037
:10784000181E3400000000001900000017656500D4
:10785000000000001A000000AA1618000000000036
:107860001B000000901A1D00000000001C0000001A
:1078700043101000000000001D000000730E1000F7
:10788000000000001E000000271C1C00000000007B
:107890001F000000F6203000000000002000000063
:1078A000B91C1C000000000021000000681C1C0026
:1078B0000000000022000000ED161600000000008D
:1078C00023000000F4161600000000002400000051
:1078D000DE1525000000000025000000D406070387
:1078E0000405000026000000090607030405000047
:1078F00027000000FE2526032021000028000000AC
:10790000E604050302030000290000001C04040330
:10791000020300002A0000001C0212000000000008
:107920002B00000084020303000100002C00000073
:10793000DD040903020300002D000000E802030338
:10794000000100002E0000000B02020000000000F9
:107950002F00000099030803000100003000000020
:10796000290D15010C00000031000000270C140047
:1079700000000000320000004E2525031213000015
:1079800033000000C40405030203000036000000B9
:107990000F1B1B0318190000370000000319190002
:1079A000000000003D000000A74848000000000063
:1079B0003E000000B71A1A00000000003F0000005F
:1079C00077B5B5000000000040000000BFE1E10015
:1079D0000000000041000000762A2A00000000009C
:1079E000420000009406060302030000430000006A
:1079F000150404000000000045000000F30B1E0108
:107A00000A000000460000007C122603101100004E
:107A10004900000026252603202100004A0000001E
:107A200014141400000000004B0000009E232303E8
:107A30001E1F00004C000000982121031E1F0000A3
:107A40004D0000008F030A030809000050000000E9
:107A50000E04040302030000510000006A16160021
:107A600000000000520000003127330324250000ED
:107A700053000000162525000000000054000000FF
:107A80008F35350332330000550000008C3333004E
:107A900000000000560000000535350332330000B9
:107AA000570000009633330000000000590000002A
:107AB000E71C1C00000000005A000000B738380026
:107AC000000000005B0000003F2A2A0000000000C8
:107AD0005C00000036212100000000005D00000075
