:020000040000FA
:10000000FC7F002001060000F1050000F50500005E
:1000100000000000000000000000000000000000E0
:10002000000000000000000000000000F9050000D2
:100030000000000000000000FD0500004107000076
:1000400010B5064C2378002B07D1054B002B02D0AE
:10005000044800E000BF0123237010BD5C000020B5
:1000600000000000A018000008B5084B002B03D0CA
:100070000748084900E000BF07480368002B03D089
:10008000064B002B00D0984708BDC046000000007A
:10009000A0180000600000205800002000000000B0
:1000A000154A164B1178002909D115491878097895
:1000B0004118C9B21970802012498002C8611178B4
:1000C0000131C9B211701978F02902D819780929BB
:1000D00009D80B4908784042C0B2087018780978EE
:1000E0004118C9B2197012781B789A4203D1802244
:1000F000044B9202DA617047780000200100002072
:10010000000000200044004110B5C3699C07FCD4E6
:1001100003680224A3430360C46901231C42FBD18A
:100120000468234303600368DC07FCD4C46901232B
:100130001C42FBD1C469DC401C42F7D1084B1A4376
:100140000260C3695A07FCD4C0239B0243608181CB
:10015000C3699C07FCD4036802221343036010BDEB
:1001600004000040037EDA07FCD5018570470000DB
:10017000027E01235107FBD5428B1A4207D1428BE5
:10018000DA401A4203D1428B92081A4202D0034B42
:1001900001221A70008DC0B27047C046790000205D
:1001A00070B50368041C988B1A1C0821FF320842A2
:1001B00026D0802099839872112353704021144BCC
:1001C000917150715E68134DC0202E40800506432A
:1001D0005E605E693540284358610F4818600F48DB
:1001E00018615D680E4828408025AD02284358609C
:1001F0005868800B8003586000235171237105E01B
:10020000137ADA0602D5201C00F0D4FA207970BDEA
:1002100098010020FFFFFF8F9800002018010020A8
:10022000FF3F00F0002303714371044B01608360C2
:100230000B78022213430B707047C046A1010000E7
:1002400038B5364B2021DA6901200A43DA61344B94
:1002500006241A7802431A70324B0F221978914300
:1002600019701978214319702F490C7820430870B0
:1002700019780A401A701A7860210A431A702B4BB9
:100280002B4A5A805A7852B2002AFBDB294B0121B3
:100290001A780A431A709A78D107FCD42648026863
:1002A000510B1F221140914200D1052111408C01B8
:1002B0001D8D22492940214319850468A10C0A405B
:1002C0001F2A00D11D221C8D1F210A408C4322436E
:1002D0001A8502680721D20D0A408A4200D1032202
:1002E0000A40188D1103164A02400A431A851978EC
:1002F0007F220A401A701A78042112480A431A70A1
:1003000058621A890C218A431A811A8901218A4369
:100310001A810021802201F040F938BD000400401C
:10032000584400413C44004159440041000C004005
:100330000640000000500041246080003FF8FFFFAD
:10034000FF8FFFFF98010020F7B5141C1F4A5F01C3
:1003500001971D1CD319061C5869271C4000400F2B
:1003600003301033C74006D00F1C80225968120694
:100370000A435A6009E02F1C7B1E9F41144BBF01AA
:10038000FF18381C221C01F0FFF801990F480835AE
:1003900042181761131C5269A104920B890C920335
:1003A0000A435A6159690B4A0A405A616B01F318B2
:1003B0000222DA715979802252420A435A716B0142
:1003C000F318DB799A07FAD5201CFEBD98010020AE
:1003D00018010020FF3F00F0F8B51A4E051C3378D5
:1003E000141C002B12D1184B184A1A645A6C920B29
:1003F00092035A64586C164A02405A64A2235B0066
:10040000EA5C40200243EA54012333704827FF3757
:10041000EA5D0123134012D00B4B5A6C9204920CEC
:10042000A24202D25C6CA404A40C081C221C074942
:1004300001F0AAF80123EB550023337000E01C1CE7
:10044000201CF8BD7A00002098010020D800002070
:10045000FF3F00F0FF3083792022002900D11022D5
:100460001343837170470000084BFF305A69920BA9
:1004700092035A6102230372827980235B42134301
:100480008371037A9A07FCD57047C0469801002013
:1004900080235B421943C9B28172704770B5A023B3
:1004A00003225B00C254134B134A5C6CC0211440FE
:1004B00089050C4346255C64FF35402444550F4DA7
:1004C00030261D6490256D0046555D6B154029430F
:1004D000922559636D0080214155094D1D63B0255A
:1004E0006D0044555C6F22405A67B2235B00C154D3
:1004F00070BDC04698010020FFFFFF8FD80000208C
:1005000058010020024B5B785BB2002BFADB70478E
:10051000000C0040024BDB68DA06FBD57047C04692
:1005200000080040F8B5264B1E215A6802268A436F
:10053000244C32435A60A660FFF7E4FF224B234D60
:100540006360FFF7DFFFAE84FFF7E4FF204B1B681B
:100550009B0E3F2B00D11F231E4A9B0213431E4AB2
:100560000026EA62AB62AE84FFF7D4FF1B4B022782
:10057000AB84FFF7CFFFAB8C3B43AB84FFF7CAFFE5
:1005800063883F2293431F43678062888023DB0197
:1005900013436380A660FFF7B5FF114B6360FFF75D
:1005A000B1FF104B104AC0215A60104A0906106A68
:1005B0000002000A0143116207229E601A60F8BD22
:1005C00000400041000C004006000100000800400F
:1005D00024608000FF01000080BB0A1C240500008D
:1005E0000007030010E000E0E703000000ED00E07A
:1005F0000EBEFEE70DBEFEE705BEFEE702BEFEE74D
:100600000E4A0F4838B5824204D10E4A0E4B93422F
:100610000ED10AE00D4C9442F7D00023D118884245
:10062000F3D9E55804330D60F8E700F011F804E061
:100630009342FAD2002102C3FAE7FEE7000000204D
:100640005C000020A80300205C000020A41800002B
:1006500038B5304B1A681C1C013221D02E4A191DA6
:100660001160D9B200291BD12C4A10780122104008
:100670002B4A0AD115682B498D4201D110600FE039
:100680001160294901390029FCD11160226882F3E7
:100690000888FF229343254A93601E4B5B681847E6
:1006A000FFF740FF62B600F09DFD00F04FF8204BD1
:1006B000802292029A601F4B1F4A041C5A601B4AF8
:1006C000C021106A09060002000A014311620022DB
:1006D0009A6007221A60A368201C9847174B0028CD
:1006E00001D001221A701A78002A05D0002000F0EB
:1006F0008BFA00F003FBFCE71B78002BEBD100F03A
:10070000E5FD0028E7D0012000F07EFA00F0F6FABF
:10071000FCE7C0460020000018020020380400401A
:10072000FC7F00203581730748E8010000ED00E000
:100730000044004110E000E0E70300007B000020DF
:1007400008B5FFF7ADFC00F0C3FA08BD10B5054BC6
:10075000054C2360FFF774FD201C2168FFF762FD44
:10076000201C10BD005000411C02002070B5051C6B
:10077000C0B0081C161C0C1C00F017FF40006A4695
:10078000032302305370107076080123E218013AF7
:1007900011785A00002906D1281C69460023FFF76A
:1007A000D3FD40B070BDB342F6DA684681520133E2
:1007B000ECE70000F7B5BA4A04681378B949271C7A
:1007C000FF37051C102038720B705378B648B74EAF
:1007D000037093783380D178338809020B433380D8
:1007E0001179B34B19805179188809020843188090
:1007F0009079B0490880D2790888120202430A80B1
:1008000040227A71A84F3A78A64F120238780F1C0E
:100810000243A9488446181C624500D1C2E020DC8E
:10082000802149008A4200D16EE109DC812A00D191
:1008300092E0822A00D195E0802A00D064E18BE02A
:1008400081235B009A4200D1CFE000DA58E1C02357
:100850009B009A4200D157E1984B9A4200D14FE158
:1008600052E190231B019A4269D015DCD023DB00B2
:100870009A4222D088231B019A4269D0A023DB0030
:100880009A4200D040E1201CFFF7EEFD3188286835
:1008900089B2FFF7FDFD3BE1894B9A4200D12FE180
:1008A00000DC31E1874B9A4200D11DE1864B9A4230
:1008B00000D029E133886B7122E133881B0A012BB8
:1008C00008D10B8812222868934201D80A8892B274
:1008D0007E4911E133881B0A022B08D10B88432281
:1008E0002868934201D80A8892B2794904E1338892
:1008F0001B0A032B00D007E13388DBB2012B17D092
:10090000002B07D0022B00D0FEE00A882868D2B264
:10091000704911E0042201A86F4900F035FE3B88C0
:1009200004222868934201D83A8892B201A9E3E0F0
:100930000A8828686949D2B2FFF718FFE8E03388CF
:10094000201C2B71FFF790FD201CFFF7A7FDDFE0B7
:10095000291C01C90122CFE0614900230B802868CE
:100960000222CAE05E4900220A8018885022104004
:100970005C4A10701E880F203040188018880328A9
:1009800000D9C1E012781B8808335B01E418A37911
:10099000002A01D09B0600E0DB06DB0F0B802868F5
:1009A0000222A9E019887F2291434E4AC9B21170F0
:1009B00018880F21014019803188002900D0A3E058
:1009C0001988002900D19FE01988032900D99BE0EC
:1009D00012781B8808335B01E318002A02D020221A
:1009E0005A718DE0102159718AE002887F239A4361
:1009F0003C4BD2B21A7001880F220A400280328822
:100A0000002A00D080E00288002A00D17CE0028821
:100A1000032A00D978E01B78002B1FD00388083305
:100A20005B01E3189B799A066AD503882022083374
:100A30005B01E3181A71038808335B01E318DB7963
:100A40005F065DD50388402208335B01E318DA7145
:100A50000388022208335B01E3181EE00388083391
:100A60005B01E3189B79D9064AD503881022083325
:100A70005B01E3181A71038808335B01E318DB7923
:100A80009A063DD50388202208335B01E318DA710A
:100A90000388012208335B01E3181A7130E0C04675
:100AA000980000207D0000208200002084000020AB
:100AB00086000020800000200203000001030000E7
:100AC00021200000A121000021220000F4150000D7
:100AD00004000020E0150000D0150000D41500002F
:100AE0007E0000207C0000200B88082228689342AA
:100AF00001D80A8892B207490023FFF725FC07E0D6
:100B0000201CFFF7B1FC03E0201C0121FFF7A2FC31
:100B1000F7BDC0464800002007B5054B01220190F3
:100B200001A91868131CFFF70FFC01200EBDC04679
:100B30001C02002013B5054B6C4607341868211CB5
:100B40000122FFF749FC207816BDC0461C02002098
:100B500010B5074C201CFFF723FB031C0020834229
:100B600005D022684823FF33D05C0123184010BD14
:100B70001C02002010B5054A0C1C031C191C10682F
:100B80000123221CFFF7E0FB201C10BD1C020020EB
:100B900070B5084C061C201C0D1CFFF701FB002340
:100BA000984205D02068311C2A1CFFF715FC031C55
:100BB000181C70BD1C020020F8B50C4C051C201C34
:100BC0000E1CFFF7EDFA0023271C341C98420AD0B4
:100BD000002C07D0291C221C3868FFF7FDFB241AC3
:100BE0002D18F5E7331C181CF8BDC0461C02002068
:100BF00008B5031C081C111C9847024B64221A807C
:100C000008BDC0468C000020012805D1054B064ACE
:100C10001A60064B187004E0002802D1044A014B08
:100C20001A6070478C0200202816000094000020F3
:100C30007416000030B50A1C1C4985B00978031CE5
:100C400000292AD0042A01D1006804E0022A01D137
:100C5000008800E00078520004A98B180B3B9C1A16
:100C6000A3420BD00F210140092902D83025294386
:100C700000E0373119700009013BF1E701A9302389
:100C80000B7078234B700A208B1898700D20D87049
:100C9000074B04321B68D86803E005490968C86837
:100CA000191CFFF7A5FF05B030BDC0468800002025
:100CB0008C02002072B6EFF30883044A13600368C5
:100CC00083F30888436818477047C04690020020A5
:100CD000084B1A88002A03D01A88013A92B21A8067
:100CE000054B1A88002A03D01A88013A92B21A805A
:100CF0007047C0468C0000208A000020F0B591B0FB
:100D000008A9CC4A0B1C31CA31C351CA51C360CAAD
:100D100060C3C94BC9489A687A255203520F9200A2
:100D20005258C74902609C68A4B262430C60C5492E
:100D300000240A60C44A1460C44C2570C44CC54DDC
:100D40002368281C1B6940219847002802D0C24B09
:100D500064221A80C14B00221860C14B1D60C14B38
:100D6000C04DBE4F1A602A683B689A42E6D2BC4B1F
:100D70001B681A78FF2A00D114E2232A00D0EBE185
:100D8000B94E3378002B06D0B14BB8491B6802220C
:100D9000D868FFF72DFFAD4B1B78532B3CD13B6838
:100DA0002A6893421ED9AE4801322A609A1AB04B83
:100DB00001681B6801310160AE4E9A4201D2326077
:100DC00000E03360A04832680068049000F0DCFB6B
:100DD000336829685A182A60A14A1668F118116008
:100DE000A54A13702B68013B2B609D4B1A68013A92
:100DF0001A60A14B9E4A1B7811688B420AD2226866
:100E00009148C91A006892699047002802D0924B15
:100E100064221A80C0468DE1522B0AD18A48944A36
:100E20002368006811685B69039098476422934BBC
:100E30000DE04F2B05D1844B8D4A1B6812681A7048
:100E400078E1482B05D1804B894A1B6812681A80CB
:100E500070E1572B05D17C4B854A1B6812681A60DC
:100E600068E16F2B03D1784B0121186807E0682BEC
:100E700008D1754B7E481B6802211B880360FFF771
:100E8000D9FE57E1772B06D16F4B79481B680421B7
:100E90001B680360F3E7472B13D1754B1868FFF706
:100EA00009FF774B1B6883F3088862B6754B1B7884
:100EB000002B00D13EE1664B06201B681B6898475B
:100EC00038E1542B04D101233370614B1B6864E07B
:100ED0004E2B0CD13378002B06D15D4B63491B6838
:100EE0000222D868FFF784FE0023337022E1562BDC
:100EF00057D123686449D8680122FFF779FE236837
:100F00006249D8680322FFF773FE614D2368291CEC
:100F1000D8680122FFF76CFE23685E49D8680D226D
:100F2000FFF766FE2368291CD8680122FFF760FEE0
:100F30004B4F4C4D5849002339602B603A1C281CFC
:100F400013685E1C16601B780593002B03D00368A2
:100F500001330360F4E73E4E2A683368D868FFF730
:100F600047FE33684A49D8680122FFF741FE0599D8
:100F700029604A4939603A4A1368581C10601B7846
:100F8000002B04D0374B1A6801321A60F3E733683C
:100F90002A68D868FFF72CFE3368D86833490222E4
:100FA000C6E0334A582B17D1244E264D36681368B5
:100FB0002A68B10093420AD21F4D5808E8613848A8
:100FC00028801D4D287DC607FBD55B18F2E7204B16
:100FD00034491B68D868AAE0592B79D112681A4B9A
:100FE0003149002A02D11B680B606CE0124D086881
:100FF00019686B68104E8025AB4392087360002A15
:1010000061D02A4B0C4D2B800B4E337DDD07FBD579
:1010100000230A4D2D680195AD08AB4203D3244D42
:10102000054E358046E09342F9D09D004659013384
:101030004E51EEE708160000004000414402002037
:101040003C020020380200208802002034020020E8
:101050008C020020480200208A0000202C02002080
:1010600030020020400200208800002068160000A6
:101070009402002098020020280200208C0000200A
:101080009002002094000020441600006D1600001D
:101090004616000090160000481600005416000086
:1010A00002A5FFFF5D1600009000002044A5FFFF91
:1010B00004A5FFFF3F4E357DEE07FBD59D00491986
:1010C0004019D21A9BE73C4B3C491B68D8682EE07C
:1010D0005A2B2FD13A4B17681D680026EF19BD42D5
:1010E00006D02878311C00F013F90135061CF6E70C
:1010F000314B34491B680122D868FFF779FD07237B
:101100000F223240111C36093031092A00DD073127
:101110001820C0186A468154013BF1D2236806A901
:10112000D8680822FFF764FD23682749D86803229E
:10113000FFF75EFD254B7A221A70254B00221A60BC
:10114000244B1B7893422DD01B4B23491B68012253
:10115000D868FFF74DFD25E0111C3039C8B21C4B93
:10116000092804D81D682A01114319601AE0111CCE
:101170004139052903D81E68373A310106E0111CB0
:101180006139052904D81868573A01010A4308E073
:101190002C2A03D10A4A1968116001E00B490A7030
:1011A00000221A600D4B1A6801321A600C4B1A6843
:1011B0000132D5E5004000418C020020611600009C
:1011C0008802002065160000671600003402002027
:1011D00094020020880000206B16000040020020CE
:1011E0003002002010B51C4B01201A780324024362
:1011F0001A701A4B0F2219789143197019782143EC
:10120000197017490C782043087019780A401A7031
:101210001A7830210A431A70124B80211A6A0A4345
:101220001A62114B114A5A805A7852B2002AFBDBDB
:10123000C4220F480F499203FEF766FF0E4A0023AF
:1012400013700E4A13700E4A13700E4A13700E4A32
:1012500013700E4A137010BDD6440041BB440041C8
:10126000D744004100040040000C00401940000039
:10127000001C00422AF600009C02002023030020EC
:101280009D020020A0020020240300202103002052
:1012900008B5C1B20248FEF765FF012008BDC0468F
:1012A000001C0042024B187E4007C00F7047C0462A
:1012B000001C004208B5FFF7F5FF0028FBD00248EC
:1012C000FEF756FF08BDC046001C004208B5FFF7F8
:1012D000E9FF0023984205D0FFF7ECFF031C233BF6
:1012E0005A425341181C08BD70B5041C0D1C461809
:1012F000B44204D02078FFF7CBFF0134F8E7281C74
:1013000070BD10B5041CFFF7D5FF2070012010BD83
:101310000B0A5840034B4000C05A0902484080B2B3
:101320007047C0469E160000F7B50024051C0F1C30
:10133000261CBC4220D0FFF7BDFF114BC0B21B786A
:101340000190002B1AD1311CFFF7E2FF0D4B061C58
:101350001A88002A04D10C4A11782A1C002907D0C7
:1013600001996A1C2970802F02D1198801391980CE
:101370000134A4B2151CDCE7301C00E00120FEBDE6
:10138000210300209E02002022030020F0B53E4EE3
:1013900085B0002203900C1C32703C4B914201D16D
:1013A000012201E03A490C801A707F231C4201D0CF
:1013B00080349C43FFF77EFF3378C0B2002B07D008
:1013C00000253570FFF776FF3378C0B2AB4236D1D7
:1013D000432803D0712853D01528EBD10123009363
:1013E0000120FFF755FF0098FFF752FF0099802575
:1013F000C843C0B2FFF74CFF039B00270293244A67
:101400001388002B1DD1214901930978002918D197
:101410000198FFF73DFF391C0198FFF779FF013D67
:10142000071C002DEBD1000AC0B2FFF731FFF8B264
:10143000FFF72EFFFFF73EFF3378002B0AD0357001
:101440001FE00299013B09781380029B019101334F
:101450000293DDE7C0B2062807D1009B0399013350
:10146000DBB280310093803C0391002CB8D1042082
:10147000FFF70EFFFFF71EFF044B01251C7000E075
:101480000025281C05B0F0BD210300202203002008
:101490009E020020F0B5384C87B0002301902370E5
:1014A000994201D1012301E0344A1180344A642673
:1014B00013704320FFF7ECFE324FFFF7F3FE0028D6
:1014C00003D1002F03D0013FF7E7002F03D1013EE6
:1014D000002EEED14DE00125FFF7ECFE2378002B26
:1014E00038D1C0B20290012805D004283DD1062091
:1014F000FFF7CEFE39E005AE0221301CFFF714FFE6
:1015000001988021FFF710FF23780390002B18D15A
:10151000FFF7D0FE0702FFF7CDFEBFB223783F18DA
:10152000BFB2012B0DD0039B9F4207D13378AB4252
:1015300004D1EB437278DBB29A4204D01820FFF753
:10154000A7FE002303E00620FFF7A2FE029B2278FD
:10155000002A02D0002626700BE0012B05D1019A4B
:101560006B1C8032DDB20192B6E7054A002313708E
:101570000126301C07B0F0BD210300209E02002090
:101580002203002000350C0010B50023934203D045
:10159000CC5CC4540133F9E710BD031C821893429C
:1015A00002D019700133FAE770470023C25C01339F
:1015B000002AFBD1581E7047F8B5C046F8BC08BCDD
:1015C0009E467047F8B5C046F8BC08BC9E467047BA
:1015D0000403090441726475696E6F204C4C43002A
:1015E00041726475696E6F204E4F4E4120574C41D9
:1015F0004E0000001201000202000040412357008B
:1016000000020102000100000800000010000000BC
:1016100020000000400000008000000000010000E9
:10162000000200000004000091120000B51200004A
:10163000A5120000E9120000031300008D13000042
:10164000951400007600200041707220313920325C
:101650003031390031343A33383A343800580A0DD1
:1016600000590A0D005A00230A0D003E00322E30A8
:1016700000000000190B0000350B0000510B0000AA
:10168000750B0000910B0000750B0000B90B0000FA
:101690005B41726475696E6F3A58595A5D0000007B
:1016A0002110422063308440A550C660E770088155
:1016B00029914AA16BB18CC1ADD1CEE1EFF13112CC
:1016C000100273325222B5529442F772D6623993A5
:1016D00018837BB35AA3BDD39CC3FFF3DEE362241C
:1016E000433420040114E664C774A44485546AA5F5
:1016F0004BB528850995EEE5CFF5ACC58DD55336AC
:10170000722611163006D776F6669556B4465BB744
:101710007AA719973887DFF7FEE79DD7BCC7C4487B
:10172000E5588668A7784008611802282338CCC994
:10173000EDD98EE9AFF9488969990AA92BB9F55A0B
:10174000D44AB77A966A711A500A333A122AFDDBE4
:10175000DCCBBFFB9EEB799B588B3BBB1AABA66CDB
:10176000877CE44CC55C222C033C600C411CAEED34
:101770008FFDECCDCDDD2AAD0BBD688D499D977EEB
:10178000B66ED55EF44E133E322E511E700E9FFF84
:10179000BEEFDDDFFCCF1BBF3AAF599F788F88913A
:1017A000A981CAB1EBA10CD12DC14EF16FE180101E
:1017B000A100C230E3200450254046706760B98321
:1017C0009893FBA3DAB33DC31CD37FE35EF3B1026E
:1017D0009012F322D2323542145277625672EAB531
:1017E000CBA5A89589856EF54FE52CD50DC5E234BE
:1017F000C324A01481046674476424540544DBA701
:10180000FAB79987B8975FE77EF71DC73CD7D3260D
:10181000F2369106B01657667676154634564CD990
:101820006DC90EF92FE9C899E9898AB9ABA944585D
:10183000654806782768C018E1088238A3287DCB60
:101840005CDB3FEB1EFBF98BD89BBBAB9ABB754AAD
:10185000545A376A167AF10AD01AB32A923A2EFDF0
:101860000FED6CDD4DCDAABD8BADE89DC98D267CFD
:10187000076C645C454CA23C832CE01CC10C1FEF40
:101880003EFF5DCF7CDF9BAFBABFD98FF89F176E4D
:10189000367E554E745E932EB23ED10EF01E000081
:1018A0000000000001140000090243000201008052
:1018B00032090400000102020000052400100104A6
:1018C0002402000524060001052401000107058308
:1018D000030800FF09040100020A00000007058157
:1018E00002400000070502024000000000C20100A3
:1018F0000000080069000000410000000000000036
:1020000000800020C1E50000A9E50000A9E500006E
:1020100000000000000000000000000000000000C0
:10202000000000000000000000000000A9E5000022
:102030000000000000000000A9E5000015E6000017
:10204000A9E50000A9E50000A9E50000A9E5000058
:1020500071DF0000A9E50000A9E50000ADE5000082
:10206000A9E50000352300005523000045230000AA
:1020700065230000F190000075230000A9E5000031
:10208000A9E50000A9E50000A9E50000A9E5000018
:1020900000000000A9E50000A9E50000A9E5000096
:1020A000A9E50000A9E50000A9E50000A9E50000F8
:1020B0000000000010B5064C2378002B07D1054B1B
:1020C000002B02D0044800E000BF0123237010BDA4
:1020D000A80200200000000054C60100044B10B507
:1020E000002B03D00349044800E000BF10BDC046E8
:1020F00000000000AC02002054C60100024AD3795F
:10210000DB09FCD17047C04600100040704700005A
:1021100010B50124084B1D201978614019700CF08E
:1021200069FD064B1A7862401A701B78002B01D0AB
:10213000034B1C7010BDC046781600205C030020C5
:102140005D030020002310B503700CF071FA074CFA
:102150002368C01A064B984206D90CF069FA054963
:10216000206005480BF0F2FF10BDC0468C16002021
:10217000871300003A7C01006403002010B50400BE
:10218000406F002801D00CF0D3FA200010BD0000F1
:102190001E2210B522494B6893431C3A13434B60EF
:1021A000A121204BC9009982998A0A439A82DA6850
:1021B0009207FCD502221C48FF3282601B4A426013
:1021C0004278D209FCD18222D2014280DA68D2065A
:1021D000FCD502229A84DA68D206FCD5144ADA6267
:1021E000DA68D206FCD5134A134C11689A6A890E34
:1021F000890222400A439A62DA68D206FCD5998C99
:102200000E4A0A439A84DA681206FCD5DA68520646
:10221000F9D50B4B43604378DB09FCD110BDC046B8
:102220000040004100080040000C00400105030090
:10223000B905FF7D24608000FF03FFFF0608000052
:10224000000703001E2210B521494B6893431C3A36
:1022500013434B601F4B20499982998A0A439A8203
:10226000DA689207FCD502221C48FF3282601C4AC1
:1022700042604278D209FCD18222D2014280DA68DF
:10228000D206FCD502229A84DA68D206FCD5154A19
:10229000DA62DA68D206FCD5134A144C11689A6ADD
:1022A000890E890222400A439A62DA68D206FCD576
:1022B000998C0F4A0A439A84DA681206FCD5DA68C8
:1022C0005206F9D50B4B43604378DB09FCD110BDB6
:1022D00000400041000800400C050000000C0040D8
:1022E00001050300B905FF7D24608000FF03FFFFA7
:1022F000060800000007030010B5094C002805D0AF
:10230000084C012802D0022808D1074C21000748B8
:102310000BF01CFF210006480BF018FF10BDC04653
:1023200097780100AA780100BD780100181A0020F2
:102330006403002010B5024806F04FFE10BDC046F1
:102340005811002010B502480BF0BFFC10BDC0466C
:10235000A805002010B502480BF0B7FC10BDC04620
:10236000EC07002010B502480BF0AFFC10BDC046D2
:10237000300A0020F0B5244885B00BF0A6FC0023FD
:1023800002220293214B019200932149214B2248C2
:1023900006F088FF002835D00378204E827833700D
:1023A000437812021A43C3781D4F1B041A43037962
:1023B0001C4D1B06134301221BBA3B6043791A4C88
:1023C0002B701A4B1A4920001A700BF0A3FE3178BB
:1023D0000A2220000BF02BFF164E200031000BF0DC
:1023E00099FE0A22396820000BF0FDFE3100200022
:1023F0000BF090FE0A22297820000BF01CFF01222E
:102400000D4B1A7005B0F0BD640300200C000020D5
:102410000A00002034110020201100209216002014
:1024200094160020B4100020181A0020150D00206A
:10243000986C010094750100B610002010B50400DE
:10244000010004480BF082FE210003480BF07EFEE1
:1024500010BDC046181A00206403002070B5041E89
:1024600005D1134B18701348FFF7E8FF08E0012867
:1024700007D10F4B18701048FFF7E0FFFFF788FEF9
:1024800070BD022807D10A4B18700C48FFF7D6FF21
:10249000FFF7D8FEF4E70A4D0A4928000BF03AFE90
:1024A0000A22210028000BF0C6FE0748DCE7C046E0
:1024B000140D002097780100AA780100BD78010072
:1024C000181A00203B7001004270010070B50A4BE1
:1024D0001A78FF2A0FD1013A1A70084B084C094D9F
:1024E0001B68094920002B700BF014FE297810227C
:1024F00020000BF0A0FE70BD921600209416002064
:10250000181A0020091600203F7C010070B50C4C01
:102510000C4E2178102230000BF08DFE0A4D102257
:10252000296830000BF063FE2378FF2B07D12B685E
:10253000013304D1FE2301222370044B1A7070BDB5
:1025400092160020181A002094160020041600206D
:1025500010B5084807F0D2FA032108000CF076FB0A
:10256000032116200CF072FB032117200CF06EFBE8
:1025700010BDC046381100201FB50C4C00222000B1
:10258000022108F0D5F9002302930023084A012113
:10259000009201932000022208F09AFAFA22072101
:1025A0005200200008F028FA1FBDC046100000208D
:1025B00060EA0000A52210B5024B1A72FFF79EFDDB
:1025C00010BDC04600100040002370B5094D040046
:1025D0002B70FFF793FD0B2C00DD0B240223E0B2E0
:1025E00068702B70FFF78AFD034904480BF0AEFDBD
:1025F00070BDC04600100040317C0100181A002058
:10260000002210B5044B1A70FFF778FD0349044807
:102610000BF09CFD10BDC04600100040A96C0100ED
:10262000181A0020012110B5034B1A785140197077
:102630000CF0E0FA10BDC046740C002010B5040088
:10264000044905480BF082FD012120000CF0D2FA6C
:1026500010BDC04665700100181A002070B50D4D00
:102660000D49060028000BF055FD0C4C0A2221688C
:1026700028000BF0BCFD2368012B07D10848FFF7A9
:10268000DDFE002130000CF0B5FA70BD0548FFF703
:10269000D5FEFAE7181A0020BB6E01002C030020BB
:1026A000CA6E0100DD6E010010B5012105200CF09D
:1026B00055FA012104200CF051FAFFF7A1FF042084
:1026C000FFF7BCFF10BD000037B50500081C140063
:1026D00011F02CFB2B0000900191074A14212000DF
:1026E00012F0A0FB210005480BF030FD210004484A
:1026F0000BF010FD37BDC046116F0100181A002005
:10270000640300200378002B05D000230370072901
:1027100000D901331370704770B503781400002B93
:1027200023D1023303703F4D06290DD808003E4BDC
:102730000EF00AFB0431373D43494F003B4A1A6013
:102740000123237000232B70394E22783949300041
:1027500006F04AFD2A783849300006F045FD374B2F
:1027600037491A68300006F03FFD364B1A78012AC7
:102770004DD10022344E354930001A700BF0E6FC82
:10278000284D2878062831D8274B0EF0DDFA262967
:102790004143454749002E4A1A6002232370013BFA
:1027A000D1E72C4A1A6005232370033BCBE72A4A62
:1027B0001A6008232370053BC5E7284A1A600623E0
:1027C0002370023BBFE7264A1A6009232370043BAB
:1027D000B9E7244A1A600723E0E7144A1A6005E0C3
:1027E0001B4A214930001A600BF0B0FC2278104CD3
:1027F0001049200006F0F8FC2A780F49200006F066
:10280000F3FC0E4B0E491A68200006F0EDFC70BD7B
:10281000104AE3E7104AE1E7104ADFE7104ADDE734
:10282000104ADBE705160020FC150020995D00002A
:102830001C0D0020FB0F0000FA0F00009416002072
:10284000F90F0000B5100020181A00207E78010052
:10285000716000004D63000065680000556600006F
:10286000993B00000D5E0000A37C010070B50500DF
:102870000A4C0B4E220030000A4906F05DFCA3789A
:1028800030002B70637822006B70074906F054FC0F
:10289000A378AB706378EB7070BDC046F81500206C
:1028A0001C0D0020FC0F0000FD0F0000074A1368FC
:1028B000013313601B0E037013681B0C4370136805
:1028C0001B0A83701368C3707047C0466003002002
:1028D00070B5040012200CF0D3F8104D28600004ED
:1028E000000E20702B78062063700CF0C9F80304EA
:1028F0001B0E2860A370E07011200CF0C1F80304D7
:102900001B0E28602371607113200CF0B9F80304CA
:102910001B0E2860A371E07170BDC046F815002041
:1029200010B50260014806F05FFC10BD1C0D0020D0
:1029300070B5FFF7EBFD2B4D2B78002B50D02A4CB8
:102940002078052807D80EF0FFF9033F4509163314
:102950002648FFF773FD01232370ECE72448FFF7B7
:102960006DFD2448FFF76AFD23480022C421FFF7CC
:10297000D7FF2248EDE72248FFF760FD2148FFF727
:102980005DFD214D00222149280006F058FC00225F
:102990001F49280006F028FC00221E49280006F0E6
:1029A00023FC04221C49280006F01EFC1B48D0E72B
:1029B0001B48FFF743FD1B48FFF740FD0022C521E0
:1029C0001948FFF7ADFFF1E7FFF780FD64200BF03A
:1029D00065FEB0E71548FFF731FD00232B70AAE72D
:1029E00070BDC0460416002009160020EE6C0100E0
:1029F0000E6D01002A6D010034030020466D0100B8
:102A00006C6D0100896D01001C0D0020FF0F00009E
:102A1000FB0F0000FA0F0000F90F00009F6D01008E
:102A2000D06D0100E76D01002C030020FC6D01005A
:102A300010B5FE244C48FFF701FD0022D2214B487F
:102A4000FFF76EFF0022D3214948A405FFF768FF76
:102A50000022D4214748FFF763FF2200D5214648D2
:102A6000FFF75EFF0022D6214448FFF759FF0022FE
:102A7000D7214348FFF754FF0022D8214148FFF7F0
:102A80004FFF2200D9214048FFF74AFF0022DA21F8
:102A90003E48FFF745FF0022DB213D48FFF740FF9E
:102AA0000022DC213B48FFF73BFF2200DD213A48B2
:102AB000FFF736FF0022DE213848FFF731FF002202
:102AC000DF213748FFF72CFF0022E0213548FFF7D0
:102AD00027FF2200E1213448FFF722FF0022E221F4
:102AE0003248FFF71DFF0022E3213148FFF718FFAE
:102AF0000022E4212F48FFF713FF2200E5212E4892
:102B0000FFF70EFF0022E6212C48FFF709FF002205
:102B1000E7212B48FFF704FF0022E8212948FFF7AF
:102B2000FFFE2200E9212848FFF7FAFE0022274B8A
:102B300027481A605A609A60DC601A615A619A618B
:102B4000DC611A625A629A62DC621A635A639A639F
:102B5000DC631A645A649A64DC641A655A659A657F
:102B6000DC65FFF76BFC10BD7B790100EC020020F7
:102B7000F0020020F4020020C8020020CC02002055
:102B8000D0020020D4020020D8020020DC02002065
:102B9000E0020020E4020020E80200201C030020E4
:102BA0002003002024030020F8020020FC02002063
:102BB0000003002004030020080300200C03002071
:102BC000100300201403002018030020BC10002074
:102BD000A879010070B50500874C012805D00228AE
:102BE00000D106E1032800D1844C8548FFF726FC7C
:102BF00029000A2283480BF01EFB20006422B0301B
:102C00002168FFF78DFE20001422B4306168FFF7C1
:102C100087FE20000622B830A168FFF781FE200061
:102C2000794AC430E168FFF77BFE2000774AC8305C
:102C30002169FFF775FE20000022D0306169FFF79F
:102C40006FFE20000022CC30A169FFF769FE200052
:102C50000122A030E169FFF763FE20008022D4301A
:102C6000D201216AFFF75CFE20000122BC30616ABC
:102C7000FFF756FE20000622C030A16AFFF750FE83
:102C8000200005229830E16AFFF74AFE2000072263
:102C90009C30216BFFF744FE20000122A430616BC1
:102CA000FFF73EFE20004D22A830A16BFFF738FE53
:102CB0002000FA22AC30D200E16BFFF731FE200099
:102CC0000022D830216CFFF72BFE2000504ADC3068
:102CD000616CFFF725FE20000022E030A16CFFF7B9
:102CE0001FFE20000022E430E16CFFF719FE2000F7
:102CF0000022E830216DFFF713FE20000022EC30A7
:102D0000616DFFF70DFE20000022F030A16DFFF78E
:102D100007FE20000022F430E16DFFF701FE2000E5
:102D20000022F830216EFFF7FBFD20000022FC306E
:102D3000616EFFF7F5FD20000930FF300022216FA2
:102D4000FFF7EEFD20000D30FF30324A616FFFF7D4
:102D5000E7FD601CFF30304AA16EFFF7E1FD601D0A
:102D6000FF302E4AE16EFFF7DBFD20001130FF300F
:102D70000022A16FFFF7D4FD20001530FF30284A54
:102D8000E16FFFF7CDFD2000231D1930D96FFF3013
:102D90000022FFF7C5FD2300200008331D30D96F46
:102DA000FF300022FFF7BCFD2300200088332130D4
:102DB0001968FF300022FFF7B3FD230020008C3399
:102DC00025301968FF300022FFF7AAFD23002000FC
:102DD000903329301968FF300022FFF7A1FD23004E
:102DE000200094332D30FF3000221968FFF798FD42
:102DF00070BD0C4CF9E6C046840F0020540E002034
:102E0000547A0100181A00208C23000074DCFFFFA4
:102E100017B7D138008022440000A0C10000A042B2
:102E200000002042240D002070B50500034C04482A
:102E3000220006F081F923682B6070BDF815002090
:102E40001C0D0020F8B55848FFF7F8FAD221574872
:102E5000FFF7EAFFD3215648FFF7E6FFD421554894
:102E6000FFF7E2FFD5215448FFF7DEFFD621534894
:102E7000FFF7DAFFD7215248FFF7D6FFD821514894
:102E8000FFF7D2FFD9215048FFF7CEFFDA214F4894
:102E9000FFF7CAFFDB214E48FFF7C6FFDC214D4894
:102EA000FFF7C2FFDD214C48FFF7BEFFDE214B4894
:102EB000FFF7BAFFDF214A48FFF7B6FFE021494894
:102EC000FFF7B2FFE1214848FFF7AEFFE221474894
:102ED000FFF7AAFFE3214648FFF7A6FFE421454894
:102EE000FFF7A2FFE5214448FFF79EFF434FE6218D
:102EF0003800FFF799FF424EE7213000FFF794FFBB
:102F0000404DE8212800FFF78FFF3F4CE9212000CA
:102F1000FFF78AFF254A3D4B12681A60244A12685F
:102F20005A60244A12689A60234A1268DA60234A77
:102F300012681A61224A12685A61224A12689A611A
:102F4000214A1268DA61214A12681A62204A12681C
:102F50005A62204A12689A621F4A1268DA621F4A4D
:102F600012681A631E4A12685A631E4A12689A63EC
:102F70001D4A1268DA631D4A12681A641C4A1268F4
:102F80005A641C4A12689A641B4A1268DA643A68E6
:102F90001A6532685A652A681D489A652268DA659A
:102FA000FFF74CFAF8BDC0461D7B0100EC02002083
:102FB000F0020020F4020020C8020020CC02002011
:102FC000D0020020D4020020D8020020DC02002021
:102FD000E0020020E4020020E80200201C030020A0
:102FE0002003002024030020F8020020FC0200201F
:102FF0000003002004030020080300200C0300202D
:10300000100300201403002018030020BC1000202F
:10301000487B010070B50500734C012805D00228DB
:1030200000D1DEE0032800D1704C7148FFF706FAAA
:103030000A2229006F480BF0FEF820002168B0300A
:10304000FFF7F2FE20006168B430FFF7EDFE2000CC
:10305000A168B830FFF7E8FE2000E168C430FFF750
:10306000E3FE20002169C830FFF7DEFE2000616921
:10307000D030FFF7D9FE2000A169CC30FFF7D4FE95
:103080002000E169A030FFF7CFFE2000216AD43094
:10309000FFF7CAFE2000616ABC30FFF7C5FE2000C2
:1030A000A16AC030FFF7C0FE2000E16A9830FFF748
:1030B000BBFE2000216B9C30FFF7B6FE2000616B49
:1030C000A430FFF7B1FE2000A16BA830FFF7ACFEE3
:1030D0002000E16BAC30FFF7A7FE2000216CD83058
:1030E000FFF7A2FE2000616CDC30FFF79DFE2000A0
:1030F000A16CE030FFF798FE2000E16CE430FFF7B0
:1031000093FE2000216DE830FFF78EFE2000616DF8
:10311000EC30FFF789FE2000A16DF030FFF784FE50
:103120002000E16DF430FFF77FFE2000216EF830C3
:10313000FFF77AFE2000616EFC30FFF775FE20007D
:103140000930FF30216FFFF76FFE20000D30FF3098
:10315000616FFFF769FE601CFF30A16EFFF764FE30
:10316000601DFF30E16EFFF75FFE20001130FF3081
:10317000A16FFFF759FE20001530FF30E16FFFF718
:1031800053FE2000231D1930D96FFF30FFF74CFE8E
:103190002300200008331D30D96FFF30FFF744FEB5
:1031A00023002000883321301968FF30FFF73CFEF0
:1031B000230020008C3325301968FF30FFF734FEE0
:1031C00023002000903329301968FF30FFF72CFED0
:1031D0002300200094332D30FF301968FFF724FEC0
:1031E00070BD054C21E7C046840F0020540E00201E
:1031F0007A7A0100181A0020240D0020F0B5334D12
:1032000085B00600324928000AF0A0FF314C324F49
:10321000022E34D0032E13D0002E43D100232F4A88
:1032200001210092019320000222029607F050FC37
:10323000FA2220005200072107F0DEFB284C11E0A3
:10324000002302930023274A0121009201932000CA
:10325000022207F03DFCFA2220005200072107F06D
:10326000CBFB214C210028000AF070FF2100380020
:103270000AF06CFF64200BF011FA05B0F0BD0023DA
:1032800002930023194A0121009201932000320089
:1032900007F01EFCFA2220005200072107F0ACFBC9
:1032A000134CDFE7002302930023124A012100920E
:1032B00001932000022207F00BFCFA2220005200AA
:1032C000072107F099FB0C4CCCE7C046181A0020E8
:1032D000757001001000002064030020C027090061
:1032E000CD700100983A0000857001003075000033
:1032F0009D70010060EA0000B5700100F0B50C009F
:1033000085B00600FD48FFF799F80A222100FC4825
:103310000AF091FF012C00D106E2022C00D006E257
:10332000F84CF94D2B00B033F84F1B680022009386
:10333000F7493B00200006F041FA30000BF0AEF9EF
:103340002B00B4331B6805220093F1493B00200099
:1033500006F034FA30000BF0A1F92B00B8331B68EB
:1033600007220093EA493B00200006F027FA3000CC
:103370000BF094F92B00C4331B6801220093E4493D
:103380003B00200006F01AFA30000BF087F92B0002
:10339000C8331B6802220093DD493B00200006F081
:1033A0000DFA30000BF07AF92B00D0331B6806229F
:1033B0000093D7493B00200006F000FA30000BF0E4
:1033C0006DF92B00CC331B6803220093D0493B00DE
:1033D000200006F0F3F930000BF060F92B00A03369
:1033E0001B6804220093CA493B00200006F0E6F95E
:1033F00030000BF053F92B00D4331B680C220093E0
:10340000C3493B00200006F0D9F930000BF046F923
:103410002B00BC331B680D220093BD493B002000EC
:1034200006F0CCF930000BF039F92B00C0331B68E3
:103430000E220093B6493B00200006F0BFF9300091
:103440000BF02CF92B0098331B6809220093B0492C
:103450003B00200006F0B2F930000BF01FF92B0002
:103460009C331B680A220093A9493B00200006F008
:10347000A5F930000BF012F92B00A43302931B685E
:103480000B2203930093A2493B00200006F096F91B
:1034900030000BF003F900230B2200939C493B0002
:1034A000200006F08BF930000BF0F8F8029B0B229D
:1034B0001B689749009320003B0006F07FF930001D
:1034C0000BF0ECF82B00A8331B68322200939049D4
:1034D0003B00200006F072F930000BF0DFF82B0003
:1034E000AC331B686222009389493B00200006F040
:1034F00065F930000BF0D2F82B00D8331B680F228F
:10350000009383493B00200006F058F930000BF08F
:10351000C5F82B00DC331B68102200937C493B006C
:10352000200006F04BF930000BF0B8F82B00E03328
:103530001B681122009376493B00200006F03EF9FB
:1035400030000BF0ABF82B00E4331B681222009321
:103550006F493B00200006F031F930000BF09EF877
:103560002B00E8331B681322009369493B002000BD
:1035700006F024F930000BF091F82B00EC331B68B7
:103580001422009362493B00200006F017F9300036
:103590000BF084F82B00F0331B68152200935C4974
:1035A0003B00200006F00AF930000BF077F82B0002
:1035B000F4331B681622009355493B00200006F0A7
:1035C000FDF830000BF06AF82B00F8331B68172267
:1035D00000934F493B002000FC3506F0EFF8300027
:1035E0000BF05CF82B681822009349493B0020003F
:1035F00006F0E4F830000BF051F8EB681B22009362
:1036000043493B00200006F0D9F830000BF046F8A3
:103610002B691C2200933E493B00200006F0CEF8A7
:1036200030000BF03BF86B681922009338493B00DF
:10363000200006F0C3F830000BF030F8AB681A2217
:10364000009333493B00200006F0B8F830000BF03F
:1036500025F86B691D2200932D493B00200006F0E0
:10366000ADF830000BF01AF8AB691E220093284920
:103670003B00200006F0A2F830000BF00FF8EB69D9
:103680001F22009322493B00200006F097F83000EB
:103690000BF004F82B6A202200931D493B00200008
:1036A00006F08CF830000AF0F9FF6B6A21220093D3
:1036B00017493B00200006F081F830000AF0EEFFC9
:1036C000AB6A2222009312493B00200006F076F8F4
:1036D00030000AF0E3FFEB6A232200930C493B0021
:1036E000200006F06BF830000AF0D8FF2B6B242284
:1036F0000749009320003B000CE0C046157A01000A
:10370000181A002030160020240D00200C00002084
:103710000A00002006F052F830000AF0BFFF05480A
:10372000FEF78CFE05B0F0BD034C044DFAE5044CE9
:10373000044DF7E5397A01000C160020840F0020B3
:1037400054160020540E002070B50A2400250126CE
:10375000290010200BF04EFA013C64200AF09EFF75
:103760007540002CF4D164200AF098FF70BD000071
:10377000F0B589B00390012972D0022973D00329D2
:1037800002D13B4C3B4B0293FF25236820005B6931
:10379000013D9847002DF8D10523CC2764223649F6
:1037A00000930298354B019706F044F80A200AF07E
:1037B00075FF0A22210005A80AF02CFE290005A8A1
:1037C0000AF0E4FE039A037805A813700AF03AFEA3
:1037D0000AF02EFF0600039B1B78002B46D10AF04F
:1037E00027FFFA23801B5B009842F4D9FF2601359E
:1037F000EDB2236820005B69013E9847002EF8D1A6
:10380000052364221C49009302981C4B019706F083
:1038100011F80A200AF042FF0A22210005A80AF046
:10382000F9FD310005A80AF0B1FE039A037805A856
:1038300013700AF007FE124B1B78002B02D00123F5
:10384000039A13700F48FEF7F9FD29000A220E486B
:103850000AF0F1FC0A2229000C480AF0ECFCB7E758
:103860000B4C0C4B8FE70C4C0C4B8CE709B0F0BDAC
:10387000300A0020541600200A0000200C0000200E
:10388000B6100020E4700100181A00206403002024
:10389000A80500200C160020EC07002030160020A0
:1038A000002110B5024B1D2019700BF0A3F910BDBB
:1038B0007816002010B5054C054920000AF02AFCB6
:1038C000044920000AF042FC10BDC046181A00202E
:1038D000A26E0100AC6E010070B50500134C1449D6
:1038E00020000AF033FC134920000AF013FC0A22DE
:1038F000290020000AF09FFC062D11D90E49200056
:103900000AF024FC0D4920000AF020FC01220C4B97
:103910001A7000220B4B1A700B4B04321A6070BDE8
:103920000A4920000AF012FCF9E7C046181A0020E4
:10393000F470010011710100287101003F71010054
:103940000816002005160020981600206671010058
:1039500070B50500134C144920000AF0F7FB134919
:1039600020000AF0D7FB29000A222000013D0AF0BE
:103970003EFC042D11D90E4920000AF0E7FB0D4949
:1039800020000AF0E3FB01220B4B1A7000220B4BC4
:103990001A700B4B04321A6070BD0A4920000AF0FD
:1039A000D5FBF9E7181A0020D2780100F978010058
:1039B0000B7901002C790100081600200516002063
:1039C000981600206671010070B50500134C14496B
:1039D00020000AF0BBFB134920000AF09BFB0A22DF
:1039E000290020000AF003FC092D11D90E492000FE
:1039F0000AF0ACFB0D4920000AF0A8FB01220C4B99
:103A00001A7000220B4B1A700B4B04321A6070BDF7
:103A10000A4920000AF09AFBF9E7C046181A00206C
:103A20007D7101009A710100AC710100C371010048
:103A3000081600200516002098160020EB710100E2
:103A4000F8B5294C0D0006000968E0680EF01AF878
:103A50006968071C20690EF015F8011C381C0DF070
:103A60009FFCA968071C60690EF00CF8011C381C4B
:103A70000DF096FC21680DF093FC30602968A06978
:103A80000EF000F86968071CE0690DF0FBFF011CEF
:103A9000381C0DF085FCA968071C206A0DF0F2FFA8
:103AA000011C381C0DF07CFC61680DF079FC706025
:103AB0002968606A0DF0E6FF6968071CA06A0DF0CE
:103AC000E1FF011C381C0DF06BFCA968071CE06AC3
:103AD0000DF0D8FF011C381C0DF062FCA1680DF040
:103AE0005FFCB060F8BDC046BC100020F8B5294CA2
:103AF0000D0006000968E06B0DF0C4FF6968071C43
:103B0000206C0DF0BFFF011C381C0DF049FCA968AA
:103B1000071C606C0DF0B6FF011C381C0DF040FC5A
:103B2000216B0DF03DFC30602968A06C0DF0AAFF00
:103B30006968071CE06C0DF0A5FF011C381C0DF036
:103B40002FFCA968071C206D0DF09CFF011C381C80
:103B50000DF026FC616B0DF023FC70602968606D30
:103B60000DF090FF6968071CA06D0DF08BFF011C24
:103B7000381C0DF015FCA968071CE06D0DF082FFE4
:103B8000011C381C0DF00CFCA16B0DF009FCB060A1
:103B9000F8BDC046BC1000200523F0B51600027821
:103BA000ABB005900C001A4242D0964D96492800C1
:103BB0000AF0B0FA0A22310028000AF03CFB934FC9
:103BC0003C60012E12D12100914805F039FE431EC0
:103BD0009841904B187038680138032824D88E4FCC
:103BE0008E4C8F4E0DF0B0F80C91A2B0022E02D187
:103BF00021008C48E9E7032EEDD121008A48E4E753
:103C000000233B60E369894A1340E361012288494C
:103C1000300005F014FB0B20FEF7D6FC0420FEF765
:103C20001DFD0520FEF7FEFC0AF002FD814B186029
:103C3000784B1B78002B00D1D3E0002301220293A4
:103C40000192009392187C4B7C49764805F017FE50
:103C500000280AD07A4BC27A18607A4B1A70827A9E
:103C60005A70427A9A70027ADA70774C2378002B75
:103C700000D1B6E0684D2B6801332B600AF0D8FC08
:103C80006C4B724E1B68724FC01A00232370714C2C
:103C900031003860200006F062FA31006E48FFF70C
:103CA000CFFE08A9200006F09FFC6C49089B6C48D9
:103CB0000B60099B0BAC4B60624B1B688B60FFF782
:103CC00015FF684E6848B1680EF00EF810F02EF837
:103CD00006900791706810F029F8029003913068FF
:103CE00010F024F8069A079B009001915F4920008C
:103CF00011F0CAF8200011F0E7F800221300824208
:103D00003BD0A15C01324B40F9E700235849280021
:103D10003B600AF01BFA574928000AF017FA434B98
:103D2000E2691A40C0239B0513436EE70023524902
:103D300028003B600AF00AFA4E4928000AF006FA09
:103D40004E4802F0CBFFEAE7FFF7AAFD00233B60F5
:103D5000E369364A30001340E3610022344905F03C
:103D60006EFA002345481A1C191C02F031FFFEF7B9
:103D700047FC0420FEF762FC56E72A68042A08D9AB
:103D80003F49220018A811F07FF818A93D480AF011
:103D9000C1F9FEF70FFC0520FEF744FC38680EF071
:103DA000E7F90FF0C3FF384A384B0FF047F910F02E
:103DB0000FF8324D011C284B2800294A03F074FFEC
:103DC000284C2800210002F0DBFEA5682649281CAB
:103DD0000DF0B2F9002809D02349281C0DF084FF0A
:103DE000A0600023059A13702BB0F0BD0021281CA1
:103DF0000DF084F90028F4D01B49281C0DF0D0FAEE
:103E0000EEE7C046181A00201D6E010004000020D5
:103E10000C16002007160020180D00200018004086
:103E20001C0D00203016002054160020FFFFFF8FCD
:103E3000FF0F0000881600209016002008000020C8
:103E400000160020840C00205D030020780C002068
:103E5000B810002038030020940C0020AC0C002087
:103E6000880C0020A00C00200000B4437C6E0100F0
:103E7000406E0100546E0100676E01007415002051
:103E8000976E010064030020FCA9F1D24D62503FFF
:103E900010B5002803D10548FEF7D0FA10BD01285F
:103EA00001D10348F8E70348F6E7C046E76D010093
:103EB000547901006879010010B504000AF038FC5B
:103EC000200010BD4222C74BF0B562211A600132BA
:103ED0005A6001329A600132DA6001321A610132AD
:103EE0005A6101329A610132DA6101321A62013299
:103EF0005A6201329A620132DA6201321A63013285
:103F00005A6301329A630132DA6301321A64013270
:103F10005A6401329A640132DA6401321A6501325C
:103F20005A6501329A650132DA6501321A66013248
:103F30005A6601329A660132DA6601321A67013234
:103F40005A6701329A670132DA671A1DD1671A007F
:103F500001310832D1671A000131883211601A002C
:103F600001318C3211601A000131903211606722E8
:103F700094331A609C4B1B321A6001325A60013232
:103F80009A600132DA6001321A6101325A610132FB
:103F90009A610132DA6101321A6201325A620132E7
:103FA0009A620132DA6201321A6301325A630132D3
:103FB0009A630132DA6301321A6401325A640132BF
:103FC0009A640132DA6401321A6501325A650132AB
:103FD0009A650132DA6501321A6601325A66013297
:103FE0009A660132DA6601321A6701325A67013283
:103FF0009A670132DA673C311A1DD1671A00013124
:104000000832D1671A000131883211601A0001317B
:104010008C3211601A00013190321160A722943362
:104020001A60022303260624172022256F49923A9C
:104030000B60DB188B600133CB6002334B610133C3
:104040008B610133CB6101330B6201334B6201336E
:104050008B620133CB6201330B6301334B6301335A
:104060008B630133CB6301330B6401334B64013346
:104070004E600C618B644865013088650130C8650D
:10408000801988660130C8660130086701304867CA
:10409000013088670130C867081DC5670800013511
:1040A0000830C56708000135883005600800013513
:1040B0008C30056008000135903005602720CA6407
:1040C00001320A6504324A4D0A6601324A66943169
:1040D00085B008604749280004F074FE290046486E
:1040E00005F026F8454F464D22003900280005F01E
:1040F000C4F828000125434C434922000AF054FE2D
:1041000001952B00009600224049380009F056FD29
:104110003F4F01950096182319223E49380009F0B7
:104120004DFD0195009508230D223B493B4809F0C0
:1041300045FD0923019500960A223949394809F0BD
:104140003DFD394D39001022280005F0DDFA374FCA
:104150002200390028000AF027FE354D10222F4991
:10416000280005F0D1FA2200390028000AF01CFED0
:10417000304D10222B49280005F0C6FA22003900E4
:1041800028000AF011FE002316222B4D0193009205
:104190001733320002962949280005F041FC22001D
:1041A000274928000AF000FE264B29000222264853
:1041B00005F0FAFD254D280002F050FD22002449AB
:1041C00028000AF0F1FD234D280005F066FB2200CF
:1041D000214928000AF0E8FD0AF02AFA1F4B18606E
:1041E00005B0F0BD240D0020540E0020840F0020E7
:1041F00058110020E81900201C0D00206403002045
:10420000201100200000002097920000101A0020CA
:10421000A8050020F8190020F0190020EC07002064
:10422000001A0020300A00200C16002041970000E0
:10423000301600205416002038110020081A0020E3
:104240000D21000080841E0038030020741500201A
:104250007D2100001D1100209D9800007C1600208B
:1042600010B5084C200004F079FD2000064904F048
:1042700095FD02211B200AF0E9FC022114200AF01E
:10428000E5FC10BD58110020801A060010B5E1248D
:10429000A4022100184808F035FA2100E12417484B
:1042A000640209F09FFB2100154809F09BFB2100E7
:1042B000144809F097FB2100134809F093FB0022F2
:1042C000124B022118201A700AF0C0FC022119209A
:1042D0000AF0BCFC022108200AF0B8FC02210D20E3
:1042E0000AF0B4FC03210A200AF0B0FC03210920E3
:1042F0000AF0ACFC10BDC046181A00206403002070
:10430000A8050020EC070020300A0020150D002031
:10431000962170B52F4C8901200009F063FB2E4DCA
:104320002E49280009F012FF2D4B2E4E1B68022B40
:1043300006D02D4E032B03D02C4E012B00D12C4E3A
:104340003100200009F002FF3100280009F0FEFED4
:10435000284B294E1B68022B28D0032B0BD0002B97
:104360002ED130000A22042102F038FD300002F084
:104370003BFC224E09E0C82230005200042102F02A
:104380002DFD300002F030FC1D4E3100280009F0F8
:10439000DDFE3100200009F0D9FE1A4B1868FDF748
:1043A000ABFF194B1868FFF773FD70BD3000C822D2
:1043B000042102F013FD300002F016FC134EE4E776
:1043C00030006422042102F009FD300002F00CFCF0
:1043D0000F4EDAE764030020181A0020A17A0100CA
:1043E000C4020020F37A0100087B0100C57A0100B5
:1043F000DC7A01002803002074150020CD70010034
:1044000085700100340300202C0300209D70010002
:10441000B570010070B5234C234D022824D0032829
:1044200031D0012811D0214E2000310009F08EFE3C
:104430003100280009F08AFE64200AF02FF9E121FA
:104440008902200009F0CEFA70BD194E200031001B
:1044500009F07CFE3100280009F078FE64200AF0A3
:104460001DF9E1214902ECE7124E2000310009F06C
:104470006DFE3100280009F069FE64200AF00EF993
:1044800096218901DDE70C4E2000310009F05EFE27
:104490003100280009F05AFE64200AF0FFF8962146
:1044A0004901CEE764030020181A0020C57A0100F4
:1044B000DC7A0100F37A0100087B0100F0B58BB0D3
:1044C000039303781400012B00D0BFE0039B012B62
:1044D00000D18BE0022B00D08CE09C4D9C4F9D4E78
:1044E00002230839037008007C2900D9AEE00CF0E3
:1044F00035FC8700AF00C800E100FA00130153014A
:104500006D0187019101AB01C501DF01F9011302C2
:104510002D02470261026B0285029F02B902D3029B
:10452000ED020703490363037D03CF03EA03970307
:10453000B303B106CF06ED060C072C074C07C107E5
:10454000E107AD00AD00AD00AD00AD00AD00AD00C8
:10455000AD00AD00AD00AD00AD00AD00AD00AD00F3
:10456000AD00AD00AD00AD00AD00AD00AD00AD00E3
:10457000AD00AD00AD00AD00AD00AD00AD00AD00D3
:10458000AD00AD00AD00AD00AD00AD00AD00AD00C3
:10459000AD00AD00AD00AD00AD00AD00AD00AD00B3
:1045A000AD00AD00AD00AD00AD00AD000108570895
:1045B000050418047E049104A504B904CD04E104A3
:1045C000F5040905710585059905AD05C105D505F4
:1045D000E905FD051106250639064D066106750635
:1045E00089069D0695082B043D0452045A4D5B4FE5
:1045F0005B4E75E703235B4D5B4F5C4E03936FE7A8
:104600002F00B0373B689C4212D05949594809F0F5
:104610009DFD220029683800FEF782F9CC23019322
:104620003B68002200935449544B300005F002F9D6
:104630000A2203994F4809F0FAFD51494D4809F003
:1046400069FD102229684B4809F0FFFD0BB0F0BD51
:104650002F00C4373B689C42F8D04A49454809F0CE
:1046600075FD2200E9683800FEF75AF9CC23019362
:104670003B68012200934049404B300005F0DAF8D6
:10468000E4E72F00C8373B689C42DFD03E493948F9
:1046900009F05CFD220029693800FEF741F9CC23BE
:1046A00001933B68022200933349344B300005F0FC
:1046B000C1F8CBE72F00CC373B689C42C6D03349CA
:1046C0002C4809F043FD2200A9693800FEF728F9BB
:1046D000CC2301933B68032200932749274B3000EA
:1046E00005F0A8F8B2E72F00A0373B689C42ADD098
:1046F0002749204809F02AFD2200E9693800FEF721
:104700000FF9CC2301933B68042200931A491B4BF9
:10471000300005F08FF899E72F00B4373B689C42D2
:1047200000D193E71B49134809F010FD2200696886
:104730003800FEF7F5F8CC2301933B68052200937F
:104740000D490E4B300005F075F87FE7240D002071
:10475000EC07002030160020840F0020A805002060
:104760000C160020540E0020300A002054160020A1
:104770004D720100181A00200A0000200C000020D1
:1047800094750100637201007A7201009172010058
:10479000A9720100BF7201002F00D0373B689C4214
:1047A00000D153E7E349E44809F0D0FC22006969ED
:1047B0003800FEF7B5F8CC2301933B68062200933E
:1047C000DE49DF4B300005F035F83FE72F00B83702
:1047D0003B689C4200D139E7DA49D74809F0B6FC7A
:1047E0002200A9683800FEF79BF8CC2301933B68B0
:1047F00007220093D149D24B300005F01BF825E782
:10480000CC23009401930822CD4BCC49300005F015
:1048100011F81BE72F0098373B689C4200D115E741
:10482000C949C54809F092FC2200E96A3800FEF740
:1048300077F8CC2301933B6809220093BF49C04B12
:10484000300004F0F7FF01E72F009C373B689C42E3
:1048500000D1FBE6BD49B84809F078FC2200296B7D
:104860003800FEF75DF8CC2301933B680A220093E1
:10487000B249B34B300004F0DDFFE7E62F00A43768
:104880003B689C4200D1E1E6B149AB4809F05EFCCF
:104890002200696B3800FEF743F8CC2301933B6894
:1048A0000B220093A549A64B300004F0C3FFCDE6D0
:1048B0002F00D4373B689C4200D1C7E6A5499E48EB
:1048C00009F044FC2200296A3800FEF729F8CC23BD
:1048D00001933B680C2200939849994B300004F0F7
:1048E000A9FFB3E62F00BC373B689C4200D1ADE680
:1048F0009949914809F02AFC2200696A3800FEF7BC
:104900000FF8CC2301933B680D2200938B498C4B0D
:10491000300004F08FFF99E62F00C0373B689C42BF
:1049200000D193E68D49844809F010FC2200A96A61
:104930003800FDF7F5FFCC2301933B680E2200936E
:104940007E497F4B300004F075FF7FE62F00A837CB
:104950003B689C4200D179E68149774809F0F6FB33
:104960002200A96B3800FDF7DBFFCC2301933B68E5
:10497000322200937149724B300004F05BFF65E610
:104980002F00AC373B689C4200D15FE675496A480E
:1049900009F0DCFB2200E96B3800FDF7C1FFCC23F6
:1049A00001933B68622200936449654B300004F038
:1049B00041FF4BE6CC23009401936322604B5F4997
:1049C000300004F037FF41E62F00D8373B689C42A7
:1049D00000D13BE66449584809F0B8FB2200296C35
:1049E0003800FDF79DFFCC2301933B680F22009315
:1049F0005249534B300004F01DFF27E62F00DC37EF
:104A00003B689C4200D121E658494B4809F09EFB87
:104A10002200696C3800FDF783FFCC2301933B68CB
:104A2000102200934549464B300004F003FF0DE689
:104A30002F00E0373B689C4200D107E64C493E48D6
:104A400009F084FB2200A96C3800FDF769FFCC2334
:104A500001933B68112200933849394B300004F030
:104A6000E9FEF3E52F00E4373B689C4200D1EDE519
:104A70004049314809F06AFB2200E96C3800FDF733
:104A80004FFFCC2301933B68122200932B492C4B00
:104A9000300004F0CFFED9E52F00E8373B689C4298
:104AA00000D1D3E53449244809F050FB2200296D98
:104AB0003800FDF735FFCC2301933B6813220093A8
:104AC0001E491F4B300004F0B5FEBFE52F00EC3748
:104AD0003B689C4200D1B9E52849174809F036FBEC
:104AE0002200696D3800FDF71BFFCC2301933B6862
:104AF000142200931149124B300004F09BFEA5E5EF
:104B00002F00F0373B689C4200D19FE51C490A48C2
:104B100009F01CFB2200A96D3800FDF701FFCC2332
:104B200001933B68152200930449054B300004F0C3
:104B300081FE8BE5D5720100181A00200A000020C2
:104B40000C000020E9720100FE72010011730100E7
:104B500024730100377301004F7301006373010078
:104B6000777301008D730100A4730100B573010018
:104B7000C6730100D7730100E8730100F9730100E7
:104B80000A7401002F00F4373B689C4200D15DE5B8
:104B9000E649E74809F0DAFA2200E96D3800FDF746
:104BA000BFFECC2301933B6816220093E149E24B00
:104BB000300004F03FFE49E52F00F8373B689C4287
:104BC00000D143E5DD49DA4809F0C0FA2200296E38
:104BD0003800FDF7A5FECC2301933B681722009314
:104BE000D449D54B300004F025FE2FE52F00FC37CB
:104BF0003B689C4200D129E5D149CD4809F0A6FA8D
:104C00002200696E3800FDF78BFECC2301933B68D0
:104C100018220093C749C84B300004F00BFE15E57D
:104C20002F00FC37FB689C4200D10FE5C549C04806
:104C300009F08CFA280009302200296FFF30FDF7B7
:104C40006FFECC230193FB681B220093B949BA4B3A
:104C5000300004F0EFFDF9E42F00FC373B699C4283
:104C600000D1F3E4B849B24809F070FA28000D30D9
:104C70002200696FFF30FDF753FECC2301933B699F
:104C80001C220093AB49AC4B300004F0D3FDDDE4B3
:104C90002F00FC377B689C4200D1D7E4AB49A44885
:104CA00009F054FA681C2200A96EFF30FDF738FEA7
:104CB000CC2301937B68192200939E499E4B3000C0
:104CC00004F0B8FDC2E42F00FC37BB689C4200D161
:104CD000BCE49F49964809F039FA681D2200E96E44
:104CE000FF30FDF71DFECC230193BB681A22009311
:104CF0009049914B300004F09DFDA7E4954D2B6841
:104D00009C4200D1A2E49449894809F01FFA280086
:104D10002200C221FDF704FE2868C0B2FFF77AFB2B
:104D200094E48E4D2B689C4200D18FE48C498048DE
:104D300009F00CFA28002200C321FDF7F1FD2868D4
:104D4000C0B2FEF75BFA81E4864D2B689C4200D12D
:104D50007CE48549764809F0F9F92000FDF7CCFAA2
:104D60002200C4212800FDF7DBFD6FE47F4D2B6896
:104D70009C4200D16AE47C496D4809F0E7F97C481F
:104D8000FDF75CFB2000FFF783F82200C521280017
:104D9000FDF7C6FD5AE4FF2C09D17648FDF74EFB1E
:104DA0007548FDF74BFB0122744B1A704EE4FE2C44
:104DB00019D1724C2378012B0ED17148FDF73EFBBF
:104DC0000220FDF707FF02216420FEF797FAFDF7A6
:104DD0002FFE0023237039E46A48FDF72FFB6A4851
:104DE000FDF72CFB32E46948FDF728FB2EE4684D03
:104DF0002B689C4200D129E466494D4809F0A6F988
:104E00002200D2212800FDF78BFD2A68624B1A6030
:104E1000FFF71CFC614D2B689C4201D1FFF716FC8B
:104E20005F49434809F092F92200D3212800FDF799
:104E300077FD2A68584B5A60FFF708FC594D2B68DC
:104E40009C4201D1FFF702FC5749394809F07EF92D
:104E50002200D4212800FDF763FD2A684E4B9A609A
:104E6000FFF7F4FB514D2B689C4201D1FFF7EEFB9D
:104E70004F492F4809F06AF92200D5212800FDF793
:104E80004FFD2A68444BDA60FFF7E0FB494D2B6881
:104E90009C4201D1FFF7DAFB4749254809F056F952
:104EA0002200D6212800FDF73BFD2A683A4B1A6103
:104EB000FFF7CCFB414D2B689C4201D1FFF7C6FBAD
:104EC0003F491B4809F042F92200D7212800FDF78D
:104ED00027FD2A68304B5A61FFF7B8FB394D2B6824
:104EE0009C4201D1FFF7B2FB3749114809F02EF976
:104EF0002200D8212800FDF713FD2A68264B9A616D
:104F0000FFF7A4FB314D2B689C4201D1FFF79EFBBC
:104F10002F49074809F01AF92200D9212800FDF786
:104F2000FFFC2A681C4BDA61FFF790FB1B74010041
:104F3000181A00200A0000200C0000202C74010028
:104F40003D7401004E7401005F7401007374010030
:104F500086740100C4020020997401002803002017
:104F6000AB74010034030020BD7401002C03002049
:104F7000DD740100F57401001A75010006160020A9
:104F8000437501006C75010097750100A67501005D
:104F9000EC020020C6750100BC100020F0020020C9
:104FA000D7750100F4020020E8750100C802002056
:104FB000F9750100CC0200200B760100D002002020
:104FC0001D760100D40200202F760100D8020020B7
:104FD00041760100FD4D2B689C4201D1FFF736FB65
:104FE000FB49FC4809F0B2F82200DA212800FDF75D
:104FF00097FC2A68F84B1A62FFF728FBF74D2B68DD
:105000009C4201D1FFF722FBF549F24809F09EF8D6
:105010002200DB212800FDF783FC2A68EE4B5A6250
:10502000FFF714FBEF4D2B689C4201D1FFF70EFBFD
:10503000ED49E84809F08AF82200DC212800FDF754
:105040006FFC2A68E44B9A62FFF700FBE74D2B6880
:105050009C4201D1FFF7FAFAE549DE4809F076F8FB
:105060002200DD212800FDF75BFC2A68DA4BDA62BA
:10507000FFF7ECFADF4D2B689C4201D1FFF7E6FA0F
:10508000DD49D44809F062F82200DE212800FDF74E
:1050900047FC2A68D04B1A63FFF7D8FAD74D2B6824
:1050A0009C4201D1FFF7D2FAD549CA4809F04EF81F
:1050B0002200DF212800FDF733FC2A68C64B5A6323
:1050C000FFF7C4FACF4D2B689C4201D1FFF7BEFA1F
:1050D000CD49C04809F03AF82200E0212800FDF748
:1050E0001FFC2A68BC4B9A63FFF7B0FAC74D2B68C8
:1050F0009C4201D1FFF7AAFAC549B64809F026F843
:105100002200E1212800FDF70BFC2A68B24BDA638C
:10511000FFF79CFABF4D2B689C4201D1FFF796FA2E
:10512000BD49AC4809F012F82200E2212800FDF741
:10513000F7FB2A68A84B1A64FFF788FAB74D2B686B
:105140009C4201D1FFF782FAB549A24808F0FEFF60
:105150002200E3212800FDF7E3FB2A689E4B5A64F6
:10516000FFF774FAAF4D2B689C4201D1FFF76EFA3E
:10517000AD49984808F0EAFF2200E4212800FDF735
:10518000CFFB2A68944B9A64FFF760FAA74D2B680F
:105190009C4201D1FFF75AFAA5498E4808F0D6FF84
:1051A0002200E5212800FDF7BBFB2A688A4BDA6460
:1051B000FFF74CFA9F4D2B689C4201D1FFF746FA4E
:1051C0009D49844808F0C2FF2200E6212800FDF72F
:1051D000A7FB2A68804B1A65FFF738FA974D2B68B2
:1051E0009C4201D1FFF732FA95497A4808F0AEFFA8
:1051F0002200E7212800FDF793FB2A68764B5A65C9
:10520000FFF724FA8F4D2B689C4201D1FFF71EFA5D
:105210008D49704808F09AFF2200E8212800FDF728
:105220007FFB2A686C4B9A65FFF710FA874D2B6855
:105230009C4201D1FFF70AFA8549664808F086FFCB
:105240002200E9212800FDF76BFB2A68624BDA6532
:10525000FFF7FCF92F00FC377B699C4201D1FFF777
:10526000F5F97C495B4808F071FF280011302200F5
:10527000A96FFF30FDF754FBCC2301937B691D22FE
:1052800000937549754B300004F0D4FAFFF7DEF94E
:105290002F00FC37BB699C4201D1FFF7D7F9704959
:1052A0004C4808F053FF280015302200E96FFF300A
:1052B000FDF736FBCC230193BB691E2200936649A0
:1052C000664B300004F0B6FAFFF7C0F92F00FC3748
:1052D000FB699C4201D1FFF7B9F962493D4808F0EA
:1052E00035FF28002B1D19302200D96FFF30FDF744
:1052F00017FBCC230193FB691F2200935649574BA0
:10530000300004F097FAFFF7A1F92F00FC373B6A51
:105310009C4201D1FFF79AF953492E4808F016FF35
:105320002B00280008331D302200D96FFF30FDF715
:10533000F7FACC2301933B6A202200934649474B5E
:10534000300004F077FAFFF781F92F00FC377B6A11
:105350009C4201D1FFF77AF944491E4808F0F6FE55
:105360002B0028008833213022001968FF30FDF718
:10537000D7FACC2301937B6A212200933649374B1D
:10538000300004F057FAFFF761F92F00FC37BB6AD1
:105390009C4201D1FFF75AF935490E4808F0D6FE74
:1053A0002B0028008C33253022001968FF30FDF7D0
:1053B000B7FACC230193BB6A222200932649274BDC
:1053C000300004F037FAFFF741F9C046DC02002054
:1053D00053760100181A0020BC100020E0020020C3
:1053E00065760100E402002077760100E8020020E3
:1053F000897601001C0300209B7601002003002019
:10540000AC76010024030020BD760100F8020020E4
:10541000CE760100FC020020E076010000030020AF
:10542000F276010004030020047701000803002045
:10543000167701000C0300202877010010030020DC
:105440003A770100140300204C7701001803002074
:105450005E770100707701000A0000200C00002038
:10546000867701009C770100B1770100C7770100C2
:10547000DC7701002F00FC37FB6A9C4201D1FFF76B
:10548000E5F8D749D74808F061FE2B002800903393
:10549000293022001968FF30FDF742FACC2301932E
:1054A000FB6A23220093D049D04B300004F0C2F9AC
:1054B000FFF7CCF82F00FC373B6B9C4201D1FFF784
:1054C000C5F8CB49C74808F041FE2B0028009433AB
:1054D0002D3022001968FF30FDF722FACC2301930A
:1054E0003B6B24220093C049C04B300004F0A2F96A
:1054F000FFF7ACF8BF4904A808F0F3FFFF253B68AD
:1055000038005B69013D9847002DF8D1CC23009409
:1055100001936522B54BB449300004F08BF93B6828
:1055200038001B6998470028F9D03B6838001B6990
:10553000984700280BD00A22390007A808F06AFF14
:1055400007A904A808F0F3FF07A808F07BFFA54C03
:10555000A949200008F0DEFD0A220399200008F086
:105560006AFEA64E2000310008F0D4FDA44D3100A3
:10557000280008F0CFFD2C21200008F0CFFD2C21C1
:10558000280008F0CBFD04A9200008F0D5FD04A9EF
:10559000280008F0D1FD04A808F054FFFFF756F8E2
:1055A000944904A808F09DFFFF253B6838005B691B
:1055B000013D9847002DF8D1CC2300940193662239
:1055C0008A4B8949300004F035F93B6838001B6983
:1055D0009847002803D1013009F060F8F5E73B68EF
:1055E00038001B699847002813D00A22390007A801
:1055F00008F010FF07A904A808F099FF07A808F011
:1056000021FF04A9774808F097FD04A97C4808F019
:1056100093FD04A808F016FFFFF718F8784C7B21DB
:10562000200008F07BFD774D774A29687748FDF721
:105630004BF8774E2000310008F06CFD754A696820
:105640007548FDF741F83100200008F063FD734A0A
:10565000A9687348FDF738F83100200008F05AFDBA
:10566000704AE9687048FDF72FF83100200008F013
:1056700051FD6E4A29696E48FDF726F83100200079
:1056800008F048FD6B4A69696B48FDF71DF8310069
:10569000200008F03FFD694AA9696948FDF714F840
:1056A0003100200008F036FD664AE9696648FDF7DA
:1056B0000BF83100200008F02DFD644A296A644887
:1056C000FDF702F83100200008F024FD614A696A04
:1056D0006148FCF7F9FF3100200008F01BFD5F4A2C
:1056E000A96A5F48FCF7F0FF3100200008F012FDC6
:1056F0005C4AE96A5C48FCF7E7FF3100200008F0EB
:1057000009FD5A4A296B5A48FCF7DEFF3100200098
:1057100008F000FD574A696B5748FCF7D5FF310088
:10572000200008F0F7FC554AA96B5548FCF7CCFF60
:105730003100200008F0EEFC524AE96B5248FCF7B9
:10574000C3FF3100200008F0E5FC504A296C5048A6
:10575000FCF7BAFF3100200008F0DCFC4D4A696C10
:105760004D48FCF7B1FF3100200008F0D3FC4B4A54
:10577000A96C4B48FCF7A8FF3100200008F0CAFCD8
:10578000484AE96C4848FCF79FFF3100200008F0C8
:10579000C1FC464A296D4648FCF796FF31002000BF
:1057A00008F0B8FC434A696D4348FCF78DFF3100AF
:1057B000200008F0AFFC414AA96D4148FCF784FF86
:1057C0003100200008F0A6FCE96D3E4A3E48FCF797
:1057D0007BFF3E49200008F0B9FCFEF737FFC046CA
:1057E000F2770100181A00200A0000200C000020A7
:1057F00007780100A16E01001D780100AC6E010068
:1058000064030020BC1000209413002022780100C3
:1058100094750100A813002025780100BC13002016
:1058200028780100D01300202B780100E413002019
:105830002F780100F8130020337801000C140020A9
:1058400037780100201400203B7801003414002038
:105850003F78010048140020437801005C140020C8
:1058600047780100701400204B7801008414002058
:105870004F7801009814002052780100AC140020E9
:1058800055780100C014002058780100D41400207D
:105890005C780100E814002060780100FC1400200E
:1058A000647801001015002068780100241500209C
:1058B0006C78010038150020707801004C1500202C
:1058C0007478010060150020787801007C78010070
:1058D000F8B50E4D0E4C297822000E48FCF712FF49
:1058E0000D4F0E4B29783A681B782000FEF7E6FD35
:1058F0000B4E297832002000FCF70EFF074B396869
:105900001A78084B30001B689847F8BD92160020A3
:105910001C110020150D002094160020B41000204A
:1059200008160020FC15002010B50B48FCF786FD7A
:105930000A4B1868C0B2FEF76DFD094B1868C0B27B
:10594000FDF75CFC074B1868C0B2FCF787FD064802
:10595000FCF774FD10BDC046D4790100C4020020DC
:105960002803002034030020F3790100F8B5374CF8
:1059700001212200364803F0DFFB2368354A364C0C
:105980001360364F364E374DAB2B34D0AB2201214E
:105990002F4803F029FC3449200008F0D7FB334995
:1059A000200008F0D3FB0022C2213800FCF7B8FF2A
:1059B0000122C3213000FCF7B3FF0022C4212800DC
:1059C000FCF7AEFF0122C5212948FCF7A9FFFFF72C
:1059D000ABFF2849200008F0B9FBFDF729F826495C
:1059E000200008F0B3FB0220FDF7F4F80221642048
:1059F000FDF784FCF8BD2149200008F0A7FB2049F1
:105A0000200008F0A3FB0220FDF704FB0221642024
:105A1000FDF774FC1B49200008F098FB3800C221F8
:105A2000FDF702FA3000C321FDF7FEF92800C4217A
:105A3000FDF7FAF9C5210E48FDF7F6F9FEF768FC07
:105A4000FFF772FFFDF7FEF9D4E7C046F815002016
:105A50001C0D002030030020181A0020C402002072
:105A600028030020340300201C6F01004F6F010049
:105A70002C030020746F0100986F0100B96F0100C2
:105A8000E06F01000A700100F7B5FCF775FDFCF747
:105A90000BFE02211A2009F061F8022286491A2021
:105AA00008F0CEF9854A8649D3690C200B40D361B2
:105AB00008F08EFF0021062009F050F801211D207A
:105AC00009F04CF87F4B1D20197809F093F801215B
:105AD000102009F043F80121102009F08BF8012172
:105AE0000C2009F03BF8FEF7D1FBFEF7B9FBFCF701
:105AF0002FFD00210C2009F07DF8322008F0CEFDAA
:105B000001210C2009F076F8FA20400008F0C6FDCB
:105B10006B460024D81D02210470FDF729FEFDF715
:105B200013FEFCF705FFFFF721FFFDF70DFE6648AA
:105B300004F0F2FC0223654A654D1370654B664A1A
:105B40001C70664B664E1C70664B67491A603000CD
:105B50002A0003F01FFB654C6549200008F0DAFAC3
:105B600029780A22200008F066FB2B78012B00D050
:105B700080E06049200008F0E9FA5F4D5F492A00A3
:105B8000300003F0D9FA2B685D4FD8B23870FDF7BA
:105B9000A3FE5C49200008F0D9FA3B785A49002B53
:105BA00012D05A49012B0FD05949022B0CD0594918
:105BB000032B09D05849042B06D05849052B03D094
:105BC0005749062B00D05749200008F0BFFA2A0099
:105BD0005549300003F0B0FA2B68544F18003B6071
:105BE000FDF7B6FE5249200008F0B0FA3868514976
:105BF0000138042805D80BF0A7F803565C585A0062
:105C00004D49200008F0A2FA2A004C49300003F068
:105C100093FA304B28681870C0B2FDF7D5FE48499A
:105C2000200008F093FA2B4B46491B78002B1BD021
:105C30004549012B18D04549022B15D04449032B67
:105C400012D04449042B0FD04349052B0CD04349B3
:105C5000062B09D04249092B06D04249072B03D015
:105C60004149082B00D04149200008F06FFA022278
:105C70003F4B1A703F49200008F068FA134B3E4929
:105C80001B78002B05D03D49012B02D0022B03D1FC
:105C90003B49200008F05AFAFDF70CFE08F0C8FC5A
:105CA000384B1860F7BD3849ABE73849A9E73849A0
:105CB000A7E73849A5E7C0461121000000180040B9
:105CC000FFFFFF8F78160020380300201C110020F2
:105CD000B5100020081600204521000007160020FE
:105CE0001C0D0020FC150020FF0F0000181A0020DA
:105CF0004F7C01005F7C0100F8150020FA0F0000C6
:105D000005160020797C01008C7C01009C7C010040
:105D1000AC7C0100BC7C0100D47C0100E57C01006E
:105D2000FA7C0100147D0100F90F00009416002098
:105D3000357D0100987D0100477D0100FB0F0000CB
:105D4000B77D0100C87D0100E27D0100F87D010002
:105D5000107E0100287E0100407E0100567E010079
:105D60006D7E0100887E0100A37E0100BD7E0100E2
:105D7000B4100020DC7E0100EC7E0100FE7E0100FC
:105D8000137F01008C160020577D0100677D010004
:105D9000787D0100897D010070B50600124C0D0070
:105DA0002000124908F0D2F93378DB0718D5012D0D
:105DB00006D1FF350E48013D08F028F8002DF9D135
:105DC0000C49200008F0C2F900220B490B4803F0EF
:105DD00036FA0B49200008F0B9F90A4B0A4A1A6052
:105DE0000023337070BDC046181A0020777B010075
:105DF00064030020857B0100FF0F00001C0D0020C4
:105E00009C7B0100FC15002045210000F0B50378C3
:105E100089B005900D0014005B073DD07A4E7B4998
:105E2000300008F077F90A222100300008F003FA68
:105E3000774F3D60012C00D09BE02900754803F0AE
:105E4000FFFC431E9841744B18703D680027022DDB
:105E500000D199E0042D00D1A9E0012D18D16F4B9C
:105E60006F4930001F6008F071F96E4A6E49D369BE
:105E70000B40D36101226D496D4803F0E0F90B201E
:105E8000FCF7A2FB0420FCF7E9FB0520FCF7CAFBAA
:105E900008F0CEFB674B18605F4B1B78002B63D07C
:105EA00008F0CCFB644B1860012C00D093E0002379
:105EB0000222029300936149614B5648019403F01A
:105EC000DEFC0490049B002B02D05E4B049A1A6007
:105ED0005D4F3B78002B43D018200EF095F84F4EC5
:105EE000040033680133336008F0A2FB514B574D77
:105EF0001B680422C01A00232860554920003B700B
:105F00000EF0C2F84F4F10223968201D0EF0BCF879
:105F10002B6818226361210007AB4E4803F0C0FCD8
:105F200020000EF07BF83368042B14D94A4C04226D
:105F30004749200008F0BEF810223968200008F018
:105F4000B9F804222900200008F0B4F8042207A9B7
:105F5000200008F0AFF8FCF72DFB0520FCF762FBF2
:105F6000354B1A683D4B1A600023059A137009B02F
:105F7000F0BD022C02D12900394860E7032C00D083
:105F800063E7290037485AE7244B374930001F6040
:105F900008F0DCF83549300008F0D8F82149224AE9
:105FA000CB691A40C0239B051343CB6162E7FDF721
:105FB00077FC1A4B1B4A1F60D3691B491C480B40D6
:105FC000D3611A493A0003F03AF9FCF719FB2800AB
:105FD000FCF734FB5CE7022C09D100230122029379
:105FE000019200932200164B14491D4867E7032CC9
:105FF00000D067E7002301220293019200939218D8
:106000000F4B0E4917485AE7181A00200272010078
:10601000040000200C16002007160020180D002098
:106020002672010000180040FFFFFF8FFF0F0000E5
:106030001C0D00208816002080160020080000207B
:1060400090160020001600205D030020B8100020EC
:106050004B7C01001D1100206403002084160020E9
:106060003016002054160020406E01003A720100E4
:106070000023F0B589B006930378059004911400CD
:106080009B0738D5944E9549300008F043F80A2212
:106090002100300008F0CFF8914F049B3B60012CA9
:1060A00000D0BDE019008F4803F0CAFB431E9841A1
:1060B0008D4B18703F68022F00D1BCE0042F00D137
:1060C000DBE0012F13D10022884B894930001A6090
:1060D00008F03CF8874A8849D36988480B40D36167
:1060E00087493A0003F0ABF80B20FCF76DFA08F093
:1060F0009FFA844B18607C4B1B78002B00D18AE000
:1061000008F09CFA804B1860012C00D0CAE00023F4
:106110000222029300937D497D4B7248019403F063
:10612000AEFB0500002D10D000217A4BEA7A1D60ED
:10613000794B1A70AA7A5A706A7A9A702A7ADA7047
:106140001B68764A116051609360754D2B78002B67
:106150005DD010200DF058FF644F04003B68013300
:106160003B6008F065FA674B6E4E1B686B49C01ABE
:106170006D4B1860002330002B70FDF7B7FCF37AED
:1061800006AD2B70B37A04226B70737A6749AB70DB
:10619000337A2000EB700DF077FF20005D4E069BF8
:1061A000316863600C31042208300DF06DFF5E4BE6
:1061B00010221B6821000493E3605D4807AB03F0E5
:1061C0006FFB20000DF02AFF3B68042B1AD9594CB5
:1061D00004225649200007F06DFF04222900200008
